{
  "_format": "hh-sol-artifact-1",
  "contractName": "TicketNFTArt",
  "sourceName": "contracts/nftArt/TicketNFTArt.sol",
  "abi": [
    {
      "inputs": [
        {
          "internalType": "contract IJackpot",
          "name": "_jackpot",
          "type": "address"
        }
      ],
      "stateMutability": "nonpayable",
      "type": "constructor"
    },
    {
      "inputs": [
        {
          "internalType": "uint256",
          "name": "number",
          "type": "uint256"
        }
      ],
      "name": "InvalidDigit",
      "type": "error"
    },
    {
      "inputs": [
        {
          "internalType": "uint256",
          "name": "position",
          "type": "uint256"
        }
      ],
      "name": "InvalidPosition",
      "type": "error"
    },
    {
      "inputs": [
        {
          "internalType": "address",
          "name": "owner",
          "type": "address"
        }
      ],
      "name": "OwnableInvalidOwner",
      "type": "error"
    },
    {
      "inputs": [
        {
          "internalType": "address",
          "name": "account",
          "type": "address"
        }
      ],
      "name": "OwnableUnauthorizedAccount",
      "type": "error"
    },
    {
      "anonymous": false,
      "inputs": [
        {
          "indexed": true,
          "internalType": "address",
          "name": "previousOwner",
          "type": "address"
        },
        {
          "indexed": true,
          "internalType": "address",
          "name": "newOwner",
          "type": "address"
        }
      ],
      "name": "OwnershipTransferred",
      "type": "event"
    },
    {
      "anonymous": false,
      "inputs": [
        {
          "indexed": true,
          "internalType": "uint256",
          "name": "number",
          "type": "uint256"
        },
        {
          "indexed": false,
          "internalType": "string",
          "name": "path",
          "type": "string"
        },
        {
          "indexed": false,
          "internalType": "int256",
          "name": "xOffset",
          "type": "int256"
        },
        {
          "indexed": false,
          "internalType": "int256",
          "name": "yOffset",
          "type": "int256"
        }
      ],
      "name": "PathCacheUpdated",
      "type": "event"
    },
    {
      "anonymous": false,
      "inputs": [
        {
          "indexed": true,
          "internalType": "uint256",
          "name": "position",
          "type": "uint256"
        },
        {
          "indexed": false,
          "internalType": "uint256",
          "name": "anchor",
          "type": "uint256"
        }
      ],
      "name": "PathPositionsUpdated",
      "type": "event"
    },
    {
      "inputs": [
        {
          "components": [
            {
              "internalType": "uint256",
              "name": "ticketId",
              "type": "uint256"
            },
            {
              "components": [
                {
                  "internalType": "uint256",
                  "name": "drawingId",
                  "type": "uint256"
                },
                {
                  "internalType": "uint256",
                  "name": "packedTicket",
                  "type": "uint256"
                },
                {
                  "internalType": "bytes32",
                  "name": "referralScheme",
                  "type": "bytes32"
                }
              ],
              "internalType": "struct IJackpotTicketNFT.TrackedTicket",
              "name": "ticket",
              "type": "tuple"
            },
            {
              "internalType": "uint8[]",
              "name": "normals",
              "type": "uint8[]"
            },
            {
              "internalType": "uint8",
              "name": "bonusball",
              "type": "uint8"
            }
          ],
          "internalType": "struct IJackpotTicketNFT.ExtendedTrackedTicket",
          "name": "_ticket",
          "type": "tuple"
        }
      ],
      "name": "generateTokenURI",
      "outputs": [
        {
          "internalType": "string",
          "name": "",
          "type": "string"
        }
      ],
      "stateMutability": "view",
      "type": "function"
    },
    {
      "inputs": [
        {
          "internalType": "uint256",
          "name": "_position",
          "type": "uint256"
        }
      ],
      "name": "getPathPositions",
      "outputs": [
        {
          "components": [
            {
              "internalType": "uint256",
              "name": "position",
              "type": "uint256"
            },
            {
              "internalType": "uint256",
              "name": "anchor",
              "type": "uint256"
            }
          ],
          "internalType": "struct TicketNFTArt.PathPositions",
          "name": "",
          "type": "tuple"
        }
      ],
      "stateMutability": "view",
      "type": "function"
    },
    {
      "inputs": [],
      "name": "jackpot",
      "outputs": [
        {
          "internalType": "contract IJackpot",
          "name": "",
          "type": "address"
        }
      ],
      "stateMutability": "view",
      "type": "function"
    },
    {
      "inputs": [],
      "name": "owner",
      "outputs": [
        {
          "internalType": "address",
          "name": "",
          "type": "address"
        }
      ],
      "stateMutability": "view",
      "type": "function"
    },
    {
      "inputs": [
        {
          "internalType": "uint256",
          "name": "",
          "type": "uint256"
        }
      ],
      "name": "pathCache",
      "outputs": [
        {
          "internalType": "uint256",
          "name": "number",
          "type": "uint256"
        },
        {
          "internalType": "string",
          "name": "path",
          "type": "string"
        },
        {
          "internalType": "int256",
          "name": "xOffset",
          "type": "int256"
        },
        {
          "internalType": "int256",
          "name": "yOffset",
          "type": "int256"
        }
      ],
      "stateMutability": "view",
      "type": "function"
    },
    {
      "inputs": [
        {
          "internalType": "uint256",
          "name": "",
          "type": "uint256"
        }
      ],
      "name": "pathPositions",
      "outputs": [
        {
          "internalType": "uint256",
          "name": "position",
          "type": "uint256"
        },
        {
          "internalType": "uint256",
          "name": "anchor",
          "type": "uint256"
        }
      ],
      "stateMutability": "view",
      "type": "function"
    },
    {
      "inputs": [],
      "name": "renounceOwnership",
      "outputs": [],
      "stateMutability": "nonpayable",
      "type": "function"
    },
    {
      "inputs": [
        {
          "internalType": "address",
          "name": "newOwner",
          "type": "address"
        }
      ],
      "name": "transferOwnership",
      "outputs": [],
      "stateMutability": "nonpayable",
      "type": "function"
    },
    {
      "inputs": [
        {
          "components": [
            {
              "internalType": "uint256",
              "name": "number",
              "type": "uint256"
            },
            {
              "internalType": "string",
              "name": "path",
              "type": "string"
            },
            {
              "internalType": "int256",
              "name": "xOffset",
              "type": "int256"
            },
            {
              "internalType": "int256",
              "name": "yOffset",
              "type": "int256"
            }
          ],
          "internalType": "struct TicketNFTArt.PathCache[]",
          "name": "_pathCaches",
          "type": "tuple[]"
        }
      ],
      "name": "updatePathCaches",
      "outputs": [],
      "stateMutability": "nonpayable",
      "type": "function"
    },
    {
      "inputs": [
        {
          "components": [
            {
              "internalType": "uint256",
              "name": "position",
              "type": "uint256"
            },
            {
              "internalType": "uint256",
              "name": "anchor",
              "type": "uint256"
            }
          ],
          "internalType": "struct TicketNFTArt.PathPositions[]",
          "name": "_pathPositions",
          "type": "tuple[]"
        }
      ],
      "name": "updatePathPositions",
      "outputs": [],
      "stateMutability": "nonpayable",
      "type": "function"
    }
  ],
  "bytecode": "0x60a0346100d657601f615f6338819003918201601f19168301916001600160401b038311848410176100da578084926020946040528339810103126100d657516001600160a01b03811681036100d65733156100c3575f8054336001600160a01b0319821681178355604051939290916001600160a01b0316907f8be0079c531659141344cd1fd0a4f28419497f9722a3daafe3b4186f6b6457e09080a3608052615e7490816100ef82396080518181816106ab01528181613ba90152613e7e0152f35b631e4fbdf760e01b5f525f60045260245ffd5b5f80fd5b634e487b7160e01b5f52604160045260245ffdfe60806040526004361015610011575f80fd5b5f3560e01c806310def5cb1461082f57806357402bd5146107d257806369ba15c2146106da5780636b31ee0114610696578063715018a61461063f5780637b1c08ec1461060c5780638da5cb5b146105e5578063ab3fc2dd1461046d578063f2fde38b146103e45763fb1dfad614610087575f80fd5b346103e05760203660031901126103e0576004356001600160401b0381116103e057366023820112156103e05780600401356100c281613a5d565b916100d06040519384613a3c565b8183526024602084019260051b820101903682116103e05760248101925b82841061032857846100fe6143bc565b5f905b80518210156103265760096101168383613b5a565b515111610308576101278282613b5a565b51916101338183613b5a565b51515f52600160205260405f20835181556001810160208501518051906001600160401b0382116102f4576101688354613aa6565b601f81116102af575b50602090601f831160011461024557928260609360019899936003965f9261023a575b50505f1982871b1c191690881b1790555b6040810151600285015501519101556101be8184613b5a565b51517ffdd87f322922257841f326719d745065430938a2ac6945a9c22bc372c0d123f661022560206101f08588613b5a565b51015160406101ff8689613b5a565b510151606061020e878a613b5a565b510151604051938493606085526060850190613a82565b91602084015260408301520390a20190610101565b015190508a80610194565b90601f19831691845f52815f20925f5b8181106102975750936001989993600396938a938360609810610280575b505050811b0190556101a5565b01515f1983891b60f8161c191690558a8080610273565b82840151855560019094019360209384019301610255565b835f5260205f20601f840160051c810191602085106102ea575b601f0160051c01905b8181106102df5750610171565b5f81556001016102d2565b90915081906102c9565b634e487b7160e01b5f52604160045260245ffd5b9061031291613b5a565b5151630eecba3360e01b5f5260045260245ffd5b005b83356001600160401b0381116103e057820190608060231983360301126103e0576040519061035682613a06565b6024830135825260448301356001600160401b0381116103e0576024908401019136601f840112156103e05782359261038e84613ade565b9461039c6040519687613a3c565b84865236602086840101116103e0576020955f87878198826084970183860137830101528584015260648101356040840152013560608201528152019301926100ee565b5f80fd5b346103e05760203660031901126103e0576004356001600160a01b038116908190036103e0576104126143bc565b801561045a575f80546001600160a01b03198116831782556001600160a01b0316907f8be0079c531659141344cd1fd0a4f28419497f9722a3daafe3b4186f6b6457e09080a3005b631e4fbdf760e01b5f525f60045260245ffd5b346103e05760203660031901126103e0576004356001600160401b0381116103e057366023820112156103e05780600401356104a881613a5d565b916104b66040519384613a3c565b8183526024602084019260061b820101903682116103e057602401915b8183106105b457836104e36143bc565b5f5b8151811015610326576104f88183613b5a565b515115801561059f575b610582578061051360019284613b5a565b5161051e8285613b5a565b51515f52600260205282602060405f20928051845501519101556105428184613b5a565b51517f2cb0f6d6159ab12cd2e7dc3eb281de09755c183bd702792f73bff69799a642116020806105728588613b5a565b510151604051908152a2016104e5565b61058b91613b5a565b5151631b1862a360e21b5f5260045260245ffd5b5060066105ac8284613b5a565b515111610502565b6040833603126103e057602060409182516105ce81613a21565b8535815282860135838201528152019201916104d3565b346103e0575f3660031901126103e0575f546040516001600160a01b039091168152602090f35b346103e05760203660031901126103e0576004355f5260026020526040805f206001815491015482519182526020820152f35b346103e0575f3660031901126103e0576106576143bc565b5f80546001600160a01b0319811682556001600160a01b03167f8be0079c531659141344cd1fd0a4f28419497f9722a3daafe3b4186f6b6457e08280a3005b346103e0575f3660031901126103e0576040517f00000000000000000000000000000000000000000000000000000000000000006001600160a01b03168152602090f35b346103e05760203660031901126103e0576004355f52600160205260405f208054600182019160405192835f82549261071284613aa6565b80845293600181169081156107b0575060011461076c575b5061073792500384613a3c565b6003600282015491015461075d6040519485948552608060208601526080850190613a82565b91604084015260608301520390f35b90505f9291925260205f20905f915b818310610794575050906020610737928201018661072a565b6020919350806001915483858a0101520191019091859261077b565b90506020925061073794915060ff191682840152151560051b8201018661072a565b346103e05760203660031901126103e0575f60206040516107f281613a21565b82815201526004355f5260026020526040805f20815161081181613a21565b60206001835493848452015491019081528251918252516020820152f35b346103e05760203660031901126103e0576004356001600160401b0381116103e05780360360c06003198201126103e05760609061086d6080613a06565b600483013560805260231901126103e057604051606081018181106001600160401b038211176102f45760405260248201358152604482013560208201526064820135604082015260206080015260848101356001600160401b0381116103e0578101366023820112156103e0576004810135906108ea82613a5d565b916108f86040519384613a3c565b808352602060048185019260051b84010101913683116103e057602401905b8282106139ee5750505060c0526109309060a401613a74565b60e052604051611060906109448282613a3c565b61102181527f3c73766720786d6c6e733d22687474703a2f2f7777772e77332e6f72672f3230602082019081527f30302f737667222077696474683d2234363022206865696768743d223436302260408301527f2066696c6c3d226e6f6e65222076696577426f783d223020302034363020343660608301527f30223e3c672066696c7465723d2275726c28236129223e3c6d61736b2069643d60808301527f2262222077696474683d2232343022206865696768743d223238302220783d2260a08301527f3131302220793d22393022206d61736b556e6974733d2275736572537061636560c0808401919091527f4f6e55736522207374796c653d226d61736b2d747970653a616c706861223e3c60e08401527f706174682066696c6c3d22236666662220643d224d33333420393063382e38336101008401527f37203020313620372e313633203136203136763137322e303335632d362e31396101208401527f362e3437312d31312e30373720352e3634382d31312e3037372031312e3936356101408401527f73342e3838312031312e3439342031312e3037372031312e39363556333534636101608401527f3020382e3833372d372e3136332031362d313620313648313236632d382e38336101808401527f3720302d31362d372e3136332d31362d3136762d35322e303335712e3435372e6101a08401527f3033352e3932332e30333563362e36323720302031322d352e3337332031322d6101c08401527f3132732d352e3337332d31322d31322d3132712d2e34363620302d2e3932332e6101e08401527f3033355631303663302d382e38333720372e3136332d31362031362d31367a226102008401527f2f3e3c2f6d61736b3e3c67206d61736b3d2275726c28236229223e3c706174686102208401527f2066696c6c3d22236666662220643d224d3131302039306832343076323030486102408401527f3131307a222f3e3c706174682066696c6c3d22233762376638612220643d224d6102608401527f3132362e37393220313136762d382e353268312e3539366c322e353820362e316102808401527f32762d362e313268312e343456313136682d312e3539366c2d322e35382d362e6102a084018190527f3132563131367a6d31302e3030332e313932712d312e333820302d322e31362d6102c085018190527f2e3831362d2e3736382d2e3832382d2e3736382d322e333238762d352e3536386102e086018190527f68312e34383876352e3636347130202e3831362e333620312e32362e3337322e61030087018190527f34343420312e30382e34343474312e3036382d2e343434712e3337322d2e343461032088018190527f342e3337322d312e3236762d352e36363468312e34383876352e35363871302061034089018190527f312e352d2e373820322e3332382d2e3736382e3831362d322e3134382e3831366103608a018190527f6d362e3730342d312e3239362d312e3334342d352e3539322e31382d2e3032346103808b01527f56313136682d312e333932762d382e353268312e386c312e34373620352e39326103a08b01527f38682d2e3435366c312e3437362d352e39323868312e3856313136682d312e336103c08b01527f3932762d362e37326c2e31382e3032342d312e33343420352e3539327a6d342e6103e08b01527f39393920312e313034762d382e353268322e35343471312e343136203020322e6104008b01527f31362e362e3734342e3538382e37343420312e3730342030202e3531362d2e326104208b01527f342e39333661312e3720312e372030203020312d2e3639362e3636712d2e34356104408b01527f362e32342d312e3132382e323736762d2e303834712e3831362e30323420312e6104608b01527f3334342e3238382e35342e3236342e3830342e3733322e3237362e3435362e326104808b01527f373620312e303536203020312e31342d2e373820312e3735322d2e37382e362d6104a08b01527f322e3230382e367a6d312e3437362d312e33343468312e333434712e3734342d6104c08b01527f2e30313220312e3039322d2e332e33362d2e332e33362d2e38323820302d2e356104e08b01527f36342d2e3337322d2e3837362d2e33362d2e3331322d312e30382d2e333132686105008b01527f2d312e3334347a6d302d332e36333668312e303638712e373038203020312e306105208b01527f33322d2e3238382e3333362d2e3238382e3333362d2e383136742d2e3333362d6105408b01527f2e383034712d2e3332342d2e3238382d312e3033322d2e323838682d312e30366105608b01527f387a6d352e38333920342e3938762d382e353268352e323876312e333638682d6105808b01527f332e37393276322e323268332e36343876312e3332682d332e36343876322e326105a08b01527f343468332e383838563131367a6d362e3933322030762d382e353268322e37716105c08b01527f312e333638203020322e3134382e363834742e373820312e3837327130202e366105e08b01527f31322d2e32373620312e303861322e303420322e30342030203020312d2e37306106008b01527f382e373434712d2e3434342e3236342d2e3937322e336c2d2e3034382d2e31356106208b01527f36712e3932342e30333620312e33382e3430382e3435362e33362e35323820316106408b01527f2e3138386c2e32303420322e34682d312e3438386c2d2e31382d322e303532716106608b01527f2d2e3033362d2e3435362d2e31382d2e373038612e372e372030203020302d2e6106808b01527f34322d2e333438712d2e3237362d2e3039362d2e3736382d2e303936682d312e6106a08b01527f323132563131367a6d312e3438382d342e35373268312e313736712e363936206106c08b01527f3020312e3035362d2e3333362e3337322d2e3333362e3337322d2e3936742d2e6106e08b01527f3337322d2e393438712d2e33362d2e3333362d312e3035362d2e333336682d316107008b01527f2e3137367a6d382e36323320342e373634712d2e39333620302d312e3633322d6107208b01527f2e33373261322e373720322e37372030203020312d312e30382d312e303434716107408b01527f2d2e3339362d2e3638342d2e3436382d312e3630386c312e3531322d2e3038346107608b01527f712e3038342e3538382e332e3938342e3232382e3338342e3538382e3538382e6107808b01527f3337322e3139322e3835322e3139322e3435362030202e3736382d2e31322e336107a08b01527f32342d2e31322e3439322d2e3336612e39382e3938203020302030202e3136386107c08b01527f2d2e35373671302d2e33362d2e3136382d2e363234742d2e362d2e3439322d316107e08b01527f2e3233362d2e343434712d2e3836342d2e3232382d312e3431362d2e353238746108008b01527f2d2e3831362d2e373434712d2e3236342d2e3435362d2e3236342d312e3134206108208b01527f302d2e3736382e3333362d312e3333322e3334382d2e3537362e3939362d2e386108408b01527f38382e36362d2e33313220312e3537322d2e3331322e39203020312e3533362e6108608b01527f3334382e3633362e3333362e3939362e3937322e3337322e3632342e343536206108808b01527f312e3438386c2d312e3532342e30373261322e3220322e322030203020302d2e6108a08b01527f3235322d2e38303420312e3320312e332030203020302d2e3530342d2e3534716108c08b01527f2d2e3331322d2e3139322d2e3736382d2e3139322d2e36313220302d2e3937326108e08b01527f2e333132612e39382e39382030203020302d2e33362e3739327130202e3334386109008b01527f2e3135362e3537362e3136382e3232382e3536342e34303874312e3131362e336109208b01527f36712e3939362e32363420312e3537322e3632342e3538382e33362e38342e386109408b01527f3634742e32353220312e3138387130202e3733322d2e33373220312e323834616109608b01527f322e3420322e342030203020312d312e3034342e383532712d2e3637322e332d6109808b01527f312e3539362e334d3239382e39313220313136762d382e353268322e353434716109a08b01527f312e343136203020322e31362e362e3734342e3538382e37343420312e3730346109c08b01527f2030202e3531362d2e32342e39333661312e3720312e372030203020312d2e366109e08b01527f39362e3636712d2e3435362e32342d312e3132382e323736762d2e303834712e610a008b01527f3831362e30323420312e3334342e3238382e35342e3236342e3830342e373332610a208b01527f2e3237362e3435362e32373620312e303536203020312e31342d2e373820312e610a408b01527f3735322d2e37382e362d322e3230382e367a6d312e3437362d312e3334346831610a608b01527f2e333434712e3734342d2e30313220312e3039322d2e332e33362d2e332e3336610a808b01527f2d2e38323820302d2e3536342d2e3337322d2e3837362d2e33362d2e3331322d610aa08b01527f312e30382d2e333132682d312e3334347a6d302d332e36333668312e30363871610ac08b01527f2e373038203020312e3033322d2e3238382e3333362d2e3238382e3333362d2e610ae08b01527f383136742d2e3333362d2e383034712d2e3332342d2e3238382d312e3033322d610b008b01527f2e323838682d312e3036387a6d382e34303720352e313732712d312e30322030610b208b01527f2d312e37342d2e3531362d2e3730382d2e3531362d312e30382d312e35313274610b408b01527f2d2e3337322d322e34313271302d312e34342e3337322d322e34333674312e30610b608b01527f382d312e353132712e37322d2e35313620312e37342d2e35313674312e373238610b808b01527f2e353136712e37322e35313620312e30393220312e353132742e33373220322e610ba08b01527f343336713020312e3431362d2e33373220322e343132742d312e30393220312e610bc08b01527f353132712d2e3730382e3531362d312e3732382e3531366d302d312e33343471610be08b01527f2e35342030202e3931322d2e333336742e3535322d312e3032712e3139322d2e610c008b01527f3639362e3139322d312e3734742d2e3139322d312e3734712d2e31382d2e3639610c208b01527f362d2e3535322d312e30333261312e323920312e32392030203020302d2e3931610c408b01527f322d2e333438712d2e353420302d2e3931322e3334382d2e3337322e3333362d610c608b01527f2e35363420312e3033322d2e31382e3639362d2e313820312e3734742e313820610c808b01527f312e3734712e3139322e3638342e35363420312e3032742e3931322e3333366d610ca08b01527f342e33383820312e313532762d382e353268312e3539366c322e353820362e31610cc08b0152610ce08a0196909652610d00890194909452610d20880192909252610d40870152610d60860152610d80850152610da08401527f6d372e3237392030712d2e39333620302d312e3633322d2e33373261322e3737610dc08401527f20322e37372030203020312d312e30382d312e303434712d2e3339362d2e3638610de08401527f342d2e3436382d312e3630386c312e3531322d2e303834712e3038342e353838610e008401527f2e332e3938342e3232382e3338342e3538382e3538382e3337322e3139322e38610e208401527f35322e3139322e3435362030202e3736382d2e31322e3332342d2e31322e3439610e408401527f322d2e3336612e39382e3938203020302030202e3136382d2e35373671302d2e610e608401527f33362d2e3136382d2e363234742d2e362d2e3439322d312e3233362d2e343434610e808401527f712d2e3836342d2e3232382d312e3431362d2e353238742d2e3831362d2e3734610ea08401527f34712d2e3236342d2e3435362d2e3236342d312e313420302d2e3736382e3333610ec08401527f362d312e3333322e3334382d2e3537362e3939362d2e3838382e36362d2e3331610ee08401527f3220312e3537322d2e3331322e39203020312e3533362e3334382e3633362e33610f008401527f33362e3939362e3937322e3337322e3632342e34353620312e3438386c2d312e610f208401527f3532342e30373261322e3220322e322030203020302d2e3235322d2e38303420610f408401527f312e3320312e332030203020302d2e3530342d2e3534712d2e3331322d2e3139610f608401527f322d2e3736382d2e3139322d2e36313220302d2e3937322e333132612e39382e610f808401527f39382030203020302d2e33362e3739327130202e3334382e3135362e3537362e610fa08401527f3136382e3232382e3536342e34303874312e3131362e3336712e3939362e3236610fc08401527f3420312e3537322e3632342e3538382e33362e38342e383634742e3235322031610fe08401527f2e3138387130202e3733322d2e33373220312e32383461322e3420322e3420306110008401527f203020312d312e3034342e383532712d2e3637322e332d312e3539362e33222f611020840152601f60f91b61104084015251909290611c3790613af9565b5160ff16611c4490614466565b60c051611c5090613b1a565b5160ff16611c5d90614a3c565b60c051611c6990613b2a565b5160ff16611c7690614d59565b60c051611c8290613b3a565b5160ff16611c8f90615076565b60c051611c9b90613b4a565b5160ff16611ca890615393565b9060405192611cb860a085613a3c565b606f84527f3c6720646174612d6669676d612d62672d626c75722d7261646975733d223430602085019081527f223e3c726563742077696474683d22323322206865696768743d22323322207860408601527f3d223331302e352220793d223132362e3522207374726f6b653d22233131313860608601526e191b9110393c1e911898971a91179f60891b608086015260e051909590611d5a9060ff166156b0565b966113409860405199611d6d908b613a3c565b6113068a527f3c2f673e3c6d61736b2069643d2264222066696c6c3d2223666666223e3c70616020808c01919091527f746820643d224d3131302032393068323430763830483131307a222f3e3c2f6d6040808d01919091527f61736b3e3c706174682066696c6c3d22236666662220643d224d31313020323960608d01527f3068323430763830483131307a222f3e3c706174682066696c6c3d222366306660808d01527f3066302220643d224d33353020323930762d2e35682d32763168327a6d2d362060a08d01527f30762d2e35682d34763168347a6d2d382030762d2e35682d34763168347a6d2d60c08d01527f382030762d2e35682d34763168347a6d2d382030762d2e35682d34763168347a60e08d01527f6d2d382030762d2e35682d34763168347a6d2d382030762d2e35682d347631686101008d01527f347a6d2d382030762d2e35682d34763168347a6d2d382030762d2e35682d34766101208d01527f3168347a6d2d382030762d2e35682d34763168347a6d2d382030762d2e35682d6101408d01527f34763168347a6d2d382030762d2e35682d34763168347a6d2d382030762d2e356101608d01527f682d34763168347a6d2d382030762d2e35682d34763168347a6d2d382030762d6101808d01527f2e35682d34763168347a6d2d382030762d2e35682d34763168347a6d2d3820306101a08d01527f762d2e35682d34763168347a6d2d382030762d2e35682d34763168347a6d2d386101c08d01527f2030762d2e35682d34763168347a6d2d382030762d2e35682d34763168347a6d6101e08d01527f2d382030762d2e35682d34763168347a6d2d382030762d2e35682d34763168346102008d01527f7a6d2d382030762d2e35682d34763168347a6d2d382030762d2e35682d3476316102208d01527f68347a6d2d382030762d2e35682d34763168347a6d2d382030762d2e35682d346102408d01527f763168347a6d2d382030762d2e35682d34763168347a6d2d382030762d2e35686102608d01527f2d34763168347a6d2d382030762d2e35682d34763168347a6d2d382030762d2e6102808d01527f35682d34763168347a6d2d382030762d2e35682d32763168327a6d32333820306102a08d01527f762d31682d32763268327a6d2d362030762d31682d34763268347a6d2d3820306102c08d01527f762d31682d34763268347a6d2d382030762d31682d34763268347a6d2d3820306102e08d018190526103008d018190526103208d018190526103408d018190526103608d018190526103808d018190526103a08d018190526103c08d018190526103e08d018190526104008d018190526104208d018190526104408d018190526104608d018190526104808d01527f762d31682d32763268327a22206d61736b3d2275726c28236429222f3e3c67206104a08d01527f636c69702d706174683d2275726c28236529223e3c6d61736b2069643d2266226104c08d01527f2077696474683d2231303722206865696768743d2232302220783d22313236226104e08d01527f20793d2233323022206d61736b556e6974733d227573657253706163654f6e556105008d01527f736522207374796c653d226d61736b2d747970653a6c756d696e616e6365223e6105208d01527f3c706174682066696c6c3d22236666662220643d224d323333203332304831326105408d01527f36763230683130377a222f3e3c2f6d61736b3e3c672066696c6c3d22233131316105608d01527f38323722206d61736b3d2275726c28236629223e3c7061746820643d226d31356105808d01527f392e303336203332342e31353420312e3036342d332e373135682d31302e32316105a08d01527f396c2d352e3437352031392e3136346831302e3231396c312e3036332d332e376105c08d01527f3135682d352e3236326c312e3233352d342e333368342e3335396c312e30352d6105e08d01527f332e373239682d342e3335396c312e3036332d332e3637357a4d3137322e33396106008d01527f33203332322e383235712d2e3539312d312e3330332d322e3031332d322e30316106208d01527f31742d332e3533352d2e373039712d312e39353320302d332e3336382e3635356106408d01527f742d322e33303620312e383034712d2e383920312e31352d312e33323820322e6106608d01527f3731336c2d312e39353420362e393632712d2e363920322e33382d2e323139206106808d01527f342e3130392e34373120312e37333120322e30323620322e363674342e3039336106a08d01527f2e39323971312e353638203020322e3938332d2e33373420312e3431362d2e336106c08d01527f373520322e3334362d2e3936326c322e3633312d392e333135682d362e3932336106e08d01527f6c2d312e303120332e35353568322e3131326c2d2e383720332e3033336133206107008d01527f332030203020312d2e3235392e303838712d2e3335392e312d2e3735372e312d6107208d01527f2e36313220302d312e3030342d2e32383161312e323720312e323720302030206107408d01527f312d2e3530352d2e373839712d2e3131322d2e3530372e3038372d312e3232396107608d01527f6c322e3335322d382e323435712e31362d2e3533352e3335382d2e3838392e326107808d01527f2d2e3335342e3438362d2e3532382e3238352d2e3137332e3638342d2e3137346107a08d01527f2e3637382030202e39332e343438742e303820312e3139366c2d2e34353220316107c08d01527f2e353968352e3232326c2e3335382d312e323936712e3334362d312e3733372d6107e08d01527f2e3234362d332e30347a4d3137382e323831203332302e3433396c2d382e36366108008d01527f342031392e31363468352e3138336c312e3537382d332e39313668322e3639336108208d01527f6c2d2e36333120332e39313668352e30356c322e3132362d31392e3136347a6d6108408d01527f312e3431312031312e343533682d312e3737386c322e3934332d372e32382d316108608d01527f2e31363620372e32387a4d3230302e3137203332332e3538712d2e332d312e346108808d01527f39372d312e3434392d322e333139742d332e3130322d2e383232682d352e35366108a08d01527f386c2d352e3437352031392e31363468342e3935376c312e39342d362e3830326108c08d01527f68312e30373671322e3036203020332e3438392d2e35373561352e3620352e366108e08d01527f20302030203020322e3335382d312e373537712e39332d312e31383320312e346109008d01527f33352d332e3034316c2e3039332d2e3336712e3534352d312e3939312e3234366109208d01527f2d332e3438386d2d342e393520322e3635392d2e3236362e393232712d2e33326109408d01527f20312e3132322d2e383320312e3633372d2e3531332e3531352d312e3337362e6109608d01527f353135682d2e3237396c312e3534322d352e333939682e323635712e353138206109808d01527f30202e3830342e32342e3238352e3234322e3332362e3736322e3033392e35326109a08d01527f322d2e31383620312e3332334d3232312e333733203332302e3433396c2d312e6109c08d01527f31343320342e30323368332e3333356c2d342e3333322031352e31343168342e6109e08d01527f3935376c342e3331382d31352e31343168332e3333366c312e3135362d342e30610a008d01527f32337a4d3134312e353437203332302e3433396c2d352e30372031312e373238610a208d01527f20312e3634322d31312e373238682d362e3634344c313236203333392e363033610a408d01527f68342e3339386c332e3339322d31312e3836392d312e3437382031312e383639610a608d01527f68342e3137326c352e3334382d31322e3039362d332e3436312031322e303936610a808d01527f68342e3433386c352e3437352d31392e3136347a222f3e3c7061746820643d22610aa08d01527f4d3231302e34313220333230632d352e34393120302d392e39343320342e3437610ac08d01527f372d392e39343320313073342e34353220313020392e39343320313063352e34610ae08d01527f3932203020392e3934342d342e34373720392e3934342d3130732d342e343532610b008d01527f2d31302d392e3934342d31306d322e3838322031382e353733632d312e353539610b208d01527f2d342e3038382d362e3439382d352e3634392d31302e3130322d332e31393220610b408d01527f332e3338342d322e37353520332e3333342d372e3936322d2e3130332d31302e610b608d01527f363520332e363520322e33383620382e3535392e3732392031302e3033392d33610b808d01527f2e3338392d312e31323820342e32323920312e39353620382e34313220362e33610ba08d01527f303720382e3535352d342e3334382e3232382d372e333520342e34372d362e31610bc08d01527f343120382e363736222f3e3c2f673e3c2f673e3c2f673e3c2f673e3c64656673610be08d01527f3e3c636c6970506174682069643d226322207472616e73666f726d3d22747261610c008d01527f6e736c617465282d323730202d383629223e3c726563742077696474683d2232610c208d01527f3322206865696768743d2232332220783d223331302e352220793d223132362e610c408d01527f35222072783d2231312e35222f3e3c2f636c6970506174683e3c636c69705061610c608d01527f74682069643d2265223e3c706174682066696c6c3d22236666662220643d224d610c808d01527f3132362033323068313037763230483132367a222f3e3c2f636c697050617468610ca08d01527f3e3c66696c7465722069643d2261222077696474683d22323838222068656967610cc08d01527f68743d223332382220783d2238362220793d2236382220636f6c6f722d696e74610ce08d01527f6572706f6c6174696f6e2d66696c746572733d2273524742222066696c746572610d008d01527f556e6974733d227573657253706163654f6e557365223e3c6665466c6f6f6420610d208d01527f666c6f6f642d6f7061636974793d22302220726573756c743d224261636b6772610d408d01527f6f756e64496d616765466978222f3e3c6665436f6c6f724d617472697820696e610d608d01527f3d22536f75726365416c7068612220726573756c743d2268617264416c706861610d808d01527f222076616c7565733d2230203020302030203020302030203020302030203020610da08d01527f30203020302030203020302030203132372030222f3e3c66654f666673657420610dc08d01527f64793d2232222f3e3c6665476175737369616e426c7572207374644465766961610de08d01527f74696f6e3d223132222f3e3c6665436f6d706f7369746520696e323d22686172610e008d01527f64416c70686122206f70657261746f723d226f7574222f3e3c6665436f6c6f72610e208d01527f4d61747269782076616c7565733d223020302030203020302030203020302030610e408d01527f20302030203020302030203020302030203020302e30342030222f3e3c666542610e608d01527f6c656e6420696e323d224261636b67726f756e64496d61676546697822207265610e808d01527f73756c743d22656666656374315f64726f70536861646f775f383131305f3738610ea08d01527f383832222f3e3c6665436f6c6f724d617472697820696e3d22536f7572636541610ec08d01527f6c7068612220726573756c743d2268617264416c706861222076616c7565733d610ee08d01527f2230203020302030203020302030203020302030203020302030203020302030610f008d01527f20302030203132372030222f3e3c66654f66667365742064793d2234222f3e3c610f208d01527f6665476175737369616e426c757220737464446576696174696f6e3d2232222f610f408d01527f3e3c6665436f6d706f7369746520696e323d2268617264416c70686122206f70610f608d01527f657261746f723d226f7574222f3e3c6665436f6c6f724d61747269782076616c610f808d01527f7565733d22302030203020302030203020302030203020302030203020302030610fa08d01527f203020302030203020302e30312030222f3e3c6665426c656e6420696e323d22610fc08d01527f656666656374315f64726f70536861646f775f383131305f3738383832222072610fe08d01527f6573756c743d22656666656374325f64726f70536861646f775f383131305f376110008d01527f38383832222f3e3c6665436f6c6f724d617472697820696e3d22536f757263656110208d01527f416c7068612220726573756c743d2268617264416c706861222076616c7565736110408d01527f3d22302030203020302030203020302030203020302030203020302030203020928c01929092527f3020302030203132372030222f3e3c66654f66667365742064793d2232222f3e6110808c01527f3c6665476175737369616e426c757220737464446576696174696f6e3d2231226110a08c01527f2f3e3c6665436f6d706f7369746520696e323d2268617264416c70686122206f6110c08c01527f70657261746f723d226f7574222f3e3c6665436f6c6f724d61747269782076616110e08c01527f6c7565733d2230203020302030203020302030203020302030203020302030206111008c01527f30203020302030203020302e30312030222f3e3c6665426c656e6420696e323d6111208c01527f22656666656374325f64726f70536861646f775f383131305f373838383222206111408c01527f726573756c743d22656666656374335f64726f70536861646f775f383131305f6111608c01527f3738383832222f3e3c6665436f6c6f724d617472697820696e3d22536f7572636111808c01527f65416c7068612220726573756c743d2268617264416c706861222076616c75656111a08c01527f733d2230203020302030203020302030203020302030203020302030203020306111c08c01527f203020302030203132372030222f3e3c66654f66667365742f3e3c6665436f6d6111e08c01527f706f7369746520696e323d2268617264416c70686122206f70657261746f723d6112008c01527f226f7574222f3e3c6665436f6c6f724d61747269782076616c7565733d2230206112208c01527f30203020302030203020302030203020302030203020302030203020302030206112408c01527f3020302e30352030222f3e3c6665426c656e6420696e323d22656666656374336112608c01527f5f64726f70536861646f775f383131305f37383838322220726573756c743d226112808c01527f656666656374345f64726f70536861646f775f383131305f3738383832222f3e6112a08c01527f3c6665426c656e6420696e3d22536f75726365477261706869632220696e323d6112c08c01527f22656666656374345f64726f70536861646f775f383131305f373838383222206112e08c01527f726573756c743d227368617065222f3e3c2f66696c7465723e3c2f646566733e6113008c0152651e17b9bb339f60d11b6113208c015290519a519a9b8c9b918291908d015e8a0160208101915f83528051926020849201905e016020015f815281516020819301825e015f815281516020819301825e015f815281516020819301825e015f815281516020819301825e01905f8252518092825e015f815281516020819301825e015f815281516020819301825e015f815203601f19810182526133ad9082613a3c565b6133b76080613b97565b9190608060200151516133c990613e60565b92608060200151516133da9061420d565b946133e490614355565b92608060200151516133f590613e60565b92608060200151516134069061420d565b9260806040015161341690613af9565b5160ff166134239061420d565b60c05161342f90613b1a565b5160ff1661343c9061420d565b60c05161344890613b2a565b5160ff166134559061420d565b9060806040015161346590613b3a565b5160ff166134729061420d565b9260806040015161348290613b4a565b5160ff1661348f9061420d565b9460806060015160ff166134a29061420d565b9688156139df576134b29061420d565b975b156139d0576134c29061420d565b975b6080516134d09061420d565b99608060200151604001516134e49061420d565b9b6040519e8f9e8f602081017f7b226e616d65223a20224d656761706f74205469636b657420666f7220000000905281516020819301603d83015e01603d81017f222c20226465736372697074696f6e223a202241207469636b657420666f72209052605d81017f4d656761706f74204c6f74746572792044726177696e67202300000000000000905281516020819301607683015e01603d01603981017f2e20436865636b20726573756c7473206174206d656761706f742e696f222c209052605981017f22696d616765223a2022646174613a696d6167652f7376672b786d6c3b62617390526079810163194d8d0b60e21b905281516020819301607d83015e01603901604481017f222c202261747472696275746573223a205b7b2274726169745f74797065223a9052606481017f202244726177696e672044617465222c202276616c7565223a20220000000000905281516020819301607f83015e01604401603b81017f227d2c207b2274726169745f74797065223a202244726177696e67204944222c90526a10113b30b63ab2911d101160a91b605b82015281516020819301606683015e01603b01602b81015f516020615d5f5f395f51905f5290526d18911610113b30b63ab2911d101160911b604b82015281516020819301605983015e01602b01602e81015f516020615d5f5f395f51905f5290526d19111610113b30b63ab2911d101160911b604e82015281516020819301605c83015e01602e01602e81015f516020615d5f5f395f51905f5290526d19911610113b30b63ab2911d101160911b604e82015281516020819301605c83015e01602e01602e81015f516020615d5f5f395f51905f5290526d1a111610113b30b63ab2911d101160911b604e82015281516020819301605c83015e01602e01602e81015f516020615d5f5f395f51905f5290526d1a911610113b30b63ab2911d101160911b604e82015281516020819301605c83015e01602e01602e81017f227d2c207b2274726169745f74797065223a2022426f6e75732042616c6c222c90526a10113b30b63ab2911d101160a91b604e82015281516020819301605983015e01602e01602b81017f227d2c207b2274726169745f74797065223a202254696572222c202276616c7590526432911d101160d91b604b82015281516020819301605083015e01602b01602581017f227d2c207b2274726169745f74797065223a202257696e20416d6f756e74222c90526a10113b30b63ab2911d101160a91b604582015281516020819301605083015e01602501602b81017f227d2c207b2274726169745f74797065223a20225469636b6574204964222c20905269113b30b63ab2911d101160b11b604b82015281516020819301605583015e01602b01602a81017f227d2c207b2274726169745f74797065223a2022526566657272616c2053636890527232b6b29024b2111610113b30b63ab2911d101160691b604a82015281516020819301605d83015e01602a0163227d5d7d60e01b603382015203603301601b19810182526004016139579082613a3c565b61396090614355565b6040518091602082017f646174613a6170706c69636174696f6e2f6a736f6e3b6261736536342c000000905280516020819201603d84015e8101603d81015f905203603d01601f19810182526139b69082613a3c565b604051809160208252602082016139cc91613a82565b0390f35b506139d9613b6e565b976134c4565b506139e8613b6e565b976134b4565b602080916139fb84613a74565b815201910190610917565b608081019081106001600160401b038211176102f457604052565b604081019081106001600160401b038211176102f457604052565b90601f801991011681019081106001600160401b038211176102f457604052565b6001600160401b0381116102f45760051b60200190565b359060ff821682036103e057565b805180835260209291819084018484015e5f828201840152601f01601f1916010190565b90600182811c92168015613ad4575b6020831014613ac057565b634e487b7160e01b5f52602260045260245ffd5b91607f1691613ab5565b6001600160401b0381116102f457601f01601f191660200190565b805115613b065760200190565b634e487b7160e01b5f52603260045260245ffd5b805160011015613b065760400190565b805160021015613b065760600190565b805160031015613b065760800190565b805160041015613b065760a00190565b8051821015613b065760209160051b010190565b60405190613b7d604083613a3c565b600b82526a139bdd0814d95d1d1b195960aa1b6020830152565b604051631380204360e31b81526001927f00000000000000000000000000000000000000000000000000000000000000006001600160a01b0316929091602081600481875afa908115613e47575f91613e15575b5060208201908151511015613e08576040908151613c098382613a3c565b600181526020810193601f19840136863751613c2482613af9565b528251632ccad9c360e21b815260206004820152905160248201819052909384916044830191905f5b818110613def5750505090805f920381885afa928315613de5575f93613d50575b50610180905151602483518097819363d70ab9d160e01b835260048301525afa938415613d46575f94613cbb575b5050613ca790613af9565b5191600c831015613b06578260051b015190565b909193506101803d8111613d3f575b613cd48183613a3c565b810190610180818303126103e05781601f820112156103e0578251926101808401908482106001600160401b038311176102f45752829061018081019283116103e057905b828210613d2f57505050613ca79092905f613c9c565b8151815260209182019101613d19565b503d613cca565b50513d5f823e3d90fd5b9092503d805f833e613d628183613a3c565b8101906020818303126103e0578051906001600160401b0382116103e057019080601f830112156103e0578151613d9881613a5d565b92613da585519485613a3c565b81845260208085019260051b8201019283116103e057602001905b828210613dd557505050610180909290613c6e565b8151815260209182019101613dc0565b82513d5f823e3d90fd5b8251845287945060209384019390920191600101613c4d565b50509150505f905f905f90565b90506020813d602011613e3f575b81613e3060209383613a3c565b810103126103e057515f613beb565b3d9150613e23565b6040513d5f823e3d90fd5b519060ff821682036103e057565b604051636c687add60e11b815260048101919091526101a0816024817f00000000000000000000000000000000000000000000000000000000000000006001600160a01b03165afa908115613e47575f916140dc575b5060e0620151809101510462010bd981019062010bd982125f82129080158216911516176140c8576226496501905f62253d8c831291129080158216911516176140c8578060021b6004810582036140c85762023ab19005908162023ab1029062023ab1820583036140c85760038201915f6003841291129080158216911516176140c8576004613f48920590615d46565b9060018201600181125f84129080158216911516176140c85780610fa00290610fa08205036140c85762164b09900591826105b502906105b5820584036140c8576004613f96920590615d46565b601f8101905f601f831291129080158216911516176140c857806050026050810582036140c85761098f9005908161098f029061098f820583036140c8576050613fe1920590615d46565b600b82059160028101905f6002831291129080158216911516176140c85782600c02600c810584036140c85761401691615d46565b9260301981019081136001166140c857806064029060648205036140c85760206140c594818061406f61406961406361405d60029a614058869e60019b615d2b565b615d2b565b95615a46565b9761420d565b9361420d565b9260405199878b985191829101848a015e870190600160fd1b83830152805192839101602183015e01019061016160f51b84830152805192839101600383015e01015f838201520301601f198101835282613a3c565b90565b634e487b7160e01b5f52601160045260245ffd5b90506101a0813d82116141d3575b816140f86101a09383613a3c565b810103126103e057604051906101a082018281106001600160401b038211176102f457604052805182526020810151602083015260408101516040830152606081015160608301526080810151608083015260a081015160a083015260c081015160c083015260e081015160e08301526101008101516101008301526141816101208201613e52565b6101208301526141946101408201613e52565b610140830152610160810151906001600160a01b03821682036103e05761018091610160840152015180151581036103e05761018082015260e0613eb6565b3d91506140ea565b906141e582613ade565b6141f26040519182613a3c565b8281528092614203601f1991613ade565b0190602036910137565b805f9172184f03e93ff9f4daa797ed6e38ed64bf6a1f0160401b821015614332575b806d04ee2d6d415b85acef8100000000600a921015614317575b662386f26fc10000811015614303575b6305f5e1008110156142f2575b6127108110156142e3575b60648110156142d5575b10156142ca575b600a6021614292600185016141db565b938401015b5f1901916f181899199a1a9b1b9c1cb0b131b232b360811b8282061a83530480156142c557600a9091614297565b505090565b600190910190614282565b60646002910493019261427b565b61271060049104930192614271565b6305f5e10060089104930192614266565b662386f26fc1000060109104930192614259565b6d04ee2d6d415b85acef810000000060209104930192614249565b506040915072184f03e93ff9f4daa797ed6e38ed64bf6a1f0160401b810461422f565b6040516140c591614367606083613a3c565b604082527f4142434445464748494a4b4c4d4e4f505152535455565758595a61626364656660208301527f6768696a6b6c6d6e6f707172737475767778797a303132333435363738392b2f6040830152615c33565b5f546001600160a01b031633036143cf57565b63118cdaa760e01b5f523360045260245ffd5b919082039182116140c857565b919082018092116140c857565b5f929181549161440b83613aa6565b9260018116908115614453575060011461442457505050565b90919293505f5260205f205f905b83821061443f5750500190565b600181602092548486015201910190614432565b60ff191683525050811515909102019150565b60ff16600a811015614668575f81815260016020526040812060030154131561462e57805f526001602052600360405f2001548060ff1d809101186137aa01806137aa116140c8575b5f8281526001602052604081206002015413156145f3575f516020615e1f5f395f51905f52545f838152600160205260409020600201546144fb9160ff82901d918201909118906143ef565b905b6145096064830461420d565b91606490066145179061420d565b926145246064830461420d565b91606490066145329061420d565b905f52600160205260405f2060010191604051948594753c706174682066696c6c3d22233030302220643d224d60501b602087015280516020819201603688015e850160368101601760f91b905281516020819301603783015e0160360160018101600160fd1b905281516020819301600283015e0160010160018101601760f91b905281516020819301600283015e016001016001015f81526145d5916143fc565b6211179f60e91b815203601c19810182526003016140c59082613a3c565b5f516020615e1f5f395f51905f52545f838152600160205260409020600201546146289160ff82901d918201909118906143e2565b906144fd565b805f526001602052600360405f2001548060ff1d809101186137aa036137aa8111156144af57634e487b7160e01b5f52601160045260245ffd5b60ff600a8181840416920616815f5260016020525f6003604082200154135f14614a0257815f526001602052600360405f2001548060ff1d809101186137aa01806137aa116140c8575b5f8281526001602052604081206003015413156149d757815f526001602052600360405f2001548060ff1d809101186137aa01806137aa116140c857915b5f84815260016020526040812060020154131561499c575f516020615e1f5f395f51905f52545f8581526001602052604090206002015461473c9160ff82901d918201909118906143ef565b925b5f8281526001602052604081206002015413156149505760015f5260026020525f516020615e1f5f395f51905f525461032081019081106140c85761479b90835f526001602052600260405f2001548060ff1d80910118906143ef565b945b6147a96064860461420d565b94606490066147b79061420d565b956147c46064860461420d565b94606490066147d29061420d565b915f52600160205260405f20600101606482046147ee9061420d565b91606490066147fc9061420d565b926148096064860461420d565b94606490066148179061420d565b955f52600160205260405f2060010196604051998a99753c706174682066696c6c3d22233030302220643d224d60501b60208c01528051602081920160368d015e8a0160368101601760f91b905281516020819301603783015e0160360160018101600160fd1b905281516020819301600283015e0160010160018101601760f91b905281516020819301600283015e016001016001015f81526148ba916143fc565b6211179f60e91b8152753c706174682066696c6c3d22233030302220643d224d60501b60038201528151918290602001601983015e0160198101601760f91b905281516020819301601a83015e0160190160018101600160fd1b905281516020819301600283015e0160010160018101601760f91b905281516020819301600283015e016001016001015f81526145d5916143fc565b60015f5260026020525f516020615e1f5f395f51905f525461032081019081106140c85761499690835f526001602052600260405f2001548060ff1d80910118906143e2565b9461479d565b5f516020615e1f5f395f51905f52545f858152600160205260409020600201546149d19160ff82901d918201909118906143e2565b9261473e565b815f526001602052600360405f2001548060ff1d809101186137aa036137aa81116140c857916146f0565b815f526001602052600360405f2001548060ff1d809101186137aa036137aa8111156146b257634e487b7160e01b5f52601160045260245ffd5b60ff16600a811015614b40575f818152600160205260408120600301541315614b0657805f526001602052600360405f2001548060ff1d809101186137aa01806137aa116140c8575b5f828152600160205260408120600201541315614ad1575f516020615d9f5f395f51905f52545f838152600160205260409020600201546144fb9160ff82901d918201909118906143ef565b5f516020615d9f5f395f51905f52545f838152600160205260409020600201546146289160ff82901d918201909118906143e2565b805f526001602052600360405f2001548060ff1d809101186137aa036137aa811115614a8557634e487b7160e01b5f52601160045260245ffd5b60ff600a8181840416920616815f5260016020525f6003604082200154135f14614d1f57815f526001602052600360405f2001548060ff1d809101186137aa01806137aa116140c8575b5f828152600160205260408120600301541315614cf457815f526001602052600360405f2001548060ff1d809101186137aa01806137aa116140c857915b5f848152600160205260408120600201541315614cb9575f516020615d9f5f395f51905f52545f85815260016020526040902060020154614c149160ff82901d918201909118906143ef565b925b5f828152600160205260408120600201541315614c735760025f8190526020525f516020615d9f5f395f51905f525461032081019081106140c85761479b90835f526001602052600260405f2001548060ff1d80910118906143ef565b60025f8190526020525f516020615d9f5f395f51905f525461032081019081106140c85761499690835f526001602052600260405f2001548060ff1d80910118906143e2565b5f516020615d9f5f395f51905f52545f85815260016020526040902060020154614cee9160ff82901d918201909118906143e2565b92614c16565b815f526001602052600360405f2001548060ff1d809101186137aa036137aa81116140c85791614bc8565b815f526001602052600360405f2001548060ff1d809101186137aa036137aa811115614b8a57634e487b7160e01b5f52601160045260245ffd5b60ff16600a811015614e5d575f818152600160205260408120600301541315614e2357805f526001602052600360405f2001548060ff1d809101186137aa01806137aa116140c8575b5f828152600160205260408120600201541315614dee575f516020615dff5f395f51905f52545f838152600160205260409020600201546144fb9160ff82901d918201909118906143ef565b5f516020615dff5f395f51905f52545f838152600160205260409020600201546146289160ff82901d918201909118906143e2565b805f526001602052600360405f2001548060ff1d809101186137aa036137aa811115614da257634e487b7160e01b5f52601160045260245ffd5b60ff600a8181840416920616815f5260016020525f6003604082200154135f1461503c57815f526001602052600360405f2001548060ff1d809101186137aa01806137aa116140c8575b5f82815260016020526040812060030154131561501157815f526001602052600360405f2001548060ff1d809101186137aa01806137aa116140c857915b5f848152600160205260408120600201541315614fd6575f516020615dff5f395f51905f52545f85815260016020526040902060020154614f319160ff82901d918201909118906143ef565b925b5f828152600160205260408120600201541315614f905760035f5260026020525f516020615dff5f395f51905f525461032081019081106140c85761479b90835f526001602052600260405f2001548060ff1d80910118906143ef565b60035f5260026020525f516020615dff5f395f51905f525461032081019081106140c85761499690835f526001602052600260405f2001548060ff1d80910118906143e2565b5f516020615dff5f395f51905f52545f8581526001602052604090206002015461500b9160ff82901d918201909118906143e2565b92614f33565b815f526001602052600360405f2001548060ff1d809101186137aa036137aa81116140c85791614ee5565b815f526001602052600360405f2001548060ff1d809101186137aa036137aa811115614ea757634e487b7160e01b5f52601160045260245ffd5b60ff16600a81101561517a575f81815260016020526040812060030154131561514057805f526001602052600360405f2001548060ff1d809101186137aa01806137aa116140c8575b5f82815260016020526040812060020154131561510b575f516020615ddf5f395f51905f52545f838152600160205260409020600201546144fb9160ff82901d918201909118906143ef565b5f516020615ddf5f395f51905f52545f838152600160205260409020600201546146289160ff82901d918201909118906143e2565b805f526001602052600360405f2001548060ff1d809101186137aa036137aa8111156150bf57634e487b7160e01b5f52601160045260245ffd5b60ff600a8181840416920616815f5260016020525f6003604082200154135f1461535957815f526001602052600360405f2001548060ff1d809101186137aa01806137aa116140c8575b5f82815260016020526040812060030154131561532e57815f526001602052600360405f2001548060ff1d809101186137aa01806137aa116140c857915b5f8481526001602052604081206002015413156152f3575f516020615ddf5f395f51905f52545f8581526001602052604090206002015461524e9160ff82901d918201909118906143ef565b925b5f8281526001602052604081206002015413156152ad5760045f5260026020525f516020615ddf5f395f51905f525461032081019081106140c85761479b90835f526001602052600260405f2001548060ff1d80910118906143ef565b60045f5260026020525f516020615ddf5f395f51905f525461032081019081106140c85761499690835f526001602052600260405f2001548060ff1d80910118906143e2565b5f516020615ddf5f395f51905f52545f858152600160205260409020600201546153289160ff82901d918201909118906143e2565b92615250565b815f526001602052600360405f2001548060ff1d809101186137aa036137aa81116140c85791615202565b815f526001602052600360405f2001548060ff1d809101186137aa036137aa8111156151c457634e487b7160e01b5f52601160045260245ffd5b60ff16600a811015615497575f81815260016020526040812060030154131561545d57805f526001602052600360405f2001548060ff1d809101186137aa01806137aa116140c8575b5f828152600160205260408120600201541315615428575f516020615dbf5f395f51905f52545f838152600160205260409020600201546144fb9160ff82901d918201909118906143ef565b5f516020615dbf5f395f51905f52545f838152600160205260409020600201546146289160ff82901d918201909118906143e2565b805f526001602052600360405f2001548060ff1d809101186137aa036137aa8111156153dc57634e487b7160e01b5f52601160045260245ffd5b60ff600a8181840416920616815f5260016020525f6003604082200154135f1461567657815f526001602052600360405f2001548060ff1d809101186137aa01806137aa116140c8575b5f82815260016020526040812060030154131561564b57815f526001602052600360405f2001548060ff1d809101186137aa01806137aa116140c857915b5f848152600160205260408120600201541315615610575f516020615dbf5f395f51905f52545f8581526001602052604090206002015461556b9160ff82901d918201909118906143ef565b925b5f8281526001602052604081206002015413156155ca5760055f5260026020525f516020615dbf5f395f51905f525461032081019081106140c85761479b90835f526001602052600260405f2001548060ff1d80910118906143ef565b60055f5260026020525f516020615dbf5f395f51905f525461032081019081106140c85761499690835f526001602052600260405f2001548060ff1d80910118906143e2565b5f516020615dbf5f395f51905f52545f858152600160205260409020600201546156459160ff82901d918201909118906143e2565b9261556d565b815f526001602052600360405f2001548060ff1d809101186137aa036137aa81116140c8579161551f565b815f526001602052600360405f2001548060ff1d809101186137aa036137aa8111156154e157634e487b7160e01b5f52601160045260245ffd5b60ff16600a8110156157b4575f81815260016020526040812060030154131561577a57805f526001602052600360405f2001548060ff1d809101186137aa01806137aa116140c8575b5f828152600160205260408120600201541315615745575f516020615d7f5f395f51905f52545f838152600160205260409020600201546144fb9160ff82901d918201909118906143ef565b5f516020615d7f5f395f51905f52545f838152600160205260409020600201546146289160ff82901d918201909118906143e2565b805f526001602052600360405f2001548060ff1d809101186137aa036137aa8111156156f957634e487b7160e01b5f52601160045260245ffd5b60ff600a8181840416920616815f5260016020525f6003604082200154135f14615a0c57815f526001602052600360405f2001548060ff1d809101186137aa01806137aa116140c8575b5f8281526001602052604081206003015413156159e157815f526001602052600360405f2001548060ff1d809101186137aa01806137aa116140c857915b5f8481526001602052604081206002015413156159a6575f516020615d7f5f395f51905f52545f858152600160205260409020600201546158889160ff82901d918201909118906143ef565b925b5f82815260016020526040812060020154131561595a5760065f5260026020525f516020615d7f5f395f51905f525461032081019081106140c8576158e790835f526001602052600260405f2001548060ff1d80910118906143ef565b945b6101c11985019485116140c85761590d606461590681880461420d565b960661420d565b9561591e606461590681880461420d565b915f526001602052600160405f20016101c11982018281116140c8576159466064820461420d565b9281116140c857606490066147fc9061420d565b60065f5260026020525f516020615d7f5f395f51905f525461032081019081106140c8576159a090835f526001602052600260405f2001548060ff1d80910118906143e2565b946158e9565b5f516020615d7f5f395f51905f52545f858152600160205260409020600201546159db9160ff82901d918201909118906143e2565b9261588a565b815f526001602052600360405f2001548060ff1d809101186137aa036137aa81116140c8579161583c565b815f526001602052600360405f2001548060ff1d809101186137aa036137aa8111156157fe57634e487b7160e01b5f52601160045260245ffd5b60018114615c115760028114615bef5760038114615bcd5760048114615bab5760058114615b895760068114615b675760078114615b455760088114615b235760098114615b0157600a8114615adf57600b14615abe57604051615aab604082613a3c565b600381526244656360e81b602082015290565b604051615acc604082613a3c565b60038152622737bb60e91b602082015290565b50604051615aee604082613a3c565b600381526213d8dd60ea1b602082015290565b50604051615b10604082613a3c565b600381526205365760ec1b602082015290565b50604051615b32604082613a3c565b600381526241756760e81b602082015290565b50604051615b54604082613a3c565b6003815262129d5b60ea1b602082015290565b50604051615b76604082613a3c565b6003815262253ab760e91b602082015290565b50604051615b98604082613a3c565b60038152624d617960e81b602082015290565b50604051615bba604082613a3c565b600381526220b83960e91b602082015290565b50604051615bdc604082613a3c565b600381526226b0b960e91b602082015290565b50604051615bfe604082613a3c565b60038152622332b160e91b602082015290565b50604051615c20604082613a3c565b60038152622530b760e91b602082015290565b919091805115615d14578051600281018091116140c85760039004600281901b906001600160fe1b038116036140c857615c6c906141db565b90602082019080815182019560208701908151925f83525b888110615cc65750506003939495965052510680600114615cb457600214615caa575090565b603d905f19015390565b50603d90815f19820153600119015390565b600360049199969901986001603f8b5182828260121c16870101518453828282600c1c16870101518385015382828260061c1687010151600285015316840101516003820153019497615c84565b509050604051615d25602082613a3c565b5f815290565b9190915f83820193841291129080158216911516176140c857565b81810392915f1380158285131691841216176140c85756fe227d2c207b2274726169745f74797065223a20224e6f726d616c2042616c6c2059dd4b18488d12f51eda69757a0ed42a2010c14b564330cc74a06895e60c077c679795a0195a1b76cdebb7c51d74e058aee92919b8c3389af86ef24535e8a28db98b78633099fa36ed8b8680c4f8092689e1e04080eb9cbb077ca38a14d7e385ee60d0579bcffd98e668647d59fec1ff86a7fb340ce572e844f234ae73a6919088601476d11616a71c5be67555bd1dff4b1cbf21533d2669b768b61518cfe1c4e90b7bceb6e7df5418fb78d8ee546e97c83a08bbccc01a0644d599ccd2a7c2e1a26469706673582212208bba3a53441cc9e119f5f90a582a2e08a4b34ced05071a97eb0e23a2c6f5f07964736f6c634300081c0033",
  "linkReferences": {},
  "deployedLinkReferences": {}
}