{
  "_format": "hh-sol-artifact-1",
  "contractName": "FisherYatesWithRejectionTester",
  "sourceName": "contracts/mocks/FisherYatesWithRejectionTester.sol",
  "abi": [
    {
      "inputs": [
        {
          "internalType": "uint256",
          "name": "minRange",
          "type": "uint256"
        },
        {
          "internalType": "uint256",
          "name": "maxRange",
          "type": "uint256"
        },
        {
          "internalType": "uint256",
          "name": "count",
          "type": "uint256"
        },
        {
          "internalType": "uint256",
          "name": "seed",
          "type": "uint256"
        }
      ],
      "name": "draw",
      "outputs": [
        {
          "internalType": "uint256[]",
          "name": "",
          "type": "uint256[]"
        }
      ],
      "stateMutability": "pure",
      "type": "function"
    }
  ],
  "bytecode": "0x608080604052346015576101e6908161001a8239f35b5f80fdfe6080806040526004361015610012575f80fd5b5f3560e01c63ad204ef814610025575f80fd5b3461016b57608036600319011261016b576315a409df60e31b815260043560048201526024356024820152604435604482015260643560648201525f8160848173__$f7b56129a109e8cfdd105a93f7993108ed$__5af4908115610183575f916100cf575b506040518091602082016020835281518091526020604084019201905f5b8181106100b6575050500390f35b82518452859450602093840193909201916001016100a8565b90503d805f833e6100e0818361018e565b81019060208183031261016b5780519067ffffffffffffffff821161016b57019080601f8301121561016b5781519167ffffffffffffffff831161016f578260051b9060405193610134602084018661018e565b845260208085019282010192831161016b57602001905b82821061015b575050505f61008a565b815181526020918201910161014b565b5f80fd5b634e487b7160e01b5f52604160045260245ffd5b6040513d5f823e3d90fd5b90601f8019910116810190811067ffffffffffffffff82111761016f5760405256fea2646970667358221220f516a719828a1ff8611cfff42b2c19f3c20ce36aba96d0efab0ed1edca5df58364736f6c634300081c0033",
  "linkReferences": {
    "contracts/lib/FisherYatesWithRejection.sol": {
      "FisherYatesRejection": [
        {
          "length": 20,
          "start": 129
        }
      ]
    }
  },
  "deployedLinkReferences": {
    "contracts/lib/FisherYatesWithRejection.sol": {
      "FisherYatesRejection": [
        {
          "length": 20,
          "start": 103
        }
      ]
    }
  }
}