{
  "_format": "hh-sol-artifact-1",
  "contractName": "AllowedManager",
  "sourceName": "contracts/lib/AllowedManager.sol",
  "abi": [
    {
      "inputs": [],
      "stateMutability": "nonpayable",
      "type": "constructor"
    },
    {
      "inputs": [],
      "name": "AllowedAlreadyAdded",
      "type": "error"
    },
    {
      "inputs": [],
      "name": "AllowedNotFound",
      "type": "error"
    },
    {
      "inputs": [],
      "name": "EmptyArray",
      "type": "error"
    },
    {
      "inputs": [],
      "name": "NotAllowed",
      "type": "error"
    },
    {
      "inputs": [
        {
          "internalType": "address",
          "name": "owner",
          "type": "address"
        }
      ],
      "name": "OwnableInvalidOwner",
      "type": "error"
    },
    {
      "inputs": [
        {
          "internalType": "address",
          "name": "account",
          "type": "address"
        }
      ],
      "name": "OwnableUnauthorizedAccount",
      "type": "error"
    },
    {
      "inputs": [],
      "name": "ReentrancyGuardReentrantCall",
      "type": "error"
    },
    {
      "inputs": [],
      "name": "ZeroAddress",
      "type": "error"
    },
    {
      "anonymous": false,
      "inputs": [
        {
          "indexed": true,
          "internalType": "address",
          "name": "allowed",
          "type": "address"
        }
      ],
      "name": "AllowedAdded",
      "type": "event"
    },
    {
      "anonymous": false,
      "inputs": [
        {
          "indexed": true,
          "internalType": "address",
          "name": "allowed",
          "type": "address"
        }
      ],
      "name": "AllowedRemoved",
      "type": "event"
    },
    {
      "anonymous": false,
      "inputs": [
        {
          "indexed": true,
          "internalType": "address",
          "name": "previousOwner",
          "type": "address"
        },
        {
          "indexed": true,
          "internalType": "address",
          "name": "newOwner",
          "type": "address"
        }
      ],
      "name": "OwnershipTransferStarted",
      "type": "event"
    },
    {
      "anonymous": false,
      "inputs": [
        {
          "indexed": true,
          "internalType": "address",
          "name": "previousOwner",
          "type": "address"
        },
        {
          "indexed": true,
          "internalType": "address",
          "name": "newOwner",
          "type": "address"
        }
      ],
      "name": "OwnershipTransferred",
      "type": "event"
    },
    {
      "inputs": [],
      "name": "acceptOwnership",
      "outputs": [],
      "stateMutability": "nonpayable",
      "type": "function"
    },
    {
      "inputs": [
        {
          "internalType": "address",
          "name": "_allowed",
          "type": "address"
        }
      ],
      "name": "addAllowed",
      "outputs": [],
      "stateMutability": "nonpayable",
      "type": "function"
    },
    {
      "inputs": [
        {
          "internalType": "address[]",
          "name": "_allowed",
          "type": "address[]"
        }
      ],
      "name": "addAllowedBatch",
      "outputs": [],
      "stateMutability": "nonpayable",
      "type": "function"
    },
    {
      "inputs": [],
      "name": "getAllowed",
      "outputs": [
        {
          "internalType": "address[]",
          "name": "",
          "type": "address[]"
        }
      ],
      "stateMutability": "view",
      "type": "function"
    },
    {
      "inputs": [
        {
          "internalType": "address",
          "name": "_allowed",
          "type": "address"
        }
      ],
      "name": "isAllowed",
      "outputs": [
        {
          "internalType": "bool",
          "name": "",
          "type": "bool"
        }
      ],
      "stateMutability": "view",
      "type": "function"
    },
    {
      "inputs": [],
      "name": "owner",
      "outputs": [
        {
          "internalType": "address",
          "name": "",
          "type": "address"
        }
      ],
      "stateMutability": "view",
      "type": "function"
    },
    {
      "inputs": [],
      "name": "pendingOwner",
      "outputs": [
        {
          "internalType": "address",
          "name": "",
          "type": "address"
        }
      ],
      "stateMutability": "view",
      "type": "function"
    },
    {
      "inputs": [
        {
          "internalType": "address",
          "name": "_allowed",
          "type": "address"
        }
      ],
      "name": "removeAllowed",
      "outputs": [],
      "stateMutability": "nonpayable",
      "type": "function"
    },
    {
      "inputs": [],
      "name": "renounceOwnership",
      "outputs": [],
      "stateMutability": "nonpayable",
      "type": "function"
    },
    {
      "inputs": [
        {
          "internalType": "address",
          "name": "newOwner",
          "type": "address"
        }
      ],
      "name": "transferOwnership",
      "outputs": [],
      "stateMutability": "nonpayable",
      "type": "function"
    }
  ],
  "bytecode": "0x608080604052346079573315606657600180546001600160a01b03199081169091555f805433928116831782556001600160a01b0316907f8be0079c531659141344cd1fd0a4f28419497f9722a3daafe3b4186f6b6457e09080a36106c9908161007e8239f35b631e4fbdf760e01b5f525f60045260245ffd5b5f80fdfe6080806040526004361015610012575f80fd5b5f3560e01c90816303fced0c146103d9575080633f3090c8146103335780636470db2f146102ad578063715018a61461024a57806379ba5097146101c55780638da5cb5b1461019e578063babcc53914610160578063cb8523c614610129578063e30c3978146101015763f2fde38b1461008a575f80fd5b346100fd5760203660031901126100fd576004356001600160a01b038116908190036100fd576100b86104bd565b600180546001600160a01b031916821790555f80546001600160a01b0316907f38d16b8cac22d99fc7c124b9cd0de2d3fa1faef420bfe791d8c362d765e227009080a3005b5f80fd5b346100fd575f3660031901126100fd576001546040516001600160a01b039091168152602090f35b346100fd5760203660031901126100fd576004356001600160a01b03811681036100fd5761015e906101596104bd565b6104d0565b005b346100fd5760203660031901126100fd576004356001600160a01b038116908190036100fd575f526003602052602060405f20541515604051908152f35b346100fd575f3660031901126100fd575f546040516001600160a01b039091168152602090f35b346100fd575f3660031901126100fd57600154336001600160a01b039091160361023757600180546001600160a01b03199081169091555f805433928116831782556001600160a01b0316907f8be0079c531659141344cd1fd0a4f28419497f9722a3daafe3b4186f6b6457e09080a3005b63118cdaa760e01b5f523360045260245ffd5b346100fd575f3660031901126100fd576102626104bd565b600180546001600160a01b03199081169091555f80549182168155906001600160a01b03167f8be0079c531659141344cd1fd0a4f28419497f9722a3daafe3b4186f6b6457e08280a3005b346100fd5760203660031901126100fd576004356001600160a01b038116908190036100fd576102db6104bd565b8015610324576102ea8161054a565b15610315577f0b9f2e1df04a0ccdea40ce7cec83fcf3c7b42d5647460cf541f2a8eabf1b170f5f80a2005b630c6d8dd560e11b5f5260045ffd5b63d92e233d60e01b5f5260045ffd5b346100fd5760203660031901126100fd5760043567ffffffffffffffff81116100fd57366023820112156100fd5780600401359067ffffffffffffffff82116100fd573660248360051b830101116100fd5761038d6104bd565b81156103ca575f5b8281101561015e57600581901b820160240135906001600160a01b03821682036100fd576103c46001926104d0565b01610395565b63521299a960e01b5f5260045ffd5b346100fd575f3660031901126100fd5760025480825260208201809160025f527f405787fa12a823e0f2b7631cc41b3ba8828b3321ca811111fa75cd3aa3bb5ace905f5b8181106104a757505050829003601f01601f191682019167ffffffffffffffff8311818410176104935790829182604052602083019060208452518091526040830191905f5b818110610471575050500390f35b82516001600160a01b0316845285945060209384019390920191600101610463565b634e487b7160e01b5f52604160045260245ffd5b825484526020909301926001928301920161041d565b5f546001600160a01b0316330361023757565b6001600160a01b03168015610324576104e881610639565b15610512577ece0c03872867ce1a835f25187949b04b93ee69d1a9c6e60e20d5077063f66d5f80a2565b63d35c96d960e01b5f5260045ffd5b8054821015610536575f5260205f2001905f90565b634e487b7160e01b5f52603260045260245ffd5b5f818152600360205260409020548015610633575f19810181811161061f576002545f1981019190821161061f578181036105d1575b50505060025480156105bd575f190161059a816002610521565b8154905f199060031b1b191690556002555f5260036020525f6040812055600190565b634e487b7160e01b5f52603160045260245ffd5b6106096105e26105f3936002610521565b90549060031b1c9283926002610521565b819391549060031b91821b915f19901b19161790565b90555f52600360205260405f20555f8080610580565b634e487b7160e01b5f52601160045260245ffd5b50505f90565b805f52600360205260405f2054155f1461068e5760025468010000000000000000811015610493576106776105f38260018594016002556002610521565b9055600254905f52600360205260405f2055600190565b505f9056fea2646970667358221220444994f744255cf3b8404e6ee5e8c72e1f29de8f5829bcd2b1c051a9ffdf2de064736f6c634300081c0033",
  "linkReferences": {},
  "deployedLinkReferences": {}
}