{
  "_format": "hh-sol-artifact-1",
  "contractName": "EntropyCallbackMock",
  "sourceName": "contracts/mocks/EntropyCallbackMock.sol",
  "abi": [
    {
      "inputs": [],
      "stateMutability": "nonpayable",
      "type": "constructor"
    },
    {
      "anonymous": false,
      "inputs": [
        {
          "indexed": false,
          "internalType": "bytes32",
          "name": "sequence",
          "type": "bytes32"
        },
        {
          "indexed": false,
          "internalType": "uint256[][]",
          "name": "randomNumbers",
          "type": "uint256[][]"
        },
        {
          "indexed": false,
          "internalType": "bytes",
          "name": "context",
          "type": "bytes"
        }
      ],
      "name": "CallbackExecuted",
      "type": "event"
    },
    {
      "inputs": [],
      "name": "getLastRandomNumbers",
      "outputs": [
        {
          "internalType": "uint256[][]",
          "name": "",
          "type": "uint256[][]"
        }
      ],
      "stateMutability": "view",
      "type": "function"
    },
    {
      "inputs": [],
      "name": "lastContext",
      "outputs": [
        {
          "internalType": "bytes",
          "name": "",
          "type": "bytes"
        }
      ],
      "stateMutability": "view",
      "type": "function"
    },
    {
      "inputs": [
        {
          "internalType": "uint256",
          "name": "",
          "type": "uint256"
        },
        {
          "internalType": "uint256",
          "name": "",
          "type": "uint256"
        }
      ],
      "name": "lastRandomNumbers",
      "outputs": [
        {
          "internalType": "uint256",
          "name": "",
          "type": "uint256"
        }
      ],
      "stateMutability": "view",
      "type": "function"
    },
    {
      "inputs": [],
      "name": "lastSequence",
      "outputs": [
        {
          "internalType": "bytes32",
          "name": "",
          "type": "bytes32"
        }
      ],
      "stateMutability": "view",
      "type": "function"
    },
    {
      "inputs": [
        {
          "internalType": "contract IScaledEntropyProvider",
          "name": "_provider",
          "type": "address"
        },
        {
          "internalType": "uint32",
          "name": "_gasLimit",
          "type": "uint32"
        },
        {
          "components": [
            {
              "internalType": "uint8",
              "name": "samples",
              "type": "uint8"
            },
            {
              "internalType": "uint256",
              "name": "minRange",
              "type": "uint256"
            },
            {
              "internalType": "uint256",
              "name": "maxRange",
              "type": "uint256"
            },
            {
              "internalType": "bool",
              "name": "withReplacement",
              "type": "bool"
            }
          ],
          "internalType": "struct IScaledEntropyProvider.SetRequest[]",
          "name": "_requests",
          "type": "tuple[]"
        },
        {
          "internalType": "bytes4",
          "name": "_selector",
          "type": "bytes4"
        },
        {
          "internalType": "bytes",
          "name": "_context",
          "type": "bytes"
        }
      ],
      "name": "requestAndCallbackScaledRandomness",
      "outputs": [
        {
          "internalType": "uint64",
          "name": "sequence",
          "type": "uint64"
        }
      ],
      "stateMutability": "payable",
      "type": "function"
    },
    {
      "inputs": [
        {
          "internalType": "bytes32",
          "name": "sequence",
          "type": "bytes32"
        },
        {
          "internalType": "uint256[][]",
          "name": "randomNumbers",
          "type": "uint256[][]"
        },
        {
          "internalType": "bytes",
          "name": "context",
          "type": "bytes"
        }
      ],
      "name": "scaledEntropyCallback",
      "outputs": [],
      "stateMutability": "nonpayable",
      "type": "function"
    },
    {
      "inputs": [
        {
          "internalType": "bool",
          "name": "_shouldFail",
          "type": "bool"
        }
      ],
      "name": "setShouldFail",
      "outputs": [],
      "stateMutability": "nonpayable",
      "type": "function"
    },
    {
      "inputs": [],
      "name": "shouldFail",
      "outputs": [
        {
          "internalType": "bool",
          "name": "",
          "type": "bool"
        }
      ],
      "stateMutability": "view",
      "type": "function"
    }
  ],
  "bytecode": "0x60808060405234601d5760ff195f54165f55610b6590816100228239f35b5f80fdfe60806040526004361015610011575f80fd5b5f3560e01c806308246b6d146107215780631b59bcd3146106625780633bc684e9146106455780635090779d14610201578063678d2204146101e0578063811c5f2514610172578063a5aa5c12146101445763b73f7eb114610071575f80fd5b34610140575f366003190112610140576040515f60025461009181610a7d565b808452906001811690811561011c57506001146100d1575b6100cd836100b98185038261096d565b604051918291602083526020830190610ab5565b0390f35b91905060025f525f516020610af05f395f51905f52915f905b808210610102575090915081016020016100b96100a9565b9192600181602092548385880101520191019092916100ea565b60ff191660208086019190915291151560051b840190910191506100b990506100a9565b5f80fd5b34610140576020366003190112610140576004358015158091036101405760ff80195f54169116175f555f80f35b346101405760403660031901126101405760043560243590600154811015610140576001548110156101cc5760015f5260205f20019081548110156101405781548110156101cc576020915f52815f200154604051908152f35b634e487b7160e01b5f52603260045260245ffd5b34610140575f36600319011261014057602060ff5f54166040519015158152f35b34610140576060366003190112610140576004356024356001600160401b0381116101405736602382011215610140578060040135916102408361098e565b9161024e604051938461096d565b838352602083016024819560051b830101913683116101405760248101915b8383106105c457505050506044356001600160401b038111610140576102979036906004016109a5565b9260ff5f541661057f5781600355825190600160401b8211610486576001548260015580831061051f575b509060015f525f516020610b105f395f51905f52915f905b82821061049a57505050508251926001600160401b03841161048657610301600254610a7d565b601f8111610428575b50602093601f8111600114610396579081610386927f08092338c60f8ac1f9f7c7995136e335acbc75c069ff686ed61f6163b54d767e965f9161038b575b508160011b915f199060031b1c1916176002555b61037860405194859485526060602086015260608501906109fa565b908382036040850152610ab5565b0390a1005b905082015187610348565b601f1981169460025f525f516020610af05f395f51905f52955f5b8181106104105750917f08092338c60f8ac1f9f7c7995136e335acbc75c069ff686ed61f6163b54d767e96600192826103869695106103f8575b5050811b0160025561035c565b8401515f1960f88460031b161c1916905587806103eb565b848301518855600190970196602092830192016103b1565b61046b9060025f52601f860160051c5f516020610af05f395f51905f52019060208710610471575b601f0160051c5f516020610af05f395f51905f520190610ad9565b8461030a565b5f516020610af05f395f51905f529150610450565b634e487b7160e01b5f52604160045260245ffd5b80518051906001600160401b03821161048657600160401b8211610486576020908654838855808410610504575b5001855f5260205f205f5b8381106104f05750505050600160208192019401910190926102da565b6001906020845194019381840155016104d3565b61051990885f5284845f209182019101610ad9565b8a6104c8565b60015f525f516020610b105f395f51905f5201825f516020610b105f395f51905f52015b81811061055057506102c2565b60019080545f825580610565575b5001610543565b61057990825f5260205f2090810190610ad9565b8861055e565b60405162461bcd60e51b815260206004820152601d60248201527f43616c6c6261636b20696e74656e74696f6e616c6c79206661696c65640000006044820152606490fd5b82356001600160401b03811161014057820136604382011215610140576024810135906105f08261098e565b916105fe604051938461096d565b808352602060248185019260051b840101019136831161014057604401905b8282106106355750505081526020928301920161026d565b813581526020918201910161061d565b34610140575f366003190112610140576020600354604051908152f35b34610140575f3660031901126101405760015461067e8161098e565b9061068c604051928361096d565b8082526020820160015f525f516020610b105f395f51905f525f915b8383106106c557604051602080825281906100cd908201886109fa565b6040518060208454918281520190845f5260205f20905f905b80821061070957505050600192826106fb8594602094038261096d565b8152019201920191906106a8565b909192600160208192865481520194019201906106de565b60a0366003190112610140576004356001600160a01b03811690819003610140576024359063ffffffff821680920361014057604435916001600160401b0383116101405736602384011215610140578260040135906107808261098e565b9361078e604051958661096d565b82855260208501906024829460071b8201019036821161014057602401915b8183106108ff5750505060643563ffffffff60e01b8116809103610140576084356001600160401b038111610140576107ee909593929536906004016109a5565b9060405195869463bf99a44560e01b865260848601916004870152608060248701525180915260a4850193905f5b8181106108bc5750505061084760209593859384936044850152600319848303016064850152610ab5565b039134905af180156108b1575f9061086e575b6020906001600160401b0360405191168152f35b506020813d6020116108a9575b816108886020938361096d565b8101031261014057516001600160401b03811681036101405760209061085a565b3d915061087b565b6040513d5f823e3d90fd5b919550919293602060806001926060895160ff8151168352848101518584015260408101516040840152015115156060820152019601910191879594939261081c565b6080833603126101405760405190608082018281106001600160401b0382111761048657604052833560ff81168103610140578252602084013560208301526040840135604083015260608401359081151582036101405782602092606060809501528152019201916107ad565b90601f801991011681019081106001600160401b0382111761048657604052565b6001600160401b0381116104865760051b60200190565b81601f82011215610140578035906001600160401b03821161048657604051926109d9601f8401601f19166020018561096d565b8284526020838301011161014057815f926020809301838601378301015290565b9080602083519182815201916020808360051b8301019401925f915b838310610a2557505050505090565b9091929394601f19828203018352855190602080835192838152019201905f905b808210610a655750505060208060019297019301930191939290610a16565b90919260208060019286518152019401920190610a46565b90600182811c92168015610aab575b6020831014610a9757565b634e487b7160e01b5f52602260045260245ffd5b91607f1691610a8c565b805180835260209291819084018484015e5f828201840152601f01601f1916010190565b818110610ae4575050565b5f8155600101610ad956fe405787fa12a823e0f2b7631cc41b3ba8828b3321ca811111fa75cd3aa3bb5aceb10e2d527612073b26eecdfd717e6a320cf44b4afac2b0732d9fcbe2b7fa0cf6a26469706673582212207eafc164c8b70be52b8d4733d566de52612f2085012bd6c24fd169c89583ebd664736f6c634300081c0033",
  "linkReferences": {},
  "deployedLinkReferences": {}
}