{
  "_format": "hh-sol-artifact-1",
  "contractName": "ReentrantUSDCMock",
  "sourceName": "contracts/mocks/ReentrantUSDCMock.sol",
  "abi": [
    {
      "inputs": [
        {
          "internalType": "uint256",
          "name": "_mintAmount",
          "type": "uint256"
        },
        {
          "internalType": "string",
          "name": "name",
          "type": "string"
        },
        {
          "internalType": "string",
          "name": "symbol",
          "type": "string"
        }
      ],
      "stateMutability": "nonpayable",
      "type": "constructor"
    },
    {
      "inputs": [
        {
          "internalType": "address",
          "name": "spender",
          "type": "address"
        },
        {
          "internalType": "uint256",
          "name": "allowance",
          "type": "uint256"
        },
        {
          "internalType": "uint256",
          "name": "needed",
          "type": "uint256"
        }
      ],
      "name": "ERC20InsufficientAllowance",
      "type": "error"
    },
    {
      "inputs": [
        {
          "internalType": "address",
          "name": "sender",
          "type": "address"
        },
        {
          "internalType": "uint256",
          "name": "balance",
          "type": "uint256"
        },
        {
          "internalType": "uint256",
          "name": "needed",
          "type": "uint256"
        }
      ],
      "name": "ERC20InsufficientBalance",
      "type": "error"
    },
    {
      "inputs": [
        {
          "internalType": "address",
          "name": "approver",
          "type": "address"
        }
      ],
      "name": "ERC20InvalidApprover",
      "type": "error"
    },
    {
      "inputs": [
        {
          "internalType": "address",
          "name": "receiver",
          "type": "address"
        }
      ],
      "name": "ERC20InvalidReceiver",
      "type": "error"
    },
    {
      "inputs": [
        {
          "internalType": "address",
          "name": "sender",
          "type": "address"
        }
      ],
      "name": "ERC20InvalidSender",
      "type": "error"
    },
    {
      "inputs": [
        {
          "internalType": "address",
          "name": "spender",
          "type": "address"
        }
      ],
      "name": "ERC20InvalidSpender",
      "type": "error"
    },
    {
      "anonymous": false,
      "inputs": [
        {
          "indexed": true,
          "internalType": "address",
          "name": "owner",
          "type": "address"
        },
        {
          "indexed": true,
          "internalType": "address",
          "name": "spender",
          "type": "address"
        },
        {
          "indexed": false,
          "internalType": "uint256",
          "name": "value",
          "type": "uint256"
        }
      ],
      "name": "Approval",
      "type": "event"
    },
    {
      "anonymous": false,
      "inputs": [
        {
          "indexed": true,
          "internalType": "address",
          "name": "from",
          "type": "address"
        },
        {
          "indexed": true,
          "internalType": "address",
          "name": "to",
          "type": "address"
        },
        {
          "indexed": false,
          "internalType": "uint256",
          "name": "value",
          "type": "uint256"
        }
      ],
      "name": "Transfer",
      "type": "event"
    },
    {
      "inputs": [
        {
          "internalType": "address",
          "name": "owner",
          "type": "address"
        },
        {
          "internalType": "address",
          "name": "spender",
          "type": "address"
        }
      ],
      "name": "allowance",
      "outputs": [
        {
          "internalType": "uint256",
          "name": "",
          "type": "uint256"
        }
      ],
      "stateMutability": "view",
      "type": "function"
    },
    {
      "inputs": [
        {
          "internalType": "address",
          "name": "spender",
          "type": "address"
        },
        {
          "internalType": "uint256",
          "name": "value",
          "type": "uint256"
        }
      ],
      "name": "approve",
      "outputs": [
        {
          "internalType": "bool",
          "name": "",
          "type": "bool"
        }
      ],
      "stateMutability": "nonpayable",
      "type": "function"
    },
    {
      "inputs": [
        {
          "internalType": "address",
          "name": "account",
          "type": "address"
        }
      ],
      "name": "balanceOf",
      "outputs": [
        {
          "internalType": "uint256",
          "name": "",
          "type": "uint256"
        }
      ],
      "stateMutability": "view",
      "type": "function"
    },
    {
      "inputs": [],
      "name": "callbackCount",
      "outputs": [
        {
          "internalType": "uint256",
          "name": "",
          "type": "uint256"
        }
      ],
      "stateMutability": "view",
      "type": "function"
    },
    {
      "inputs": [],
      "name": "callbackData",
      "outputs": [
        {
          "internalType": "bytes",
          "name": "",
          "type": "bytes"
        }
      ],
      "stateMutability": "view",
      "type": "function"
    },
    {
      "inputs": [],
      "name": "callbackEnabled",
      "outputs": [
        {
          "internalType": "bool",
          "name": "",
          "type": "bool"
        }
      ],
      "stateMutability": "view",
      "type": "function"
    },
    {
      "inputs": [],
      "name": "callbackTarget",
      "outputs": [
        {
          "internalType": "address",
          "name": "",
          "type": "address"
        }
      ],
      "stateMutability": "view",
      "type": "function"
    },
    {
      "inputs": [],
      "name": "decimals",
      "outputs": [
        {
          "internalType": "uint8",
          "name": "",
          "type": "uint8"
        }
      ],
      "stateMutability": "pure",
      "type": "function"
    },
    {
      "inputs": [],
      "name": "disableCallback",
      "outputs": [],
      "stateMutability": "nonpayable",
      "type": "function"
    },
    {
      "inputs": [],
      "name": "enableCallback",
      "outputs": [],
      "stateMutability": "nonpayable",
      "type": "function"
    },
    {
      "inputs": [],
      "name": "getCallbackConfig",
      "outputs": [
        {
          "internalType": "address",
          "name": "target",
          "type": "address"
        },
        {
          "internalType": "bool",
          "name": "enabled",
          "type": "bool"
        },
        {
          "internalType": "uint256",
          "name": "count",
          "type": "uint256"
        },
        {
          "internalType": "uint256",
          "name": "max",
          "type": "uint256"
        }
      ],
      "stateMutability": "view",
      "type": "function"
    },
    {
      "inputs": [],
      "name": "maxCallbacks",
      "outputs": [
        {
          "internalType": "uint256",
          "name": "",
          "type": "uint256"
        }
      ],
      "stateMutability": "view",
      "type": "function"
    },
    {
      "inputs": [
        {
          "internalType": "address",
          "name": "to",
          "type": "address"
        },
        {
          "internalType": "uint256",
          "name": "amount",
          "type": "uint256"
        }
      ],
      "name": "mint",
      "outputs": [],
      "stateMutability": "nonpayable",
      "type": "function"
    },
    {
      "inputs": [],
      "name": "name",
      "outputs": [
        {
          "internalType": "string",
          "name": "",
          "type": "string"
        }
      ],
      "stateMutability": "view",
      "type": "function"
    },
    {
      "inputs": [],
      "name": "resetCallbackCount",
      "outputs": [],
      "stateMutability": "nonpayable",
      "type": "function"
    },
    {
      "inputs": [
        {
          "internalType": "bytes",
          "name": "_data",
          "type": "bytes"
        }
      ],
      "name": "setCallbackData",
      "outputs": [],
      "stateMutability": "nonpayable",
      "type": "function"
    },
    {
      "inputs": [
        {
          "internalType": "address",
          "name": "_target",
          "type": "address"
        }
      ],
      "name": "setCallbackTarget",
      "outputs": [],
      "stateMutability": "nonpayable",
      "type": "function"
    },
    {
      "inputs": [
        {
          "internalType": "uint256",
          "name": "_max",
          "type": "uint256"
        }
      ],
      "name": "setMaxCallbacks",
      "outputs": [],
      "stateMutability": "nonpayable",
      "type": "function"
    },
    {
      "inputs": [],
      "name": "symbol",
      "outputs": [
        {
          "internalType": "string",
          "name": "",
          "type": "string"
        }
      ],
      "stateMutability": "view",
      "type": "function"
    },
    {
      "inputs": [],
      "name": "totalSupply",
      "outputs": [
        {
          "internalType": "uint256",
          "name": "",
          "type": "uint256"
        }
      ],
      "stateMutability": "view",
      "type": "function"
    },
    {
      "inputs": [
        {
          "internalType": "address",
          "name": "to",
          "type": "address"
        },
        {
          "internalType": "uint256",
          "name": "amount",
          "type": "uint256"
        }
      ],
      "name": "transfer",
      "outputs": [
        {
          "internalType": "bool",
          "name": "",
          "type": "bool"
        }
      ],
      "stateMutability": "nonpayable",
      "type": "function"
    },
    {
      "inputs": [
        {
          "internalType": "address",
          "name": "from",
          "type": "address"
        },
        {
          "internalType": "address",
          "name": "to",
          "type": "address"
        },
        {
          "internalType": "uint256",
          "name": "amount",
          "type": "uint256"
        }
      ],
      "name": "transferFrom",
      "outputs": [
        {
          "internalType": "bool",
          "name": "",
          "type": "bool"
        }
      ],
      "stateMutability": "nonpayable",
      "type": "function"
    },
    {
      "stateMutability": "payable",
      "type": "receive"
    }
  ],
  "bytecode": "0x6080604052346103ac5761121b80380380610019816103b0565b9283398101906060818303126103ac57805160208201519091906001600160401b0381116103ac578361004d9183016103d5565b60408201519093906001600160401b0381116103ac5761006d92016103d5565b82519091906001600160401b0381116102bd57600354600181811c911680156103a2575b602082101461029f57601f811161033f575b506020601f82116001146102dc57819293945f926102d1575b50508160011b915f199060031b1c1916176003555b81516001600160401b0381116102bd57600454600181811c911680156102b3575b602082101461029f57601f811161023c575b50602092601f82116001146101db57928192935f926101d0575b50508160011b915f199060031b1c1916176004555b60ff19600754166007555f600855600160095533156101bd576002548181018091116101a957600255335f525f60205260405f208181540190556040519081525f7fddf252ad1be2c89b69c2b068fc378daa952ba7f163c4a11628f55a4df523b3ef60203393a3604051610df490816104278239f35b634e487b7160e01b5f52601160045260245ffd5b63ec442f0560e01b5f525f60045260245ffd5b015190505f8061011e565b601f1982169360045f52805f20915f5b868110610224575083600195961061020c575b505050811b01600455610133565b01515f1960f88460031b161c191690555f80806101fe565b919260206001819286850151815501940192016101eb565b60045f527f8a35acfbc15ff81a39ae7d344fd709f28e8600b4aa8c65c6b64bfe7fe36bd19b601f830160051c81019160208410610295575b601f0160051c01905b81811061028a5750610104565b5f815560010161027d565b9091508190610274565b634e487b7160e01b5f52602260045260245ffd5b90607f16906100f2565b634e487b7160e01b5f52604160045260245ffd5b015190505f806100bc565b601f1982169060035f52805f20915f5b8181106103275750958360019596971061030f575b505050811b016003556100d1565b01515f1960f88460031b161c191690555f8080610301565b9192602060018192868b0151815501940192016102ec565b60035f527fc2575a0e9e593c00f959f8c92f12db2869c3395a3b0502d05e2516446f71f85b601f830160051c81019160208410610398575b601f0160051c01905b81811061038d57506100a3565b5f8155600101610380565b9091508190610377565b90607f1690610091565b5f80fd5b6040519190601f01601f191682016001600160401b038111838210176102bd57604052565b81601f820112156103ac578051906001600160401b0382116102bd57610404601f8301601f19166020016103b0565b92828452602083830101116103ac57815f9260208093018386015e830101529056fe6080604052600436101561001a575b3615610018575f80fd5b005b5f3560e01c806306fdde0314610179578063095ea7b31461017457806318160ddd1461016f5780631d04592f1461016a57806323b872dd14610165578063313ce5671461016057806340c10f191461015b57806342f5355114610156578063633801131461015157806366d550b11461014c57806370a082311461014757806379edd7c41461014257806388988fff1461013d57806389357558146101385780638afb341d1461013357806395d89b411461012e578063a9059cbb14610129578063a922631d14610124578063dd62ed3e1461011f578063ddd87f6a1461011a578063e4ec8007146101155763ef44c2720361000e5761096d565b61090d565b61089b565b6107ed565b6107aa565b61072b565b610686565b610663565b610646565b61062d565b610617565b6105e0565b6105c0565b61059e565b61055c565b6104b9565b61049e565b6103a6565b610389565b61036c565b6102b3565b6101a9565b90602080809381815201918051918291828552018484015e5f828201840152601f01601f1916010190565b34610283575f366003190112610283576040515f6003546101c981610935565b808452906001811690811561025f5750600114610201575b6101fd836101f181850382610858565b6040519182918261017e565b0390f35b91905060035f527fc2575a0e9e593c00f959f8c92f12db2869c3395a3b0502d05e2516446f71f85b915f905b808210610245575090915081016020016101f16101e1565b91926001816020925483858801015201910190929161022d565b60ff191660208086019190915291151560051b840190910191506101f190506101e1565b5f80fd5b600435906001600160a01b038216820361028357565b602435906001600160a01b038216820361028357565b34610283576040366003190112610283576102cc610287565b6024353315610359576001600160a01b0382169182156103465761030c8291335f52600160205260405f209060018060a01b03165f5260205260405f2090565b5560405190815233907f8c5be1e5ebec7d5bd14f71427d1e84f3dd0314c0f7b2291e5b200ac8c7c3b92590602090a3602060405160018152f35b634a1406b160e11b5f525f60045260245ffd5b63e602df0560e01b5f525f60045260245ffd5b34610283575f366003190112610283576020600254604051908152f35b34610283575f366003190112610283576020600854604051908152f35b34610283576060366003190112610283576103bf610287565b6103c761029d565b6001600160a01b0382165f9081526001602090815260408083203384529091529020549160443591905f198410610467575b6104039350610cd3565b60075460ff1680610453575b80610446575b610426575b60405160018152602090f35b610439610434600854610a26565b600855565b610441610b95565b61041a565b5060085460095411610415565b506005546001600160a01b0316151561040f565b8284106104835761047e8361040395033383610c8d565b6103f9565b8284637dc7a0d960e11b5f523360045260245260445260645ffd5b34610283575f36600319011261028357602060405160068152f35b34610283576040366003190112610283576104d2610287565b6001600160a01b038116906024359082156105495760025490828201809211610544576002919091556001600160a01b03165f90815260208181526040822091927fddf252ad1be2c89b69c2b068fc378daa952ba7f163c4a11628f55a4df523b3ef92818154019055604051908152a3005b610a12565b63ec442f0560e01b5f525f60045260245ffd5b34610283576020366003190112610283576001600160a01b0361057d610287565b166bffffffffffffffffffffffff60a01b60055416176005555f6008555f80f35b34610283575f36600319011261028357602060ff600754166040519015158152f35b34610283575f366003190112610283576007805460ff191690555f600855005b34610283576020366003190112610283576001600160a01b03610601610287565b165f525f602052602060405f2054604051908152f35b34610283575f366003190112610283575f600855005b3461028357602036600319011261028357600435600955005b34610283575f366003190112610283576020600954604051908152f35b34610283575f366003190112610283576007805460ff191660011790555f600855005b34610283575f366003190112610283576040515f6004546106a681610935565b808452906001811690811561025f57506001146106cd576101fd836101f181850382610858565b91905060045f527f8a35acfbc15ff81a39ae7d344fd709f28e8600b4aa8c65c6b64bfe7fe36bd19b915f905b808210610711575090915081016020016101f16101e1565b9192600181602092548385880101520191019092916106f9565b3461028357604036600319011261028357610751610747610287565b6024359033610cd3565b60ff6007541680610796575b80610789575b6107735760405160018152602090f35b61077e600854610a26565b600855610441610b95565b5060085460095411610763565b506005546001600160a01b0316151561075d565b34610283575f36600319011261028357608060018060a01b036005541660ff60075416600854600954916040519384521515602084015260408301526060820152f35b3461028357604036600319011261028357602061083b61080b610287565b61081361029d565b6001600160a01b039182165f9081526001855260408082209290931681526020919091522090565b54604051908152f35b634e487b7160e01b5f52604160045260245ffd5b90601f8019910116810190811067ffffffffffffffff82111761087a57604052565b610844565b67ffffffffffffffff811161087a57601f01601f191660200190565b346102835760203660031901126102835760043567ffffffffffffffff811161028357366023820112156102835780600401356108d78161087f565b906108e56040519283610858565b8082523660248285010111610283576020815f92602461001896018386013783010152610a84565b34610283575f366003190112610283576005546040516001600160a01b039091168152602090f35b90600182811c92168015610963575b602083101461094f57565b634e487b7160e01b5f52602260045260245ffd5b91607f1691610944565b34610283575f366003190112610283576040515f60065461098d81610935565b808452906001811690811561025f57506001146109b4576101fd836101f181850382610858565b91905060065f527ff652222313e28459528d920b65115c16c04f3efc82aaedc97be59f3f377c0d3f915f905b8082106109f8575090915081016020016101f16101e1565b9192600181602092548385880101520191019092916109e0565b634e487b7160e01b5f52601160045260245ffd5b5f1981146105445760010190565b601f8111610a40575050565b60065f5260205f20906020601f840160051c83019310610a7a575b601f0160051c01905b818110610a6f575050565b5f8155600101610a64565b9091508190610a5b565b90815167ffffffffffffffff811161087a57610aaa81610aa5600654610935565b610a34565b602092601f8211600114610aea57610ada929382915f92610adf575b50508160011b915f199060031b1c19161790565b600655565b015190505f80610ac6565b60065f52601f198216937ff652222313e28459528d920b65115c16c04f3efc82aaedc97be59f3f377c0d3f915f5b868110610b4e5750836001959610610b36575b505050811b01600655565b01515f1960f88460031b161c191690555f8080610b2b565b91926020600181928685015181550194019201610b18565b3d15610b90573d90610b778261087f565b91610b856040519384610858565b82523d5f602084013e565b606090565b60018060a01b03600554166040515f600654610bb081610935565b9060018116908115610c785750600114610c29575b5091815f809493819403925af1610bda610b66565b9015610be35750565b805115610bf257602081519101fd5b60405162461bcd60e51b815260206004820152600f60248201526e10d85b1b189858dac819985a5b1959608a1b6044820152606490fd5b905060065f527ff652222313e28459528d920b65115c16c04f3efc82aaedc97be59f3f377c0d3f5f905b828210610c64575050810181610bc5565b600181602092548487015201910190610c53565b60ff1916845250801515028201905081610bc5565b6001600160a01b0316908115610359576001600160a01b0381161561034657610cd0915f52600160205260405f209060018060a01b03165f5260205260405f2090565b55565b916001600160a01b038316918215610dab576001600160a01b038116938415610549576001600160a01b0381165f90815260208190526040902054838110610d9057610d8b928492610d5b7fddf252ad1be2c89b69c2b068fc378daa952ba7f163c4a11628f55a4df523b3ef96610d7594039160018060a01b03165f525f60205260405f2090565b556001600160a01b03165f90815260208190526040902090565b8054820190556040519081529081906020820190565b0390a3565b83908563391434e360e21b5f5260045260245260445260645ffd5b634b637e8f60e11b5f525f60045260245ffdfea2646970667358221220652cd40e914c477283ac99ab9b229e80ae760423813ad283212984b2f5ee3d6464736f6c634300081c0033",
  "linkReferences": {},
  "deployedLinkReferences": {}
}