{
  "_format": "hh-sol-artifact-1",
  "contractName": "TicketComboTrackerTester",
  "sourceName": "contracts/mocks/TicketComboTrackerTester.sol",
  "abi": [
    {
      "inputs": [
        {
          "internalType": "uint8[]",
          "name": "normalBalls",
          "type": "uint8[]"
        },
        {
          "internalType": "uint8",
          "name": "bonusball",
          "type": "uint8"
        }
      ],
      "name": "countTierMatchesWithBonusball",
      "outputs": [
        {
          "internalType": "uint256",
          "name": "",
          "type": "uint256"
        },
        {
          "internalType": "uint256[]",
          "name": "",
          "type": "uint256[]"
        },
        {
          "internalType": "uint256[]",
          "name": "",
          "type": "uint256[]"
        }
      ],
      "stateMutability": "view",
      "type": "function"
    },
    {
      "inputs": [],
      "name": "getBonusballMax",
      "outputs": [
        {
          "internalType": "uint8",
          "name": "",
          "type": "uint8"
        }
      ],
      "stateMutability": "view",
      "type": "function"
    },
    {
      "inputs": [
        {
          "internalType": "uint8",
          "name": "bonusball",
          "type": "uint8"
        }
      ],
      "name": "getBonusballTicketCounts",
      "outputs": [
        {
          "components": [
            {
              "internalType": "uint128",
              "name": "count",
              "type": "uint128"
            },
            {
              "internalType": "uint128",
              "name": "dupCount",
              "type": "uint128"
            }
          ],
          "internalType": "struct TicketComboTracker.ComboCount",
          "name": "",
          "type": "tuple"
        }
      ],
      "stateMutability": "view",
      "type": "function"
    },
    {
      "inputs": [
        {
          "internalType": "uint8",
          "name": "bonusball",
          "type": "uint8"
        },
        {
          "internalType": "uint256",
          "name": "combo",
          "type": "uint256"
        }
      ],
      "name": "getComboCount",
      "outputs": [
        {
          "components": [
            {
              "internalType": "uint128",
              "name": "count",
              "type": "uint128"
            },
            {
              "internalType": "uint128",
              "name": "dupCount",
              "type": "uint128"
            }
          ],
          "internalType": "struct TicketComboTracker.ComboCount",
          "name": "",
          "type": "tuple"
        }
      ],
      "stateMutability": "view",
      "type": "function"
    },
    {
      "inputs": [],
      "name": "getNormalMax",
      "outputs": [
        {
          "internalType": "uint8",
          "name": "",
          "type": "uint8"
        }
      ],
      "stateMutability": "view",
      "type": "function"
    },
    {
      "inputs": [],
      "name": "getNormalTiers",
      "outputs": [
        {
          "internalType": "uint8",
          "name": "",
          "type": "uint8"
        }
      ],
      "stateMutability": "view",
      "type": "function"
    },
    {
      "inputs": [
        {
          "internalType": "uint8",
          "name": "_normalMax",
          "type": "uint8"
        },
        {
          "internalType": "uint8",
          "name": "_bonusballMax",
          "type": "uint8"
        },
        {
          "internalType": "uint8",
          "name": "_normalTiers",
          "type": "uint8"
        }
      ],
      "name": "init",
      "outputs": [],
      "stateMutability": "nonpayable",
      "type": "function"
    },
    {
      "inputs": [
        {
          "internalType": "uint8[]",
          "name": "normalBalls",
          "type": "uint8[]"
        },
        {
          "internalType": "uint8",
          "name": "bonusball",
          "type": "uint8"
        }
      ],
      "name": "insert",
      "outputs": [],
      "stateMutability": "nonpayable",
      "type": "function"
    },
    {
      "inputs": [
        {
          "internalType": "uint8[]",
          "name": "_normalBalls",
          "type": "uint8[]"
        },
        {
          "internalType": "uint8",
          "name": "_bonusball",
          "type": "uint8"
        }
      ],
      "name": "isDuplicate",
      "outputs": [
        {
          "internalType": "bool",
          "name": "",
          "type": "bool"
        }
      ],
      "stateMutability": "view",
      "type": "function"
    },
    {
      "inputs": [
        {
          "internalType": "uint8[]",
          "name": "_set",
          "type": "uint8[]"
        },
        {
          "internalType": "uint256",
          "name": "_maxNormalBall",
          "type": "uint256"
        }
      ],
      "name": "toNormalsBitVector",
      "outputs": [
        {
          "internalType": "uint256",
          "name": "",
          "type": "uint256"
        }
      ],
      "stateMutability": "pure",
      "type": "function"
    },
    {
      "inputs": [],
      "name": "tracker",
      "outputs": [
        {
          "internalType": "uint8",
          "name": "normalMax",
          "type": "uint8"
        },
        {
          "internalType": "uint8",
          "name": "bonusballMax",
          "type": "uint8"
        },
        {
          "internalType": "uint8",
          "name": "normalTiers",
          "type": "uint8"
        }
      ],
      "stateMutability": "view",
      "type": "function"
    },
    {
      "inputs": [
        {
          "internalType": "uint256",
          "name": "_packedTicket",
          "type": "uint256"
        },
        {
          "internalType": "uint8",
          "name": "_normalMax",
          "type": "uint8"
        }
      ],
      "name": "unpackTicket",
      "outputs": [
        {
          "internalType": "uint8[]",
          "name": "normalBalls",
          "type": "uint8[]"
        },
        {
          "internalType": "uint8",
          "name": "bonusball",
          "type": "uint8"
        }
      ],
      "stateMutability": "pure",
      "type": "function"
    }
  ],
  "bytecode": "0x60808060405234601557611289908161001a8239f35b5f80fdfe60806040526004361015610011575f80fd5b5f3560e01c80630bb5add214610a085780630d76e3ba1461089757806390873dc11461030d5780639c8edf8b146102eb578063bb5d734a1461029d578063bd207c2c14610219578063ea30d359146101d2578063ec26129c146101b0578063f2315f751461014b578063f52bccad14610116578063f6825774146100c05763fba5da551461009d575f80fd5b346100bc575f3660031901126100bc57602060ff5f5416604051908152f35b5f80fd5b346100bc5760603660031901126100bc576100d9610c86565b6100e1610c76565b60443560ff811681036100bc5761ff009060ff62ff00005f549260101b1694169062ffffff1916179160081b1617175f555f80f35b346100bc575f3660031901126100bc5760605f5460ff604051918181168352818160081c16602084015260101c166040820152f35b346100bc5761017e61019061015f36610d71565b929060ff81516101775f5491838360101c1614610e87565b1690610ec8565b9160ff165f52600160205260405f2090565b905f5260205260206001600160801b0360405f2054161515604051908152f35b346100bc575f3660031901126100bc57602060ff5f5460081c16604051908152f35b346100bc5760403660031901126100bc5760043567ffffffffffffffff81116100bc576102116102086020923690600401610d53565b60243590610ec8565b604051908152f35b346100bc5760203660031901126100bc5760ff610234610c86565b5f602061023f610c96565b8281520152165f52600260205261029960405f2061025b610c96565b90546001600160801b038116825260801c60208201526040519182918291909160206001600160801b03816040840195828151168552015116910152565b0390f35b346100bc5760403660031901126100bc5760ff6102b8610c86565b5f60206102c3610c96565b8281520152165f52600160205260405f206024355f5260205261029960405f2061025b610c96565b346100bc575f3660031901126100bc57602060ff5f5460101c16604051908152f35b346100bc5761031b36610d71565b905f5490600160ff61033a6103338286168095610ec8565b9386610e58565b161b81179161036060ff61035a610355828560101c16610e46565b6111d0565b16610feb565b9161037760ff61035a610355828660101c16610e46565b9261038f61038a60ff8560101c16610cf0565b610cca565b9160ff8460101c168352601f196103ab60ff8660101c16610cf0565b015f5b8181106108845750505f5b60ff8560101c16811061084457505060019160ff8460081c169560ff8816965b60ff851698818a116105a057909591978060019a14985b60ff8b1660ff8560101c168111610581575f190160ff811161056d5760ff610419911686610e15565b51975f5b895181101561055357808b6001928f8f8d8f918e905f146104e157936104a2826104d9966104596104ba9560ff165f52600160205260405f2090565b6104638588610e15565b515f526020526104a86001600160801b0360405f2054166104a260ff61049061048b8c6111d0565b610e46565b169161049c8386610e15565b516111e5565b92610e15565b5260ff165f52600160205260405f2090565b515f526020526104a260ff61049061048b60405f205460801c946111d0565b525b0161041d565b936104a28261054d966105026105319560ff165f52600160205260405f2090565b61050c8588610e15565b515f526020526104a86001600160801b0360405f2054166104a260ff6104908b6111d0565b515f526020526104a260ff61049060405f205460801c936111d0565b526104db565b5092919a61056391949850610de0565b99909196926103f0565b634e487b7160e01b5f52601160045260245ffd5b5092985092939598509361059490610de0565b939796949291966103d9565b82888887936105af8551610feb565b946105ba8451610feb565b9360ff8460101c165b60018110156106d657505050806001600160801b036105f061060d9360ff165f52600260205260405f2090565b54166105fb87610df1565b5260ff165f52600260205260405f2090565b5460801c61061a83610df1565b5260015b60ff8260101c1681111561065c5750506102999061064e6040519485948552606060208601526060850190610dad565b908382036040850152610dad565b600181901b6001600160ff1b038216820361056d576001810180911161056d5760ff916106c06106b6836106a66106966106cf968c610e15565b516106a08c610df1565b51610e6c565b6106af8b610df1565b5287610e15565b516106a087610df1565b6106c986610df1565b52610e79565b905061061e565b6001600160ff1b038116810361056d576106f38160011b84610e15565b51600182811b018260011b1161056d57610712600183811b0185610e15565b516107208360011b85610e15565b5190610731600185811b0186610e15565b51926001850180861161056d575b60ff8a60101c16811115610798575061075b8560011b8d610e15565b5261076b600185811b018c610e15565b526107798360011b89610e15565b52610789600183811b0188610e15565b52801561056d575f19016105c3565b936107a68686949394611205565b926001600160ff1b038616860361056d576107da906107d48f6107cd908960011b90610e15565b51866111f2565b90610e6c565b91600186811b0191828760011b1161056d576107d48f956108328f989561082c61083f976107d46107cd8d8f9d6108399b6107d461081b8961082294610e15565b518b6111f2565b9d60011b90610e15565b99610e15565b51906111f2565b94610e79565b61073f565b600181989493959798019081811161056d5761086260019284611031565b61086c8286610e15565b526108778185610e15565b50019695939192966103b9565b60606020828701810191909152016103ae565b346100bc5760403660031901126100bc576004356108b3610c76565b906108bd81611127565b5f1981019290831161056d576108e16108d861038a85610cf0565b93808552610cf0565b602084019290601f19013684375f60ff60019316925b838111156109d857505060ff91817f07060605060205040602030205040301060502050303040105050304000000006f8421084210842108cc6318c6db6d54be61098d946001600160801b031060071b831560081b1783811c67ffffffffffffffff1060061b1783811c63ffffffff1060051b1783811c61ffff1060041b1783811c871060031b1792831c1c601f161a17610e6c565b1690604051916040830193604084525180945260608301915f945b8086106109bd57505082935060208301520390f35b909260208060019260ff8751168152019401950194906109a8565b8060016109eb921b84166109f057610e79565b6108f7565b6109f983610e79565b926106c960ff83169189610e15565b346100bc5760403660031901126100bc5760043567ffffffffffffffff81116100bc57366023820112156100bc5780600401359067ffffffffffffffff82116100bc573660248360051b830101116100bc57610a7190610a66610c76565b926024369201610d08565b8051905f549160ff8360101c1603610c3b5760ff610a90921690610ec8565b90610aa68160ff165f52600160205260405f2090565b825f526020526001600160801b0360405f2054161515916001915b60ff5f5460101c1660ff8416908111610bc157610ade9083611031565b915f5b8351811015610bad576001908615610b5b57610b088460ff165f52600160205260405f2090565b610b128287610e15565b515f52602052610b5560405f20610b2c815460801c610e29565b81546001600160801b031660809190911b6fffffffffffffffffffffffffffffffff1916179055565b01610ae1565b610b708460ff165f52600160205260405f2090565b610b7a8287610e15565b515f5260205260405f206001600160801b03610b9881835416610e29565b166001600160801b0319825416179055610b55565b5092610bba919250610de0565b9190610ac1565b610bfb828615610bfd57610bf0610be38260ff165f52600260205260405f2090565b610b2c815460801c610e29565b60ff5f541690610e58565b005b610c128160ff165f52600260205260405f2090565b6001600160801b03610c2681835416610e29565b166001600160801b0319825416179055610bf0565b60405162461bcd60e51b8152602060048201526013602482015272092dcecc2d8d2c840e0d2c6d640d8cadccee8d606b1b6044820152606490fd5b6024359060ff821682036100bc57565b6004359060ff821682036100bc57565b604051906040820182811067ffffffffffffffff821117610cb657604052565b634e487b7160e01b5f52604160045260245ffd5b6040519190601f01601f1916820167ffffffffffffffff811183821017610cb657604052565b67ffffffffffffffff8111610cb65760051b60200190565b9291610d1661038a83610cf0565b93828552602085019260051b81019182116100bc57915b818310610d3957505050565b823560ff811681036100bc57815260209283019201610d2d565b9080601f830112156100bc57816020610d6e93359101610d08565b90565b60406003198201126100bc576004359067ffffffffffffffff82116100bc57610d9c91600401610d53565b9060243560ff811681036100bc5790565b90602080835192838152019201905f5b818110610dca5750505090565b8251845260209384019390920191600101610dbd565b60ff1660ff811461056d5760010190565b805160011015610e015760400190565b634e487b7160e01b5f52603260045260245ffd5b8051821015610e015760209160051b010190565b6001600160801b03166001600160801b03811461056d5760010190565b60ff60019116019060ff821161056d57565b9060ff8091169116019060ff821161056d57565b9190820391821161056d57565b5f19811461056d5760010190565b15610e8e57565b60405162461bcd60e51b8152602060048201526012602482015271092dcecc2d8d2c840e6cae840d8cadccee8d60731b6044820152606490fd5b9190610ed683511515610e87565b5f90815b8451831015610fca578160ff610ef08588610e15565b5116111580610fb4575b15610f7757600160ff610f0d8588610e15565b51161b8116610f32576001908160ff610f268689610e15565b51161b17920191610eda565b60405162461bcd60e51b815260206004820152601760248201527f4475706c6963617465206e756d62657220696e207365740000000000000000006044820152606490fd5b60405162461bcd60e51b815260206004820152601560248201527424b73b30b634b21039b2ba1039b2b632b1ba34b7b760591b6044820152606490fd5b5060ff610fc18487610e15565b51161515610efa565b93505050565b15610fd757565b634e487b7160e01b5f52600160045260245ffd5b90610ff861038a83610cf0565b8281528092611009601f1991610cf0565b0190602036910137565b811561101d570490565b634e487b7160e01b5f52601260045260245ffd5b9161103b83611127565b9261104884841115610fd0565b61105a6110558486611205565b610feb565b925f91600180831b5f19019190871b5b80831061108b5750505061108390611089939495611205565b14610fd0565b565b9391969094925f93869289965f945b61010086108061111e575b156110e3576001808216146110c1575b6001958601951c61109a565b976001808216146110d6575b60011c976110b5565b6001861b909717966110cd565b5094965094909692509790976110fd600187019689610e15565b52611114815f03821680830192831860021c611013565b179196929661106a565b508015156110a5565b7f01010101010101010101010101010101010101010101010101010101010101017f0f0f0f0f0f0f0f0f0f0f0f0f0f0f0f0f0f0f0f0f0f0f0f0f0f0f0f0f0f0f0f0f7f55555555555555555555555555555555555555555555555555555555555555558360011c1683037f3333333333333333333333333333333333333333333333333333333333333333808260021c169116018060041c01160260f81c905f191460081b1790565b60011b906101fe60fe83169216820361056d57565b9190820180921161056d57565b8181029291811591840414171561056d57565b61121182821015610fd0565b61121e6080821115610fd0565b6001916001915b818311156112335750505090565b61124a838260019396949596905f19019402611013565b9301919061122556fea2646970667358221220af2aedb4d1f7006b104ee515f552c79bb6badc29139ae19b861715b28d5d3f3b64736f6c634300081c0033",
  "linkReferences": {},
  "deployedLinkReferences": {}
}