{
  "_format": "hh-sol-artifact-1",
  "contractName": "MockTicketArt",
  "sourceName": "contracts/mocks/MockTicketArt.sol",
  "abi": [
    {
      "inputs": [
        {
          "components": [
            {
              "internalType": "uint256",
              "name": "ticketId",
              "type": "uint256"
            },
            {
              "components": [
                {
                  "internalType": "uint256",
                  "name": "drawingId",
                  "type": "uint256"
                },
                {
                  "internalType": "uint256",
                  "name": "packedTicket",
                  "type": "uint256"
                },
                {
                  "internalType": "bytes32",
                  "name": "referralScheme",
                  "type": "bytes32"
                }
              ],
              "internalType": "struct IJackpotTicketNFT.TrackedTicket",
              "name": "ticket",
              "type": "tuple"
            },
            {
              "internalType": "uint8[]",
              "name": "normals",
              "type": "uint8[]"
            },
            {
              "internalType": "uint8",
              "name": "bonusball",
              "type": "uint8"
            }
          ],
          "internalType": "struct IJackpotTicketNFT.ExtendedTrackedTicket",
          "name": "",
          "type": "tuple"
        }
      ],
      "name": "generateTokenURI",
      "outputs": [
        {
          "internalType": "string",
          "name": "",
          "type": "string"
        }
      ],
      "stateMutability": "view",
      "type": "function"
    },
    {
      "inputs": [],
      "name": "mockURI",
      "outputs": [
        {
          "internalType": "string",
          "name": "",
          "type": "string"
        }
      ],
      "stateMutability": "view",
      "type": "function"
    },
    {
      "inputs": [
        {
          "internalType": "string",
          "name": "_uri",
          "type": "string"
        }
      ],
      "name": "setMockURI",
      "outputs": [],
      "stateMutability": "nonpayable",
      "type": "function"
    }
  ],
  "bytecode": "0x6080806040523460b9575f54600181811c9116801560b0575b6020821014609c57601f81116058575b507f6d6f636b3a2f2f746f6b656e2d757269000000000000000000000000000000205f556104f290816100be8239f35b5f8052601f0160051c7f290decd9548b62a8d60345a988386fc84ba6bc95484008f6362f93160ef3e563908101905b818110609257506028565b5f81556001016087565b634e487b7160e01b5f52602260045260245ffd5b90607f16906018565b5f80fdfe6080806040526004361015610012575f80fd5b5f3560e01c90816310def5cb1461022657508063c1a1c599146101fb5763f47512051461003d575f80fd5b346101f75760203660031901126101f75760043567ffffffffffffffff81116101f757366023820112156101f757806004013567ffffffffffffffff81116101e35760405191610097601f8301601f191660200184610369565b81835236602483830101116101f757815f926024602093018386013783010152805167ffffffffffffffff81116101e3576100d25f546103c3565b601f811161017c575b50602091601f8211600114610116579181925f9261010b575b50505f19600383901b1c191660019190911b175f55005b015190505f806100f4565b601f198216925f80525f51602061049d5f395f51905f52915f5b8581106101645750836001951061014c575b505050811b015f55005b01515f1960f88460031b161c191690555f8080610142565b91926020600181928685015181550194019201610130565b5f8052601f820160051c5f51602061049d5f395f51905f520190602083106101ce575b601f0160051c5f51602061049d5f395f51905f5201905b8181106101c357506100db565b5f81556001016101b6565b5f51602061049d5f395f51905f52915061019f565b634e487b7160e01b5f52604160045260245ffd5b5f80fd5b346101f7575f3660031901126101f7576102226102166103fb565b60405191829182610399565b0390f35b346101f75760203660031901126101f75760043567ffffffffffffffff81116101f75780360360c06003198201126101f757608083019083821067ffffffffffffffff8311176101e3576060916040528260040135845260231901126101f7576040516060810181811067ffffffffffffffff8211176101e3576040526024820135815260448201356020820152606482013560408201526020830152608481013567ffffffffffffffff81116101f7578101366023820112156101f75760048101359067ffffffffffffffff82116101e3578160051b6040519261030e6020830185610369565b835281016024019060208301903683116101f757602401905b8282106103515785606061034360a4888860408601520161038b565b9101526102226102166103fb565b6020809161035e8461038b565b815201910190610327565b90601f8019910116810190811067ffffffffffffffff8211176101e357604052565b359060ff821682036101f757565b602060409281835280519182918282860152018484015e5f828201840152601f01601f1916010190565b90600182811c921680156103f1575b60208310146103dd57565b634e487b7160e01b5f52602260045260245ffd5b91607f16916103d2565b604051905f825f549161040d836103c3565b808352926001811690811561047d5750600114610433575b61043192500383610369565b565b505f80805290915f51602061049d5f395f51905f525b81831061046157505090602061043192820101610425565b6020919350806001915483858901015201910190918492610449565b6020925061043194915060ff191682840152151560051b82010161042556fe290decd9548b62a8d60345a988386fc84ba6bc95484008f6362f93160ef3e563a26469706673582212205c39ae5b656f9dc0dd17c76123298b53dd803e70966cd87278d21d11fcbe639b64736f6c634300081c0033",
  "linkReferences": {},
  "deployedLinkReferences": {}
}