{
  "_format": "hh-sol-artifact-1",
  "contractName": "ScaledEntropyProvider",
  "sourceName": "contracts/ScaledEntropyProvider.sol",
  "abi": [
    {
      "inputs": [
        {
          "internalType": "address",
          "name": "_entropy",
          "type": "address"
        },
        {
          "internalType": "address",
          "name": "_entropyProvider",
          "type": "address"
        }
      ],
      "stateMutability": "nonpayable",
      "type": "constructor"
    },
    {
      "inputs": [],
      "name": "AllowedAlreadyAdded",
      "type": "error"
    },
    {
      "inputs": [],
      "name": "AllowedNotFound",
      "type": "error"
    },
    {
      "inputs": [
        {
          "internalType": "bytes4",
          "name": "selector",
          "type": "bytes4"
        }
      ],
      "name": "CallbackFailed",
      "type": "error"
    },
    {
      "inputs": [],
      "name": "EmptyArray",
      "type": "error"
    },
    {
      "inputs": [],
      "name": "InsufficientFee",
      "type": "error"
    },
    {
      "inputs": [],
      "name": "InvalidCallback",
      "type": "error"
    },
    {
      "inputs": [],
      "name": "InvalidRange",
      "type": "error"
    },
    {
      "inputs": [],
      "name": "InvalidRequests",
      "type": "error"
    },
    {
      "inputs": [],
      "name": "InvalidSamplesCount",
      "type": "error"
    },
    {
      "inputs": [],
      "name": "InvalidSelector",
      "type": "error"
    },
    {
      "inputs": [],
      "name": "NotAllowed",
      "type": "error"
    },
    {
      "inputs": [
        {
          "internalType": "address",
          "name": "owner",
          "type": "address"
        }
      ],
      "name": "OwnableInvalidOwner",
      "type": "error"
    },
    {
      "inputs": [
        {
          "internalType": "address",
          "name": "account",
          "type": "address"
        }
      ],
      "name": "OwnableUnauthorizedAccount",
      "type": "error"
    },
    {
      "inputs": [],
      "name": "ReentrancyGuardReentrantCall",
      "type": "error"
    },
    {
      "inputs": [],
      "name": "UnknownSequence",
      "type": "error"
    },
    {
      "inputs": [],
      "name": "ZeroAddress",
      "type": "error"
    },
    {
      "inputs": [],
      "name": "ZeroAddress",
      "type": "error"
    },
    {
      "anonymous": false,
      "inputs": [
        {
          "indexed": true,
          "internalType": "address",
          "name": "allowed",
          "type": "address"
        }
      ],
      "name": "AllowedAdded",
      "type": "event"
    },
    {
      "anonymous": false,
      "inputs": [
        {
          "indexed": true,
          "internalType": "address",
          "name": "allowed",
          "type": "address"
        }
      ],
      "name": "AllowedRemoved",
      "type": "event"
    },
    {
      "anonymous": false,
      "inputs": [
        {
          "indexed": true,
          "internalType": "uint64",
          "name": "sequence",
          "type": "uint64"
        },
        {
          "indexed": false,
          "internalType": "bytes32",
          "name": "randomNumber",
          "type": "bytes32"
        }
      ],
      "name": "EntropyFulfilled",
      "type": "event"
    },
    {
      "anonymous": false,
      "inputs": [
        {
          "indexed": true,
          "internalType": "address",
          "name": "previousOwner",
          "type": "address"
        },
        {
          "indexed": true,
          "internalType": "address",
          "name": "newOwner",
          "type": "address"
        }
      ],
      "name": "OwnershipTransferStarted",
      "type": "event"
    },
    {
      "anonymous": false,
      "inputs": [
        {
          "indexed": true,
          "internalType": "address",
          "name": "previousOwner",
          "type": "address"
        },
        {
          "indexed": true,
          "internalType": "address",
          "name": "newOwner",
          "type": "address"
        }
      ],
      "name": "OwnershipTransferred",
      "type": "event"
    },
    {
      "anonymous": false,
      "inputs": [
        {
          "indexed": true,
          "internalType": "uint64",
          "name": "sequence",
          "type": "uint64"
        },
        {
          "indexed": true,
          "internalType": "address",
          "name": "callback",
          "type": "address"
        },
        {
          "indexed": false,
          "internalType": "uint256",
          "name": "samples",
          "type": "uint256"
        }
      ],
      "name": "ScaledRandomnessDelivered",
      "type": "event"
    },
    {
      "inputs": [
        {
          "internalType": "uint64",
          "name": "sequence",
          "type": "uint64"
        },
        {
          "internalType": "address",
          "name": "provider",
          "type": "address"
        },
        {
          "internalType": "bytes32",
          "name": "randomNumber",
          "type": "bytes32"
        }
      ],
      "name": "_entropyCallback",
      "outputs": [],
      "stateMutability": "nonpayable",
      "type": "function"
    },
    {
      "inputs": [],
      "name": "acceptOwnership",
      "outputs": [],
      "stateMutability": "nonpayable",
      "type": "function"
    },
    {
      "inputs": [
        {
          "internalType": "address",
          "name": "_allowed",
          "type": "address"
        }
      ],
      "name": "addAllowed",
      "outputs": [],
      "stateMutability": "nonpayable",
      "type": "function"
    },
    {
      "inputs": [
        {
          "internalType": "address[]",
          "name": "_allowed",
          "type": "address[]"
        }
      ],
      "name": "addAllowedBatch",
      "outputs": [],
      "stateMutability": "nonpayable",
      "type": "function"
    },
    {
      "inputs": [],
      "name": "getAllowed",
      "outputs": [
        {
          "internalType": "address[]",
          "name": "",
          "type": "address[]"
        }
      ],
      "stateMutability": "view",
      "type": "function"
    },
    {
      "inputs": [],
      "name": "getEntropyContract",
      "outputs": [
        {
          "internalType": "address",
          "name": "",
          "type": "address"
        }
      ],
      "stateMutability": "view",
      "type": "function"
    },
    {
      "inputs": [],
      "name": "getEntropyProvider",
      "outputs": [
        {
          "internalType": "address",
          "name": "",
          "type": "address"
        }
      ],
      "stateMutability": "view",
      "type": "function"
    },
    {
      "inputs": [
        {
          "internalType": "uint32",
          "name": "_gasLimit",
          "type": "uint32"
        }
      ],
      "name": "getFee",
      "outputs": [
        {
          "internalType": "uint256",
          "name": "",
          "type": "uint256"
        }
      ],
      "stateMutability": "view",
      "type": "function"
    },
    {
      "inputs": [
        {
          "internalType": "uint64",
          "name": "_sequence",
          "type": "uint64"
        }
      ],
      "name": "getPendingRequest",
      "outputs": [
        {
          "components": [
            {
              "internalType": "address",
              "name": "callback",
              "type": "address"
            },
            {
              "internalType": "bytes4",
              "name": "selector",
              "type": "bytes4"
            },
            {
              "internalType": "bytes",
              "name": "context",
              "type": "bytes"
            },
            {
              "internalType": "bytes32",
              "name": "userRandomNumber",
              "type": "bytes32"
            },
            {
              "components": [
                {
                  "internalType": "uint8",
                  "name": "samples",
                  "type": "uint8"
                },
                {
                  "internalType": "uint256",
                  "name": "minRange",
                  "type": "uint256"
                },
                {
                  "internalType": "uint256",
                  "name": "maxRange",
                  "type": "uint256"
                },
                {
                  "internalType": "bool",
                  "name": "withReplacement",
                  "type": "bool"
                }
              ],
              "internalType": "struct IScaledEntropyProvider.SetRequest[]",
              "name": "setRequests",
              "type": "tuple[]"
            }
          ],
          "internalType": "struct ScaledEntropyProvider.PendingRequest",
          "name": "",
          "type": "tuple"
        }
      ],
      "stateMutability": "view",
      "type": "function"
    },
    {
      "inputs": [
        {
          "internalType": "address",
          "name": "_allowed",
          "type": "address"
        }
      ],
      "name": "isAllowed",
      "outputs": [
        {
          "internalType": "bool",
          "name": "",
          "type": "bool"
        }
      ],
      "stateMutability": "view",
      "type": "function"
    },
    {
      "inputs": [],
      "name": "owner",
      "outputs": [
        {
          "internalType": "address",
          "name": "",
          "type": "address"
        }
      ],
      "stateMutability": "view",
      "type": "function"
    },
    {
      "inputs": [],
      "name": "pendingOwner",
      "outputs": [
        {
          "internalType": "address",
          "name": "",
          "type": "address"
        }
      ],
      "stateMutability": "view",
      "type": "function"
    },
    {
      "inputs": [
        {
          "internalType": "address",
          "name": "_allowed",
          "type": "address"
        }
      ],
      "name": "removeAllowed",
      "outputs": [],
      "stateMutability": "nonpayable",
      "type": "function"
    },
    {
      "inputs": [],
      "name": "renounceOwnership",
      "outputs": [],
      "stateMutability": "nonpayable",
      "type": "function"
    },
    {
      "inputs": [
        {
          "internalType": "uint32",
          "name": "_gasLimit",
          "type": "uint32"
        },
        {
          "components": [
            {
              "internalType": "uint8",
              "name": "samples",
              "type": "uint8"
            },
            {
              "internalType": "uint256",
              "name": "minRange",
              "type": "uint256"
            },
            {
              "internalType": "uint256",
              "name": "maxRange",
              "type": "uint256"
            },
            {
              "internalType": "bool",
              "name": "withReplacement",
              "type": "bool"
            }
          ],
          "internalType": "struct IScaledEntropyProvider.SetRequest[]",
          "name": "_requests",
          "type": "tuple[]"
        },
        {
          "internalType": "bytes4",
          "name": "_selector",
          "type": "bytes4"
        },
        {
          "internalType": "bytes",
          "name": "_context",
          "type": "bytes"
        }
      ],
      "name": "requestAndCallbackScaledRandomness",
      "outputs": [
        {
          "internalType": "uint64",
          "name": "sequence",
          "type": "uint64"
        }
      ],
      "stateMutability": "payable",
      "type": "function"
    },
    {
      "inputs": [
        {
          "internalType": "address",
          "name": "_entropyProvider",
          "type": "address"
        }
      ],
      "name": "setEntropyProvider",
      "outputs": [],
      "stateMutability": "nonpayable",
      "type": "function"
    },
    {
      "inputs": [
        {
          "internalType": "address",
          "name": "newOwner",
          "type": "address"
        }
      ],
      "name": "transferOwnership",
      "outputs": [],
      "stateMutability": "nonpayable",
      "type": "function"
    }
  ],
  "bytecode": "0x60803461011a57601f611b7138819003918201601f19168301916001600160401b0383118484101761011e57808492604094855283398101031261011a57610052602061004b83610132565b9201610132565b331561010757600180546001600160a01b03199081169091555f805433928116831782556040519492916001600160a01b03909116907f8be0079c531659141344cd1fd0a4f28419497f9722a3daafe3b4186f6b6457e09080a36001600160a01b03169081156100f8576001600160a01b03169081156100f85760018060a01b0319600454161760045560018060a01b03196005541617600555611a2a90816101478239f35b63d92e233d60e01b5f5260045ffd5b631e4fbdf760e01b5f525f60045260245ffd5b5f80fd5b634e487b7160e01b5f52604160045260245ffd5b51906001600160a01b038216820361011a5756fe6080806040526004361015610012575f80fd5b5f3560e01c90816303fced0c1461157f575080633f3090c8146114db578063476284b0146114b357806352a5f1f814610c4a5780636470db2f14610bd7578063715018a614610b7457806379ba509714610aef5780638da5cb5b14610ac8578063a13cf38614610a6d578063ace59f4f14610a45578063babcc53914610a03578063bcda2a76146109d8578063bd4577a914610741578063bf99a445146101a0578063cb8523c614610175578063e30c39781461014d5763f2fde38b146100d7575f80fd5b34610149576020366003190112610149576100f0611651565b6100f8611806565b60018060a01b0316806bffffffffffffffffffffffff60a01b600154161760015560018060a01b035f54167f38d16b8cac22d99fc7c124b9cd0de2d3fa1faef420bfe791d8c362d765e227005f80a3005b5f80fd5b34610149575f366003190112610149576001546040516001600160a01b039091168152602090f35b346101495760203660031901126101495761019e610191611651565b610199611806565b611819565b005b6080366003190112610149576101b4611667565b6024356001600160401b03811161014957366023820112156101495780600401356101de816116f5565b916101ec60405193846116d4565b8183526024602084019260071b8201019036821161014957602401915b8183106106e3575050506044356001600160e01b031981169081810361014957606435916001600160401b03831161014957366023840112156101495782600401356102548161170c565b9361026260405195866116d4565b818552366024838301011161014957815f926024602093018388013785010152610297335f52600360205260405f2054151590565b156106d4576102a585611727565b34106106c657156106b7578251156106a8575f5b83518110156103965760206102ce8286611880565b51015160406102dd8387611880565b510151106103875760ff6102f18286611880565b5151161561031b5760606103058286611880565b510151158061032a575b61031b576001016102b9565b637b8ac2a960e11b5f5260045ffd5b5060ff6103378286611880565b51511661036160406103498488611880565b51015160206103588589611880565b51015190611894565b9060018201809211610373571161030f565b634e487b7160e01b5f52601160045260245ffd5b63561ce9bb60e01b5f5260045ffd5b5060048054600554604051630e33da2960e01b81526001600160a01b039182169381019390935263ffffffff96909616602483015292949092602091849160449183913491165af191821561069d575f92610659575b50600580546001600160a01b039081165f9081526006602081815260408084206001600160401b0389811680875291845282862080546001600160a01b031916331790558754871686528484528286208287528452828620805463ffffffff60a01b191699841c63ffffffff60a01b169990991790985595549094168352908152828220938252929092529020845160019190910191811161058a5761049282546117ce565b601f811161061e575b50602094601f82116001146105bd579481929394955f926105b2575b50508160011b915f199060031b1c19161790555b5f5b825181101561059e5760018060a01b03600554165f52600660205260405f206001600160401b0383165f52602052600360405f20019061050d8185611880565b518254600160401b81101561058a57600181018085558110156105765760036060916001955f5260205f209060021b0160ff84511660ff198254161781556020840151868201556040840151600282015501910151151560ff80198354169116179055016104cd565b634e487b7160e01b5f52603260045260245ffd5b634e487b7160e01b5f52604160045260245ffd5b6020826001600160401b0360405191168152f35b0151905085806104b7565b601f19821695835f52805f20915f5b888110610606575083600195969798106105ee575b505050811b0190556104cb565b01515f1960f88460031b161c191690558580806105e1565b919260206001819286850151815501940192016105cc565b61064990835f5260205f20601f840160051c8101916020851061064f575b601f0160051c019061186a565b8561049b565b909150819061063c565b9091506020813d602011610695575b81610675602093836116d4565b8101031261014957516001600160401b03811681036101495790846103ec565b3d9150610668565b6040513d5f823e3d90fd5b6395ec8fa160e01b5f5260045ffd5b631cd4b64760e21b5f5260045ffd5b62976f7560e21b5f5260045ffd5b631eb49d6d60e11b5f5260045ffd5b60808336031261014957604051906106fa826116b9565b833560ff8116810361014957825260208401356020830152604084013560408301526060840135908115158203610149578260209260606080950152815201920191610209565b346101495760203660031901126101495761075a61163b565b6060608060405161076a8161169e565b5f81525f60208201528260408201525f83820152015260018060a01b03600554165f5260066020526001600160401b0360405f2091165f5260205260405f20604051906107b68261169e565b80546001600160a01b0381168352604090811b6001600160e01b0319166020840190815290516001830180549082905f906107f0846117ce565b80845293600181169081156109b65750600114610972575b5061081992509594939503826116d4565b604083019081526003600283015492606085019384520190815461083c816116f5565b9261084a60405194856116d4565b81845260208401905f5260205f205f915b83831061091d57505050506108ac90608085019283526040519586956020875260018060a01b03905116602087015263ffffffff60e01b90511660408601525160a0606086015260c085019061167a565b915160808401525190601f198382030160a0840152602080835192838152019201905f5b8181106108de575050500390f35b91935091602060806001926060875160ff81511683528481015185840152604081015160408401520151151560608201520194019101918493926108d0565b6004602060019260409b9798999a9b51610936816116b9565b60ff865416815284860154838201526002860154604082015260ff6003870154161515606082015281520192019201919097969594939761085b565b90505f9291925260205f20905f915b81831061099a5750509060206108199282010187610808565b6020919350806001915483858801015201910190918392610981565b90506020925061081994915060ff191682840152151560051b82010187610808565b346101495760203660031901126101495760206109fb6109f6611667565b611727565b604051908152f35b34610149576020366003190112610149576020610a3b6001600160a01b03610a29611651565b165f52600360205260405f2054151590565b6040519015158152f35b34610149575f366003190112610149576005546040516001600160a01b039091168152602090f35b3461014957602036600319011261014957610a86611651565b610a8e611806565b6001600160a01b03168015610ab9576bffffffffffffffffffffffff60a01b60055416176005555f80f35b63d92e233d60e01b5f5260045ffd5b34610149575f366003190112610149575f546040516001600160a01b039091168152602090f35b34610149575f36600319011261014957600154336001600160a01b0390911603610b6157600180546001600160a01b03199081169091555f805433928116831782556001600160a01b0316907f8be0079c531659141344cd1fd0a4f28419497f9722a3daafe3b4186f6b6457e09080a3005b63118cdaa760e01b5f523360045260245ffd5b34610149575f36600319011261014957610b8c611806565b600180546001600160a01b03199081169091555f80549182168155906001600160a01b03167f8be0079c531659141344cd1fd0a4f28419497f9722a3daafe3b4186f6b6457e08280a3005b3461014957602036600319011261014957610bf0611651565b610bf8611806565b6001600160a01b03168015610ab957610c10816118b6565b15610c3b577f0b9f2e1df04a0ccdea40ce7cec83fcf3c7b42d5647460cf541f2a8eabf1b170f5f80a2005b630c6d8dd560e11b5f5260045ffd5b3461014957606036600319011261014957610c6361163b565b6024356001600160a01b038116908190036101495760045460443592906001600160a01b0316801561146e57330361141d57815f52600660205260405f206001600160401b0382165f5260205260405f209160405192610cc28461169e565b80546001600160a01b0381168552604090811b6001600160e01b0319166020860152516001820180545f91610cf6826117ce565b80855291600181169081156113f657506001146113b2575b505090610d20816003949303826116d4565b60408601526002810154606086015201908154610d3c816116f5565b92610d4a60405194856116d4565b81845260208401905f5260205f205f915b83831061136957505050506080840191825283516001600160a01b03161561135a575f52600660205260405f206001600160401b0383165f52602052600360405f205f815560018101610dae81546117ce565b9081611317575b50505f6002820155018054905f8155816112d3575b505051805191610dd9836116f5565b92610de760405194856116d4565b808452610df6601f19916116f5565b015f5b8181106112c25750505f5b8251811015611111576060610e198285611880565b510151610f72576020610e2c8285611880565b510151906040610e3c8286611880565b51015160ff610e4b8387611880565b51511660405160208101908a825284604082015260408152610e6e6060826116d4565b51902091604051946315a409df60e31b865260048601526024850152604484015260648301525f8260848173__$f7b56129a109e8cfdd105a93f7993108ed$__5af4801561069d575f90610ede575b60019250610ecb8287611880565b52610ed68186611880565b505b01610e04565b50903d805f833e610eef81836116d4565b810190602081830312610149578051906001600160401b03821161014957019080601f8301121561014957815190610f26826116f5565b92610f3460405194856116d4565b82845260208085019360051b82010191821161014957602001915b818310610f625750505090600191610ebd565b8251815260209283019201610f4f565b6020610f7e8285611880565b5101516040610f8d8386611880565b5101519060ff610f9d8487611880565b51511660405160208101908a825285604082015260408152610fc06060826116d4565b51902090610ffa83610fd1836116f5565b95610fdf60405197886116d4565b838752601f19610fee856116f5565b01366020890137611894565b600181018111610373575f9160018201801592915f199190910490845b818610611045575050505050505050906001916110348287611880565b5261103f8186611880565b50610ed8565b84979e94879e949a979d969d9c93999c9b92989b5b60405160208101918252836040820152604081526110796060826116d4565b519020906110fd57891560018c01808c028c90041417156103735760018b018a0281106110ba5750908a6110b08f969594936119e6565b919293949561105a565b949e97959c919a505f9d9699939d9b98929b94600185019006888101809111610373576001916110f4916110ee858d611880565b526119e6565b91019490611017565b634e487b7160e01b5f52601260045260245ffd5b8382868860018060a01b0382511663ffffffff60e01b60208401511660408401519460405190602082019283526001600160401b036084830191169687602484015260606044840152885180925260a4830160a48360051b8501019260208b01915f905b82821061126c5750505050826111ae5f96946111a0889795889560231984830301606485015261167a565b03601f1981018352826116d4565b51925af13d15611267573d6111c28161170c565b906111d060405192836116d4565b81525f60203d92013e5b15611246577fee1174975b5a25e914d1f6358862fb3b151c65a9fa9e99fb5c193c990d29a03691837f954b4808147a6834b311f77ab3dc16941e285af7bdc49ca8547d2c693ac75cce60208094604051908152a25193516040519081526001600160a01b0390941693a3005b50602063ffffffff60e01b91015116632878b7c760e11b5f5260045260245ffd5b6111da565b9091929460a319878203018252855190602080835192838152019201905f905b8082106112aa57505050602080600192970192019201909291611175565b9091926020806001928651815201940192019061128c565b806060602080938801015201610df9565b6001600160fe1b0382168203610373575f5260205f209060021b8101905b81811015610dca57805f600492555f60018201555f60028201555f6003820155016112f1565b81601f5f931160011461132e5750555b8680610db5565b8183526020832061134a91601f0160051c81019060010161186a565b8082528160208120915555611327565b6315057af560e11b5f5260045ffd5b6004602060019260405161137c816116b9565b60ff865416815284860154838201526002860154604082015260ff60038701541615156060820152815201920192019190610d5b565b5f9081526020812094939250905b8082106113da5750919250908101602001610d2082610d0e565b91929360018160209254838588010152019101909392916113c0565b60ff191660208087019190915292151560051b85019092019250610d209150839050610d0e565b60405162461bcd60e51b815260206004820152602360248201527f4f6e6c7920456e74726f70792063616e2063616c6c20746869732066756e637460448201526234b7b760e91b6064820152608490fd5b60405162461bcd60e51b815260206004820152601760248201527f456e74726f70792061646472657373206e6f74207365740000000000000000006044820152606490fd5b34610149575f366003190112610149576004546040516001600160a01b039091168152602090f35b34610149576020366003190112610149576004356001600160401b0381116101495736602382011215610149578060040135906001600160401b038211610149573660248360051b8301011161014957611533611806565b8115611570575f5b8281101561019e57600581901b820160240135906001600160a01b03821682036101495761156a600192611819565b0161153b565b63521299a960e01b5f5260045ffd5b34610149575f366003190112610149576002549081815260208101809260025f527f405787fa12a823e0f2b7631cc41b3ba8828b3321ca811111fa75cd3aa3bb5ace905f5b81811061162557505050816115da9103826116d4565b604051918291602083019060208452518091526040830191905f5b818110611603575050500390f35b82516001600160a01b03168452859450602093840193909201916001016115f5565b82548452602090930192600192830192016115c4565b600435906001600160401b038216820361014957565b600435906001600160a01b038216820361014957565b6004359063ffffffff8216820361014957565b805180835260209291819084018484015e5f828201840152601f01601f1916010190565b60a081019081106001600160401b0382111761058a57604052565b608081019081106001600160401b0382111761058a57604052565b90601f801991011681019081106001600160401b0382111761058a57604052565b6001600160401b03811161058a5760051b60200190565b6001600160401b03811161058a57601f01601f191660200190565b60048054600554604051633d59561b60e11b81526001600160a01b039182169381019390935263ffffffff939093166024830152909160209183916044918391165afa801561069d575f90611785575b6001600160801b0391501690565b506020813d6020116117c6575b8161179f602093836116d4565b8101031261014957516001600160801b0381168103610149576001600160801b0390611777565b3d9150611792565b90600182811c921680156117fc575b60208310146117e857565b634e487b7160e01b5f52602260045260245ffd5b91607f16916117dd565b5f546001600160a01b03163303610b6157565b6001600160a01b03168015610ab95761183181611991565b1561185b577ece0c03872867ce1a835f25187949b04b93ee69d1a9c6e60e20d5077063f66d5f80a2565b63d35c96d960e01b5f5260045ffd5b818110611875575050565b5f815560010161186a565b80518210156105765760209160051b010190565b9190820391821161037357565b8054821015610576575f5260205f2001905f90565b5f81815260036020526040902054801561198b575f198101818111610373576002545f198101919082116103735781810361193d575b5050506002548015611929575f19016119068160026118a1565b8154905f199060031b1b191690556002555f5260036020525f6040812055600190565b634e487b7160e01b5f52603160045260245ffd5b61197561194e61195f9360026118a1565b90549060031b1c92839260026118a1565b819391549060031b91821b915f19901b19161790565b90555f52600360205260405f20555f80806118ec565b50505f90565b805f52600360205260405f2054155f146119e157600254600160401b81101561058a576119ca61195f82600185940160025560026118a1565b9055600254905f52600360205260405f2055600190565b505f90565b5f198114610373576001019056fea2646970667358221220327fbf7739619c926f53d330eb21e107804d59c12328150537eac4c1851345a364736f6c634300081c0033",
  "linkReferences": {
    "contracts/lib/FisherYatesWithRejection.sol": {
      "FisherYatesRejection": [
        {
          "length": 20,
          "start": 4066
        }
      ]
    }
  },
  "deployedLinkReferences": {
    "contracts/lib/FisherYatesWithRejection.sol": {
      "FisherYatesRejection": [
        {
          "length": 20,
          "start": 3739
        }
      ]
    }
  }
}