{
  "_format": "hh-sol-artifact-1",
  "contractName": "BatchPurchaseFacilitator",
  "sourceName": "contracts/BatchPurchaseFacilitator.sol",
  "abi": [
    {
      "inputs": [
        {
          "internalType": "address",
          "name": "_jackpot",
          "type": "address"
        },
        {
          "internalType": "address",
          "name": "_usdc",
          "type": "address"
        },
        {
          "internalType": "uint256",
          "name": "_minimumTicketCount",
          "type": "uint256"
        }
      ],
      "stateMutability": "nonpayable",
      "type": "constructor"
    },
    {
      "inputs": [],
      "name": "ActiveBatchOrderExists",
      "type": "error"
    },
    {
      "inputs": [],
      "name": "AllowedAlreadyAdded",
      "type": "error"
    },
    {
      "inputs": [],
      "name": "AllowedNotFound",
      "type": "error"
    },
    {
      "inputs": [],
      "name": "EmptyArray",
      "type": "error"
    },
    {
      "inputs": [],
      "name": "InvalidMinimumTicketCount",
      "type": "error"
    },
    {
      "inputs": [],
      "name": "InvalidNormalBallCount",
      "type": "error"
    },
    {
      "inputs": [],
      "name": "InvalidReferralSplitBps",
      "type": "error"
    },
    {
      "inputs": [],
      "name": "InvalidStaticTicket",
      "type": "error"
    },
    {
      "inputs": [],
      "name": "InvalidTicketCount",
      "type": "error"
    },
    {
      "inputs": [],
      "name": "JackpotLocked",
      "type": "error"
    },
    {
      "inputs": [],
      "name": "JackpotNotInitialized",
      "type": "error"
    },
    {
      "inputs": [],
      "name": "NoActiveBatchOrder",
      "type": "error"
    },
    {
      "inputs": [],
      "name": "NotAllowed",
      "type": "error"
    },
    {
      "inputs": [
        {
          "internalType": "address",
          "name": "owner",
          "type": "address"
        }
      ],
      "name": "OwnableInvalidOwner",
      "type": "error"
    },
    {
      "inputs": [
        {
          "internalType": "address",
          "name": "account",
          "type": "address"
        }
      ],
      "name": "OwnableUnauthorizedAccount",
      "type": "error"
    },
    {
      "inputs": [],
      "name": "ReentrancyGuardReentrantCall",
      "type": "error"
    },
    {
      "inputs": [],
      "name": "ReferralSplitLengthMismatch",
      "type": "error"
    },
    {
      "inputs": [],
      "name": "ReferralSplitSumInvalid",
      "type": "error"
    },
    {
      "inputs": [],
      "name": "RepeatedNormalBall",
      "type": "error"
    },
    {
      "inputs": [
        {
          "internalType": "address",
          "name": "token",
          "type": "address"
        }
      ],
      "name": "SafeERC20FailedOperation",
      "type": "error"
    },
    {
      "inputs": [],
      "name": "TooManyReferrers",
      "type": "error"
    },
    {
      "inputs": [],
      "name": "ZeroAddress",
      "type": "error"
    },
    {
      "anonymous": false,
      "inputs": [
        {
          "indexed": true,
          "internalType": "address",
          "name": "allowed",
          "type": "address"
        }
      ],
      "name": "AllowedAdded",
      "type": "event"
    },
    {
      "anonymous": false,
      "inputs": [
        {
          "indexed": true,
          "internalType": "address",
          "name": "allowed",
          "type": "address"
        }
      ],
      "name": "AllowedRemoved",
      "type": "event"
    },
    {
      "anonymous": false,
      "inputs": [
        {
          "indexed": true,
          "internalType": "address",
          "name": "recipient",
          "type": "address"
        },
        {
          "indexed": true,
          "internalType": "enum BatchPurchaseFacilitator.ExecutionAction",
          "name": "executionAction",
          "type": "uint8"
        },
        {
          "indexed": false,
          "internalType": "uint256",
          "name": "refundAmount",
          "type": "uint256"
        }
      ],
      "name": "BatchOrderCancelled",
      "type": "event"
    },
    {
      "anonymous": false,
      "inputs": [
        {
          "indexed": true,
          "internalType": "address",
          "name": "payer",
          "type": "address"
        },
        {
          "indexed": true,
          "internalType": "address",
          "name": "recipient",
          "type": "address"
        },
        {
          "indexed": true,
          "internalType": "uint256",
          "name": "drawingId",
          "type": "uint256"
        },
        {
          "indexed": false,
          "internalType": "uint256",
          "name": "totalCost",
          "type": "uint256"
        },
        {
          "indexed": false,
          "internalType": "uint256",
          "name": "dynamicTicketCount",
          "type": "uint256"
        },
        {
          "indexed": false,
          "internalType": "uint256",
          "name": "staticTicketCount",
          "type": "uint256"
        }
      ],
      "name": "BatchOrderCreated",
      "type": "event"
    },
    {
      "anonymous": false,
      "inputs": [
        {
          "indexed": true,
          "internalType": "address",
          "name": "user",
          "type": "address"
        },
        {
          "indexed": true,
          "internalType": "uint256",
          "name": "drawingId",
          "type": "uint256"
        },
        {
          "indexed": false,
          "internalType": "uint256[]",
          "name": "ticketIds",
          "type": "uint256[]"
        },
        {
          "indexed": false,
          "internalType": "uint256",
          "name": "ticketsExecuted",
          "type": "uint256"
        },
        {
          "indexed": false,
          "internalType": "uint256",
          "name": "remainingTickets",
          "type": "uint256"
        },
        {
          "indexed": false,
          "internalType": "uint256",
          "name": "remainingUSDC",
          "type": "uint256"
        }
      ],
      "name": "BatchOrderExecuted",
      "type": "event"
    },
    {
      "anonymous": false,
      "inputs": [
        {
          "indexed": true,
          "internalType": "address",
          "name": "recipient",
          "type": "address"
        }
      ],
      "name": "BatchOrderRemoved",
      "type": "event"
    },
    {
      "anonymous": false,
      "inputs": [
        {
          "indexed": true,
          "internalType": "address",
          "name": "previousOwner",
          "type": "address"
        },
        {
          "indexed": true,
          "internalType": "address",
          "name": "newOwner",
          "type": "address"
        }
      ],
      "name": "OwnershipTransferStarted",
      "type": "event"
    },
    {
      "anonymous": false,
      "inputs": [
        {
          "indexed": true,
          "internalType": "address",
          "name": "previousOwner",
          "type": "address"
        },
        {
          "indexed": true,
          "internalType": "address",
          "name": "newOwner",
          "type": "address"
        }
      ],
      "name": "OwnershipTransferred",
      "type": "event"
    },
    {
      "anonymous": false,
      "inputs": [
        {
          "indexed": true,
          "internalType": "address",
          "name": "recipient",
          "type": "address"
        },
        {
          "indexed": false,
          "internalType": "uint8[]",
          "name": "normals",
          "type": "uint8[]"
        },
        {
          "indexed": false,
          "internalType": "uint8",
          "name": "bonusball",
          "type": "uint8"
        }
      ],
      "name": "StaticTicketAdded",
      "type": "event"
    },
    {
      "anonymous": false,
      "inputs": [
        {
          "indexed": true,
          "internalType": "address",
          "name": "recipient",
          "type": "address"
        },
        {
          "indexed": false,
          "internalType": "uint8[]",
          "name": "normals",
          "type": "uint8[]"
        },
        {
          "indexed": false,
          "internalType": "uint8",
          "name": "bonusball",
          "type": "uint8"
        }
      ],
      "name": "StaticTicketValidated",
      "type": "event"
    },
    {
      "inputs": [],
      "name": "acceptOwnership",
      "outputs": [],
      "stateMutability": "nonpayable",
      "type": "function"
    },
    {
      "inputs": [
        {
          "internalType": "address",
          "name": "_allowed",
          "type": "address"
        }
      ],
      "name": "addAllowed",
      "outputs": [],
      "stateMutability": "nonpayable",
      "type": "function"
    },
    {
      "inputs": [
        {
          "internalType": "address[]",
          "name": "_allowed",
          "type": "address[]"
        }
      ],
      "name": "addAllowedBatch",
      "outputs": [],
      "stateMutability": "nonpayable",
      "type": "function"
    },
    {
      "inputs": [
        {
          "internalType": "address",
          "name": "",
          "type": "address"
        }
      ],
      "name": "batchOrders",
      "outputs": [
        {
          "internalType": "uint256",
          "name": "orderDrawingId",
          "type": "uint256"
        },
        {
          "internalType": "uint64",
          "name": "remainingUSDC",
          "type": "uint64"
        },
        {
          "internalType": "uint64",
          "name": "remainingTickets",
          "type": "uint64"
        },
        {
          "internalType": "uint64",
          "name": "totalTicketsOrdered",
          "type": "uint64"
        },
        {
          "internalType": "uint64",
          "name": "dynamicTicketCount",
          "type": "uint64"
        }
      ],
      "stateMutability": "view",
      "type": "function"
    },
    {
      "inputs": [],
      "name": "cancelBatchOrder",
      "outputs": [],
      "stateMutability": "nonpayable",
      "type": "function"
    },
    {
      "inputs": [
        {
          "internalType": "address",
          "name": "_recipient",
          "type": "address"
        },
        {
          "internalType": "uint64",
          "name": "_dynamicTicketCount",
          "type": "uint64"
        },
        {
          "components": [
            {
              "internalType": "uint8[]",
              "name": "normals",
              "type": "uint8[]"
            },
            {
              "internalType": "uint8",
              "name": "bonusball",
              "type": "uint8"
            }
          ],
          "internalType": "struct IJackpot.Ticket[]",
          "name": "_userStaticTickets",
          "type": "tuple[]"
        },
        {
          "internalType": "address[]",
          "name": "_referrers",
          "type": "address[]"
        },
        {
          "internalType": "uint256[]",
          "name": "_referralSplit",
          "type": "uint256[]"
        }
      ],
      "name": "createBatchOrder",
      "outputs": [],
      "stateMutability": "nonpayable",
      "type": "function"
    },
    {
      "inputs": [
        {
          "internalType": "address",
          "name": "_recipient",
          "type": "address"
        },
        {
          "internalType": "uint256",
          "name": "_maxTicketsPerBatch",
          "type": "uint256"
        }
      ],
      "name": "executeBatchOrder",
      "outputs": [],
      "stateMutability": "nonpayable",
      "type": "function"
    },
    {
      "inputs": [],
      "name": "executionNonce",
      "outputs": [
        {
          "internalType": "uint256",
          "name": "",
          "type": "uint256"
        }
      ],
      "stateMutability": "view",
      "type": "function"
    },
    {
      "inputs": [],
      "name": "getAllowed",
      "outputs": [
        {
          "internalType": "address[]",
          "name": "",
          "type": "address[]"
        }
      ],
      "stateMutability": "view",
      "type": "function"
    },
    {
      "inputs": [
        {
          "internalType": "address[]",
          "name": "_recipients",
          "type": "address[]"
        },
        {
          "internalType": "uint256",
          "name": "_maxTicketsPerBatch",
          "type": "uint256"
        }
      ],
      "name": "getBatchOrderActions",
      "outputs": [
        {
          "internalType": "enum BatchPurchaseFacilitator.ExecutionAction[]",
          "name": "",
          "type": "uint8[]"
        }
      ],
      "stateMutability": "view",
      "type": "function"
    },
    {
      "inputs": [
        {
          "internalType": "address",
          "name": "_recipient",
          "type": "address"
        }
      ],
      "name": "getBatchOrderInfo",
      "outputs": [
        {
          "components": [
            {
              "components": [
                {
                  "internalType": "uint256",
                  "name": "orderDrawingId",
                  "type": "uint256"
                },
                {
                  "internalType": "uint64",
                  "name": "remainingUSDC",
                  "type": "uint64"
                },
                {
                  "internalType": "uint64",
                  "name": "remainingTickets",
                  "type": "uint64"
                },
                {
                  "internalType": "uint64",
                  "name": "totalTicketsOrdered",
                  "type": "uint64"
                },
                {
                  "internalType": "uint64",
                  "name": "dynamicTicketCount",
                  "type": "uint64"
                },
                {
                  "internalType": "address[]",
                  "name": "referrers",
                  "type": "address[]"
                },
                {
                  "internalType": "uint256[]",
                  "name": "referralSplit",
                  "type": "uint256[]"
                }
              ],
              "internalType": "struct IBatchPurchaseFacilitator.BatchOrder",
              "name": "batchOrder",
              "type": "tuple"
            },
            {
              "components": [
                {
                  "internalType": "uint8[]",
                  "name": "normals",
                  "type": "uint8[]"
                },
                {
                  "internalType": "uint8",
                  "name": "bonusball",
                  "type": "uint8"
                }
              ],
              "internalType": "struct IJackpot.Ticket[]",
              "name": "staticTickets",
              "type": "tuple[]"
            }
          ],
          "internalType": "struct IBatchPurchaseFacilitator.BatchOrderInfo",
          "name": "",
          "type": "tuple"
        }
      ],
      "stateMutability": "view",
      "type": "function"
    },
    {
      "inputs": [
        {
          "internalType": "address",
          "name": "_recipient",
          "type": "address"
        }
      ],
      "name": "hasActiveBatchOrder",
      "outputs": [
        {
          "internalType": "bool",
          "name": "",
          "type": "bool"
        }
      ],
      "stateMutability": "view",
      "type": "function"
    },
    {
      "inputs": [
        {
          "internalType": "address",
          "name": "_allowed",
          "type": "address"
        }
      ],
      "name": "isAllowed",
      "outputs": [
        {
          "internalType": "bool",
          "name": "",
          "type": "bool"
        }
      ],
      "stateMutability": "view",
      "type": "function"
    },
    {
      "inputs": [],
      "name": "jackpot",
      "outputs": [
        {
          "internalType": "contract IJackpot",
          "name": "",
          "type": "address"
        }
      ],
      "stateMutability": "view",
      "type": "function"
    },
    {
      "inputs": [],
      "name": "minimumTicketCount",
      "outputs": [
        {
          "internalType": "uint256",
          "name": "",
          "type": "uint256"
        }
      ],
      "stateMutability": "view",
      "type": "function"
    },
    {
      "inputs": [],
      "name": "owner",
      "outputs": [
        {
          "internalType": "address",
          "name": "",
          "type": "address"
        }
      ],
      "stateMutability": "view",
      "type": "function"
    },
    {
      "inputs": [],
      "name": "pendingOwner",
      "outputs": [
        {
          "internalType": "address",
          "name": "",
          "type": "address"
        }
      ],
      "stateMutability": "view",
      "type": "function"
    },
    {
      "inputs": [
        {
          "internalType": "address",
          "name": "_allowed",
          "type": "address"
        }
      ],
      "name": "removeAllowed",
      "outputs": [],
      "stateMutability": "nonpayable",
      "type": "function"
    },
    {
      "inputs": [],
      "name": "renounceOwnership",
      "outputs": [],
      "stateMutability": "nonpayable",
      "type": "function"
    },
    {
      "inputs": [
        {
          "internalType": "uint256",
          "name": "_minimumTicketCount",
          "type": "uint256"
        }
      ],
      "name": "setMinimumTicketCount",
      "outputs": [],
      "stateMutability": "nonpayable",
      "type": "function"
    },
    {
      "inputs": [
        {
          "internalType": "address",
          "name": "",
          "type": "address"
        },
        {
          "internalType": "uint256",
          "name": "",
          "type": "uint256"
        }
      ],
      "name": "staticTickets",
      "outputs": [
        {
          "internalType": "uint8",
          "name": "bonusball",
          "type": "uint8"
        }
      ],
      "stateMutability": "view",
      "type": "function"
    },
    {
      "inputs": [
        {
          "internalType": "address",
          "name": "newOwner",
          "type": "address"
        }
      ],
      "name": "transferOwnership",
      "outputs": [],
      "stateMutability": "nonpayable",
      "type": "function"
    },
    {
      "inputs": [],
      "name": "usdc",
      "outputs": [
        {
          "internalType": "contract IERC20",
          "name": "",
          "type": "address"
        }
      ],
      "stateMutability": "view",
      "type": "function"
    }
  ],
  "bytecode": "0x60c03461014d57601f6137cf38819003918201601f19168301916001600160401b038311848410176101515780849260609460405283398101031261014d5761004781610165565b90604061005660208301610165565b91015190331561013a57600180546001600160a01b03199081169091555f805433928116831782556040519592916001600160a01b03909116907f8be0079c531659141344cd1fd0a4f28419497f9722a3daafe3b4186f6b6457e09080a36001600160a01b039081166080521660a052801561012c57600655613655908161017a82396080518181816104de0152818161079201528181610d2501528181610f9201528181612212015281816123ec0152612988015260a05181818161039501528181610ea1015281816110a00152612ab40152f35b62f889bd60e41b5f5260045ffd5b631e4fbdf760e01b5f525f60045260245ffd5b5f80fd5b634e487b7160e01b5f52604160045260245ffd5b51906001600160a01b038216820361014d5756fe60806040526004361015610011575f80fd5b5f3560e01c806301bd43ef1461018457806303fced0c1461017f578063270035221461017a57806328b1cfa9146101755780633e413bee146101705780633f3090c81461016b5780636470db2f146101665780636b31ee0114610161578063715018a61461015c57806379ba5097146101575780638049357b14610152578063892f92291461014d5780638da5cb5b146101485780638dca2b9114610143578063aa3846a41461013e578063b5daf03214610139578063babcc53914610134578063cb8523c61461012f578063cd4423761461012a578063e30c397814610125578063f0dcefdc14610120578063f27454561461011b5763f2fde38b14610116575f80fd5b610efd565b610e27565b610cd1565b610c44565b610b7b565b61098c565b610944565b6108e7565b610700565b6106e3565b6106bc565b610673565b6105f5565b610570565b61050d565b6104c9565b610443565b6103c4565b610380565b61034b565b6102ac565b6101e7565b346101a1575f3660031901126101a1576020600754604051908152f35b5f80fd5b60206040818301928281528451809452019201905f5b8181106101c85750505090565b82516001600160a01b03168452602093840193909201916001016101bb565b346101a1575f3660031901126101a15760405180602060025491828152019060025f527f405787fa12a823e0f2b7631cc41b3ba8828b3321ca811111fa75cd3aa3bb5ace905f5b8181106102555761025185610245818703826112a8565b604051918291826101a5565b0390f35b825484526020909301926001928301920161022e565b6001600160a01b038116036101a157565b9181601f840112156101a1578235916001600160401b0383116101a1576020808501948460051b0101116101a157565b346101a15760a03660031901126101a1576004356102c98161026b565b6024356001600160401b03811681036101a1576044356001600160401b0381116101a1576102fb90369060040161027c565b6064939193356001600160401b0381116101a15761031d90369060040161027c565b91608435956001600160401b0387116101a15761034161034997369060040161027c565b969095610f73565b005b346101a15760203660031901126101a157600435610367612341565b801561037257600655005b62f889bd60e41b5f5260045ffd5b346101a1575f3660031901126101a1576040517f00000000000000000000000000000000000000000000000000000000000000006001600160a01b03168152602090f35b346101a15760203660031901126101a1576004356001600160401b0381116101a1576103f490369060040161027c565b906103fd612341565b8115610434575f5b82811061040e57005b8061042e61041f6001938686611970565b356104298161026b565b612354565b01610405565b63521299a960e01b5f5260045ffd5b346101a15760203660031901126101a1576004356104608161026b565b610468612341565b6001600160a01b031680156104ba576104808161314d565b156104ab577f0b9f2e1df04a0ccdea40ce7cec83fcf3c7b42d5647460cf541f2a8eabf1b170f5f80a2005b630c6d8dd560e11b5f5260045ffd5b63d92e233d60e01b5f5260045ffd5b346101a1575f3660031901126101a1576040517f00000000000000000000000000000000000000000000000000000000000000006001600160a01b03168152602090f35b346101a1575f3660031901126101a157610525612341565b600180546001600160a01b03199081169091555f80549182168155906001600160a01b03167f8be0079c531659141344cd1fd0a4f28419497f9722a3daafe3b4186f6b6457e08280a3005b346101a1575f3660031901126101a157600154336001600160a01b03909116036105e257600180546001600160a01b03199081169091555f805433928116831782556001600160a01b0316907f8be0079c531659141344cd1fd0a4f28419497f9722a3daafe3b4186f6b6457e09080a3005b63118cdaa760e01b5f523360045260245ffd5b346101a15760203660031901126101a1576004356106128161026b565b60018060a01b03165f5260046020526001600160401b0360405f20600181549101549060405192839260a084019284528180821616602085015281808260401c1616604085015281808260801c1616606085015260c01c1660808301520390f35b346101a15760203660031901126101a1576004356106908161026b565b60018060a01b03165f52600460205260206001600160401b03600160405f200154161515604051908152f35b346101a1575f3660031901126101a1575f546040516001600160a01b039091168152602090f35b346101a1575f3660031901126101a1576020600654604051908152f35b346101a15760403660031901126101a15760043561071d8161026b565b602435610728612134565b61073d335f52600360205260405f2054151590565b156108a6576001600160401b0361077760016107698560018060a01b03165f52600460205260405f2090565b01546001600160401b031690565b161561089757604051631380204360e31b81526020816004817f00000000000000000000000000000000000000000000000000000000000000006001600160a01b03165afa908115610892576107d79183915f91610863575b50846123a5565b6107e081610c6c565b806107f757506107ef91612898565b610349612169565b61080081610c6c565b6001810361082357509061081761081c9282612898565b612d16565b505b6107ef565b905061082e81610c6c565b60048103610840575061081e9061256b565b8061084c600292610c6c565b0361085a5761081e90612551565b61081e906124e0565b610885915060203d60201161088b575b61087d81836112a8565b8101906112c9565b5f6107d0565b503d610873565b6112d8565b630f112f8760e11b5f5260045ffd5b631eb49d6d60e11b5f5260045ffd5b634e487b7160e01b5f52603260045260245ffd5b80548210156108e2575f5260205f209060011b01905f90565b6108b5565b346101a15760403660031901126101a1576004356109048161026b565b6001600160a01b03165f908152600560205260409020805460243591908210156101a157600161093860209360ff936108c9565b50015416604051908152f35b346101a15760203660031901126101a15760206109826004356109668161026b565b6001600160a01b03165f90815260036020526040902054151590565b6040519015158152f35b346101a15760203660031901126101a1576103496004356109ac8161026b565b610429612341565b90602080835192838152019201905f5b8181106109d15750505090565b82516001600160a01b03168452602093840193909201916001016109c4565b90602080835192838152019201905f5b818110610a0d5750505090565b8251845260209384019390920191600101610a00565b9080602083519182815201916020808360051b8301019401925f915b838310610a4e57505050505090565b9091929394601f1982820301835285519060408101918051926040835283518091526020606084019401905f905b808210610aa7575050506001926020928360ff81809501511691015297019301930191939290610a3f565b90919460208060019260ff8951168152019601920190610a7c565b90610b7891602081526020610b638351604083850152805160608501526001600160401b03838201511660808501526001600160401b0360408201511660a08501526001600160401b0360608201511660c0850152610b31608082015160e08601906001600160401b03169052565b60c0610b4e60a083015160e06101008801526101408701906109b4565b910151848203605f19016101208601526109f0565b920151906040601f1982850301910152610a23565b90565b346101a15760203660031901126101a157610251600435610b9b8161026b565b60606020604051610bab8161126d565b604051610bb78161128d565b5f81525f838201525f60408201525f848201525f60808201528360a08201528360c082015281520152610c33610c1b610c008360018060a01b03165f52600460205260405f2090565b6001600160a01b039093165f90815260056020526040902090565b610c2c610c2661131c565b93611a23565b835261208c565b602082015260405191829182610ac2565b346101a1575f3660031901126101a1576001546040516001600160a01b039091168152602090f35b60061115610c7657565b634e487b7160e01b5f52602160045260245ffd5b60206040818301928281528451809452019201905f905b808210610cae5750505090565b9091928351906006821015610c7657602081600193829352019401920190610ca1565b346101a15760403660031901126101a1576004356001600160401b0381116101a157610d0190369060040161027c565b90602435610d0e836120e2565b604051631380204360e31b815290936020826004817f00000000000000000000000000000000000000000000000000000000000000006001600160a01b03165afa918215610892575f92610e06575b505f5b818110610d7557604051806102518882610c8a565b80610dba610dae6001610769610d95610d908397898d611970565b611980565b6001600160a01b03165f90815260046020526040902090565b6001600160401b031690565b610dd757610dd1610dcb8289612114565b60029052565b01610d60565b610e01610df28686610ded610d9086898d611970565b6123a5565b610dfc838a612114565b612128565b610dd1565b610e2091925060203d60201161088b5761087d81836112a8565b905f610d5d565b346101a1575f3660031901126101a157610e3f612134565b335f5260046020526001600160401b03600160405f2001541615610897576005610e6833612d16565b610ec560405163a9059cbb60e01b60208201523360248201526001600160401b038316604482015260448152610e9f6064826112a8565b7f00000000000000000000000000000000000000000000000000000000000000006130a5565b6040516001600160401b0391909116815233905f5160206136005f395f51905f5290602090a35f5f5160206135e05f395f51905f525d005b346101a15760203660031901126101a157600435610f1a8161026b565b610f22612341565b60018060a01b0316806bffffffffffffffffffffffff60a01b600154161760015560018060a01b035f54167f38d16b8cac22d99fc7c124b9cd0de2d3fa1faef420bfe791d8c362d765e227005f80a3005b92959690949396610f82612134565b604051631380204360e31b8152977f00000000000000000000000000000000000000000000000000000000000000006001600160a01b0316929060208a600481875afa998a15610892575f9a611238575b508915611229576001600160401b0361100160016107698960018060a01b03165f52600460205260405f2090565b1661121a576110196001600160401b038a16896112f7565b936006546001600160401b0386161061120b57604051636c687add60e11b8152600481018c9052906101a090829060249082905afa908115610892575f916111dc575b506101808101516111cd5761107783858a858e8b8d88612186565b602001516001600160401b031661108e9085611431565b966110c46001600160401b03891630337f00000000000000000000000000000000000000000000000000000000000000006122f8565b6110cc61132b565b8b81526001600160401b0389166020820152946001600160401b03811660408701526001600160401b031660608601526001600160401b038916608086015236906111169261146b565b60a08401523690611126926114c1565b60c08201526001600160a01b0383165f9081526004602052604090209061114c91611641565b6001600160a01b0382165f90815260056020526040902061116e918691611812565b604080516001600160401b039384168152939092166020840152908201929092526001600160a01b039091169033907ff12678a8d4a9ecd1a9c773157e4c35b519db197442a9ff699385c4a910e6530190606090a46111cb612169565b565b6332e5c6fd60e01b5f5260045ffd5b6111fe91506101a03d8111611204575b6111f681836112a8565b810190611378565b5f61105c565b503d6111ec565b638e71bef960e01b5f5260045ffd5b63cf11c6d160e01b5f5260045ffd5b63725004d160e01b5f5260045ffd5b611252919a5060203d60201161088b5761087d81836112a8565b985f610fd3565b634e487b7160e01b5f52604160045260245ffd5b604081019081106001600160401b0382111761128857604052565b611259565b60e081019081106001600160401b0382111761128857604052565b90601f801991011681019081106001600160401b0382111761128857604052565b908160209103126101a1575190565b6040513d5f823e3d90fd5b634e487b7160e01b5f52601160045260245ffd5b906001600160401b03809116911601906001600160401b03821161131757565b6112e3565b604051906111cb6040836112a8565b604051906111cb60e0836112a8565b604051906111cb6101a0836112a8565b60ff8116036101a157565b51906111cb8261134a565b51906111cb8261026b565b519081151582036101a157565b90816101a09103126101a15761142861018061139261133a565b92805184526020810151602085015260408101516040850152606081015160608501526080810151608085015260a081015160a085015260c081015160c085015260e081015160e08501526101008101516101008501526113f66101208201611355565b6101208501526114096101408201611355565b61014085015261141c6101608201611360565b6101608501520161136b565b61018082015290565b906001600160401b03809116911602906001600160401b03821691820361131757565b6001600160401b0381116112885760051b60200190565b92919061147781611454565b9361148560405195866112a8565b602085838152019160051b81019283116101a157905b8282106114a757505050565b6020809183356114b68161026b565b81520191019061149b565b9291906114cd81611454565b936114db60405195866112a8565b602085838152019160051b81019283116101a157905b8282106114fd57505050565b81358152602091820191016114f1565b8181029291811591840414171561131757565b916115399183549060031b91821b915f19901b19161790565b9055565b818110611548575050565b5f815560010161153d565b80545f825580611561575050565b6111cb915f5260205f209081019061153d565b90600160401b81116112885781549080835581811061159257505050565b6111cb925f5260205f20918201910161153d565b8151916001600160401b038311611288576020906115c48484611574565b01905f5260205f205f5b8381106115db5750505050565b82516001600160a01b0316818301556020909201916001016115ce565b8151916001600160401b038311611288576020906116168484611574565b01905f5260205f205f5b83811061162d5750505050565b600190602084519401938184015501611620565b600360c06111cb93805184556116f3600185016116816001600160401b0360208501511682906001600160401b03166001600160401b0319825416179055565b604083810151825467ffffffffffffffff60401b1916911b67ffffffffffffffff60401b16178155606083015181546080808601516fffffffffffffffffffffffffffffffff90921692901b67ffffffffffffffff60801b169190911760c09190911b6001600160c01b031916179055565b61170460a0820151600286016115a6565b015191016115f8565b80545f82558061171b575050565b6111cb915f52601f60205f20910160051c81019061153d565b90600160401b811161128857815481835580821061175157505050565b6111cb925f52601f60205f20918180850160051c840194168061177b575b500160051c019061153d565b5f198501908154905f199060200360031b1c1690555f61176f565b600160401b8211611288578054908281558183106117b357505050565b6001600160ff1b0382168203611317576001600160ff1b0383168303611317575f5260205f209060011b81019160011b015b8181106117f0575050565b806117fc60029261170d565b5f6001820155016117e5565b35610b788161134a565b91909161181f8282611796565b5f9081526020812092805b838310611838575050505050565b8035603e19833603018112156101a15782018035601e19823603018112156101a15781018035906001600160401b0382116101a1576020018160051b360381136101a1576118868289611734565b611893885f5260205f2090565b8260051c915f5b83811061193b5750601f19841690930392836118e8575b5050505060206001926118dc6118ca8360029501611808565b858a019060ff1660ff19825416179055565b0195019201919361182a565b5f935f905b8082106119075750505001556020826118dc6118ca6118b1565b90919460206119316001928561191c8a611808565b919060ff809160031b9316831b921b19161790565b96019201906118ed565b5f5f5b6020811061195357508382015560010161189a565b929060206119676001928661191c86611808565b9201930161193e565b91908110156108e25760051b0190565b35610b788161026b565b90604051918281549182825260208201905f5260205f20925f5b8181106119b95750506111cb925003836112a8565b84546001600160a01b03168352600194850194879450602090930192016119a4565b90604051918281549182825260208201905f5260205f20925f5b818110611a0a5750506111cb925003836112a8565b84548352600194850194879450602090930192016119f5565b90604051611a308161128d565b60c0611aba6003839580548552611aa3611a9360018301546001600160401b03811660208901526001600160401b03808260401c16166040890152611a8d6001600160401b038260801c1660608a01906001600160401b03169052565b60c01c90565b6001600160401b03166080870152565b611aaf6002820161198a565b60a0860152016119db565b910152565b90604051611acc8161126d565b809260405180611ae28354809260209181520190565b90611af0845f5260205f2090565b905f915b81601f840110611ebf5793611c1b81611c25956001956111cb9a99956020995491818110611eae575b818110611e99575b818110611e84575b818110611e6f575b818110611e5c575b818110611e47575b818110611e32575b818110611e1d575b818110611e08575b818110611df3575b818110611dde575b818110611dc9575b818110611db4575b818110611d9f575b818110611d8a575b818110611d75575b818110611d60575b818110611d4b575b818110611d36575b818110611d21575b818110611d0c575b818110611cf7575b818110611ce2575b818110611ccd575b818110611cb8575b818110611ca3575b818110611c8e575b818110611c79575b818110611c64575b818110611c4f575b818110611c3a575b10611c2d575b5003826112a8565b8552015460ff1690565b60ff16910152565b60f81c815287015f611c13565b60ff60f084901c168452928a01928801611c0d565b60ff60e884901c168452928a01928801611c05565b60ff60e084901c168452928a01928801611bfd565b60ff60d884901c168452928a01928801611bf5565b60ff60d084901c168452928a01928801611bed565b60ff60c884901c168452928a01928801611be5565b60ff60c084901c168452928a01928801611bdd565b60ff60b884901c168452928a01928801611bd5565b60ff60b084901c168452928a01928801611bcd565b60ff60a884901c168452928a01928801611bc5565b60ff60a084901c168452928a01928801611bbd565b60ff609884901c168452928a01928801611bb5565b60ff609084901c168452928a01928801611bad565b60ff608884901c168452928a01928801611ba5565b60ff608084901c168452928a01928801611b9d565b60ff607884901c168452928a01928801611b95565b60ff607084901c168452928a01928801611b8d565b60ff606884901c168452928a01928801611b85565b60ff606084901c168452928a01928801611b7d565b60ff605884901c168452928a01928801611b75565b60ff605084901c168452928a01928801611b6d565b60ff604884901c168452928a01928801611b65565b60ff604084901c168452928a01928801611b5d565b60ff603884901c168452928a01928801611b55565b60ff603084901c168452928a01928801611b4d565b60ff602884901c168452928a01928801611b45565b60ff838c1c168452928a01928801611b3d565b60ff601884901c168452928a01928801611b35565b60ff601084901c168452928a01928801611b2d565b60ff600884901c168452928a01928801611b25565b60ff83168452928a01928801611b1d565b9260016104006020926120818754611edc8360ff831660ff169052565b600881901c60ff1683870152601081901c60ff166040840152601881901c60ff16606084015280861c60ff166080840152602881901c60ff1660a0840152603081901c60ff1660c0840152603881901c60ff1660e0840152604081901c60ff16610100840152604881901c60ff16610120840152605081901c60ff16610140840152605881901c60ff16610160840152606081901c60ff16610180840152606881901c60ff166101a0840152607081901c60ff166101c0840152607881901c60ff166101e0840152608081901c60ff16610200840152608881901c60ff16610220840152609081901c60ff16610240840152609881901c60ff1661026084015260a081901c60ff1661028084015260a881901c60ff166102a084015260b081901c60ff166102c084015260b881901c60ff166102e084015260c081901c60ff1661030084015260c881901c60ff1661032084015260d081901c60ff1661034084015260d881901c60ff1661036084015260e081901c60ff1661038084015260e881901c60ff166103a084015260f081901c60ff166103c084015260f81c6103e0830152565b019401920191611af4565b90815461209881611454565b926120a660405194856112a8565b81845260208401905f5260205f205f915b8383106120c45750505050565b600260206001926120d485611abf565b8152019201920191906120b7565b906120ec82611454565b6120f960405191826112a8565b828152809261210a601f1991611454565b0190602036910137565b80518210156108e25760209160051b010190565b6006821015610c765752565b5f5160206135e05f395f51905f525c61215a5760015f5160206135e05f395f51905f525d565b633ee5aeb560e01b5f5260045ffd5b5f5f5160206135e05f395f51905f525d565b35906111cb8261134a565b9394939092916001600160a01b038416156104ba5760ff610140816101208501511693015116926121b681611454565b916121c460405193846112a8565b818352602083019160051b8101903682116101a15780925b82841061223657505050506122079361220f96936111cb9998969361220093612e39565b369161146b565b9236916114c1565b907f0000000000000000000000000000000000000000000000000000000000000000612f79565b83356001600160401b0381116101a15782016040813603126101a1576040519061225f8261126d565b80356001600160401b0381116101a157810136601f820112156101a15780359061228882611454565b9161229660405193846112a8565b80835260208084019160051b830101913683116101a157602001905b8282106122de57505050916122cf6020809593819584520161217b565b838201528152019301926121dc565b6020809183356122ed8161134a565b8152019101906122b2565b6040516323b872dd60e01b60208201526001600160a01b0392831660248201529290911660448301526064808301939093529181526111cb9161233c6084836112a8565b6130a5565b5f546001600160a01b031633036105e257565b6001600160a01b031680156104ba5761236c81613292565b15612396577ece0c03872867ce1a835f25187949b04b93ee69d1a9c6e60e20d5077063f66d5f80a2565b63d35c96d960e01b5f5260045ffd5b6001600160a01b03165f9081526004602052604090206123c490611a23565b90808251036124d857604051636c687add60e11b815260048101919091526001600160a01b037f000000000000000000000000000000000000000000000000000000000000000016906101a081602481855afa9081156108925761243591610180915f916124b9575b500151151590565b6124b15760a08201515160405163ce3820d160e01b815291602090839060049082905afa918215610892575f92612490575b501161248957604001516001600160401b03161115612484575f90565b600190565b5050600490565b6124aa91925060203d60201161088b5761087d81836112a8565b905f612467565b505050600390565b6124d291506101a03d8111611204576111f681836112a8565b5f61242d565b505050600290565b6003905f5160206136005f395f51905f526124fa82612d16565b61253b6040519363a9059cbb60e01b602086015260018060a01b0316938460248201526001600160401b038316604482015260448152610e9f6064826112a8565b6040516001600160401b039091168152602090a3565b6002905f5160206136005f395f51905f526124fa82612d16565b6004905f5160206136005f395f51905f526124fa82612d16565b906001600160401b03809116911603906001600160401b03821161131757565b9190820391821161131757565b9190820180921161131757565b604051906125cc8261126d565b5f602083606081520152565b906125e282611454565b6125ef60405191826112a8565b8281528092612600601f1991611454565b01905f5b82811061261057505050565b60209061261b6125bf565b82828501015201612604565b5f1981146113175760010190565b908160209103126101a157610b789061136b565b6020818303126101a1578051906001600160401b0382116101a157019080601f830112156101a157815161267c81611454565b9261268a60405194856112a8565b81845260208085019260051b8201019283116101a157602001905b8282106126b25750505090565b81518152602091820191016126a5565b90602082549182815201915f5260205f20905f5b8181106126e35750505090565b82546001600160a01b03168452602090930192600192830192016126d6565b90602082549182815201915f5260205f20905f5b8181106127235750505090565b8254845260209093019260019283019201612716565b949392909160a0860160a08752835180915260c0870190602060c08260051b8a01019501915f905b8282106127c857505050506001600160a01b031660208601527f62617463682d70757263686173652d666163696c697461746f72000000000000926080926127c3926127b5919088820360408a01526126c2565b908682036060880152612702565b930152565b9091929560bf198a820301825286519060408101918051926040835283518091526020606084019401905f905b80821061281f575050506001926020928360ff818095015116910152980192019201909291612761565b90919460208060019260ff89511681520196019201906127f5565b92909493919460808401608085528151809152602060a086019201905f5b81811061288257505050916001600160401b03809260609497602087015216604085015216910152565b8251845260209384019390920191600101612858565b6001600160a01b0381165f908152600460205260409020909160018201805493612920610dae6128ec6128d5886001600160401b039060401c1690565b956001600160401b03871690818082109118021890565b9461291b61290a8560018060a01b03165f52600560205260405f2090565b549860801c6001600160401b031690565b612585565b94858481831115612d065761293b6129469261294d946125a5565b808218908211021890565b80946125a5565b61295f61295a82866125b2565b6125d8565b9584612ca2575b508454604051636c687add60e11b815260048101919091526001600160a01b037f000000000000000000000000000000000000000000000000000000000000000016949091906101a083602481895afa928315610892575f93612c81575b5081612c07575b50506020612aaf91612a77612a4f612a06612a00856129f18d516001600160401b031690565b9501516001600160401b031690565b84611431565b92612a3c612a1f8561291b8b546001600160401b031690565b895467ffffffffffffffff19166001600160401b03909116178955565b875460401c6001600160401b0316612585565b865467ffffffffffffffff60401b191660409190911b67ffffffffffffffff60401b16178655565b60405163095ea7b360e01b81526001600160a01b03871660048201526001600160401b03909116602482015291829081906044820190565b03815f7f00000000000000000000000000000000000000000000000000000000000000006001600160a01b03165af1801561089257612bda575b50604051636f44614560e11b8152925f908490818381612b1560038b0160028c01898e60048601612739565b03925af1928315610892575f93612b92575b50612b8d7f8335ce762728b3bec3423fde24bbfe66c2139bbf2a012d74eb568abbe0e2174693945495519254612b77612b6a826001600160401b039060401c1690565b916001600160401b031690565b9060405194859460018060a01b0316978561283a565b0390a3565b7f8335ce762728b3bec3423fde24bbfe66c2139bbf2a012d74eb568abbe0e217469350612bd3612b8d913d805f833e612bcb81836112a8565b810190612649565b9350612b27565b612bfb9060203d602011612c00575b612bf381836112a8565b810190612635565b612ae9565b503d612be9565b612c3d612c15600754612627565b612c1e81600755565b61012085015160ff1684612c3761014088015160ff1690565b92613203565b5f5b838110612c4d5750506129cb565b80612c7a8b612c5e60019486612114565b51612c73612c6c85896125b2565b8093612114565b528c612114565b5001612c3f565b612c9b9193506101a03d8111611204576111f681836112a8565b915f6129c4565b5f5b858110612cb15750612966565b600190612cea612ce4612cd48760018060a01b03165f52600560205260405f2090565b612cde84876125b2565b906108c9565b50611abf565b612cf4828b612114565b52612cff818a612114565b5001612ca4565b61294d925061294691505f61293b565b6001600160a01b0381165f8181526004602052604081206001810180548383559290556001600160401b039091169392612d7c91612d6390600390612d5d60028201611553565b01611553565b6001600160a01b03165f90815260056020526040902090565b8054905f815581612db0575b50507fe299fdd5ae38badafb4be50a38dc4c8c2a61c542779a433e5c194d540173f4055f80a2565b6001600160ff1b0382168203611317575f5260205f209060011b8101905b81811015612d885780612de260029261170d565b5f600182015501612dce565b90929192604082016040835281518091526020606084019201905f5b818110612e205750505060ff6020919416910152565b825160ff16845260209384019390920191600101612e0a565b9091925f5b8251811015612f7257612e518184612114565b5192600584515103612f63575f90815b85518051841015612ed757612e7984612e8092612114565b5160ff1690565b60ff60018282161b91168015908115612eca575b50612ebb57808216612eac5760019117920191612e61565b630167757b60e31b5f5260045ffd5b6322c4884360e11b5f5260045ffd5b905060ff8916105f612e94565b5050929391905060208201612eed815160ff1690565b60ff811615908115612f53575b50612ebb577f95f98176980d9b7f0025242f21165accbd2dcab2079149c6ea8a96859b80678e612f47612f3260019551935160ff1690565b604051918291878060a01b038a169583612dee565b0390a201919091612e3e565b905060ff8089169116115f612efa565b6309a1450560e41b5f5260045ffd5b5050505050565b60405163ce3820d160e01b81529193929190602090829060049082906001600160a01b03165afa908115610892575f91613086575b50835182510361307757835111613068578251612fca57509050565b5f92835b815185101561304357613000612ff4612fe78785612114565b516001600160a01b031690565b6001600160a01b031690565b156104ba5761300f8584612114565b51156130345761302c6001916130258786612114565b51906125b2565b940193612fce565b631ccba14360e21b5f5260045ffd5b915050670de0b6b3a76400009192500361305957565b6307c3e09160e01b5f5260045ffd5b63d4920c9360e01b5f5260045ffd5b6307125e1360e11b5f5260045ffd5b61309f915060203d60201161088b5761087d81836112a8565b5f612fae565b905f602091828151910182855af1156112d8575f513d6130f457506001600160a01b0381163b155b6130d45750565b635274afe760e01b5f9081526001600160a01b0391909116600452602490fd5b600114156130cd565b80548210156108e2575f5260205f2001905f90565b80548015613139575f19019061312882826130fd565b8154905f199060031b1b1916905555565b634e487b7160e01b5f52603160045260245ffd5b5f818152600360205260409020549081156131e8575f19820190828211611317576002545f198101939084116113175783835f956131a795036131ad575b5050506131986002613112565b6003905f5260205260405f2090565b55600190565b6131986131d9916131cf6131c56131df9560026130fd565b90549060031b1c90565b92839160026130fd565b90611520565b555f808061318b565b50505f90565b604051906131fd6060836112a8565b60228252565b92919061320e6131ee565b60208101907f6d656761706f742e76322e7469636b65745f7069636b65722e7069636b5f6175825261746f60f01b60408201525190205f19430143811161131757610b789560405191602083019384523060408401524660608401524460808401524060a083015260c082015260c0815261328a60e0826112a8565b5190206132fb565b5f818152600360205260409020546132f657600254600160401b811015611288576132df6132c982600185940160025560026130fd565b819391549060031b91821b915f19901b19161790565b9055600254905f52600360205260405f2055600190565b505f90565b9392909182156133775761330e836125d8565b945f5b84811061331f575050505050565b60408051602081018481529181018390526001929161335b918791879161335381606081015b03601f1981018352826112a8565b5190206133b5565b613365828a612114565b526133708189612114565b5001613311565b60405162461bcd60e51b8152602060048201526016602482015275141a58dac8185d081b19585cdd080c481d1a58dad95d60521b6044820152606490fd5b90916133bf6125bf565b5060ff604051936315a409df60e31b855260016004860152166024840152600560448401528160648401525f8360848173__$f7b56129a109e8cfdd105a93f7993108ed$__5af4928315610892575f9361343b575b50610b789160ff61342692169061354b565b61342e61131c565b92835260ff166020830152565b6134269193509160ff61345a610b78943d805f833e612bcb81836112a8565b9492505091613414565b1561346b57565b60405162461bcd60e51b815260206004820152600b60248201526a092dcecc2d8d2c840dac2f60ab1b6044820152606490fd5b634e487b7160e01b5f52601260045260245ffd5b80156134be575f190490565b61349e565b6040516134d16060826112a8565b602781527f6d656761706f742e76322e7469636b65745f7069636b65722e7069636b5f626f6020820152661b9d5cd8985b1b60ca1b6040909101527f933002008674cb2c329a0af0ac39a47561460df9fe9ad91186b087d50844116c90565b81156134be570690565b60ff166001019060ff821161131757565b90801515806135d4575b61355e90613464565b6135708161356b816134b2565b61150d565b915b6133456135ac6135806134c3565b6040805160208101928352469181019190915230606082015260808101949094529291829060a0820190565b5190208281101561357257610b7892506135cf916135c991613530565b60ff1690565b61353a565b5060ff81111561355556fe9b779b17422d0df92223018b32b4d1fa46e071723d6817e2486d003becc55f004810151a5990a5580e963e0c42bea35586a8f453a7c6a21d3423346888cb9ff1a26469706673582212203f09e7b711c1b99e68526530976fa215a483eb8d7c3bbcea5acebea81482e7a764736f6c634300081c0033",
  "linkReferences": {
    "contracts/lib/FisherYatesWithRejection.sol": {
      "FisherYatesRejection": [
        {
          "length": 20,
          "start": 13675
        }
      ]
    }
  },
  "deployedLinkReferences": {
    "contracts/lib/FisherYatesWithRejection.sol": {
      "FisherYatesRejection": [
        {
          "length": 20,
          "start": 13297
        }
      ]
    }
  }
}