{
  "_format": "hh-sol-artifact-1",
  "contractName": "AllowedManagerMock",
  "sourceName": "contracts/mocks/AllowedManagerMock.sol",
  "abi": [
    {
      "inputs": [],
      "name": "AllowedAlreadyAdded",
      "type": "error"
    },
    {
      "inputs": [],
      "name": "AllowedNotFound",
      "type": "error"
    },
    {
      "inputs": [],
      "name": "EmptyArray",
      "type": "error"
    },
    {
      "inputs": [],
      "name": "NotAllowed",
      "type": "error"
    },
    {
      "inputs": [
        {
          "internalType": "address",
          "name": "owner",
          "type": "address"
        }
      ],
      "name": "OwnableInvalidOwner",
      "type": "error"
    },
    {
      "inputs": [
        {
          "internalType": "address",
          "name": "account",
          "type": "address"
        }
      ],
      "name": "OwnableUnauthorizedAccount",
      "type": "error"
    },
    {
      "inputs": [],
      "name": "ReentrancyGuardReentrantCall",
      "type": "error"
    },
    {
      "inputs": [],
      "name": "ZeroAddress",
      "type": "error"
    },
    {
      "anonymous": false,
      "inputs": [
        {
          "indexed": true,
          "internalType": "address",
          "name": "allowed",
          "type": "address"
        }
      ],
      "name": "AllowedAdded",
      "type": "event"
    },
    {
      "anonymous": false,
      "inputs": [
        {
          "indexed": true,
          "internalType": "address",
          "name": "allowed",
          "type": "address"
        }
      ],
      "name": "AllowedRemoved",
      "type": "event"
    },
    {
      "anonymous": false,
      "inputs": [
        {
          "indexed": true,
          "internalType": "address",
          "name": "caller",
          "type": "address"
        }
      ],
      "name": "MockFunctionCalled",
      "type": "event"
    },
    {
      "anonymous": false,
      "inputs": [
        {
          "indexed": true,
          "internalType": "address",
          "name": "previousOwner",
          "type": "address"
        },
        {
          "indexed": true,
          "internalType": "address",
          "name": "newOwner",
          "type": "address"
        }
      ],
      "name": "OwnershipTransferStarted",
      "type": "event"
    },
    {
      "anonymous": false,
      "inputs": [
        {
          "indexed": true,
          "internalType": "address",
          "name": "previousOwner",
          "type": "address"
        },
        {
          "indexed": true,
          "internalType": "address",
          "name": "newOwner",
          "type": "address"
        }
      ],
      "name": "OwnershipTransferred",
      "type": "event"
    },
    {
      "inputs": [],
      "name": "acceptOwnership",
      "outputs": [],
      "stateMutability": "nonpayable",
      "type": "function"
    },
    {
      "inputs": [
        {
          "internalType": "address",
          "name": "_allowed",
          "type": "address"
        }
      ],
      "name": "addAllowed",
      "outputs": [],
      "stateMutability": "nonpayable",
      "type": "function"
    },
    {
      "inputs": [
        {
          "internalType": "address[]",
          "name": "_allowed",
          "type": "address[]"
        }
      ],
      "name": "addAllowedBatch",
      "outputs": [],
      "stateMutability": "nonpayable",
      "type": "function"
    },
    {
      "inputs": [],
      "name": "allowedOnlyFunction",
      "outputs": [],
      "stateMutability": "nonpayable",
      "type": "function"
    },
    {
      "inputs": [],
      "name": "getAllowed",
      "outputs": [
        {
          "internalType": "address[]",
          "name": "",
          "type": "address[]"
        }
      ],
      "stateMutability": "view",
      "type": "function"
    },
    {
      "inputs": [
        {
          "internalType": "address",
          "name": "_allowed",
          "type": "address"
        }
      ],
      "name": "isAllowed",
      "outputs": [
        {
          "internalType": "bool",
          "name": "",
          "type": "bool"
        }
      ],
      "stateMutability": "view",
      "type": "function"
    },
    {
      "inputs": [],
      "name": "owner",
      "outputs": [
        {
          "internalType": "address",
          "name": "",
          "type": "address"
        }
      ],
      "stateMutability": "view",
      "type": "function"
    },
    {
      "inputs": [],
      "name": "pendingOwner",
      "outputs": [
        {
          "internalType": "address",
          "name": "",
          "type": "address"
        }
      ],
      "stateMutability": "view",
      "type": "function"
    },
    {
      "inputs": [
        {
          "internalType": "address",
          "name": "_allowed",
          "type": "address"
        }
      ],
      "name": "removeAllowed",
      "outputs": [],
      "stateMutability": "nonpayable",
      "type": "function"
    },
    {
      "inputs": [],
      "name": "renounceOwnership",
      "outputs": [],
      "stateMutability": "nonpayable",
      "type": "function"
    },
    {
      "inputs": [
        {
          "internalType": "address",
          "name": "newOwner",
          "type": "address"
        }
      ],
      "name": "transferOwnership",
      "outputs": [],
      "stateMutability": "nonpayable",
      "type": "function"
    }
  ],
  "bytecode": "0x608080604052346079573315606657600180546001600160a01b03199081169091555f805433928116831782556001600160a01b0316907f8be0079c531659141344cd1fd0a4f28419497f9722a3daafe3b4186f6b6457e09080a361073d908161007e8239f35b631e4fbdf760e01b5f525f60045260245ffd5b5f80fdfe6080806040526004361015610012575f80fd5b5f3560e01c90816303fced0c1461044d575080633f3090c8146103a75780636470db2f14610321578063715018a6146102be57806375d517a71461025e57806379ba5097146101d95780638da5cb5b146101b2578063babcc5391461016b578063cb8523c614610134578063e30c39781461010c5763f2fde38b14610095575f80fd5b34610108576020366003190112610108576004356001600160a01b03811690819003610108576100c3610531565b600180546001600160a01b031916821790555f80546001600160a01b0316907f38d16b8cac22d99fc7c124b9cd0de2d3fa1faef420bfe791d8c362d765e227009080a3005b5f80fd5b34610108575f366003190112610108576001546040516001600160a01b039091168152602090f35b34610108576020366003190112610108576004356001600160a01b03811681036101085761016990610164610531565b610544565b005b34610108576020366003190112610108576004356001600160a01b03811690819003610108576101a86020915f52600360205260405f2054151590565b6040519015158152f35b34610108575f366003190112610108575f546040516001600160a01b039091168152602090f35b34610108575f36600319011261010857600154336001600160a01b039091160361024b57600180546001600160a01b03199081169091555f805433928116831782556001600160a01b0316907f8be0079c531659141344cd1fd0a4f28419497f9722a3daafe3b4186f6b6457e09080a3005b63118cdaa760e01b5f523360045260245ffd5b34610108575f36600319011261010857610283335f52600360205260405f2054151590565b156102af57337f582908360f8ab4e1448338b1b011e4af2b0a6bafa0c2168a96b38976f4ceb2475f80a2005b631eb49d6d60e11b5f5260045ffd5b34610108575f366003190112610108576102d6610531565b600180546001600160a01b03199081169091555f80549182168155906001600160a01b03167f8be0079c531659141344cd1fd0a4f28419497f9722a3daafe3b4186f6b6457e08280a3005b34610108576020366003190112610108576004356001600160a01b038116908190036101085761034f610531565b80156103985761035e816105be565b15610389577f0b9f2e1df04a0ccdea40ce7cec83fcf3c7b42d5647460cf541f2a8eabf1b170f5f80a2005b630c6d8dd560e11b5f5260045ffd5b63d92e233d60e01b5f5260045ffd5b346101085760203660031901126101085760043567ffffffffffffffff811161010857366023820112156101085780600401359067ffffffffffffffff8211610108573660248360051b8301011161010857610401610531565b811561043e575f5b8281101561016957600581901b820160240135906001600160a01b038216820361010857610438600192610544565b01610409565b63521299a960e01b5f5260045ffd5b34610108575f3660031901126101085760025480825260208201809160025f527f405787fa12a823e0f2b7631cc41b3ba8828b3321ca811111fa75cd3aa3bb5ace905f5b81811061051b57505050829003601f01601f191682019167ffffffffffffffff8311818410176105075790829182604052602083019060208452518091526040830191905f5b8181106104e5575050500390f35b82516001600160a01b03168452859450602093840193909201916001016104d7565b634e487b7160e01b5f52604160045260245ffd5b8254845260209093019260019283019201610491565b5f546001600160a01b0316330361024b57565b6001600160a01b031680156103985761055c816106ad565b15610586577ece0c03872867ce1a835f25187949b04b93ee69d1a9c6e60e20d5077063f66d5f80a2565b63d35c96d960e01b5f5260045ffd5b80548210156105aa575f5260205f2001905f90565b634e487b7160e01b5f52603260045260245ffd5b5f8181526003602052604090205480156106a7575f198101818111610693576002545f1981019190821161069357818103610645575b5050506002548015610631575f190161060e816002610595565b8154905f199060031b1b191690556002555f5260036020525f6040812055600190565b634e487b7160e01b5f52603160045260245ffd5b61067d610656610667936002610595565b90549060031b1c9283926002610595565b819391549060031b91821b915f19901b19161790565b90555f52600360205260405f20555f80806105f4565b634e487b7160e01b5f52601160045260245ffd5b50505f90565b805f52600360205260405f2054155f146107025760025468010000000000000000811015610507576106eb6106678260018594016002556002610595565b9055600254905f52600360205260405f2055600190565b505f9056fea264697066735822122084712d9cb678adc1b2be50ae1f72a0a1bd85709deac7cfe309983ca7387d90a064736f6c634300081c0033",
  "linkReferences": {},
  "deployedLinkReferences": {}
}