{
  "_format": "hh-sol-artifact-1",
  "contractName": "ScaledEntropyProviderMock",
  "sourceName": "contracts/mocks/ScaledEntropyProviderMock.sol",
  "abi": [
    {
      "inputs": [
        {
          "internalType": "uint256",
          "name": "_fee",
          "type": "uint256"
        },
        {
          "internalType": "address",
          "name": "_callback",
          "type": "address"
        },
        {
          "internalType": "bytes4",
          "name": "_selector",
          "type": "bytes4"
        }
      ],
      "stateMutability": "nonpayable",
      "type": "constructor"
    },
    {
      "inputs": [],
      "name": "callback",
      "outputs": [
        {
          "internalType": "address",
          "name": "",
          "type": "address"
        }
      ],
      "stateMutability": "view",
      "type": "function"
    },
    {
      "inputs": [],
      "name": "fee",
      "outputs": [
        {
          "internalType": "uint256",
          "name": "",
          "type": "uint256"
        }
      ],
      "stateMutability": "view",
      "type": "function"
    },
    {
      "inputs": [
        {
          "internalType": "uint32",
          "name": "_gasLimit",
          "type": "uint32"
        }
      ],
      "name": "getFee",
      "outputs": [
        {
          "internalType": "uint256",
          "name": "",
          "type": "uint256"
        }
      ],
      "stateMutability": "view",
      "type": "function"
    },
    {
      "inputs": [
        {
          "internalType": "uint64",
          "name": "_requestId",
          "type": "uint64"
        }
      ],
      "name": "getPendingRequest",
      "outputs": [
        {
          "components": [
            {
              "internalType": "address",
              "name": "callback",
              "type": "address"
            },
            {
              "internalType": "bytes4",
              "name": "selector",
              "type": "bytes4"
            },
            {
              "internalType": "bytes",
              "name": "context",
              "type": "bytes"
            },
            {
              "components": [
                {
                  "internalType": "uint8",
                  "name": "samples",
                  "type": "uint8"
                },
                {
                  "internalType": "uint256",
                  "name": "minRange",
                  "type": "uint256"
                },
                {
                  "internalType": "uint256",
                  "name": "maxRange",
                  "type": "uint256"
                },
                {
                  "internalType": "bool",
                  "name": "withReplacement",
                  "type": "bool"
                }
              ],
              "internalType": "struct IScaledEntropyProvider.SetRequest[]",
              "name": "setRequests",
              "type": "tuple[]"
            },
            {
              "internalType": "uint32",
              "name": "gasLimit",
              "type": "uint32"
            }
          ],
          "internalType": "struct ScaledEntropyProviderMock.Request",
          "name": "",
          "type": "tuple"
        }
      ],
      "stateMutability": "view",
      "type": "function"
    },
    {
      "inputs": [
        {
          "internalType": "uint64",
          "name": "",
          "type": "uint64"
        }
      ],
      "name": "pendingRequests",
      "outputs": [
        {
          "internalType": "address",
          "name": "callback",
          "type": "address"
        },
        {
          "internalType": "bytes4",
          "name": "selector",
          "type": "bytes4"
        },
        {
          "internalType": "bytes",
          "name": "context",
          "type": "bytes"
        },
        {
          "internalType": "uint32",
          "name": "gasLimit",
          "type": "uint32"
        }
      ],
      "stateMutability": "view",
      "type": "function"
    },
    {
      "inputs": [
        {
          "internalType": "uint256[][]",
          "name": "_randomNumbers",
          "type": "uint256[][]"
        }
      ],
      "name": "randomnessCallback",
      "outputs": [],
      "stateMutability": "nonpayable",
      "type": "function"
    },
    {
      "inputs": [
        {
          "internalType": "uint32",
          "name": "_gasLimit",
          "type": "uint32"
        },
        {
          "components": [
            {
              "internalType": "uint8",
              "name": "samples",
              "type": "uint8"
            },
            {
              "internalType": "uint256",
              "name": "minRange",
              "type": "uint256"
            },
            {
              "internalType": "uint256",
              "name": "maxRange",
              "type": "uint256"
            },
            {
              "internalType": "bool",
              "name": "withReplacement",
              "type": "bool"
            }
          ],
          "internalType": "struct IScaledEntropyProvider.SetRequest[]",
          "name": "_setRequests",
          "type": "tuple[]"
        },
        {
          "internalType": "bytes4",
          "name": "_selector",
          "type": "bytes4"
        },
        {
          "internalType": "bytes",
          "name": "_context",
          "type": "bytes"
        }
      ],
      "name": "requestAndCallbackScaledRandomness",
      "outputs": [
        {
          "internalType": "uint64",
          "name": "requestId",
          "type": "uint64"
        }
      ],
      "stateMutability": "payable",
      "type": "function"
    },
    {
      "inputs": [],
      "name": "selector",
      "outputs": [
        {
          "internalType": "bytes4",
          "name": "",
          "type": "bytes4"
        }
      ],
      "stateMutability": "view",
      "type": "function"
    }
  ],
  "bytecode": "0x608034609b57601f610d6a38819003918201601f19168301916001600160401b03831184841017609f57808492606094604052833981010312609b578051602082015190916001600160a01b03821691829003609b5760400151916001600160e01b031983168303609b5760015560018060a01b0319600254161760025560e01c63ffffffff195f5416175f55604051610cb690816100b48239f35b5f80fd5b634e487b7160e01b5f52604160045260245ffdfe60806040526004361015610011575f80fd5b5f3560e01c8063083b27321461009457806365b07d581461008f578063a2ef0b4a1461008a578063bcda2a7614610085578063bd4577a914610080578063bf99a4451461007b578063ddca3f43146100765763ea3d508a14610071575f80fd5b6107fe565b6107e1565b6106bf565b610508565b6103ec565b6102df565b61024c565b346100ba575f3660031901126100ba576002546001600160a01b03166080908152602090f35b5f80fd5b60209060031901126100ba576004356001600160401b03811681036100ba5790565b90600182811c9216801561010e575b60208310146100fa57565b634e487b7160e01b5f52602260045260245ffd5b91607f16916100ef565b634e487b7160e01b5f52604160045260245ffd5b60a081019081106001600160401b0382111761014757604052565b610118565b608081019081106001600160401b0382111761014757604052565b90601f801991011681019081106001600160401b0382111761014757604052565b9060405191825f82549261019b846100e0565b808452936001811690811561020657506001146101c2575b506101c092500383610167565b565b90505f9291925260205f20905f915b8183106101ea5750509060206101c0928201015f6101b3565b60209193508060019154838589010152019101909184926101d1565b9050602092506101c094915060ff191682840152151560051b8201015f6101b3565b805180835260209291819084018484015e5f828201840152601f01601f1916010190565b346100ba576001600160401b03610262366100be565b165f52600360205260405f20805463ffffffff600361028360018501610188565b930154166102be60405193849360018060a01b038116855263ffffffff60e01b9060401b166020850152608060408501526080840190610228565b9060608301520390f35b6001600160401b0381116101475760051b60200190565b346100ba5760203660031901126100ba576004356001600160401b0381116100ba57366023820112156100ba57806004013561031a816102c8565b906103286040519283610167565b8082526024602083019160051b840101923684116100ba5760248101915b84831061035857610356846108f9565b005b82356001600160401b0381116100ba578201366043820112156100ba57602481013590610384826102c8565b916103926040519384610167565b808352602060248185019260051b84010101913683116100ba57604401905b8282106103c957505050815260209283019201610346565b81358152602091820191016103b1565b6004359063ffffffff821682036100ba57565b346100ba5760203660031901126100ba576104056103d9565b6298968063ffffffff6001549216026fffffffffffffffffffffffffffffffff811690810361044257810180911161044257602090604051908152f35b610998565b602080825282516001600160a01b0316828201528201516001600160e01b03191660408083019190915282015160a060608301526104899060c0830190610228565b91606081015192601f19838203016080840152602080855192838152019401905f5b8181106104cb575050506080015163ffffffff1660a09091015290565b90565b909194602060806001926060895160ff815116835284810151858401526040810151604084015201511515606082015201960191019190916104ab565b346100ba576001600160401b0361051e366100be565b5f608060405161052d8161012c565b828152826020820152606060408201526060808201520152165f52600360205260405f2060405161055d8161012c565b81546001600160a01b038116825260401b6001600160e01b031916602082015261058960018301610188565b604082015260028201805461059d816102c8565b916105ab6040519384610167565b81835260208301905f5260205f205f915b8383106105fe576105fa866105ee6105e160038b8a6060860152015463ffffffff1690565b63ffffffff166080830152565b60405191829182610447565b0390f35b600460206001926040516106118161014c565b60ff865416815284860154838201526002860154604082015260ff600387015416151560608201528152019201920191906105bc565b604435906001600160e01b0319821682036100ba57565b6001600160401b03811161014757601f01601f191660200190565b81601f820112156100ba578035906106908261065e565b9261069e6040519485610167565b828452602083830101116100ba57815f926020809301838601378301015290565b60803660031901126100ba576106d36103d9565b602435906001600160401b0382116100ba57366023830112156100ba5781600401356106fe816102c8565b9261070c6040519485610167565b8184526024602085019260071b820101903682116100ba57602401915b8183106107835750505061073b610647565b90606435916001600160401b0383116100ba576105fa93610763610769943690600401610679565b92610b5c565b6040516001600160401b0390911681529081906020820190565b6080833603126100ba576040519061079a8261014c565b833560ff811681036100ba578252602084013560208301526040840135604083015260608401359081151582036100ba578260209260606080950152815201920191610729565b346100ba575f3660031901126100ba576020600154604051908152f35b346100ba575f3660031901126100ba5760205f5460e01b6040519063ffffffff60e01b168152f35b919060608301600184526060602085015281518091526080840190602060808260051b8701019301915f905b82821061087457505050508260406104c8939483039101526020905f81520190565b90919293607f19878203018252845190602080835192838152019201905f905b8082106108b257505050602080600192960192019201909291610852565b90919260208060019286518152019401920190610894565b3d156108f4573d906108db8261065e565b916108e96040519384610167565b82523d5f602084013e565b606090565b6002545f9182916001600160a01b0316908261093361094161091c835460e01b90565b936040519283916020830196875260248301610826565b03601f198101835282610167565b51925af161094d6108ca565b90156109565750565b80511561096557805190602001fd5b60405162461bcd60e51b815260206004820152600b60248201526a10d85b1b0819985a5b195960aa1b6044820152606490fd5b634e487b7160e01b5f52601160045260245ffd5b601f82116109b957505050565b5f5260205f20906020601f840160051c830193106109f1575b601f0160051c01905b8181106109e6575050565b5f81556001016109db565b90915081906109d2565b91909182516001600160401b03811161014757610a2281610a1c84546100e0565b846109ac565b6020601f8211600114610a61578190610a529394955f92610a56575b50508160011b915f199060031b1c19161790565b9055565b015190505f80610a3e565b601f19821690610a74845f5260205f2090565b915f5b818110610aae57509583600195969710610a96575b505050811b019055565b01515f1960f88460031b161c191690555f8080610a8c565b9192602060018192868b015181550194019201610a77565b634e487b7160e01b5f52603260045260245ffd5b8051821015610aee5760209160051b010190565b610ac6565b805490680100000000000000008210156101475760018201808255821015610aee576060916003915f5260205f209060021b0160ff84511660ff19825416178155602084015160018201556040840151600282015501910151151560ff80198354169116179055565b60015f5260036020527fa15bc60c955c405d20d9149c709e2460f1c2d9a497496a7f46004d1772c3054c80546001600160c01b0319163363ffffffff60a01b19161760409490941c63ffffffff60a01b16939093179092559291610c279190610be5907fa15bc60c955c405d20d9149c709e2460f1c2d9a497496a7f46004d1772c3054d6109fb565b60015f52600360208190527fa15bc60c955c405d20d9149c709e2460f1c2d9a497496a7f46004d1772c3054c019063ffffffff1663ffffffff19825416179055565b5f5b8251811015610c795760015f819052600360205290610c737fa15bc60c955c405d20d9149c709e2460f1c2d9a497496a7f46004d1772c3054e610c6c8387610ada565b5190610af3565b01610c29565b506001915056fea2646970667358221220a09e2fe59c694558fbb9471e959518484ab6679891b905dab5694cd81782876364736f6c634300081c0033",
  "linkReferences": {},
  "deployedLinkReferences": {}
}