{
  "_format": "hh-sol-artifact-1",
  "contractName": "ETHRejectingContract",
  "sourceName": "contracts/mocks/ETHRejectingContract.sol",
  "abi": [
    {
      "inputs": [
        {
          "internalType": "address",
          "name": "_jackpot",
          "type": "address"
        },
        {
          "internalType": "uint256",
          "name": "_value",
          "type": "uint256"
        }
      ],
      "name": "callRunJackpot",
      "outputs": [],
      "stateMutability": "nonpayable",
      "type": "function"
    },
    {
      "inputs": [],
      "name": "callbackData",
      "outputs": [
        {
          "internalType": "bytes",
          "name": "",
          "type": "bytes"
        }
      ],
      "stateMutability": "view",
      "type": "function"
    },
    {
      "inputs": [],
      "name": "callbackTarget",
      "outputs": [
        {
          "internalType": "address",
          "name": "",
          "type": "address"
        }
      ],
      "stateMutability": "view",
      "type": "function"
    },
    {
      "inputs": [],
      "name": "rejectETH",
      "outputs": [
        {
          "internalType": "bool",
          "name": "",
          "type": "bool"
        }
      ],
      "stateMutability": "view",
      "type": "function"
    },
    {
      "inputs": [
        {
          "internalType": "bytes",
          "name": "_callbackData",
          "type": "bytes"
        }
      ],
      "name": "setCallbackData",
      "outputs": [],
      "stateMutability": "nonpayable",
      "type": "function"
    },
    {
      "inputs": [
        {
          "internalType": "address",
          "name": "_callbackTarget",
          "type": "address"
        }
      ],
      "name": "setCallbackTarget",
      "outputs": [],
      "stateMutability": "nonpayable",
      "type": "function"
    },
    {
      "inputs": [
        {
          "internalType": "bool",
          "name": "_reject",
          "type": "bool"
        }
      ],
      "name": "setRejectETH",
      "outputs": [],
      "stateMutability": "nonpayable",
      "type": "function"
    },
    {
      "stateMutability": "payable",
      "type": "receive"
    }
  ],
  "bytecode": "0x60808060405234601d5760ff195f54165f5561066d90816100228239f35b5f80fdfe60806040526004361015610022575b3615610018575f80fd5b6100206105ad565b005b5f3560e01c8063088a7ddd1461009157806342f535511461008c578063b00981ee14610087578063ddd87f6a14610082578063e4ec80071461007d578063ef44c272146100785763f85ca8990361000e57610397565b6102bd565b610230565b6101be565b61010a565b6100cb565b346100b1575f3660031901126100b15760ff5f5416151560805260206080f35b5f80fd5b600435906001600160a01b03821682036100b157565b346100b15760203660031901126100b1576100e46100b5565b5f8054610100600160a81b03191660089290921b610100600160a81b0316919091179055005b346100b15760403660031901126100b1575f806101256100b5565b604051636eb93f5360e11b60208201908152600482529061014760248261017b565b5191602435905af16101576103c5565b901561015f57005b602081519101fd5b634e487b7160e01b5f52604160045260245ffd5b90601f8019910116810190811067ffffffffffffffff82111761019d57604052565b610167565b67ffffffffffffffff811161019d57601f01601f191660200190565b346100b15760203660031901126100b15760043567ffffffffffffffff81116100b157366023820112156100b15780600401356101fa816101a2565b90610208604051928361017b565b80825236602482850101116100b1576020815f92602461002096018386013783010152610444565b346100b1575f3660031901126100b1575f5460405160089190911c6001600160a01b03168152602090f35b90600182811c92168015610289575b602083101461027557565b634e487b7160e01b5f52602260045260245ffd5b91607f169161026a565b602060409281835280519182918282860152018484015e5f828201840152601f01601f1916010190565b346100b1575f3660031901126100b1576040515f6001546102dd8161025b565b80845290600181169081156103735750600114610315575b610311836103058185038261017b565b60405191829182610293565b0390f35b91905060015f527fb10e2d527612073b26eecdfd717e6a320cf44b4afac2b0732d9fcbe2b7fa0cf6915f905b808210610359575090915081016020016103056102f5565b919260018160209254838588010152019101909291610341565b60ff191660208086019190915291151560051b8401909101915061030590506102f5565b346100b15760203660031901126100b1576004358015158091036100b15760ff80195f54169116175f555f80f35b3d156103ef573d906103d6826101a2565b916103e4604051938461017b565b82523d5f602084013e565b606090565b601f8111610400575050565b60015f5260205f20906020601f840160051c8301931061043a575b601f0160051c01905b81811061042f575050565b5f8155600101610424565b909150819061041b565b90815167ffffffffffffffff811161019d5761046a8161046560015461025b565b6103f4565b602092601f82116001146104aa5761049a929382915f9261049f575b50508160011b915f199060031b1c19161790565b600155565b015190505f80610486565b60015f52601f198216937fb10e2d527612073b26eecdfd717e6a320cf44b4afac2b0732d9fcbe2b7fa0cf6915f5b86811061050e57508360019596106104f6575b505050811b01600155565b01515f1960f88460031b161c191690555f80806104eb565b919260206001819286850151815501940192016104d8565b6001545f92916105358261025b565b916001811690811561059b575060011461054d575050565b60015f90815292935090917fb10e2d527612073b26eecdfd717e6a320cf44b4afac2b0732d9fcbe2b7fa0cf65b8382106105875750500190565b60018160209254848601520191019061057a565b60ff1916825250811515909102019150565b5f5460ff81166100b15760081c6001600160a01b0316806105cb5750565b5f809160405182816105dc81610526565b03925af16105e86103c5565b90156105f15750565b80511561060057602081519101fd5b60405162461bcd60e51b815260206004820152600f60248201526e10d85b1b189858dac819985a5b1959608a1b6044820152606490fdfea264697066735822122011529f0db5c032ad9d736aa23d7cd60e76caa5a1b65a5164dfe9b6fd6856158f64736f6c634300081c0033",
  "linkReferences": {},
  "deployedLinkReferences": {}
}