{
  "_format": "hh-sol-artifact-1",
  "contractName": "TicketAutoCompoundVault",
  "sourceName": "contracts/TicketAutoCompoundVault.sol",
  "abi": [
    {
      "inputs": [
        {
          "internalType": "address",
          "name": "_jackpot",
          "type": "address"
        },
        {
          "internalType": "address",
          "name": "_jackpotNFT",
          "type": "address"
        },
        {
          "internalType": "address",
          "name": "_usdc",
          "type": "address"
        },
        {
          "internalType": "address",
          "name": "_batchFacilitator",
          "type": "address"
        }
      ],
      "stateMutability": "nonpayable",
      "type": "constructor"
    },
    {
      "inputs": [],
      "name": "ActiveBatchOrderExists",
      "type": "error"
    },
    {
      "inputs": [],
      "name": "EmptyTicketArray",
      "type": "error"
    },
    {
      "inputs": [],
      "name": "InvalidClaimedAmount",
      "type": "error"
    },
    {
      "inputs": [],
      "name": "InvalidReferralSplitBps",
      "type": "error"
    },
    {
      "inputs": [],
      "name": "JackpotLocked",
      "type": "error"
    },
    {
      "inputs": [
        {
          "internalType": "address",
          "name": "owner",
          "type": "address"
        }
      ],
      "name": "OwnableInvalidOwner",
      "type": "error"
    },
    {
      "inputs": [
        {
          "internalType": "address",
          "name": "account",
          "type": "address"
        }
      ],
      "name": "OwnableUnauthorizedAccount",
      "type": "error"
    },
    {
      "inputs": [],
      "name": "ReentrancyGuardReentrantCall",
      "type": "error"
    },
    {
      "inputs": [],
      "name": "ReferralSplitLengthMismatch",
      "type": "error"
    },
    {
      "inputs": [],
      "name": "ReferralSplitSumInvalid",
      "type": "error"
    },
    {
      "inputs": [
        {
          "internalType": "address",
          "name": "token",
          "type": "address"
        }
      ],
      "name": "SafeERC20FailedOperation",
      "type": "error"
    },
    {
      "inputs": [],
      "name": "TooManyReferrers",
      "type": "error"
    },
    {
      "inputs": [],
      "name": "ZeroAddress",
      "type": "error"
    },
    {
      "anonymous": false,
      "inputs": [
        {
          "indexed": true,
          "internalType": "address",
          "name": "batchPurchaseFacilitator",
          "type": "address"
        }
      ],
      "name": "BatchPurchaseFacilitatorUpdated",
      "type": "event"
    },
    {
      "anonymous": false,
      "inputs": [
        {
          "indexed": true,
          "internalType": "address",
          "name": "user",
          "type": "address"
        },
        {
          "indexed": false,
          "internalType": "uint256",
          "name": "ticketsClaimed",
          "type": "uint256"
        },
        {
          "indexed": false,
          "internalType": "uint256",
          "name": "usdcClaimed",
          "type": "uint256"
        },
        {
          "indexed": false,
          "internalType": "uint256",
          "name": "ticketsBought",
          "type": "uint256"
        },
        {
          "indexed": false,
          "internalType": "uint256",
          "name": "usdcSpent",
          "type": "uint256"
        },
        {
          "indexed": false,
          "internalType": "uint256",
          "name": "usdcRemaining",
          "type": "uint256"
        },
        {
          "indexed": false,
          "internalType": "bool",
          "name": "useBatchPurchase",
          "type": "bool"
        },
        {
          "indexed": false,
          "internalType": "address[]",
          "name": "referrers",
          "type": "address[]"
        },
        {
          "indexed": false,
          "internalType": "uint256[]",
          "name": "referralSplit",
          "type": "uint256[]"
        }
      ],
      "name": "Compounded",
      "type": "event"
    },
    {
      "anonymous": false,
      "inputs": [
        {
          "indexed": true,
          "internalType": "address",
          "name": "previousOwner",
          "type": "address"
        },
        {
          "indexed": true,
          "internalType": "address",
          "name": "newOwner",
          "type": "address"
        }
      ],
      "name": "OwnershipTransferStarted",
      "type": "event"
    },
    {
      "anonymous": false,
      "inputs": [
        {
          "indexed": true,
          "internalType": "address",
          "name": "previousOwner",
          "type": "address"
        },
        {
          "indexed": true,
          "internalType": "address",
          "name": "newOwner",
          "type": "address"
        }
      ],
      "name": "OwnershipTransferred",
      "type": "event"
    },
    {
      "inputs": [],
      "name": "acceptOwnership",
      "outputs": [],
      "stateMutability": "nonpayable",
      "type": "function"
    },
    {
      "inputs": [],
      "name": "batchFacilitator",
      "outputs": [
        {
          "internalType": "contract IBatchPurchaseFacilitator",
          "name": "",
          "type": "address"
        }
      ],
      "stateMutability": "view",
      "type": "function"
    },
    {
      "inputs": [
        {
          "internalType": "uint256[]",
          "name": "_ticketIds",
          "type": "uint256[]"
        },
        {
          "internalType": "address[]",
          "name": "_referrers",
          "type": "address[]"
        },
        {
          "internalType": "uint256[]",
          "name": "_referralSplit",
          "type": "uint256[]"
        }
      ],
      "name": "depositAndCompound",
      "outputs": [],
      "stateMutability": "nonpayable",
      "type": "function"
    },
    {
      "inputs": [
        {
          "internalType": "address",
          "name": "_user",
          "type": "address"
        }
      ],
      "name": "getUserPendingUSDC",
      "outputs": [
        {
          "internalType": "uint256",
          "name": "",
          "type": "uint256"
        }
      ],
      "stateMutability": "view",
      "type": "function"
    },
    {
      "inputs": [],
      "name": "jackpot",
      "outputs": [
        {
          "internalType": "contract IJackpot",
          "name": "",
          "type": "address"
        }
      ],
      "stateMutability": "view",
      "type": "function"
    },
    {
      "inputs": [],
      "name": "jackpotNFT",
      "outputs": [
        {
          "internalType": "contract IJackpotTicketNFT",
          "name": "",
          "type": "address"
        }
      ],
      "stateMutability": "view",
      "type": "function"
    },
    {
      "inputs": [],
      "name": "owner",
      "outputs": [
        {
          "internalType": "address",
          "name": "",
          "type": "address"
        }
      ],
      "stateMutability": "view",
      "type": "function"
    },
    {
      "inputs": [],
      "name": "pendingOwner",
      "outputs": [
        {
          "internalType": "address",
          "name": "",
          "type": "address"
        }
      ],
      "stateMutability": "view",
      "type": "function"
    },
    {
      "inputs": [],
      "name": "renounceOwnership",
      "outputs": [],
      "stateMutability": "nonpayable",
      "type": "function"
    },
    {
      "inputs": [
        {
          "internalType": "address",
          "name": "_batchFacilitator",
          "type": "address"
        }
      ],
      "name": "setBatchPurchaseFacilitator",
      "outputs": [],
      "stateMutability": "nonpayable",
      "type": "function"
    },
    {
      "inputs": [],
      "name": "ticketPickerNonce",
      "outputs": [
        {
          "internalType": "uint256",
          "name": "",
          "type": "uint256"
        }
      ],
      "stateMutability": "view",
      "type": "function"
    },
    {
      "inputs": [
        {
          "internalType": "address",
          "name": "newOwner",
          "type": "address"
        }
      ],
      "name": "transferOwnership",
      "outputs": [],
      "stateMutability": "nonpayable",
      "type": "function"
    },
    {
      "inputs": [],
      "name": "usdc",
      "outputs": [
        {
          "internalType": "contract IERC20",
          "name": "",
          "type": "address"
        }
      ],
      "stateMutability": "view",
      "type": "function"
    },
    {
      "inputs": [
        {
          "internalType": "address",
          "name": "",
          "type": "address"
        }
      ],
      "name": "userPendingUSDC",
      "outputs": [
        {
          "internalType": "uint256",
          "name": "",
          "type": "uint256"
        }
      ],
      "stateMutability": "view",
      "type": "function"
    }
  ],
  "bytecode": "0x60e03461019f57601f611a7838819003918201601f19168301916001600160401b038311848410176101a35780849260809460405283398101031261019f57610047816101b7565b90610054602082016101b7565b9061006d6060610066604084016101b7565b92016101b7565b90331561018c57600180546001600160a01b03199081169091555f805433928116831782556040519692916001600160a01b03909116907f8be0079c531659141344cd1fd0a4f28419497f9722a3daafe3b4186f6b6457e09080a36001600160a01b031692831561017d576001600160a01b031690811561017d576001600160a01b031691821561017d576001600160a01b031692831561017d5760805260a05260c052600480546001600160a01b0319169190911790556118ac90816101cc8239608051818181610267015281816104e201528181610ce50152611317015260a0518181816103ba0152610bc3015260c05181818161011701528181610ca8015281816111e1015261134b0152f35b63d92e233d60e01b5f5260045ffd5b631e4fbdf760e01b5f525f60045260245ffd5b5f80fd5b634e487b7160e01b5f52604160045260245ffd5b51906001600160a01b038216820361019f5756fe60806040526004361015610011575f80fd5b5f3560e01c80633e413bee146100ef5780634236f5e2146100bd578063460252ee146100ea5780634bd7a2c0146100e557806362672925146100e05780636b31ee01146100db578063715018a6146100d657806379ba5097146100d15780638da5cb5b146100cc578063955c690b146100c7578063c98c5e52146100c2578063d5cb1715146100bd578063e30c3978146100b85763f2fde38b146100b3575f80fd5b6106cc565b6106a4565b610157565b61041a565b6103a5565b61037e565b6102f9565b610296565b610252565b610235565b61020d565b610192565b610102565b5f9103126100fe57565b5f80fd5b346100fe575f3660031901126100fe576040517f00000000000000000000000000000000000000000000000000000000000000006001600160a01b03168152602090f35b6001600160a01b038116036100fe57565b346100fe5760203660031901126100fe5760043561017481610146565b60018060a01b03165f526002602052602060405f2054604051908152f35b346100fe5760203660031901126100fe576004356101af81610146565b6101b7610a0a565b6001600160a01b031680156101fe57600480546001600160a01b031916821790557fa4dd972d2a0d7dad0e4d1f84109471ebd5b631d74f402684a21b061f95c6d3115f80a2005b63d92e233d60e01b5f5260045ffd5b346100fe575f3660031901126100fe576004546040516001600160a01b039091168152602090f35b346100fe575f3660031901126100fe576020600354604051908152f35b346100fe575f3660031901126100fe576040517f00000000000000000000000000000000000000000000000000000000000000006001600160a01b03168152602090f35b346100fe575f3660031901126100fe576102ae610a0a565b600180546001600160a01b03199081169091555f80549182168155906001600160a01b03167f8be0079c531659141344cd1fd0a4f28419497f9722a3daafe3b4186f6b6457e08280a3005b346100fe575f3660031901126100fe57600154336001600160a01b039091160361036b57600180546001600160a01b03199081169091555f805433928116831782556001600160a01b0316907f8be0079c531659141344cd1fd0a4f28419497f9722a3daafe3b4186f6b6457e09080a3005b63118cdaa760e01b5f523360045260245ffd5b346100fe575f3660031901126100fe575f546040516001600160a01b039091168152602090f35b346100fe575f3660031901126100fe576040517f00000000000000000000000000000000000000000000000000000000000000006001600160a01b03168152602090f35b9181601f840112156100fe5782359167ffffffffffffffff83116100fe576020808501948460051b0101116100fe57565b346100fe5760603660031901126100fe5760043567ffffffffffffffff81116100fe5761044b9036906004016103e9565b9060243567ffffffffffffffff81116100fe5761046c9036906004016103e9565b9160443567ffffffffffffffff81116100fe5761048d9036906004016103e9565b7f9b779b17422d0df92223018b32b4d1fa46e071723d6817e2486d003becc55f009291925c6106955760017f9b779b17422d0df92223018b32b4d1fa46e071723d6817e2486d003becc55f005d8515610686577f000000000000000000000000000000000000000000000000000000000000000061052161050f3688886107b6565b61051a36858861080c565b9083610a95565b604051631380204360e31b81526001600160a01b03919091169390602081600481885afa80156106505761057b956101a0925f92610655575b506040518080988194636c687add60e11b8352600483019190602083019252565b03915afa938415610650575f9461061f575b5061018084015161061057856105df83837f9f16adb85395349122cd315dc9d47c35499203d677795b2c026179eb7bc9734f99896105d88d8a6105d3826106039d610bc1565b610c8b565b809a6110d9565b335f9081526002602052604090209298929091905490604051998a99339d8b6109b8565b0390a261060e610a1d565b005b6332e5c6fd60e01b5f5260045ffd5b6106429194506101a03d8111610649575b61063a8183610756565b810190610898565b925f61058d565b503d610630565b610867565b61067891925060203d60201161067f575b6106708183610756565b810190610858565b905f61055a565b503d610666565b6313c7ac1b60e01b5f5260045ffd5b633ee5aeb560e01b5f5260045ffd5b346100fe575f3660031901126100fe576001546040516001600160a01b039091168152602090f35b346100fe5760203660031901126100fe576004356106e981610146565b6106f1610a0a565b60018060a01b0316806bffffffffffffffffffffffff60a01b600154161760015560018060a01b035f54167f38d16b8cac22d99fc7c124b9cd0de2d3fa1faef420bfe791d8c362d765e227005f80a3005b634e487b7160e01b5f52604160045260245ffd5b90601f8019910116810190811067ffffffffffffffff82111761077857604052565b610742565b6040519061078d6101a083610756565b565b6040519061078d604083610756565b67ffffffffffffffff81116107785760051b60200190565b9291906107c28161079e565b936107d06040519586610756565b602085838152019160051b81019283116100fe57905b8282106107f257505050565b60208091833561080181610146565b8152019101906107e6565b9291906108188161079e565b936108266040519586610756565b602085838152019160051b81019283116100fe57905b82821061084857505050565b813581526020918201910161083c565b908160209103126100fe575190565b6040513d5f823e3d90fd5b519060ff821682036100fe57565b519061078d82610146565b519081151582036100fe57565b90816101a09103126100fe576109486101806108b261077d565b92805184526020810151602085015260408101516040850152606081015160608501526080810151608085015260a081015160a085015260c081015160c085015260e081015160e08501526101008101516101008501526109166101208201610872565b6101208501526109296101408201610872565b61014085015261093c6101608201610880565b6101608501520161088b565b61018082015290565b916020908281520191905f5b81811061096a5750505090565b909192602080600192863561097e81610146565b848060a01b03168152019401910191909161095d565b81835290916001600160fb1b0383116100fe5760209260051b809284830137010190565b98969491926109f99693610a079b9995928b5260208b015260408a015260608901526080880152151560a087015261010060c0870152610100860191610951565b9260e0818503910152610994565b90565b5f546001600160a01b0316330361036b57565b5f7f9b779b17422d0df92223018b32b4d1fa46e071723d6817e2486d003becc55f005d565b634e487b7160e01b5f52603260045260245ffd5b8051821015610a6a5760209160051b010190565b610a42565b634e487b7160e01b5f52601160045260245ffd5b91908201809211610a9057565b610a6f565b60405163ce3820d160e01b81529193929190602090829060049082906001600160a01b03165afa908115610650575f91610ba2575b508351825103610b9357835111610b84578251610ae657509050565b5f92835b8151851015610b5f57610b1c610b10610b038785610a56565b516001600160a01b031690565b6001600160a01b031690565b156101fe57610b2b8584610a56565b5115610b5057610b48600191610b418786610a56565b5190610a83565b940193610aea565b631ccba14360e21b5f5260045ffd5b915050670de0b6b3a764000091925003610b7557565b6307c3e09160e01b5f5260045ffd5b63d4920c9360e01b5f5260045ffd5b6307125e1360e11b5f5260045ffd5b610bbb915060203d60201161067f576106708183610756565b5f610aca565b7f00000000000000000000000000000000000000000000000000000000000000006001600160a01b031691905f5b828110610bfc5750505050565b82811015610a6a578060051b82013590843b156100fe576040516323b872dd60e01b815233600482015230602482015260448101929092525f8260648183895af191821561065057600192610c53575b5001610bef565b80610c615f610c6793610756565b806100f4565b5f610c4c565b916020610a07938181520191610994565b91908203918211610a9057565b6040516370a0823160e01b81523060048201526001600160a01b037f000000000000000000000000000000000000000000000000000000000000000016929091602083602481875afa928315610650575f93610dc9575b507f00000000000000000000000000000000000000000000000000000000000000006001600160a01b031691823b156100fe57610d37925f928360405180968195829462df856f60e51b845260048401610c6d565b03925af1801561065057610db5575b506040516370a0823160e01b815230600482015291602090839060249082905afa801561065057610d7e925f91610d96575b50610c7e565b908115610d8757565b63134a833560e01b5f5260045ffd5b610daf915060203d60201161067f576106708183610756565b5f610d78565b80610c615f610dc393610756565b5f610d46565b610de391935060203d60201161067f576106708183610756565b915f610ce2565b634e487b7160e01b5f52601260045260245ffd5b8015610e0a575f190490565b610dea565b8115610e0a570490565b81810292918115918404141715610a9057565b5f198114610a905760010190565b6020818303126100fe5780519067ffffffffffffffff82116100fe57019080601f830112156100fe578151610e6e8161079e565b92610e7c6040519485610756565b81845260208085019260051b8201019283116100fe57602001905b828210610ea45750505090565b8151815260209182019101610e97565b9080602083519182815201916020808360051b8301019401925f915b838310610edf57505050505090565b9091929394601f1982820301835285519060408101918051926040835283518091526020606084019401905f905b808210610f38575050506001926020928360ff81809501511691015297019301930191939290610ed0565b90919460208060019260ff8951168152019601920190610f0d565b96959293610f9d9594610f72610f8f949360a08b5260a08b0190610eb4565b6001600160a01b0390931660208a015288830360408a0152610951565b918583036060870152610994565b91608072185d5d1bcb58dbdb5c1bdd5b990b5d985d5b1d606a1b910152565b908160209103126100fe57610a079061088b565b604051906040820182811067ffffffffffffffff821117610778576040525f602083606081520152565b60405190611009602083610756565b5f80835282815b82811061101c57505050565b602090611027610fd0565b82828501015201611010565b9061103d8261079e565b61104a6040519182610756565b828152809261105b601f199161079e565b01905f5b82811061106b57505050565b602090611076610fd0565b8282850101520161105f565b9593916110cb9367ffffffffffffffff6110bd92610a079a989460018060a01b03168a5216602089015260a0604089015260a0880190610eb4565b918683036060880152610951565b926080818503910152610994565b93611105600492979496976110fe3360018060a01b03165f52600260205260405f2090565b5490610a83565b9060208601976111216111198a5185610e0f565b99518a610e19565b845490989060209061113b906001600160a01b0316610b10565b604051638dca2b9160e01b815296879182905afa80156106505789955f916113cc575b508a1015978a611188575b505050506111779250610c7e565b335f90815260026020526040902055565b909192939450875f146112d057506004546111ab906001600160a01b0316610b10565b60405163892f922960e01b8152336004820152602081602481855afa908115610650575f916112a1575b506112925788611205917f000000000000000000000000000000000000000000000000000000000000000061148f565b60045461121a906001600160a01b0316610b10565b90611223610ffa565b92823b156100fe578a61125d5f9692879367ffffffffffffffff956040519b8c998a9889976313801a9160e11b8952163360048901611082565b03925af19081156106505761117792869261127e575b505b5f808080611169565b80610c615f61128c93610756565b5f611273565b63cf11c6d160e01b5f5260045ffd5b6112c3915060203d6020116112c9575b6112bb8183610756565b810190610fbc565b5f6111d5565b503d6112b1565b945f6113158195976112e6600396959654610e2c565b906112f082600355565b8d61130f61014061130661012085015160ff1690565b93015160ff1690565b92611400565b7f00000000000000000000000000000000000000000000000000000000000000006001600160a01b03169361138e9061136f8d877f000000000000000000000000000000000000000000000000000000000000000061148f565b604051636f44614560e11b8152998a9788968795339060048801610f53565b03925af1908115610650576111779286926113aa575b50611275565b6113c5903d805f833e6113bd8183610756565b810190610e3a565b505f6113a4565b6113e5915060203d60201161067f576106708183610756565b5f61115e565b604051906113fa606083610756565b60228252565b92919061140b6113eb565b60208101907f6d656761706f742e76322e7469636b65745f7069636b65722e7069636b5f6175825261746f60f01b60408201525190205f194301438111610a9057610a079560405191602083019384523060408401524660608401524460808401524060a083015260c082015260c0815261148760e082610756565b519020611569565b60405163095ea7b360e01b60208281019182526001600160a01b0385166024840152604480840196909652948252929390925f906114ce606486610756565b84519082855af15f51903d8161153d575b501590505b6114ed57505050565b60405163095ea7b360e01b60208201526001600160a01b0390931660248401525f604484015261078d926115389061153281606481015b03601f198101835282610756565b82611619565b611619565b1515905061155d57506114e46001600160a01b0382163b15155b5f6114df565b60016114e49114611557565b9392909182156115db5761157c83611033565b945f5b84811061158d575050505050565b6040805160208101848152918101839052600192916115bf91879187916115b78160608101611524565b519020611671565b6115c9828a610a56565b526115d48189610a56565b500161157f565b60405162461bcd60e51b8152602060048201526016602482015275141a58dac8185d081b19585cdd080c481d1a58dad95d60521b6044820152606490fd5b905f602091828151910182855af115610867575f513d61166857506001600160a01b0381163b155b6116485750565b635274afe760e01b5f9081526001600160a01b0391909116600452602490fd5b60011415611641565b909161167b610fd0565b5060ff604051936315a409df60e31b855260016004860152166024840152600560448401528160648401525f8360848173__$f7b56129a109e8cfdd105a93f7993108ed$__5af4928315610650575f936116f7575b50610a079160ff6116e29216906117e2565b6116ea61078f565b92835260ff166020830152565b6116e29193509160ff611716610a07943d805f833e6113bd8183610756565b94925050916116d0565b1561172757565b60405162461bcd60e51b815260206004820152600b60248201526a092dcecc2d8d2c840dac2f60ab1b6044820152606490fd5b604051611768606082610756565b602781527f6d656761706f742e76322e7469636b65745f7069636b65722e7069636b5f626f6020820152661b9d5cd8985b1b60ca1b6040909101527f933002008674cb2c329a0af0ac39a47561460df9fe9ad91186b087d50844116c90565b8115610e0a570690565b60ff166001019060ff8211610a9057565b908015158061186b575b6117f590611720565b6118078161180281610dfe565b610e19565b915b61152461184361181761175a565b6040805160208101928352469181019190915230606082015260808101949094529291829060a0820190565b5190208281101561180957610a07925061186691611860916117c7565b60ff1690565b6117d1565b5060ff8111156117ec56fea26469706673582212204f0a14dfeb089ea32957afe6a9cf9aa6dc1da4ba97c4f412089ebf8fa858f24664736f6c634300081c0033",
  "linkReferences": {
    "contracts/lib/FisherYatesWithRejection.sol": {
      "FisherYatesRejection": [
        {
          "length": 20,
          "start": 6265
        }
      ]
    }
  },
  "deployedLinkReferences": {
    "contracts/lib/FisherYatesWithRejection.sol": {
      "FisherYatesRejection": [
        {
          "length": 20,
          "start": 5805
        }
      ]
    }
  }
}