{
  "_format": "hh-sol-artifact-1",
  "contractName": "MockJackpot",
  "sourceName": "contracts/mocks/MockJackpot.sol",
  "abi": [
    {
      "inputs": [
        {
          "internalType": "address",
          "name": "nftContract",
          "type": "address"
        },
        {
          "internalType": "uint256",
          "name": "ticketId",
          "type": "uint256"
        }
      ],
      "name": "burnTicket",
      "outputs": [],
      "stateMutability": "nonpayable",
      "type": "function"
    },
    {
      "inputs": [
        {
          "internalType": "contract IPayoutCalculator",
          "name": "payoutCalculator",
          "type": "address"
        },
        {
          "internalType": "uint256",
          "name": "drawingId",
          "type": "uint256"
        },
        {
          "internalType": "uint256",
          "name": "prizePool",
          "type": "uint256"
        },
        {
          "internalType": "uint8",
          "name": "normalMax",
          "type": "uint8"
        },
        {
          "internalType": "uint8",
          "name": "bonusballMax",
          "type": "uint8"
        },
        {
          "internalType": "uint256[]",
          "name": "result",
          "type": "uint256[]"
        },
        {
          "internalType": "uint256[]",
          "name": "dupResult",
          "type": "uint256[]"
        }
      ],
      "name": "calculateAndStoreDrawingUserWinnings",
      "outputs": [],
      "stateMutability": "nonpayable",
      "type": "function"
    },
    {
      "inputs": [],
      "name": "currentDrawingId",
      "outputs": [
        {
          "internalType": "uint256",
          "name": "",
          "type": "uint256"
        }
      ],
      "stateMutability": "view",
      "type": "function"
    },
    {
      "inputs": [
        {
          "internalType": "address",
          "name": "lpManager",
          "type": "address"
        },
        {
          "internalType": "uint256",
          "name": "drawingId",
          "type": "uint256"
        },
        {
          "internalType": "address",
          "name": "user",
          "type": "address"
        }
      ],
      "name": "emergencyWithdrawLP",
      "outputs": [],
      "stateMutability": "nonpayable",
      "type": "function"
    },
    {
      "inputs": [
        {
          "internalType": "uint256",
          "name": "",
          "type": "uint256"
        }
      ],
      "name": "getDrawingState",
      "outputs": [
        {
          "components": [
            {
              "internalType": "uint256",
              "name": "prizePool",
              "type": "uint256"
            },
            {
              "internalType": "uint256",
              "name": "ticketPrice",
              "type": "uint256"
            },
            {
              "internalType": "uint256",
              "name": "edgePerTicket",
              "type": "uint256"
            },
            {
              "internalType": "uint256",
              "name": "referralWinShare",
              "type": "uint256"
            },
            {
              "internalType": "uint256",
              "name": "referralFee",
              "type": "uint256"
            },
            {
              "internalType": "uint256",
              "name": "globalTicketsBought",
              "type": "uint256"
            },
            {
              "internalType": "uint256",
              "name": "lpEarnings",
              "type": "uint256"
            },
            {
              "internalType": "uint256",
              "name": "drawingTime",
              "type": "uint256"
            },
            {
              "internalType": "uint256",
              "name": "winningTicket",
              "type": "uint256"
            },
            {
              "internalType": "uint8",
              "name": "ballMax",
              "type": "uint8"
            },
            {
              "internalType": "uint8",
              "name": "bonusballMax",
              "type": "uint8"
            },
            {
              "internalType": "contract IPayoutCalculator",
              "name": "payoutCalculator",
              "type": "address"
            },
            {
              "internalType": "bool",
              "name": "jackpotLock",
              "type": "bool"
            }
          ],
          "internalType": "struct IJackpot.DrawingState",
          "name": "",
          "type": "tuple"
        }
      ],
      "stateMutability": "view",
      "type": "function"
    },
    {
      "inputs": [
        {
          "internalType": "uint256",
          "name": "",
          "type": "uint256"
        }
      ],
      "name": "getDrawingTierPayouts",
      "outputs": [
        {
          "internalType": "uint256[12]",
          "name": "",
          "type": "uint256[12]"
        }
      ],
      "stateMutability": "view",
      "type": "function"
    },
    {
      "inputs": [],
      "name": "getLastLPSettlementResults",
      "outputs": [
        {
          "internalType": "uint256",
          "name": "",
          "type": "uint256"
        },
        {
          "internalType": "uint256",
          "name": "",
          "type": "uint256"
        }
      ],
      "stateMutability": "view",
      "type": "function"
    },
    {
      "inputs": [],
      "name": "getLastWithdrawableAmount",
      "outputs": [
        {
          "internalType": "uint256",
          "name": "",
          "type": "uint256"
        }
      ],
      "stateMutability": "view",
      "type": "function"
    },
    {
      "inputs": [
        {
          "internalType": "uint256[]",
          "name": "_ticketIds",
          "type": "uint256[]"
        }
      ],
      "name": "getTicketTierIds",
      "outputs": [
        {
          "internalType": "uint256[]",
          "name": "",
          "type": "uint256[]"
        }
      ],
      "stateMutability": "view",
      "type": "function"
    },
    {
      "inputs": [
        {
          "internalType": "uint256",
          "name": "",
          "type": "uint256"
        },
        {
          "internalType": "uint256",
          "name": "packedTicket",
          "type": "uint256"
        }
      ],
      "name": "getUnpackedTicket",
      "outputs": [
        {
          "internalType": "uint8[]",
          "name": "",
          "type": "uint8[]"
        },
        {
          "internalType": "uint8",
          "name": "",
          "type": "uint8"
        }
      ],
      "stateMutability": "pure",
      "type": "function"
    },
    {
      "inputs": [
        {
          "internalType": "address",
          "name": "lpManager",
          "type": "address"
        },
        {
          "internalType": "uint256",
          "name": "drawingId",
          "type": "uint256"
        },
        {
          "internalType": "uint256",
          "name": "initialValue",
          "type": "uint256"
        }
      ],
      "name": "initializeDrawingLP",
      "outputs": [],
      "stateMutability": "nonpayable",
      "type": "function"
    },
    {
      "inputs": [
        {
          "internalType": "address",
          "name": "lpManager",
          "type": "address"
        }
      ],
      "name": "initializeLP",
      "outputs": [],
      "stateMutability": "nonpayable",
      "type": "function"
    },
    {
      "inputs": [],
      "name": "lastNewAccumulator",
      "outputs": [
        {
          "internalType": "uint256",
          "name": "",
          "type": "uint256"
        }
      ],
      "stateMutability": "view",
      "type": "function"
    },
    {
      "inputs": [],
      "name": "lastNewLPValue",
      "outputs": [
        {
          "internalType": "uint256",
          "name": "",
          "type": "uint256"
        }
      ],
      "stateMutability": "view",
      "type": "function"
    },
    {
      "inputs": [],
      "name": "lastWithdrawableAmount",
      "outputs": [
        {
          "internalType": "uint256",
          "name": "",
          "type": "uint256"
        }
      ],
      "stateMutability": "view",
      "type": "function"
    },
    {
      "inputs": [],
      "name": "maxReferrers",
      "outputs": [
        {
          "internalType": "uint256",
          "name": "",
          "type": "uint256"
        }
      ],
      "stateMutability": "view",
      "type": "function"
    },
    {
      "inputs": [
        {
          "internalType": "address",
          "name": "nftContract",
          "type": "address"
        },
        {
          "internalType": "address",
          "name": "recipient",
          "type": "address"
        },
        {
          "internalType": "uint256",
          "name": "ticketId",
          "type": "uint256"
        },
        {
          "internalType": "uint256",
          "name": "drawingId",
          "type": "uint256"
        },
        {
          "internalType": "uint256",
          "name": "packedTicket",
          "type": "uint256"
        },
        {
          "internalType": "bytes32",
          "name": "referralScheme",
          "type": "bytes32"
        }
      ],
      "name": "mintTicket",
      "outputs": [],
      "stateMutability": "nonpayable",
      "type": "function"
    },
    {
      "inputs": [
        {
          "internalType": "address",
          "name": "lpManager",
          "type": "address"
        },
        {
          "internalType": "uint256",
          "name": "drawingId",
          "type": "uint256"
        },
        {
          "internalType": "address",
          "name": "lpAddress",
          "type": "address"
        },
        {
          "internalType": "uint256",
          "name": "amount",
          "type": "uint256"
        }
      ],
      "name": "processDeposit",
      "outputs": [],
      "stateMutability": "nonpayable",
      "type": "function"
    },
    {
      "inputs": [
        {
          "internalType": "address",
          "name": "lpManager",
          "type": "address"
        },
        {
          "internalType": "uint256",
          "name": "drawingId",
          "type": "uint256"
        },
        {
          "internalType": "uint256",
          "name": "lpEarnings",
          "type": "uint256"
        },
        {
          "internalType": "uint256",
          "name": "userWinnings",
          "type": "uint256"
        },
        {
          "internalType": "uint256",
          "name": "protocolFee",
          "type": "uint256"
        }
      ],
      "name": "processDrawingSettlement",
      "outputs": [],
      "stateMutability": "nonpayable",
      "type": "function"
    },
    {
      "inputs": [
        {
          "internalType": "address",
          "name": "lpManager",
          "type": "address"
        },
        {
          "internalType": "uint256",
          "name": "drawingId",
          "type": "uint256"
        },
        {
          "internalType": "address",
          "name": "lpAddress",
          "type": "address"
        }
      ],
      "name": "processFinalizeWithdraw",
      "outputs": [],
      "stateMutability": "nonpayable",
      "type": "function"
    },
    {
      "inputs": [
        {
          "internalType": "address",
          "name": "lpManager",
          "type": "address"
        },
        {
          "internalType": "uint256",
          "name": "drawingId",
          "type": "uint256"
        },
        {
          "internalType": "address",
          "name": "lpAddress",
          "type": "address"
        },
        {
          "internalType": "uint256",
          "name": "shares",
          "type": "uint256"
        }
      ],
      "name": "processInitiateWithdraw",
      "outputs": [],
      "stateMutability": "nonpayable",
      "type": "function"
    },
    {
      "inputs": [
        {
          "internalType": "uint256",
          "name": "drawingId",
          "type": "uint256"
        }
      ],
      "name": "setDrawingId",
      "outputs": [],
      "stateMutability": "nonpayable",
      "type": "function"
    },
    {
      "inputs": [
        {
          "internalType": "uint8",
          "name": "ballMax",
          "type": "uint8"
        },
        {
          "internalType": "uint8",
          "name": "bonusballMax",
          "type": "uint8"
        },
        {
          "internalType": "uint256",
          "name": "globalTicketsBought",
          "type": "uint256"
        },
        {
          "internalType": "uint256",
          "name": "drawingTime",
          "type": "uint256"
        }
      ],
      "name": "setDrawingState",
      "outputs": [],
      "stateMutability": "nonpayable",
      "type": "function"
    },
    {
      "inputs": [
        {
          "internalType": "contract IPayoutCalculator",
          "name": "payoutCalculator",
          "type": "address"
        },
        {
          "internalType": "uint256",
          "name": "drawingId",
          "type": "uint256"
        }
      ],
      "name": "setDrawingTierInfo",
      "outputs": [],
      "stateMutability": "nonpayable",
      "type": "function"
    },
    {
      "inputs": [
        {
          "internalType": "uint256[12]",
          "name": "payouts",
          "type": "uint256[12]"
        }
      ],
      "name": "setDrawingTierPayouts",
      "outputs": [],
      "stateMutability": "nonpayable",
      "type": "function"
    },
    {
      "inputs": [
        {
          "internalType": "address",
          "name": "lpManager",
          "type": "address"
        },
        {
          "internalType": "uint256",
          "name": "drawingId",
          "type": "uint256"
        },
        {
          "internalType": "uint256",
          "name": "hardCap",
          "type": "uint256"
        },
        {
          "internalType": "uint256",
          "name": "cap",
          "type": "uint256"
        }
      ],
      "name": "setLPPoolCap",
      "outputs": [],
      "stateMutability": "nonpayable",
      "type": "function"
    },
    {
      "inputs": [
        {
          "internalType": "uint256",
          "name": "maxReferrers_",
          "type": "uint256"
        }
      ],
      "name": "setMaxReferrers",
      "outputs": [],
      "stateMutability": "nonpayable",
      "type": "function"
    },
    {
      "inputs": [
        {
          "internalType": "uint256",
          "name": "ticketId",
          "type": "uint256"
        },
        {
          "internalType": "uint256",
          "name": "tierId",
          "type": "uint256"
        }
      ],
      "name": "setTicketTierId",
      "outputs": [],
      "stateMutability": "nonpayable",
      "type": "function"
    }
  ],
  "bytecode": "0x60808060405234601557610f0f908161001a8239f35b5f80fdfe6080806040526004361015610012575f80fd5b5f905f3560e01c9081630605061714610bf0575080631418824614610ac9578063163bb6fd14610aae5780631792900f14610a1d5780632262b669146109ff57806322696946146109e057806327d2de30146109895780632c3291171461096e578063370509871461092657806356d1bb5c1461045557806365240c77146108ba5780636a8d19ee1461086a57806370909d57146107c0578063709aa1a6146107695780639bdf98371461070a5780639c010218146106ec5780639ed58d671461064d578063a8cf75851461062f578063ae9e79b7146105c8578063b32b670c14610516578063c8c4d24b14610490578063ce3820d114610472578063d5dbdfcc14610455578063d70ab9d1146103d0578063d8d0f5ba1461024b578063dce23da2146101f4578063dd872181146101795763f0aed34714610152575f80fd5b34610176578060031936011261017657604060015460025482519182526020820152f35b80fd5b503461017657610180366003190112610176573660231215610176576040516101a461018082610cf7565b8036610184116101f0576004905b61018482106101e0575050815b600c81106101cb578280f35b600190602083519301928160100155016101bf565b81358152602091820191016101b2565b8280fd5b50346101765760803660031901126101765760043560ff8116809103610247576024359060ff821682036101f05761ff00600e549260081b169161ffff19161717600e55604435600a55606435600c5580f35b5080fd5b50346101765760203660031901126101765760405161026981610cc6565b8181528160208201528160408201528160608201528160808201528160a08201528160c08201528160e08201528161010082015281610120820152816101408201528161016082015261018001526040516102c381610cc6565b6005549081815260065490602081019182526007549160408201928352600854926060830193845260095460808401908152600a5460a08501908152600b5460c08601908152600c549160e08701928352600d54936101008801948552600e549861012089019660ff8b1688526101408a01988b60081c60ff168a526101608b019a600160a01b600190038d60101c168c52610180019b60b01c60ff1615158c526040519c8d525160208d01525160408c01525160608b01525160808a01525160a08901525160c08801525160e0870152516101008601525160ff166101208501525160ff16610140840152600160a01b600190039051166101608301525115156101808201526101a090f35b50346101765760203660031901126101765761018090816040516103f48282610cf7565b369037604051601082825b600c821061043f57505050906104158383610cf7565b6040519190825b600c821061042957505050f35b602080600192855181520193019101909161041c565b60016020819285548152019301910190916103ff565b503461017657806003193601126101765760209054604051908152f35b50346101765780600319360112610176576020600454604051908152f35b503461017657608036600319011261017657806001600160a01b036104b3610c72565b16803b1561051357818091606460405180948193630af7ff6360e01b835260243560048401526044356024840152833560448401525af18015610508576104f75750f35b8161050191610cf7565b6101765780f35b6040513d84823e3d90fd5b50fd5b50346101765760203660031901126101765760043567ffffffffffffffff811161024757610548903690600401610d31565b80519161055483610d19565b926105626040519485610cf7565b808452610571601f1991610d19565b01366020850137805b82518110156105ae578061059060019285610e20565b518352600f60205260408320546105a78287610e20565b520161057a565b604051602080825281906105c490820187610dde565b0390f35b5034610176576105e16105da36610d8e565b9050610e48565b919060405191604083016040845282518091526020606085019301915b8181106106165750505060ff82931660208301520390f35b825160ff168452602093840193909201916001016105fe565b50346101765780600319360112610176576020600154604051908152f35b503461017657610695602061066136610da4565b60405163094cebbf60e01b815260048101929092526001600160a01b03166024820152928391908290869082906044820190565b03926001600160a01b03165af19081156105085782916106b6575b50815580f35b90506020813d6020116106e4575b816106d160209383610cf7565b810103126106e057515f6106b0565b5f80fd5b3d91506106c4565b50346101765780600319360112610176576020600354604051908152f35b503461017657606036600319011261017657806001600160a01b0361072d610c72565b16803b15610513578180916044604051809481936399e0b9e560e01b83526024356004840152833560248401525af18015610508576104f75750f35b503461017657604036600319011261017657806001600160a01b0361078c610c72565b16803b156105135781809160246040518094819363a476b73d60e01b8352833560048401525af18015610508576104f75750f35b50346101765760a0366003190112610176578060406107dd610c72565b608482518094819363010e62e560e71b83526024356004840152604435602484015260643560448401528335606484015260018060a01b03165af180156105085782918391610831575b5060025560015580f35b9150506040813d604011610862575b8161084d60409383610cf7565b8101031261024757602081519101515f610827565b3d9150610840565b503461017657602036600319011261017657806001600160a01b0361088d610c72565b16803b156105135781809160046040518094819363a6690cf960e01b83525af18015610508576104f75750f35b503461017657806108ca36610c88565b90926001600160a01b0316803b1561092257604051633c79fb7d60e11b815260048101939093526001600160a01b0393909316602483015260448201529082908290606490829084905af18015610508576104f75750f35b8480fd5b503461017657610695602061093a36610da4565b604051636bc73a4f60e01b815260048101929092526001600160a01b03166024820152928391908290869082906044820190565b50346101765760203660031901126101765760043560045580f35b503461017657604036600319011261017657806001600160a01b036109ac610c72565b16803b1561051357818091602460405180948193634846e20360e11b8352833560048401525af18015610508576104f75750f35b5034610176576109ef36610d8e565b908252600f602052604082205580f35b50346101765780600319360112610176576020600254604051908152f35b50346101765760c03660031901126101765780610a38610c72565b6024356001600160a01b0381169190829003610aaa576001600160a01b031690813b15610aaa57829160a483926040519485938492631b6b21a760e11b84526004840152604435602484015260643560448401526084356064840152833560848401525af18015610508576104f75750f35b5050fd5b50346101765760203660031901126101765760043560035580f35b50346101765760e036600319011261017657610ae3610c72565b6024356064359160ff8316809303610bec576084359060ff82168092036109225760a43567ffffffffffffffff8111610be857610b24903690600401610d31565b938560c4359467ffffffffffffffff861161024757610ba1610b4c6020973690600401610d31565b82600355610b8f604051998a98899788966335b98bad60e01b8852600488015260443560248801526044870152606486015260c0608486015260c4850190610dde565b8381036003190160a485015290610dde565b03926001600160a01b03165af1801561050857610bbc575080f35b610bdd9060203d602011610be1575b610bd58183610cf7565b810190610e11565b5080f35b503d610bcb565b8580fd5b8380fd5b9050346106e057610c0036610c88565b9290916001600160a01b0390911690813b156106e057636f59c16360e11b855260048501526001600160a01b0391909116602484015260448301919091525f908290606490829084905af18015610c6757610c59575080f35b610c6591505f90610cf7565b005b6040513d5f823e3d90fd5b600435906001600160a01b03821682036106e057565b60809060031901126106e0576004356001600160a01b03811681036106e05790602435906044356001600160a01b03811681036106e0579060643590565b6101a0810190811067ffffffffffffffff821117610ce357604052565b634e487b7160e01b5f52604160045260245ffd5b90601f8019910116810190811067ffffffffffffffff821117610ce357604052565b67ffffffffffffffff8111610ce35760051b60200190565b9080601f830112156106e0578135610d4881610d19565b92610d566040519485610cf7565b81845260208085019260051b8201019283116106e057602001905b828210610d7e5750505090565b8135815260209182019101610d71565b60409060031901126106e0576004359060243590565b60609060031901126106e0576004356001600160a01b03811681036106e05790602435906044356001600160a01b03811681036106e05790565b90602080835192838152019201905f5b818110610dfb5750505090565b8251845260209384019390920191600101610dee565b908160209103126106e0575190565b8051821015610e345760209160051b010190565b634e487b7160e01b5f52603260045260245ffd5b15610ebf57604051610e5b60c082610cf7565b600581526020810160a0368237815115610e3457806001915052805160011015610e345760026040820152805160021015610e345760036060820152805160031015610e345760046080820152805160041015610e3457600560a082015290600690565b604051610ecd602082610cf7565b5f81525f368137905f9056fea2646970667358221220a01219ba21e8093a68b42e30b4d78941cb01a6bb6ceeb48f9c47af9b68128a2564736f6c634300081c0033",
  "linkReferences": {},
  "deployedLinkReferences": {}
}