{
  "_format": "hh-sol-artifact-1",
  "contractName": "EntropyMock",
  "sourceName": "contracts/mocks/EntropyMock.sol",
  "abi": [
    {
      "inputs": [
        {
          "internalType": "uint128",
          "name": "_fee",
          "type": "uint128"
        }
      ],
      "stateMutability": "nonpayable",
      "type": "constructor"
    },
    {
      "anonymous": false,
      "inputs": [
        {
          "indexed": true,
          "internalType": "uint64",
          "name": "sequence",
          "type": "uint64"
        },
        {
          "indexed": true,
          "internalType": "address",
          "name": "consumer",
          "type": "address"
        },
        {
          "indexed": false,
          "internalType": "address",
          "name": "provider",
          "type": "address"
        },
        {
          "indexed": false,
          "internalType": "bytes32",
          "name": "userRandomNumber",
          "type": "bytes32"
        }
      ],
      "name": "EntropyRequested",
      "type": "event"
    },
    {
      "inputs": [
        {
          "internalType": "uint64",
          "name": "sequence",
          "type": "uint64"
        },
        {
          "internalType": "address",
          "name": "consumer",
          "type": "address"
        },
        {
          "internalType": "bytes32",
          "name": "userRandomNumber",
          "type": "bytes32"
        }
      ],
      "name": "addPendingRequest",
      "outputs": [],
      "stateMutability": "nonpayable",
      "type": "function"
    },
    {
      "inputs": [],
      "name": "fee",
      "outputs": [
        {
          "internalType": "uint128",
          "name": "",
          "type": "uint128"
        }
      ],
      "stateMutability": "view",
      "type": "function"
    },
    {
      "inputs": [
        {
          "internalType": "address",
          "name": "",
          "type": "address"
        },
        {
          "internalType": "uint32",
          "name": "gasLimit",
          "type": "uint32"
        }
      ],
      "name": "getFeeV2",
      "outputs": [
        {
          "internalType": "uint128",
          "name": "",
          "type": "uint128"
        }
      ],
      "stateMutability": "view",
      "type": "function"
    },
    {
      "inputs": [
        {
          "internalType": "uint64",
          "name": "sequence",
          "type": "uint64"
        }
      ],
      "name": "getPendingRequest",
      "outputs": [
        {
          "components": [
            {
              "internalType": "address",
              "name": "consumer",
              "type": "address"
            },
            {
              "internalType": "bytes32",
              "name": "userRandomNumber",
              "type": "bytes32"
            }
          ],
          "internalType": "struct EntropyMock.PendingCallback",
          "name": "",
          "type": "tuple"
        }
      ],
      "stateMutability": "view",
      "type": "function"
    },
    {
      "inputs": [
        {
          "internalType": "address",
          "name": "provider",
          "type": "address"
        },
        {
          "internalType": "uint32",
          "name": "",
          "type": "uint32"
        }
      ],
      "name": "requestV2",
      "outputs": [
        {
          "internalType": "uint64",
          "name": "sequence",
          "type": "uint64"
        }
      ],
      "stateMutability": "payable",
      "type": "function"
    },
    {
      "inputs": [
        {
          "internalType": "address",
          "name": "provider",
          "type": "address"
        },
        {
          "internalType": "bytes32",
          "name": "userRandomNumber",
          "type": "bytes32"
        },
        {
          "internalType": "uint32",
          "name": "",
          "type": "uint32"
        }
      ],
      "name": "requestV2",
      "outputs": [
        {
          "internalType": "uint64",
          "name": "sequence",
          "type": "uint64"
        }
      ],
      "stateMutability": "payable",
      "type": "function"
    },
    {
      "inputs": [
        {
          "internalType": "uint128",
          "name": "_fee",
          "type": "uint128"
        }
      ],
      "name": "setFee",
      "outputs": [],
      "stateMutability": "nonpayable",
      "type": "function"
    },
    {
      "inputs": [
        {
          "internalType": "uint64",
          "name": "sequence",
          "type": "uint64"
        },
        {
          "internalType": "address",
          "name": "provider",
          "type": "address"
        },
        {
          "internalType": "bytes32",
          "name": "randomNumber",
          "type": "bytes32"
        }
      ],
      "name": "triggerCallback",
      "outputs": [],
      "stateMutability": "nonpayable",
      "type": "function"
    }
  ],
  "bytecode": "0x608034607457601f61082138819003918201601f19168301916001600160401b03831184841017607857808492602094604052833981010312607457516001600160801b038116908190036074575f80546001600160c01b031916909117600160801b179055604051610794908161008d8239f35b5f80fd5b634e487b7160e01b5f52604160045260245ffdfe60806040526004361015610011575f80fd5b5f3560e01c80630e33da29146100945780633687f24a1461008f5780637ab2ac361461008a57806383f0420c14610085578063b8af540314610080578063bd4577a91461007b578063ddca3f43146100765763f77b45e114610071575f80fd5b61054d565b610528565b61049e565b610368565b6102fc565b610239565b610201565b60403660031901126101c1576101bd6100ab6101c5565b6100b36101db565b506001600160401b035f546100d36001600160801b038216341015610634565b60801c16906101106100e483610687565b5f805467ffffffffffffffff60801b191660809290921b67ffffffffffffffff60801b16919091179055565b61015d60405161011f816106b8565b3381525f60208083018281528683526001918290526040909220925183546001600160a01b0319166001600160a01b03919091161783559051910155565b604080516001600160a01b0390921682525f6020830152339183917f4fcdb1e97f837c2292cbebf7f4590ecc7a3a81646e0de0f2b877e1e6ea5754d79190819081015b0390a36040516001600160401b0390911681529081906020820190565b0390f35b5f80fd5b600435906001600160a01b03821682036101c157565b6024359063ffffffff821682036101c157565b6044359063ffffffff821682036101c157565b346101c15760203660031901126101c1576004356001600160801b0381168091036101c1576001600160801b03195f5416175f555f80f35b346101c15760403660031901126101c1576102526101c5565b5061025b6101db565b6298968063ffffffff6001600160801b035f5416921602906001600160801b0382169182036102a757016001600160801b0381116102a7576020906001600160801b0360405191168152f35b610673565b600435906001600160401b03821682036101c157565b60609060031901126101c1576004356001600160401b03811681036101c157906024356001600160a01b03811681036101c1579060443590565b346101c1576001600160401b036001610314366102c2565b9160409491945194610325866106b8565b848060a01b0316855260208501928352165f528160205260405f2092828060a01b039051166bffffffffffffffffffffffff60a01b845416178355519101555f80f35b346101c1575f80610378366102c2565b6103a061039b8496949593956001600160401b03165f52600160205260405f2090565b6106f9565b93826103fc61040a6103b8885160018060a01b031690565b604051630a54be3f60e31b602082019081526001600160401b038c1660248301526001600160a01b0390961660448201526064810196909652949182906084820190565b03601f1981018352826106d8565b51925af1610416610720565b90156104585750516001600160a01b031661042d57005b61044b610456916001600160401b03165f52600160205260405f2090565b60015f918281550155565b005b80511561046757805190602001fd5b60405162461bcd60e51b815260206004820152600f60248201526e10d85b1b189858dac819985a5b1959608a1b6044820152606490fd5b346101c15760203660031901126101c1576001600160401b036104bf6102ac565b5f60206040516104ce816106b8565b8281520152165f5260016020526101bd60405f206001604051916104f1836106b8565b818060a01b0381541683520154602082015260405191829182919091602080604083019460018060a01b0381511684520151910152565b346101c1575f3660031901126101c15760206001600160801b035f5416604051908152f35b60603660031901126101c1576101bd6101a06105676101c5565b6024356105726101ee565b507f4fcdb1e97f837c2292cbebf7f4590ecc7a3a81646e0de0f2b877e1e6ea5754d76001600160401b035f546105b36001600160801b038216341015610634565b60801c169384926105c66100e485610687565b6106116040516105d5816106b8565b33815260208082018481525f88815260019283905260409020925183546001600160a01b0319166001600160a01b039190911617835551910155565b604080516001600160a01b03909616865260208601919091523394918291820190565b1561063b57565b60405162461bcd60e51b815260206004820152601060248201526f496e73756666696369656e742066656560801b6044820152606490fd5b634e487b7160e01b5f52601160045260245ffd5b6001600160401b03166001600160401b0381146102a75760010190565b634e487b7160e01b5f52604160045260245ffd5b604081019081106001600160401b038211176106d357604052565b6106a4565b90601f801991011681019081106001600160401b038211176106d357604052565b90604051610706816106b8565b82546001600160a01b031681526001909201546020830152565b3d15610759573d906001600160401b0382116106d3576040519161074e601f8201601f1916602001846106d8565b82523d5f602084013e565b60609056fea26469706673582212207f0f226b6168718a56c499c12635e031f1d5642e07de24efb9c198d9e32ba41c64736f6c634300081c0033",
  "linkReferences": {},
  "deployedLinkReferences": {}
}