{
  "_format": "hh-sol-artifact-1",
  "contractName": "JackpotBridgeManager",
  "sourceName": "contracts/JackpotBridgeManager.sol",
  "abi": [
    {
      "inputs": [
        {
          "internalType": "contract IJackpot",
          "name": "_jackpot",
          "type": "address"
        },
        {
          "internalType": "contract IJackpotTicketNFT",
          "name": "_jackpotTicketNFT",
          "type": "address"
        },
        {
          "internalType": "contract IERC20",
          "name": "_usdc",
          "type": "address"
        },
        {
          "internalType": "contract IRelayDepository",
          "name": "_relayDepository",
          "type": "address"
        },
        {
          "internalType": "string",
          "name": "_name",
          "type": "string"
        },
        {
          "internalType": "string",
          "name": "_version",
          "type": "string"
        }
      ],
      "stateMutability": "nonpayable",
      "type": "constructor"
    },
    {
      "inputs": [],
      "name": "ECDSAInvalidSignature",
      "type": "error"
    },
    {
      "inputs": [
        {
          "internalType": "uint256",
          "name": "length",
          "type": "uint256"
        }
      ],
      "name": "ECDSAInvalidSignatureLength",
      "type": "error"
    },
    {
      "inputs": [
        {
          "internalType": "bytes32",
          "name": "s",
          "type": "bytes32"
        }
      ],
      "name": "ECDSAInvalidSignatureS",
      "type": "error"
    },
    {
      "inputs": [],
      "name": "InvalidBridgeAmount",
      "type": "error"
    },
    {
      "inputs": [],
      "name": "InvalidClaimedAmount",
      "type": "error"
    },
    {
      "inputs": [],
      "name": "InvalidRecipient",
      "type": "error"
    },
    {
      "inputs": [],
      "name": "InvalidShortString",
      "type": "error"
    },
    {
      "inputs": [],
      "name": "NoTicketsToClaim",
      "type": "error"
    },
    {
      "inputs": [],
      "name": "NotTicketOwner",
      "type": "error"
    },
    {
      "inputs": [
        {
          "internalType": "address",
          "name": "owner",
          "type": "address"
        }
      ],
      "name": "OwnableInvalidOwner",
      "type": "error"
    },
    {
      "inputs": [
        {
          "internalType": "address",
          "name": "account",
          "type": "address"
        }
      ],
      "name": "OwnableUnauthorizedAccount",
      "type": "error"
    },
    {
      "inputs": [],
      "name": "ReentrancyGuardReentrantCall",
      "type": "error"
    },
    {
      "inputs": [
        {
          "internalType": "address",
          "name": "token",
          "type": "address"
        }
      ],
      "name": "SafeERC20FailedOperation",
      "type": "error"
    },
    {
      "inputs": [
        {
          "internalType": "string",
          "name": "str",
          "type": "string"
        }
      ],
      "name": "StringTooLong",
      "type": "error"
    },
    {
      "inputs": [],
      "name": "ZeroAddress",
      "type": "error"
    },
    {
      "anonymous": false,
      "inputs": [],
      "name": "EIP712DomainChanged",
      "type": "event"
    },
    {
      "anonymous": false,
      "inputs": [
        {
          "indexed": true,
          "internalType": "bytes32",
          "name": "_bridgeId",
          "type": "bytes32"
        },
        {
          "indexed": false,
          "internalType": "uint256",
          "name": "_amount",
          "type": "uint256"
        }
      ],
      "name": "FundsBridged",
      "type": "event"
    },
    {
      "anonymous": false,
      "inputs": [
        {
          "indexed": true,
          "internalType": "address",
          "name": "previousOwner",
          "type": "address"
        },
        {
          "indexed": true,
          "internalType": "address",
          "name": "newOwner",
          "type": "address"
        }
      ],
      "name": "OwnershipTransferStarted",
      "type": "event"
    },
    {
      "anonymous": false,
      "inputs": [
        {
          "indexed": true,
          "internalType": "address",
          "name": "previousOwner",
          "type": "address"
        },
        {
          "indexed": true,
          "internalType": "address",
          "name": "newOwner",
          "type": "address"
        }
      ],
      "name": "OwnershipTransferred",
      "type": "event"
    },
    {
      "anonymous": false,
      "inputs": [
        {
          "indexed": true,
          "internalType": "address",
          "name": "_recipient",
          "type": "address"
        },
        {
          "indexed": true,
          "internalType": "uint256",
          "name": "_drawingId",
          "type": "uint256"
        },
        {
          "indexed": false,
          "internalType": "uint256[]",
          "name": "_ticketIds",
          "type": "uint256[]"
        }
      ],
      "name": "TicketsBought",
      "type": "event"
    },
    {
      "anonymous": false,
      "inputs": [
        {
          "indexed": true,
          "internalType": "address",
          "name": "_winner",
          "type": "address"
        },
        {
          "indexed": false,
          "internalType": "uint256[]",
          "name": "_ticketIds",
          "type": "uint256[]"
        },
        {
          "indexed": false,
          "internalType": "uint256",
          "name": "_amount",
          "type": "uint256"
        }
      ],
      "name": "WinningsClaimed",
      "type": "event"
    },
    {
      "inputs": [],
      "name": "CLAIM_TICKET_TYPEHASH",
      "outputs": [
        {
          "internalType": "bytes32",
          "name": "",
          "type": "bytes32"
        }
      ],
      "stateMutability": "view",
      "type": "function"
    },
    {
      "inputs": [],
      "name": "CLAIM_WINNINGS_TYPEHASH",
      "outputs": [
        {
          "internalType": "bytes32",
          "name": "",
          "type": "bytes32"
        }
      ],
      "stateMutability": "view",
      "type": "function"
    },
    {
      "inputs": [],
      "name": "RELAY_TYPEHASH",
      "outputs": [
        {
          "internalType": "bytes32",
          "name": "",
          "type": "bytes32"
        }
      ],
      "stateMutability": "view",
      "type": "function"
    },
    {
      "inputs": [],
      "name": "acceptOwnership",
      "outputs": [],
      "stateMutability": "nonpayable",
      "type": "function"
    },
    {
      "inputs": [
        {
          "components": [
            {
              "internalType": "uint8[]",
              "name": "normals",
              "type": "uint8[]"
            },
            {
              "internalType": "uint8",
              "name": "bonusball",
              "type": "uint8"
            }
          ],
          "internalType": "struct IJackpot.Ticket[]",
          "name": "_tickets",
          "type": "tuple[]"
        },
        {
          "internalType": "address",
          "name": "_recipient",
          "type": "address"
        },
        {
          "internalType": "address[]",
          "name": "_referrers",
          "type": "address[]"
        },
        {
          "internalType": "uint256[]",
          "name": "_referralSplitBps",
          "type": "uint256[]"
        },
        {
          "internalType": "bytes32",
          "name": "_source",
          "type": "bytes32"
        }
      ],
      "name": "buyTickets",
      "outputs": [
        {
          "internalType": "uint256[]",
          "name": "",
          "type": "uint256[]"
        }
      ],
      "stateMutability": "nonpayable",
      "type": "function"
    },
    {
      "inputs": [
        {
          "internalType": "uint256[]",
          "name": "_ticketIds",
          "type": "uint256[]"
        },
        {
          "internalType": "address",
          "name": "_recipient",
          "type": "address"
        },
        {
          "internalType": "bytes",
          "name": "_signature",
          "type": "bytes"
        }
      ],
      "name": "claimTickets",
      "outputs": [],
      "stateMutability": "nonpayable",
      "type": "function"
    },
    {
      "inputs": [
        {
          "internalType": "uint256[]",
          "name": "_userTicketIds",
          "type": "uint256[]"
        },
        {
          "components": [
            {
              "internalType": "bytes32",
              "name": "bridgeId",
              "type": "bytes32"
            },
            {
              "internalType": "uint256",
              "name": "amount",
              "type": "uint256"
            }
          ],
          "internalType": "struct JackpotBridgeManager.RelayTxData",
          "name": "_bridgeDetails",
          "type": "tuple"
        },
        {
          "internalType": "bytes",
          "name": "_signature",
          "type": "bytes"
        }
      ],
      "name": "claimWinnings",
      "outputs": [],
      "stateMutability": "nonpayable",
      "type": "function"
    },
    {
      "inputs": [
        {
          "internalType": "uint256[]",
          "name": "_ticketIds",
          "type": "uint256[]"
        },
        {
          "internalType": "address",
          "name": "_recipient",
          "type": "address"
        }
      ],
      "name": "createClaimTicketEIP712Hash",
      "outputs": [
        {
          "internalType": "bytes32",
          "name": "",
          "type": "bytes32"
        }
      ],
      "stateMutability": "view",
      "type": "function"
    },
    {
      "inputs": [
        {
          "internalType": "uint256[]",
          "name": "_userTicketIds",
          "type": "uint256[]"
        },
        {
          "components": [
            {
              "internalType": "bytes32",
              "name": "bridgeId",
              "type": "bytes32"
            },
            {
              "internalType": "uint256",
              "name": "amount",
              "type": "uint256"
            }
          ],
          "internalType": "struct JackpotBridgeManager.RelayTxData",
          "name": "_bridgeDetails",
          "type": "tuple"
        }
      ],
      "name": "createClaimWinningsEIP712Hash",
      "outputs": [
        {
          "internalType": "bytes32",
          "name": "",
          "type": "bytes32"
        }
      ],
      "stateMutability": "view",
      "type": "function"
    },
    {
      "inputs": [],
      "name": "eip712Domain",
      "outputs": [
        {
          "internalType": "bytes1",
          "name": "fields",
          "type": "bytes1"
        },
        {
          "internalType": "string",
          "name": "name",
          "type": "string"
        },
        {
          "internalType": "string",
          "name": "version",
          "type": "string"
        },
        {
          "internalType": "uint256",
          "name": "chainId",
          "type": "uint256"
        },
        {
          "internalType": "address",
          "name": "verifyingContract",
          "type": "address"
        },
        {
          "internalType": "bytes32",
          "name": "salt",
          "type": "bytes32"
        },
        {
          "internalType": "uint256[]",
          "name": "extensions",
          "type": "uint256[]"
        }
      ],
      "stateMutability": "view",
      "type": "function"
    },
    {
      "inputs": [
        {
          "internalType": "address",
          "name": "_user",
          "type": "address"
        },
        {
          "internalType": "uint256",
          "name": "_drawingId",
          "type": "uint256"
        }
      ],
      "name": "getUserTickets",
      "outputs": [
        {
          "internalType": "uint256[]",
          "name": "",
          "type": "uint256[]"
        }
      ],
      "stateMutability": "view",
      "type": "function"
    },
    {
      "inputs": [],
      "name": "jackpot",
      "outputs": [
        {
          "internalType": "contract IJackpot",
          "name": "",
          "type": "address"
        }
      ],
      "stateMutability": "view",
      "type": "function"
    },
    {
      "inputs": [],
      "name": "jackpotTicketNFT",
      "outputs": [
        {
          "internalType": "contract IJackpotTicketNFT",
          "name": "",
          "type": "address"
        }
      ],
      "stateMutability": "view",
      "type": "function"
    },
    {
      "inputs": [],
      "name": "owner",
      "outputs": [
        {
          "internalType": "address",
          "name": "",
          "type": "address"
        }
      ],
      "stateMutability": "view",
      "type": "function"
    },
    {
      "inputs": [],
      "name": "pendingOwner",
      "outputs": [
        {
          "internalType": "address",
          "name": "",
          "type": "address"
        }
      ],
      "stateMutability": "view",
      "type": "function"
    },
    {
      "inputs": [],
      "name": "relayDepository",
      "outputs": [
        {
          "internalType": "contract IRelayDepository",
          "name": "",
          "type": "address"
        }
      ],
      "stateMutability": "view",
      "type": "function"
    },
    {
      "inputs": [],
      "name": "renounceOwnership",
      "outputs": [],
      "stateMutability": "nonpayable",
      "type": "function"
    },
    {
      "inputs": [
        {
          "internalType": "uint256",
          "name": "",
          "type": "uint256"
        }
      ],
      "name": "ticketOwner",
      "outputs": [
        {
          "internalType": "address",
          "name": "",
          "type": "address"
        }
      ],
      "stateMutability": "view",
      "type": "function"
    },
    {
      "inputs": [
        {
          "internalType": "address",
          "name": "newOwner",
          "type": "address"
        }
      ],
      "name": "transferOwnership",
      "outputs": [],
      "stateMutability": "nonpayable",
      "type": "function"
    },
    {
      "inputs": [],
      "name": "usdc",
      "outputs": [
        {
          "internalType": "contract IERC20",
          "name": "",
          "type": "address"
        }
      ],
      "stateMutability": "view",
      "type": "function"
    }
  ],
  "bytecode": "0x6101e0806040523461026f5761245d803803809161001d8285610273565b8339810160c08282031261026f5781516001600160a01b038116810361026f576020830151906001600160a01b038216820361026f576040840151926001600160a01b038416840361026f576060850151946001600160a01b038616860361026f5760808101516001600160401b03811161026f578261009e9183016102aa565b60a08201519092906001600160401b03811161026f576100be92016102aa565b90331561025c57600180546001600160a01b03199081169091555f805433928116831782556001600160a01b0316907f8be0079c531659141344cd1fd0a4f28419497f9722a3daafe3b4186f6b6457e09080a361011a816102ff565b610120526101278261049a565b6101405260208151910120908160e0526020815191012080610100524660a0526040519060208201927f8b73c3c69bb8fe3d512ecc4cf759cc79239f7b179b0ffacaa9a75d522b39400f8452604083015260608201524660808201523060a082015260a0815261019860c082610273565b5190206080523060c05261016052610180526101a0526101c052604051611e8a90816105d3823960805181611990015260a05181611a4d015260c0518161195a015260e051816119df01526101005181611a0501526101205181610b2301526101405181610b4f0152610160518181816102bc01528181610d5401526111270152610180518181816109f50152818161127a015261170e01526101a05181818161036801528181610d10015261116b01526101c0518181816109b10152610e240152f35b631e4fbdf760e01b5f525f60045260245ffd5b5f80fd5b601f909101601f19168101906001600160401b0382119082101761029657604052565b634e487b7160e01b5f52604160045260245ffd5b81601f8201121561026f578051906001600160401b03821161029657604051926102de601f8401601f191660200185610273565b8284526020838301011161026f57815f9260208093018386015e8301015290565b908151602081105f14610379575090601f81511161033957602081519101516020821061032a571790565b5f198260200360031b1b161790565b604460209160405192839163305a27a960e01b83528160048401528051918291826024860152018484015e5f828201840152601f01601f19168101030190fd5b6001600160401b03811161029657600254600181811c91168015610490575b602082101461047c57601f8111610449575b50602092601f82116001146103e857928192935f926103dd575b50508160011b915f199060031b1c19161760025560ff90565b015190505f806103c4565b601f1982169360025f52805f20915f5b8681106104315750836001959610610419575b505050811b0160025560ff90565b01515f1960f88460031b161c191690555f808061040b565b919260206001819286850151815501940192016103f8565b60025f52601f60205f20910160051c810190601f830160051c015b81811061047157506103aa565b5f8155600101610464565b634e487b7160e01b5f52602260045260245ffd5b90607f1690610398565b908151602081105f146104c5575090601f81511161033957602081519101516020821061032a571790565b6001600160401b03811161029657600354600181811c911680156105c8575b602082101461047c57601f8111610595575b50602092601f821160011461053457928192935f92610529575b50508160011b915f199060031b1c19161760035560ff90565b015190505f80610510565b601f1982169360035f52805f20915f5b86811061057d5750836001959610610565575b505050811b0160035560ff90565b01515f1960f88460031b161c191690555f8080610557565b91926020600181928685015181550194019201610544565b60035f52601f60205f20910160051c810190601f830160051c015b8181106105bd57506104f6565b5f81556001016105b0565b90607f16906104e456fe6080806040526004361015610012575f80fd5b5f3560e01c90816306be02ca1461132b57508063266b7827146111dd5780633d215cd31461119a5780633e413bee146111565780636b31ee0114611112578063715018a6146110af57806379ba50971461102a5780637a6b4dbd14610c6a578063814058be14610bd857806384b0196e14610b0b5780638ce4a79d14610ad15780638da5cb5b14610aaa57806398f4a70014610a705780639f6c04ec14610a24578063a424e085146109e0578063aebc44bf1461099c578063c2ff12fc1461096a578063de88c28a14610196578063e30c39781461016e5763f2fde38b146100f8575f80fd5b3461016a57602036600319011261016a57610111611429565b610119611861565b60018060a01b0316806bffffffffffffffffffffffff60a01b600154161760015560018060a01b035f54167f38d16b8cac22d99fc7c124b9cd0de2d3fa1faef420bfe791d8c362d765e227005f80a3005b5f80fd5b3461016a575f36600319011261016a576001546040516001600160a01b039091168152602090f35b3461016a5760a036600319011261016a576004356001600160401b03811161016a573660238201121561016a578060040135906101d28261139f565b906101e0604051928361137e565b82825260208201906024829460051b8201019036821161016a5760248101925b82841061089e578585610211611413565b604435926001600160401b03841161016a573660238501121561016a5783600401359161023d8361139f565b9461024b604051968761137e565b83865260208601906024829560051b8201019036821161016a57602401915b81831061087e575050506064356001600160401b03811161016a576102939036906004016113b6565b9061029c611874565b6001600160a01b031692831561086f57604051631380204360e31b8152927f00000000000000000000000000000000000000000000000000000000000000006001600160a01b03169290602085600481875afa94851561060d575f9561083b575b50604051636c687add60e11b8152600481018690526101a081602481885afa801561060d575f9061072b575b60200151885180820292508115918304141715610717576040516323b872dd60e01b6020828101918252336024840152306044840152606483018490527f0000000000000000000000000000000000000000000000000000000000000000939290915f916103a481608481015b03601f19810183528261137e565b519082865af11561060d575f513d61070e57506001600160a01b0382163b155b6106ed5760405163095ea7b360e01b81526001600160a01b038781166004830152602482019290925291602091839160449183915f91165af1801561060d576106b6575b50604051636f44614560e11b815260a06004820152875160a4820181905290988994939260c4600584901b8701810193905f9088015b82821061063a575050505060209030602487015260031986840301604487015251918281520192905f5b818110610618575050505f8361048d82969482946003198483030160648501526114bc565b608435608483015203925af193841561060d575f9461057b575b505f5b835181101561051457600190835f52600560205260405f20835f526020526104e060405f206104d98389611691565b5190611c7e565b506104eb8187611691565b515f52600460205260405f20846bffffffffffffffffffffffff60a01b825416179055016104aa565b6105778583857f8d442125383357c1b6643d55e7fe381b6587397ef4c1fe2b872ff2acc37a9ec4604051602081528061055060208201876114bc565b0390a35f5f516020611e355f395f51905f525d6040519182916020835260208301906114bc565b0390f35b9093503d805f833e61058d818361137e565b81019060208183031261016a578051906001600160401b03821161016a57019080601f8301121561016a5781516105c38161139f565b926105d1604051948561137e565b81845260208085019260051b82010192831161016a57602001905b8282106105fd5750505092846104a7565b81518152602091820191016105ec565b6040513d5f823e3d90fd5b82516001600160a01b031685528a955060209485019490920191600101610468565b91939490929596975060c3198d820301825285519060408101918051926040835283518091526020606084019401905f905b80821061069b575050506001926020928360ff8180950151169101529701920192018c9796959493919261043e565b90919460208060019260ff895116815201960192019061066c565b6020813d6020116106e5575b816106cf6020938361137e565b8101031261016a576106e090611684565b610408565b3d91506106c2565b50635274afe760e01b5f9081526001600160a01b0391909116600452602490fd5b600114156103c4565b634e487b7160e01b5f52601160045260245ffd5b506101a0813d8211610833575b816107466101a0938361137e565b8101031261016a576040516101a081018181106001600160401b0382111761081f57604052815181526020820151602082015260408201516040820152606082015160608201526080820151608082015260a082015160a082015260c082015160c082015260e082015160e08201526101008201516101008201526107ce6101208301611676565b6101208201526107e16101408301611676565b610140820152610160820151916001600160a01b038316830361016a576101806108149160209461016085015201611684565b610180820152610329565b634e487b7160e01b5f52604160045260245ffd5b3d9150610738565b9094506020813d602011610867575b816108576020938361137e565b8101031261016a575193886102fd565b3d915061084a565b63d92e233d60e01b5f5260045ffd5b82356001600160a01b038116810361016a5781526020928301920161026a565b83356001600160401b03811161016a5782016040602319823603011261016a57604051906108cb82611363565b60248101356001600160401b03811161016a5760249082010136601f8201121561016a578035906108fb8261139f565b91610909604051938461137e565b80835260208084019160051b8301019136831161016a57602001905b82821061095257505050916109436044602095938695845201611513565b83820152815201930192610200565b6020809161095f84611513565b815201910190610925565b3461016a57602036600319011261016a576004355f526004602052602060018060a01b0360405f205416604051908152f35b3461016a575f36600319011261016a576040517f00000000000000000000000000000000000000000000000000000000000000006001600160a01b03168152602090f35b3461016a575f36600319011261016a576040517f00000000000000000000000000000000000000000000000000000000000000006001600160a01b03168152602090f35b3461016a57606036600319011261016a576004356001600160401b03811161016a57610a68610a5960209236906004016113b6565b610a6236611494565b906115c4565b604051908152f35b3461016a575f36600319011261016a5760206040517fe63c445585c68f92e078d76cfb38edf7ee55891a5661492d86c9696afc9f4d4e8152f35b3461016a575f36600319011261016a575f546040516001600160a01b039091168152602090f35b3461016a575f36600319011261016a5760206040517f73003e84a705540af89faa676664b6f124f46c9f124beec81de5d56e2d7333808152f35b3461016a575f36600319011261016a57610baa610b477f0000000000000000000000000000000000000000000000000000000000000000611a73565b610577610b737f0000000000000000000000000000000000000000000000000000000000000000611b99565b610bb860405191610b8560208461137e565b5f83525f368137604051958695600f60f81b875260e0602088015260e08701906114ef565b9085820360408701526114ef565b904660608501523060808501525f60a085015283820360c08501526114bc565b3461016a57604036600319011261016a576001600160a01b03610bf9611429565b165f52600560205260405f206024355f5260205260405f206040519081602082549182815201915f5260205f20905f5b818110610c545761057785610c408187038261137e565b6040519182916020835260208301906114bc565b8254845260209093019260019283019201610c29565b3461016a57608036600319011261016a576004356001600160401b03811161016a57610c9a9036906004016113b6565b610ca336611494565b6064356001600160401b03811161016a57610cc290369060040161143f565b90610ccb611874565b82511561101b57610ce8610cf192610ce383866115c4565b6118a9565b909391936118e3565b610cfb82846116b9565b6040516370a0823160e01b81523060048201527f00000000000000000000000000000000000000000000000000000000000000006001600160a01b03169390602081602481885afa90811561060d575f91610fe9575b507f00000000000000000000000000000000000000000000000000000000000000006001600160a01b0316803b1561016a575f604051809262df856f60e51b825260206004830152818381610da9602482018a6114bc565b03925af1801561060d57610fd9575b506040516370a0823160e01b815230600482015290602082602481895afa91821561060d575f92610fa5575b50808203918083116107175714610f9657610dff848361170c565b6020830181815103610f8757805160405163095ea7b360e01b81526001600160a01b037f0000000000000000000000000000000000000000000000000000000000000000166004820181905260248201929092529095906020816044815f8c5af1801561060d57610f50575b508151855196803b1561016a575f92836084926040519a8b958694637400bca960e11b865260018060a01b03169d8e60048701526024860152604485015260648401525af194851561060d576020610f25957fb3830111d55e540764904398d5650582c65f7122b3c1bac69b684377ff4055d8927fa746725fdbff96c69e2c33f4ad46348d419a60971c75722608d7a9b2ea48d3c998610f40575b50519251604051908152a26040519283926040845260408401906114bc565b9060208301520390a25f5f516020611e355f395f51905f525d005b5f610f4a9161137e565b89610f06565b6020813d602011610f7f575b81610f696020938361137e565b8101031261016a57610f7a90611684565b610e6b565b3d9150610f5c565b63c7e9ed6d60e01b5f5260045ffd5b63134a833560e01b5f5260045ffd5b9091506020813d602011610fd1575b81610fc16020938361137e565b8101031261016a57519086610de4565b3d9150610fb4565b5f610fe39161137e565b85610db8565b90506020813d602011611013575b816110046020938361137e565b8101031261016a575185610d51565b3d9150610ff7565b6316d1382760e11b5f5260045ffd5b3461016a575f36600319011261016a57600154336001600160a01b039091160361109c57600180546001600160a01b03199081169091555f805433928116831782556001600160a01b0316907f8be0079c531659141344cd1fd0a4f28419497f9722a3daafe3b4186f6b6457e09080a3005b63118cdaa760e01b5f523360045260245ffd5b3461016a575f36600319011261016a576110c7611861565b600180546001600160a01b03199081169091555f80549182168155906001600160a01b03167f8be0079c531659141344cd1fd0a4f28419497f9722a3daafe3b4186f6b6457e08280a3005b3461016a575f36600319011261016a576040517f00000000000000000000000000000000000000000000000000000000000000006001600160a01b03168152602090f35b3461016a575f36600319011261016a576040517f00000000000000000000000000000000000000000000000000000000000000006001600160a01b03168152602090f35b3461016a57604036600319011261016a576004356001600160401b03811161016a57610a686111cf60209236906004016113b6565b6111d7611413565b9061154e565b3461016a57606036600319011261016a576004356001600160401b03811161016a5761120d9036906004016113b6565b611215611413565b6044356001600160401b03811161016a5761123490369060040161143f565b6001600160a01b038216801561086f57301461131c5761127861126861125f8593610ce3868661154e565b909291926118e3565b61127281846116b9565b8261170c565b7f00000000000000000000000000000000000000000000000000000000000000006001600160a01b0316915f5b825181101561131a576112b88184611691565b5190843b1561016a57604051632142170760e11b81523060048201526001600160a01b038416602482015260448101929092525f8260648183895af191821561060d5760019261130a575b50016112a5565b5f6113149161137e565b85611303565b005b634e46966960e11b5f5260045ffd5b3461016a575f36600319011261016a57807f7860065d0620cf16c5859603cd9b566e490f6be64630d41582c2d12f0fc8cbd360209252f35b604081019081106001600160401b0382111761081f57604052565b90601f801991011681019081106001600160401b0382111761081f57604052565b6001600160401b03811161081f5760051b60200190565b9080601f8301121561016a5781356113cd8161139f565b926113db604051948561137e565b81845260208085019260051b82010192831161016a57602001905b8282106114035750505090565b81358152602091820191016113f6565b602435906001600160a01b038216820361016a57565b600435906001600160a01b038216820361016a57565b81601f8201121561016a578035906001600160401b03821161081f5760405192611473601f8401601f19166020018561137e565b8284526020838301011161016a57815f926020809301838601378301015290565b604090602319011261016a57604051906114ad82611363565b60243582526044356020830152565b90602080835192838152019201905f5b8181106114d95750505090565b82518452602093840193909201916001016114cc565b805180835260209291819084018484015e5f828201840152601f01601f1916010190565b359060ff8216820361016a57565b80516020909101905f5b8181106115385750505090565b825184526020938401939092019160010161152b565b906115c19160405161156881610396602082018095611521565b519020906040519060208201927f73003e84a705540af89faa676664b6f124f46c9f124beec81de5d56e2d7333808452604083015260018060a01b03166060820152606081526115b960808261137e565b51902061183b565b90565b6115c191602081519101516040519060208201927fe63c445585c68f92e078d76cfb38edf7ee55891a5661492d86c9696afc9f4d4e8452604083015260608201526060815261161460808261137e565b5190209060405161162d81610396602082018095611521565b519020906040519060208201927f7860065d0620cf16c5859603cd9b566e490f6be64630d41582c2d12f0fc8cbd3845260408301526060820152606081526115b960808261137e565b519060ff8216820361016a57565b5190811515820361016a57565b80518210156116a55760209160051b010190565b634e487b7160e01b5f52603260045260245ffd5b5f5b8151811015611707576116ce8183611691565b515f908152600460205260409020546001600160a01b03908116908416036116f8576001016116bb565b63e18d39ad60e01b5f5260045ffd5b505050565b7f00000000000000000000000000000000000000000000000000000000000000006001600160a01b03169291905f5b81518110156118345761174e8183611691565b519060405163ff99a06360e01b81528260048201526060816024818a5afa90811561060d575f916117c7575b505f83815260046020908152604080832080546001600160a01b03191690556001600160a01b03881683526005825280832093518352929052206001926117c091611d6f565b500161173b565b90506060813d821161182c575b816117e16060938361137e565b8101031261016a576040519260608401938085106001600160401b0386111761081f5760406117c093600196825280518352602081015160208401520151604082015291509261177a565b3d91506117d4565b5050509050565b604290611846611957565b906040519161190160f01b8352600283015260228201522090565b5f546001600160a01b0316330361109c57565b5f516020611e355f395f51905f525c61189a5760015f516020611e355f395f51905f525d565b633ee5aeb560e01b5f5260045ffd5b81519190604183036118d9576118d29250602082015190606060408401519301515f1a90611ced565b9192909190565b50505f9160029190565b600481101561194357806118f5575050565b6001810361190c5763f645eedf60e01b5f5260045ffd5b60028103611927575063fce698f760e01b5f5260045260245ffd5b6003146119315750565b6335e2f38360e21b5f5260045260245ffd5b634e487b7160e01b5f52602160045260245ffd5b307f00000000000000000000000000000000000000000000000000000000000000006001600160a01b03161480611a4a575b156119b2577f000000000000000000000000000000000000000000000000000000000000000090565b60405160208101907f8b73c3c69bb8fe3d512ecc4cf759cc79239f7b179b0ffacaa9a75d522b39400f82527f000000000000000000000000000000000000000000000000000000000000000060408201527f000000000000000000000000000000000000000000000000000000000000000060608201524660808201523060a082015260a08152611a4460c08261137e565b51902090565b507f00000000000000000000000000000000000000000000000000000000000000004614611989565b60ff8114611ab95760ff811690601f8211611aaa5760405191611a9760408461137e565b6020808452838101919036833783525290565b632cd44ac360e21b5f5260045ffd5b506040515f6002548060011c9160018216918215611b8f575b602084108314611b7b578385528492908115611b5c5750600114611afd575b6115c19250038261137e565b5060025f90815290917f405787fa12a823e0f2b7631cc41b3ba8828b3321ca811111fa75cd3aa3bb5ace5b818310611b405750509060206115c192820101611af1565b6020919350806001915483858801015201910190918392611b28565b602092506115c194915060ff191682840152151560051b820101611af1565b634e487b7160e01b5f52602260045260245ffd5b92607f1692611ad2565b60ff8114611bbd5760ff811690601f8211611aaa5760405191611a9760408461137e565b506040515f6003548060011c9160018216918215611c5f575b602084108314611b7b578385528492908115611b5c5750600114611c00576115c19250038261137e565b5060035f90815290917fc2575a0e9e593c00f959f8c92f12db2869c3395a3b0502d05e2516446f71f85b5b818310611c435750509060206115c192820101611af1565b6020919350806001915483858801015201910190918392611c2b565b92607f1692611bd6565b80548210156116a5575f5260205f2001905f90565b6001810190825f528160205260405f2054155f14611ce65780546801000000000000000081101561081f57611cd3611cbd826001879401855584611c69565b819391549060031b91821b915f19901b19161790565b905554915f5260205260405f2055600190565b5050505f90565b91907f7fffffffffffffffffffffffffffffff5d576e7357a4501ddfe92f46681b20a08411611d64579160209360809260ff5f9560405194855216868401526040830152606082015282805260015afa1561060d575f516001600160a01b03811615611d5a57905f905f90565b505f906001905f90565b5050505f9160039190565b906001820191815f528260205260405f20548015155f14611e2c575f1981018181116107175782545f1981019190821161071757818103611df7575b50505080548015611de3575f190190611dc48282611c69565b8154905f199060031b1b19169055555f526020525f6040812055600190565b634e487b7160e01b5f52603160045260245ffd5b611e17611e07611cbd9386611c69565b90549060031b1c92839286611c69565b90555f528360205260405f20555f8080611dab565b505050505f9056fe9b779b17422d0df92223018b32b4d1fa46e071723d6817e2486d003becc55f00a26469706673582212206f68c5f4c63f686f8eddbdc3a2072138f134aa545ad051d1c2e98955421ad55e64736f6c634300081c0033",
  "linkReferences": {},
  "deployedLinkReferences": {}
}