{
  "_format": "hh-sol-artifact-1",
  "contractName": "JackpotAutoSubscription",
  "sourceName": "contracts/JackpotAutoSubscription.sol",
  "abi": [
    {
      "inputs": [
        {
          "internalType": "address",
          "name": "_jackpot",
          "type": "address"
        },
        {
          "internalType": "address",
          "name": "_usdc",
          "type": "address"
        },
        {
          "internalType": "address",
          "name": "_batchFacilitator",
          "type": "address"
        }
      ],
      "stateMutability": "nonpayable",
      "type": "constructor"
    },
    {
      "inputs": [],
      "name": "ActiveSubscriptionExists",
      "type": "error"
    },
    {
      "inputs": [],
      "name": "AllowedAlreadyAdded",
      "type": "error"
    },
    {
      "inputs": [],
      "name": "AllowedNotFound",
      "type": "error"
    },
    {
      "inputs": [],
      "name": "EmptyArray",
      "type": "error"
    },
    {
      "inputs": [],
      "name": "InvalidDuration",
      "type": "error"
    },
    {
      "inputs": [],
      "name": "InvalidNormalBallCount",
      "type": "error"
    },
    {
      "inputs": [],
      "name": "InvalidReferralSplitBps",
      "type": "error"
    },
    {
      "inputs": [],
      "name": "InvalidStaticTicket",
      "type": "error"
    },
    {
      "inputs": [],
      "name": "InvalidTicketCount",
      "type": "error"
    },
    {
      "inputs": [],
      "name": "JackpotNotInitialized",
      "type": "error"
    },
    {
      "inputs": [],
      "name": "NoActiveSubscription",
      "type": "error"
    },
    {
      "inputs": [],
      "name": "NotAllowed",
      "type": "error"
    },
    {
      "inputs": [
        {
          "internalType": "address",
          "name": "owner",
          "type": "address"
        }
      ],
      "name": "OwnableInvalidOwner",
      "type": "error"
    },
    {
      "inputs": [
        {
          "internalType": "address",
          "name": "account",
          "type": "address"
        }
      ],
      "name": "OwnableUnauthorizedAccount",
      "type": "error"
    },
    {
      "inputs": [],
      "name": "ReentrancyGuardReentrantCall",
      "type": "error"
    },
    {
      "inputs": [],
      "name": "ReferralSplitLengthMismatch",
      "type": "error"
    },
    {
      "inputs": [],
      "name": "ReferralSplitSumInvalid",
      "type": "error"
    },
    {
      "inputs": [],
      "name": "RepeatedNormalBall",
      "type": "error"
    },
    {
      "inputs": [
        {
          "internalType": "address",
          "name": "token",
          "type": "address"
        }
      ],
      "name": "SafeERC20FailedOperation",
      "type": "error"
    },
    {
      "inputs": [],
      "name": "TooManyReferrers",
      "type": "error"
    },
    {
      "inputs": [],
      "name": "ZeroAddress",
      "type": "error"
    },
    {
      "anonymous": false,
      "inputs": [
        {
          "indexed": true,
          "internalType": "address",
          "name": "allowed",
          "type": "address"
        }
      ],
      "name": "AllowedAdded",
      "type": "event"
    },
    {
      "anonymous": false,
      "inputs": [
        {
          "indexed": true,
          "internalType": "address",
          "name": "allowed",
          "type": "address"
        }
      ],
      "name": "AllowedRemoved",
      "type": "event"
    },
    {
      "anonymous": false,
      "inputs": [
        {
          "indexed": true,
          "internalType": "address",
          "name": "batchPurchaseFacilitator",
          "type": "address"
        }
      ],
      "name": "BatchPurchaseFacilitatorSet",
      "type": "event"
    },
    {
      "anonymous": false,
      "inputs": [
        {
          "indexed": true,
          "internalType": "address",
          "name": "previousOwner",
          "type": "address"
        },
        {
          "indexed": true,
          "internalType": "address",
          "name": "newOwner",
          "type": "address"
        }
      ],
      "name": "OwnershipTransferStarted",
      "type": "event"
    },
    {
      "anonymous": false,
      "inputs": [
        {
          "indexed": true,
          "internalType": "address",
          "name": "previousOwner",
          "type": "address"
        },
        {
          "indexed": true,
          "internalType": "address",
          "name": "newOwner",
          "type": "address"
        }
      ],
      "name": "OwnershipTransferred",
      "type": "event"
    },
    {
      "anonymous": false,
      "inputs": [
        {
          "indexed": true,
          "internalType": "address",
          "name": "recipient",
          "type": "address"
        },
        {
          "indexed": false,
          "internalType": "uint8[]",
          "name": "normals",
          "type": "uint8[]"
        },
        {
          "indexed": false,
          "internalType": "uint8",
          "name": "bonusball",
          "type": "uint8"
        }
      ],
      "name": "StaticTicketAdded",
      "type": "event"
    },
    {
      "anonymous": false,
      "inputs": [
        {
          "indexed": true,
          "internalType": "address",
          "name": "recipient",
          "type": "address"
        },
        {
          "indexed": false,
          "internalType": "uint8[]",
          "name": "normals",
          "type": "uint8[]"
        },
        {
          "indexed": false,
          "internalType": "uint8",
          "name": "bonusball",
          "type": "uint8"
        }
      ],
      "name": "StaticTicketValidated",
      "type": "event"
    },
    {
      "anonymous": false,
      "inputs": [
        {
          "indexed": true,
          "internalType": "address",
          "name": "recipient",
          "type": "address"
        },
        {
          "indexed": true,
          "internalType": "enum JackpotAutoSubscription.ExecutionAction",
          "name": "executionAction",
          "type": "uint8"
        },
        {
          "indexed": false,
          "internalType": "uint64",
          "name": "refundAmount",
          "type": "uint64"
        }
      ],
      "name": "SubscriptionCancelled",
      "type": "event"
    },
    {
      "anonymous": false,
      "inputs": [
        {
          "indexed": true,
          "internalType": "address",
          "name": "payer",
          "type": "address"
        },
        {
          "indexed": true,
          "internalType": "address",
          "name": "recipient",
          "type": "address"
        },
        {
          "indexed": false,
          "internalType": "uint256",
          "name": "totalCost",
          "type": "uint256"
        },
        {
          "indexed": false,
          "internalType": "uint256",
          "name": "totalDays",
          "type": "uint256"
        },
        {
          "indexed": false,
          "internalType": "uint256",
          "name": "drawingStart",
          "type": "uint256"
        },
        {
          "indexed": false,
          "internalType": "uint256",
          "name": "dynamicTicketCount",
          "type": "uint256"
        },
        {
          "indexed": false,
          "internalType": "uint256",
          "name": "staticTicketCount",
          "type": "uint256"
        },
        {
          "indexed": false,
          "internalType": "uint256",
          "name": "ticketPrice",
          "type": "uint256"
        }
      ],
      "name": "SubscriptionCreated",
      "type": "event"
    },
    {
      "anonymous": false,
      "inputs": [
        {
          "indexed": true,
          "internalType": "address",
          "name": "recipient",
          "type": "address"
        },
        {
          "indexed": true,
          "internalType": "uint256",
          "name": "drawingId",
          "type": "uint256"
        },
        {
          "indexed": false,
          "internalType": "uint256[]",
          "name": "ticketIds",
          "type": "uint256[]"
        },
        {
          "indexed": false,
          "internalType": "uint256",
          "name": "dynamicTicketsPurchased",
          "type": "uint256"
        },
        {
          "indexed": false,
          "internalType": "uint256",
          "name": "staticTicketsPurchased",
          "type": "uint256"
        }
      ],
      "name": "SubscriptionExecuted",
      "type": "event"
    },
    {
      "anonymous": false,
      "inputs": [
        {
          "indexed": true,
          "internalType": "address",
          "name": "recipient",
          "type": "address"
        }
      ],
      "name": "SubscriptionRemoved",
      "type": "event"
    },
    {
      "anonymous": false,
      "inputs": [
        {
          "indexed": true,
          "internalType": "address",
          "name": "recipient",
          "type": "address"
        },
        {
          "indexed": true,
          "internalType": "uint256",
          "name": "drawingId",
          "type": "uint256"
        },
        {
          "indexed": false,
          "internalType": "uint256",
          "name": "dynamicTicketCount",
          "type": "uint256"
        },
        {
          "indexed": false,
          "internalType": "uint256",
          "name": "staticTicketCount",
          "type": "uint256"
        },
        {
          "indexed": false,
          "internalType": "uint256",
          "name": "totalCost",
          "type": "uint256"
        }
      ],
      "name": "SubscriptionRoutedToBatch",
      "type": "event"
    },
    {
      "anonymous": false,
      "inputs": [
        {
          "indexed": true,
          "internalType": "address",
          "name": "recipient",
          "type": "address"
        },
        {
          "indexed": true,
          "internalType": "uint256",
          "name": "drawingId",
          "type": "uint256"
        },
        {
          "indexed": true,
          "internalType": "enum JackpotAutoSubscription.ExecutionAction",
          "name": "executionAction",
          "type": "uint8"
        }
      ],
      "name": "SubscriptionSkipped",
      "type": "event"
    },
    {
      "inputs": [],
      "name": "acceptOwnership",
      "outputs": [],
      "stateMutability": "nonpayable",
      "type": "function"
    },
    {
      "inputs": [
        {
          "internalType": "address",
          "name": "_allowed",
          "type": "address"
        }
      ],
      "name": "addAllowed",
      "outputs": [],
      "stateMutability": "nonpayable",
      "type": "function"
    },
    {
      "inputs": [
        {
          "internalType": "address[]",
          "name": "_allowed",
          "type": "address[]"
        }
      ],
      "name": "addAllowedBatch",
      "outputs": [],
      "stateMutability": "nonpayable",
      "type": "function"
    },
    {
      "inputs": [],
      "name": "batchFacilitator",
      "outputs": [
        {
          "internalType": "contract IBatchPurchaseFacilitator",
          "name": "",
          "type": "address"
        }
      ],
      "stateMutability": "view",
      "type": "function"
    },
    {
      "inputs": [],
      "name": "cancelSubscription",
      "outputs": [],
      "stateMutability": "nonpayable",
      "type": "function"
    },
    {
      "inputs": [
        {
          "internalType": "address",
          "name": "_recipient",
          "type": "address"
        },
        {
          "internalType": "uint64",
          "name": "_totalDays",
          "type": "uint64"
        },
        {
          "internalType": "uint64",
          "name": "_dynamicTicketCount",
          "type": "uint64"
        },
        {
          "components": [
            {
              "internalType": "uint8[]",
              "name": "normals",
              "type": "uint8[]"
            },
            {
              "internalType": "uint8",
              "name": "bonusball",
              "type": "uint8"
            }
          ],
          "internalType": "struct IJackpot.Ticket[]",
          "name": "_userStaticTickets",
          "type": "tuple[]"
        },
        {
          "internalType": "address[]",
          "name": "_referrers",
          "type": "address[]"
        },
        {
          "internalType": "uint256[]",
          "name": "_referralSplit",
          "type": "uint256[]"
        }
      ],
      "name": "createSubscription",
      "outputs": [],
      "stateMutability": "nonpayable",
      "type": "function"
    },
    {
      "inputs": [
        {
          "internalType": "address[]",
          "name": "_subscriptions",
          "type": "address[]"
        }
      ],
      "name": "executeSubscriptions",
      "outputs": [],
      "stateMutability": "nonpayable",
      "type": "function"
    },
    {
      "inputs": [],
      "name": "getAllowed",
      "outputs": [
        {
          "internalType": "address[]",
          "name": "",
          "type": "address[]"
        }
      ],
      "stateMutability": "view",
      "type": "function"
    },
    {
      "inputs": [
        {
          "internalType": "address",
          "name": "_recipient",
          "type": "address"
        }
      ],
      "name": "getSubscriptionInfo",
      "outputs": [
        {
          "components": [
            {
              "components": [
                {
                  "internalType": "uint64",
                  "name": "remainingUSDC",
                  "type": "uint64"
                },
                {
                  "internalType": "uint64",
                  "name": "lastExecutedDrawing",
                  "type": "uint64"
                },
                {
                  "internalType": "uint64",
                  "name": "subscribedTicketPrice",
                  "type": "uint64"
                },
                {
                  "internalType": "uint64",
                  "name": "dynamicTicketCount",
                  "type": "uint64"
                },
                {
                  "internalType": "address[]",
                  "name": "referrers",
                  "type": "address[]"
                },
                {
                  "internalType": "uint256[]",
                  "name": "referralSplit",
                  "type": "uint256[]"
                }
              ],
              "internalType": "struct JackpotAutoSubscription.Subscription",
              "name": "subscription",
              "type": "tuple"
            },
            {
              "components": [
                {
                  "internalType": "uint8[]",
                  "name": "normals",
                  "type": "uint8[]"
                },
                {
                  "internalType": "uint8",
                  "name": "bonusball",
                  "type": "uint8"
                }
              ],
              "internalType": "struct IJackpot.Ticket[]",
              "name": "staticTickets",
              "type": "tuple[]"
            }
          ],
          "internalType": "struct JackpotAutoSubscription.SubscriptionInfo",
          "name": "",
          "type": "tuple"
        }
      ],
      "stateMutability": "view",
      "type": "function"
    },
    {
      "inputs": [
        {
          "internalType": "address[]",
          "name": "_subscriptions",
          "type": "address[]"
        }
      ],
      "name": "getSubscriptionsAction",
      "outputs": [
        {
          "internalType": "enum JackpotAutoSubscription.ExecutionAction[]",
          "name": "",
          "type": "uint8[]"
        }
      ],
      "stateMutability": "view",
      "type": "function"
    },
    {
      "inputs": [
        {
          "internalType": "address",
          "name": "_allowed",
          "type": "address"
        }
      ],
      "name": "isAllowed",
      "outputs": [
        {
          "internalType": "bool",
          "name": "",
          "type": "bool"
        }
      ],
      "stateMutability": "view",
      "type": "function"
    },
    {
      "inputs": [],
      "name": "jackpot",
      "outputs": [
        {
          "internalType": "contract IJackpot",
          "name": "",
          "type": "address"
        }
      ],
      "stateMutability": "view",
      "type": "function"
    },
    {
      "inputs": [],
      "name": "owner",
      "outputs": [
        {
          "internalType": "address",
          "name": "",
          "type": "address"
        }
      ],
      "stateMutability": "view",
      "type": "function"
    },
    {
      "inputs": [],
      "name": "pendingOwner",
      "outputs": [
        {
          "internalType": "address",
          "name": "",
          "type": "address"
        }
      ],
      "stateMutability": "view",
      "type": "function"
    },
    {
      "inputs": [
        {
          "internalType": "address",
          "name": "_allowed",
          "type": "address"
        }
      ],
      "name": "removeAllowed",
      "outputs": [],
      "stateMutability": "nonpayable",
      "type": "function"
    },
    {
      "inputs": [],
      "name": "renounceOwnership",
      "outputs": [],
      "stateMutability": "nonpayable",
      "type": "function"
    },
    {
      "inputs": [
        {
          "internalType": "address",
          "name": "_batchPurchaseFacilitator",
          "type": "address"
        }
      ],
      "name": "setBatchPurchaseFacilitator",
      "outputs": [],
      "stateMutability": "nonpayable",
      "type": "function"
    },
    {
      "inputs": [
        {
          "internalType": "address",
          "name": "",
          "type": "address"
        },
        {
          "internalType": "uint256",
          "name": "",
          "type": "uint256"
        }
      ],
      "name": "staticTickets",
      "outputs": [
        {
          "internalType": "uint8",
          "name": "bonusball",
          "type": "uint8"
        }
      ],
      "stateMutability": "view",
      "type": "function"
    },
    {
      "inputs": [
        {
          "internalType": "address",
          "name": "",
          "type": "address"
        }
      ],
      "name": "subscriptions",
      "outputs": [
        {
          "internalType": "uint64",
          "name": "remainingUSDC",
          "type": "uint64"
        },
        {
          "internalType": "uint64",
          "name": "lastExecutedDrawing",
          "type": "uint64"
        },
        {
          "internalType": "uint64",
          "name": "subscribedTicketPrice",
          "type": "uint64"
        },
        {
          "internalType": "uint64",
          "name": "dynamicTicketCount",
          "type": "uint64"
        }
      ],
      "stateMutability": "view",
      "type": "function"
    },
    {
      "inputs": [],
      "name": "ticketPickerNonce",
      "outputs": [
        {
          "internalType": "uint256",
          "name": "",
          "type": "uint256"
        }
      ],
      "stateMutability": "view",
      "type": "function"
    },
    {
      "inputs": [
        {
          "internalType": "address",
          "name": "newOwner",
          "type": "address"
        }
      ],
      "name": "transferOwnership",
      "outputs": [],
      "stateMutability": "nonpayable",
      "type": "function"
    },
    {
      "inputs": [],
      "name": "usdc",
      "outputs": [
        {
          "internalType": "contract IERC20",
          "name": "",
          "type": "address"
        }
      ],
      "stateMutability": "view",
      "type": "function"
    }
  ],
  "bytecode": "0x60c03461015757601f613d7538819003918201601f19168301916001600160401b0383118484101761015b57808492606094604052833981010312610157576100478161016f565b9061006060406100596020840161016f565b920161016f565b90331561014457600180546001600160a01b03199081169091555f805433928116831782556040519592916001600160a01b03909116907f8be0079c531659141344cd1fd0a4f28419497f9722a3daafe3b4186f6b6457e09080a36001600160a01b0390811660805290811660a052600780546001600160a01b03191692909116919091179055613bf19081610184823960805181818161033a015281816104ee01528181610aa9015281816112f6015281816129e601526131a4015260a051818181610766015281816107f9015281816113da01528181612e9301526131f70152f35b631e4fbdf760e01b5f525f60045260245ffd5b5f80fd5b634e487b7160e01b5f52604160045260245ffd5b51906001600160a01b03821682036101575756fe60806040526004361015610011575f80fd5b5f3560e01c806303fced0c14610174578063118e8dfe1461016f5780631778d5131461016a57806324e9edb0146101655780633e413bee146101605780633f3090c81461015b578063450a440a14610156578063460252ee146101515780634bd7a2c01461014c57806362672925146101475780636470db2f146101425780636b31ee011461013d578063715018a61461013857806379ba5097146101335780638da5cb5b1461012e578063b5daf03214610129578063babcc53914610124578063cb8523c61461011f578063e30c39781461011a578063f046395a14610115578063f2fde38b146101105763f804bb0e1461010b575f80fd5b610fa9565b610d7e565b610d0e565b610ce6565b610cbe565b610c76565b610c19565b610bc0565b610b3b565b610ad8565b610a94565b610a1d565b610a00565b6109d8565b61095d565b6108c2565b610828565b6107e4565b6106ef565b6104af565b610310565b6101c9565b5f91031261018357565b5f80fd5b60206040818301928281528451809452019201905f5b8181106101aa5750505090565b82516001600160a01b031684526020938401939092019160010161019d565b34610183575f3660031901126101835760405180602060025491828152019060025f527f405787fa12a823e0f2b7631cc41b3ba8828b3321ca811111fa75cd3aa3bb5ace905f5b8181106102375761023385610227818703826110b1565b60405191829182610187565b0390f35b8254845260209093019260019283019201610210565b9181601f84011215610183578235916001600160401b038311610183576020808501948460051b01011161018357565b602060031982011261018357600435906001600160401b038211610183576102a79160040161024d565b9091565b600811156102b557565b634e487b7160e01b5f52602160045260245ffd5b60206040818301928281528451809452019201905f905b8082106102ed5750505090565b90919283519060088210156102b5576020816001938293520194019201906102e0565b346101835761031e3661027d565b9061032882611119565b604051631380204360e31b81529092907f00000000000000000000000000000000000000000000000000000000000000006001600160a01b031690602081600481855afa908115610457575f91610490575b50604051636c687add60e11b815260048101829052926101a084602481865afa928315610457576004945f9461045c575b506020906040519586809263ce3820d160e01b82525afa938415610457575f94610426575b505f5b8181106103e8576040518061023389826102c9565b8061042061041187610405610400600196888d61124c565b61125c565b8760208a0151916122db565b61041b838b611266565b61127a565b016103d3565b61044991945060203d602011610450575b61044181836110b1565b81019061114b565b925f6103d0565b503d610437565b61115a565b6020919450610482906101a03d8111610489575b61047a81836110b1565b810190611193565b93906103ab565b503d610470565b6104a9915060203d6020116104505761044181836110b1565b5f61037a565b34610183576104bd3661027d565b6104c56124fb565b6104da335f52600360205260405f2054151590565b156106e057604051631380204360e31b81527f00000000000000000000000000000000000000000000000000000000000000006001600160a01b0316602082600481845afa918215610457575f926106bf575b50604051636c687add60e11b815260048101839052916101a083602481855afa918215610457576004935f9361069b575b506020906040519485809263ce3820d160e01b82525afa928315610457575f9361067a575b505f5b84811061059757610595612530565b005b806105a8610400600193888a61124c565b836105b987602088015183856122db565b6105c2816102ab565b806105d9575090856105d39261268c565b01610586565b6105e2816102ab565b8085036106055750906105f981876105fe9461268c565b612768565b505b6105d3565b61060e816102ab565b60028103610620575061060091612659565b610629816102ab565b6003810361063b575061060091612626565b610644816102ab565b600481036106565750610600916125f3565b60069150610663816102ab565b0361067157610600906125c6565b61060090612542565b61069491935060203d6020116104505761044181836110b1565b915f610583565b60209193506106b8906101a03d81116104895761047a81836110b1565b929061055e565b6106d991925060203d6020116104505761044181836110b1565b905f61052d565b631eb49d6d60e11b5f5260045ffd5b34610183575f366003190112610183576107076124fb565b335f5260046020526001600160401b0360405f205416156107d557600761072d33612768565b61078a60405163a9059cbb60e01b60208201523360248201526001600160401b0383166044820152604481526107646064826110b1565b7f00000000000000000000000000000000000000000000000000000000000000006135b3565b6040516001600160401b0391909116815233907fe83d8b7e75b06a45ad3a3ad082561931447d0bf28e958d7414bcf80ad6068ceb90602090a35f5f516020613b9c5f395f51905f525d005b635eb2472560e01b5f5260045ffd5b34610183575f366003190112610183576040517f00000000000000000000000000000000000000000000000000000000000000006001600160a01b03168152602090f35b34610183576108363661027d565b9061083f612839565b8115610876575f5b82811061085057005b80610870610861600193868661124c565b3561086b81610885565b61284c565b01610847565b63521299a960e01b5f5260045ffd5b6001600160a01b0381160361018357565b602435906001600160401b038216820361018357565b604435906001600160401b038216820361018357565b346101835760c0366003190112610183576004356108df81610885565b6108e7610896565b6108ef6108ac565b916064356001600160401b0381116101835761090f90369060040161024d565b906084356001600160401b0381116101835761092f90369060040161024d565b92909160a435966001600160401b0388116101835761095561059598369060040161024d565b979096611286565b346101835760203660031901126101835760043561097a81610885565b610982612839565b6001600160a01b031680156109c957600780546001600160a01b031916821790557f213e037603150bd00905bde45454991dfce31eef26e1102f02a84cab212e75e85f80a2005b63d92e233d60e01b5f5260045ffd5b34610183575f366003190112610183576007546040516001600160a01b039091168152602090f35b34610183575f366003190112610183576020600654604051908152f35b3461018357602036600319011261018357600435610a3a81610885565b610a42612839565b6001600160a01b031680156109c957610a5a8161365b565b15610a85577f0b9f2e1df04a0ccdea40ce7cec83fcf3c7b42d5647460cf541f2a8eabf1b170f5f80a2005b630c6d8dd560e11b5f5260045ffd5b34610183575f366003190112610183576040517f00000000000000000000000000000000000000000000000000000000000000006001600160a01b03168152602090f35b34610183575f36600319011261018357610af0612839565b600180546001600160a01b03199081169091555f80549182168155906001600160a01b03167f8be0079c531659141344cd1fd0a4f28419497f9722a3daafe3b4186f6b6457e08280a3005b34610183575f36600319011261018357600154336001600160a01b0390911603610bad57600180546001600160a01b03199081169091555f805433928116831782556001600160a01b0316907f8be0079c531659141344cd1fd0a4f28419497f9722a3daafe3b4186f6b6457e09080a3005b63118cdaa760e01b5f523360045260245ffd5b34610183575f366003190112610183575f546040516001600160a01b039091168152602090f35b634e487b7160e01b5f52603260045260245ffd5b8054821015610c14575f5260205f209060011b01905f90565b610be7565b3461018357604036600319011261018357600435610c3681610885565b6001600160a01b03165f90815260056020526040902080546024359190821015610183576001610c6a60209360ff93610bfb565b50015416604051908152f35b34610183576020366003190112610183576020610cb4600435610c9881610885565b6001600160a01b03165f90815260036020526040902054151590565b6040519015158152f35b3461018357602036600319011261018357610595600435610cde81610885565b61086b612839565b34610183575f366003190112610183576001546040516001600160a01b039091168152602090f35b3461018357602036600319011261018357600435610d2b81610885565b60018060a01b03165f526004602052608060405f2054604051906001600160401b03811682526001600160401b038160401c1660208301526001600160401b0381841c16604083015260c01c6060820152f35b3461018357602036600319011261018357600435610d9b81610885565b610da3612839565b60018060a01b0316806bffffffffffffffffffffffff60a01b600154161760015560018060a01b035f54167f38d16b8cac22d99fc7c124b9cd0de2d3fa1faef420bfe791d8c362d765e227005f80a3005b90602080835192838152019201905f5b818110610e115750505090565b82516001600160a01b0316845260209384019390920191600101610e04565b90602080835192838152019201905f5b818110610e4d5750505090565b8251845260209384019390920191600101610e40565b9080602083519182815201916020808360051b8301019401925f915b838310610e8e57505050505090565b9091929394601f1982820301835285519060408101918051926040835283518091526020606084019401905f905b808210610ee7575050506001926020928360ff81809501511691015297019301930191939290610e7f565b90919460208060019260ff8951168152019601920190610ebc565b90610fa691602081526020610f9183516040838501526001600160401b0381511660608501526001600160401b03838201511660808501526001600160401b0360408201511660a08501526001600160401b0360608201511660c085015260a0610f7c608083015160c060e0880152610120870190610df4565b910151848203605f1901610100860152610e30565b920151906040601f1982850301910152610e63565b90565b3461018357602036600319011261018357610233600435610fc981610885565b60606020604051610fd981611076565b604051610fe581611096565b5f81525f838201525f60408201525f848201528360808201528360a08201528152015260018060a01b0381165f52600460205261105161103960405f209260018060a01b03165f52600560205260405f2090565b61104a6110446110d2565b93611bfe565b8352612271565b602082015260405191829182610f02565b634e487b7160e01b5f52604160045260245ffd5b604081019081106001600160401b0382111761109157604052565b611062565b60c081019081106001600160401b0382111761109157604052565b90601f801991011681019081106001600160401b0382111761109157604052565b604051906110e16040836110b1565b565b604051906110e16101a0836110b1565b604051906110e160c0836110b1565b6001600160401b0381116110915760051b60200190565b9061112382611102565b61113060405191826110b1565b8281528092611141601f1991611102565b0190602036910137565b90816020910312610183575190565b6040513d5f823e3d90fd5b60ff81160361018357565b51906110e182611165565b51906110e182610885565b5190811515820361018357565b90816101a0910312610183576112436101806111ad6110e3565b92805184526020810151602085015260408101516040850152606081015160608501526080810151608085015260a081015160a085015260c081015160c085015260e081015160e08501526101008101516101008501526112116101208201611170565b6101208501526112246101408201611170565b610140850152611237610160820161117b565b61016085015201611186565b61018082015290565b9190811015610c145760051b0190565b35610fa681610885565b8051821015610c145760209160051b010190565b60088210156102b55752565b93919097929596946112966124fb565b6001600160a01b0385165f908152600460205260409020546001600160401b0316611671576001600160401b038916968715611662576112df846001600160401b038516611694565b98891561165357604051631380204360e31b8152997f00000000000000000000000000000000000000000000000000000000000000006001600160a01b03169060208c600481855afa9b8c15610457575f9c611632575b508b1561162357604051636c687add60e11b8152600481018d90529a6101a08c602481865afa92831561045757898c8660049f8c8f8b908d935f9b6115ed575b509161138a9593916020989795938c6129bf565b604051630904d8fb60e11b81529d8e9182905afa9b8c15610457575f9c6115ab575b50918b9c8c6113cf8160209e9f9b9a9998968b98966113ca916116a6565b6116a6565b9c8d936113fe8530337f0000000000000000000000000000000000000000000000000000000000000000612aa0565b0151036115575761140e906116b9565b6001600160401b03169c7fa270dcef5245dd83ed1f51da7cbff858c5b595e3d689cb5edbd2b2767144af249c61154c9a8f6114fc986114e09661149c6001600160401b036114bf9761148b6114b3965b61147b8461146a6110f3565b9d168d906001600160401b03169052565b6001600160401b031660208c0152565b166001600160401b03166040890152565b6001600160401b038c1660608801525b36916116d4565b6080850152369161172a565b60a08201526001600160a01b038a165f908152600460205260409020611897565b6001600160a01b0388165f908152600560205260409020611a58565b60405195869560018060a01b0316996001600160401b03339a169187929360a0946001600160401b0380939998979460c087019a8752166020860152604085015216606083015260808201520152565b0390a36110e1612530565b6001600160401b03169c7fa270dcef5245dd83ed1f51da7cbff858c5b595e3d689cb5edbd2b2767144af249c61154c9a8f6114fc986114e09661149c6001600160401b036114bf9761148b6114b39661145e565b8897969593919894929b9c5060203d6020116115e6575b6115cc81836110b1565b81016115d79161114b565b9b9a91939790929495966113ac565b503d6115c2565b602098979593919b509161161461138a9795936101a03d81116104895761047a81836110b1565b9b919395979850919395611376565b63725004d160e01b5f5260045ffd5b61164c919c5060203d6020116104505761044181836110b1565b9a5f611336565b638e71bef960e01b5f5260045ffd5b637616640160e01b5f5260045ffd5b63f891a6e160e01b5f5260045ffd5b634e487b7160e01b5f52601160045260245ffd5b919082018092116116a157565b611680565b818102929181159184041417156116a157565b5f198101919082116116a157565b919082039182116116a157565b9291906116e081611102565b936116ee60405195866110b1565b602085838152019160051b810192831161018357905b82821061171057505050565b60208091833561171f81610885565b815201910190611704565b92919061173681611102565b9361174460405195866110b1565b602085838152019160051b810192831161018357905b82821061176657505050565b813581526020918201910161175a565b9161178f9183549060031b91821b915f19901b19161790565b9055565b81811061179e575050565b5f8155600101611793565b80545f8255806117b7575050565b6110e1915f5260205f2090810190611793565b90600160401b8111611091578154908083558181106117e857505050565b6110e1925f5260205f209182019101611793565b8151916001600160401b0383116110915760209061181a84846117ca565b01905f5260205f205f5b8381106118315750505050565b82516001600160a01b031681830155602090920191600101611824565b8151916001600160401b0383116110915760209061186c84846117ca565b01905f5260205f205f5b8381106118835750505050565b600190602084519401938184015501611876565b600260a06110e1936118c96001600160401b0382511685906001600160401b03166001600160401b0319825416179055565b6020810151845467ffffffffffffffff60401b191660409190911b67ffffffffffffffff60401b161784556040810151845460608301516fffffffffffffffffffffffffffffffff909116608092831b67ffffffffffffffff60801b161760c09190911b6001600160c01b03191617855581015161194a90600186016117fc565b0151910161184e565b80545f825580611961575050565b6110e1915f52601f60205f20910160051c810190611793565b90600160401b811161109157815481835580821061199757505050565b6110e1925f52601f60205f20918180850160051c84019416806119c1575b500160051c0190611793565b5f198501908154905f199060200360031b1c1690555f6119b5565b600160401b8211611091578054908281558183106119f957505050565b6001600160ff1b03821682036116a1576001600160ff1b03831683036116a1575f5260205f209060011b81019160011b015b818110611a36575050565b80611a42600292611953565b5f600182015501611a2b565b35610fa681611165565b919091611a6582826119dc565b5f9081526020812092805b838310611a7e575050505050565b8035603e19833603018112156101835782018035601e19823603018112156101835781018035906001600160401b038211610183576020018160051b3603811361018357611acc828961197a565b611ad9885f5260205f2090565b8260051c915f5b838110611b815750601f1984169093039283611b2e575b505050506020600192611b22611b108360029501611a4e565b858a019060ff1660ff19825416179055565b01950192019193611a70565b5f935f905b808210611b4d575050500155602082611b22611b10611af7565b9091946020611b7760019285611b628a611a4e565b919060ff809160031b9316831b921b19161790565b9601920190611b33565b5f5f5b60208110611b99575083820155600101611ae0565b92906020611bad60019286611b6286611a4e565b92019301611b84565b90604051918281549182825260208201905f5260205f20925f5b818110611be55750506110e1925003836110b1565b8454835260019485019487945060209093019201611bd0565b90604051611c0b81611096565b80926001600160401b0381548181168452818160401c166020850152818160801c16604085015260c01c1660608301526001810160405190805480835260208301915f5260205f20905f5b818110611c855750505060a09282611c75611c809460029403826110b1565b608086015201611bb6565b910152565b82546001600160a01b0316845260209093019260019283019201611c56565b90604051611cb181611076565b809260405180611cc78354809260209181520190565b90611cd5845f5260205f2090565b905f915b81601f8401106120a45793611e0081611e0a956001956110e19a99956020995491818110612093575b81811061207e575b818110612069575b818110612054575b818110612041575b81811061202c575b818110612017575b818110612002575b818110611fed575b818110611fd8575b818110611fc3575b818110611fae575b818110611f99575b818110611f84575b818110611f6f575b818110611f5a575b818110611f45575b818110611f30575b818110611f1b575b818110611f06575b818110611ef1575b818110611edc575b818110611ec7575b818110611eb2575b818110611e9d575b818110611e88575b818110611e73575b818110611e5e575b818110611e49575b818110611e34575b818110611e1f575b10611e12575b5003826110b1565b8552015460ff1690565b60ff16910152565b60f81c815287015f611df8565b60ff60f084901c168452928a01928801611df2565b60ff60e884901c168452928a01928801611dea565b60ff60e084901c168452928a01928801611de2565b60ff60d884901c168452928a01928801611dda565b60ff60d084901c168452928a01928801611dd2565b60ff60c884901c168452928a01928801611dca565b60ff60c084901c168452928a01928801611dc2565b60ff60b884901c168452928a01928801611dba565b60ff60b084901c168452928a01928801611db2565b60ff60a884901c168452928a01928801611daa565b60ff60a084901c168452928a01928801611da2565b60ff609884901c168452928a01928801611d9a565b60ff609084901c168452928a01928801611d92565b60ff608884901c168452928a01928801611d8a565b60ff608084901c168452928a01928801611d82565b60ff607884901c168452928a01928801611d7a565b60ff607084901c168452928a01928801611d72565b60ff606884901c168452928a01928801611d6a565b60ff606084901c168452928a01928801611d62565b60ff605884901c168452928a01928801611d5a565b60ff605084901c168452928a01928801611d52565b60ff604884901c168452928a01928801611d4a565b60ff604084901c168452928a01928801611d42565b60ff603884901c168452928a01928801611d3a565b60ff603084901c168452928a01928801611d32565b60ff602884901c168452928a01928801611d2a565b60ff838c1c168452928a01928801611d22565b60ff601884901c168452928a01928801611d1a565b60ff601084901c168452928a01928801611d12565b60ff600884901c168452928a01928801611d0a565b60ff83168452928a01928801611d02565b92600161040060209261226687546120c18360ff831660ff169052565b600881901c60ff1683870152601081901c60ff166040840152601881901c60ff16606084015280861c60ff166080840152602881901c60ff1660a0840152603081901c60ff1660c0840152603881901c60ff1660e0840152604081901c60ff16610100840152604881901c60ff16610120840152605081901c60ff16610140840152605881901c60ff16610160840152606081901c60ff16610180840152606881901c60ff166101a0840152607081901c60ff166101c0840152607881901c60ff166101e0840152608081901c60ff16610200840152608881901c60ff16610220840152609081901c60ff16610240840152609881901c60ff1661026084015260a081901c60ff1661028084015260a881901c60ff166102a084015260b081901c60ff166102c084015260b881901c60ff166102e084015260c081901c60ff1661030084015260c881901c60ff1661032084015260d081901c60ff1661034084015260d881901c60ff1661036084015260e081901c60ff1661038084015260e881901c60ff166103a084015260f081901c60ff166103c084015260f81c6103e0830152565b019401920191611cd9565b90815461227d81611102565b9261228b60405194856110b1565b81845260208401905f5260205f205f915b8383106122a95750505050565b600260206001926122b985611ca4565b81520192019201919061229c565b9081602091031261018357610fa690611186565b929190916123016122fc8560018060a01b03165f52600460205260405f2090565b611bfe565b926001600160401b0361231b85516001600160401b031690565b16156124f1576001600160401b0361233d60208601516001600160401b031690565b16146124e85760408301516001600160401b03168281141590816124d5575b506124cc57608083015151116124c4576001600160a01b0383165f9081526005602052604090206123bc906123b590546123af6123a360608701516001600160401b031690565b6001600160401b031690565b90611694565b91826116a6565b6007549093906123dc906001600160a01b03165b6001600160a01b031690565b604051638dca2b9160e01b81529092602082600481875afa918215610457575f926124a3575b5010159182612431575b505061242a57516001600160401b031614612425575f90565b600190565b5050600490565b60405163892f922960e01b81526001600160a01b03929092166004830152909150602090829060249082905afa908115610457575f91612474575b505f8061240c565b612496915060203d60201161249c575b61248e81836110b1565b8101906122c7565b5f61246c565b503d612484565b6124bd91925060203d6020116104505761044181836110b1565b905f612402565b505050600690565b50505050600590565b6001600160401b0316905015155f61235c565b50505050600290565b5050505050600390565b5f516020613b9c5f395f51905f525c6125215760015f516020613b9c5f395f51905f525d565b633ee5aeb560e01b5f5260045ffd5b5f5f516020613b9c5f395f51905f525d565b6005907fe83d8b7e75b06a45ad3a3ad082561931447d0bf28e958d7414bcf80ad6068ceb61256f82612768565b6125b06040519363a9059cbb60e01b602086015260018060a01b0316938460248201526001600160401b0383166044820152604481526107646064826110b1565b6040516001600160401b039091168152602090a3565b6006907fe83d8b7e75b06a45ad3a3ad082561931447d0bf28e958d7414bcf80ad6068ceb61256f82612768565b600491906001600160a01b03167f27ecd53d3649f9ac20faf976241d67d976cae6f3d1e0dfd742a9105ae4abefd35f80a4565b600391906001600160a01b03167f27ecd53d3649f9ac20faf976241d67d976cae6f3d1e0dfd742a9105ae4abefd35f80a4565b600291906001600160a01b03167f27ecd53d3649f9ac20faf976241d67d976cae6f3d1e0dfd742a9105ae4abefd35f80a4565b6001600160a01b0383165f908152600460209081526040808320600590925290912091936126e6926126d09061012086015160ff1661014087015160ff1691612b98565b6126e16123a3859693965460c01c90565b611694565b9360046126f4868651611694565b60075460209061270c906001600160a01b03166123d0565b604051638dca2b9160e01b815293849182905afa918215610457575f92612747575b50101561273e576110e1956130ef565b6110e195612da7565b61276191925060203d6020116104505761044181836110b1565b905f61272e565b6001600160a01b0381165f81815260046020526040812080549181556001600160401b0390911693926127c7916127ae906002906127a8600182016117a9565b016117a9565b6001600160a01b03165f90815260056020526040902090565b8054905f8155816127fb575b50507f5aaa4a885fe8afe482f8bb71a9c6e47dfcd1598f5f7eeee4a57f0ccb9e2b76b55f80a2565b6001600160ff1b03821682036116a1575f5260205f209060011b8101905b818110156127d3578061282d600292611953565b5f600182015501612819565b5f546001600160a01b03163303610bad57565b6001600160a01b031680156109c9576128648161383e565b1561288e577ece0c03872867ce1a835f25187949b04b93ee69d1a9c6e60e20d5077063f66d5f80a2565b63d35c96d960e01b5f5260045ffd5b908160209103126101835751610fa681611165565b35906110e182611165565b9291906128c981611102565b936128d760405195866110b1565b602085838152019160051b8101908382116101835780925b8284106128fd575050505050565b83356001600160401b038111610183578201604081870312610183576040519061292682611076565b80356001600160401b03811161018357810187601f820112156101835780359061294f82611102565b9161295d60405193846110b1565b80835260208084019160051b830101918a831161018357602001905b8282106129a55750505091612996602080959381958452016128b2565b838201528152019301926128ef565b6020809183356129b481611165565b815201910190612979565b9690959094929390926001600160a01b038716156109c957604051633a7b700d60e11b81527f0000000000000000000000000000000000000000000000000000000000000000976020826004816001600160a01b038d165afa968715610457576110e19a612a5f98612a57976114ac955f92612a65575b50612a4a610140612a529394015160ff1690565b9336916128bd565b61335a565b92369161172a565b91613493565b612a529250610140612a91612a4a9260203d602011612a99575b612a8981836110b1565b81019061289d565b935050612a36565b503d612a7f565b6040516323b872dd60e01b60208201526001600160a01b0392831660248201529290911660448301526064808301939093529181526110e191612ae46084836110b1565b6135b3565b60405190612af682611076565b5f602083606081520152565b60405190612b116020836110b1565b5f80835282815b828110612b2457505050565b602090612b2f612ae9565b82828501015201612b18565b90612b4582611102565b612b5260405191826110b1565b8281528092612b63601f1991611102565b01905f5b828110612b7357505050565b602090612b7e612ae9565b82828501015201612b67565b5f1981146116a15760010190565b9192908254612ba681612b3b565b935f925f915b838310612bc55750505083945081610fa69394526116c7565b612bde612bd88483999598979699610bfb565b50611ca4565b94612bed602087015160ff1690565b60ff808b16911611612c89576001975f5b87518051821015612c7a57612c1682612c1d92611266565b5160ff1690565b60ff808716911611612c3157600101612bfe565b509490969198929397505f5b15612c705790612c6582612c5360019491612b8a565b97612c5e828c611266565b5289611266565b505b01919096612bac565b9450600190612c67565b50509490969198929397612c3d565b9560019198929397949550612c67565b906001600160401b03809116911602906001600160401b0382169182036116a157565b906001600160401b03809116911603906001600160401b0382116116a157565b90602082549182815201915f5260205f20905f5b818110612cfd5750505090565b82546001600160a01b0316845260209093019260019283019201612cf0565b90602082549182815201915f5260205f20905f5b818110612d3d5750505090565b8254845260209093019260019283019201612d30565b9390610fa695936001600160401b03612d9994612d8b9360018060a01b0316885216602087015260a0604087015260a0860190610e63565b908482036060860152612cdc565b916080818403910152612d1c565b94939190612dd790612dd16020612dc26123a3898851611694565b9201516001600160401b031690565b90612c99565b91612e12612df584612df087546001600160401b031690565b612cbc565b855467ffffffffffffffff19166001600160401b03909116178555565b835467ffffffffffffffff60401b1916604087901b67ffffffffffffffff60401b16178455600754612e8e906020908590612e55906001600160a01b03166123d0565b60405163095ea7b360e01b81526001600160a01b0390911660048201526001600160401b03909116602482015291829081906044820190565b03815f7f00000000000000000000000000000000000000000000000000000000000000006001600160a01b03165af1801561045757612faa575b50600754612ede906001600160a01b03166123d0565b803b15610183576040516313801a9160e11b8152945f918691829084908290612f1e906002810190600101896001600160401b038f168c60048701612d53565b03925af1908115610457577ff6c12dea177310b87854a99daa0692b9759a97021dd627cb6c3cd2e3b37b932894612f8b92612f90575b50516040805196875260208701919091526001600160401b03909316928501929092526001600160a01b0316929081906060820190565b0390a3565b80612f9e5f612fa4936110b1565b80610179565b5f612f54565b612fc29060203d60201161249c5761248e81836110b1565b612ec8565b602081830312610183578051906001600160401b03821161018357019080601f83011215610183578151612ffa81611102565b9261300860405194856110b1565b81845260208085019260051b82010192831161018357602001905b8282106130305750505090565b8151815260209182019101613023565b9493916130879361305c6130799360a0895260a0890190610e63565b6001600160a01b0390921660208801528682036040880152612cdc565b908482036060860152612d1c565b9160807030baba3796b9bab139b1b934b83a34b7b760791b910152565b9093929193606082016060835281518091526020608084019201905f5b8181106130d957505050906040919460208201520152565b82518452602093840193909201916001016130c1565b9491906131f29361313b61312461311e61310e61012086015160ff1690565b61014086015160ff1690886136fc565b886137ab565b92612dd16020612dc286516001600160401b031690565b61317061315382612df085546001600160401b031690565b835467ffffffffffffffff19166001600160401b03909116178355565b815467ffffffffffffffff60401b1916604089901b67ffffffffffffffff60401b1617825560405163095ea7b360e01b81527f00000000000000000000000000000000000000000000000000000000000000006001600160a01b0316600482018190526001600160401b03909216602482015295602090879081906044820190565b03815f7f00000000000000000000000000000000000000000000000000000000000000006001600160a01b03165af19283156104575761325b965f946132f2575b5083604051809881958294636f44614560e11b84528960016002840193019160048601613040565b03925af1928315610457575f936132aa575b50612f8b7fad3811887b698bb7acdf5e3fb625d6494c7c3b7ef04584ac333468c389325c2893945160405193849360018060a01b031696846130a4565b7fad3811887b698bb7acdf5e3fb625d6494c7c3b7ef04584ac333468c389325c2893506132eb612f8b913d805f833e6132e381836110b1565b810190612fc7565b935061326d565b61330a9060203d60201161249c5761248e81836110b1565b613233565b90929192604082016040835281518091526020606084019201905f5b8181106133415750505060ff6020919416910152565b825160ff1684526020938401939092019160010161332b565b9091925f5b825181101561348c576133728184611266565b519260058451510361347d575f90815b855180518410156133f157612c168461339a92611266565b60ff60018282161b911680159081156133e4575b506133d5578082166133c65760019117920191613382565b630167757b60e31b5f5260045ffd5b6322c4884360e11b5f5260045ffd5b905060ff8916105f6133ae565b5050929391905060208201613407815160ff1690565b60ff81161590811561346d575b506133d5577f95f98176980d9b7f0025242f21165accbd2dcab2079149c6ea8a96859b80678e61346161344c60019551935160ff1690565b604051918291878060a01b038a16958361330f565b0390a20191909161335f565b905060ff8089169116115f613414565b6309a1450560e41b5f5260045ffd5b5050505050565b60405163ce3820d160e01b81529193929190602090829060049082906001600160a01b03165afa908115610457575f91613594575b508351825103613585578351116135765782516134e457509050565b5f92835b81518510156135515761350e6123d06135018785611266565b516001600160a01b031690565b156109c95761351d8584611266565b51156135425761353a6001916135338786611266565b5190611694565b9401936134e8565b631ccba14360e21b5f5260045ffd5b915050670de0b6b3a76400009192500361356757565b6307c3e09160e01b5f5260045ffd5b63d4920c9360e01b5f5260045ffd5b6307125e1360e11b5f5260045ffd5b6135ad915060203d6020116104505761044181836110b1565b5f6134c8565b905f602091828151910182855af11561115a575f513d61360257506001600160a01b0381163b155b6135e25750565b635274afe760e01b5f9081526001600160a01b0391909116600452602490fd5b600114156135db565b8054821015610c14575f5260205f2001905f90565b80548015613647575f190190613636828261360b565b8154905f199060031b1b1916905555565b634e487b7160e01b5f52603160045260245ffd5b5f818152600360205260409020549081156136f6575f198201908282116116a1576002545f198101939084116116a15783835f956136b595036136bb575b5050506136a66002613620565b6003905f5260205260405f2090565b55600190565b6136a66136e7916136dd6136d36136ed95600261360b565b90549060031b1c90565b928391600261360b565b90611776565b555f8080613699565b50505f90565b919082156137a05761370f600654612b8a565b928360065561371c6138a7565b60208101907f6d656761706f742e76322e7469636b65745f7069636b65722e7069636b5f6175825261746f60f01b60408201525190205f1943014381116116a157610fa69560405191602083019384523060408401524660608401524460808401524060a083015260c082015260c0815261379860e0826110b1565b5190206138bc565b505050610fa6612b02565b8051825181018091116116a1576137c190612b3b565b925f5b82518110156137f757806137da60019285611266565b516137e58288611266565b526137f08187611266565b50016137c4565b50915f5b8151811015613839578061383261381460019385611266565b51613820838751611694565b9061382b828a611266565b5287611266565b50016137fb565b505050565b5f818152600360205260409020546138a257600254600160401b8110156110915761388b613875826001859401600255600261360b565b819391549060031b91821b915f19901b19161790565b9055600254905f52600360205260405f2055600190565b505f90565b604051906138b66060836110b1565b60228252565b939290918215613938576138cf83612b3b565b945f5b8481106138e0575050505050565b60408051602081018481529181018390526001929161391c918791879161391481606081015b03601f1981018352826110b1565b519020613976565b613926828a611266565b526139318189611266565b50016138d2565b60405162461bcd60e51b8152602060048201526016602482015275141a58dac8185d081b19585cdd080c481d1a58dad95d60521b6044820152606490fd5b9091613980612ae9565b5060ff604051936315a409df60e31b855260016004860152166024840152600560448401528160648401525f8360848173__$f7b56129a109e8cfdd105a93f7993108ed$__5af4928315610457575f936139fc575b50610fa69160ff6139e7921690613b0c565b6139ef6110d2565b92835260ff166020830152565b6139e79193509160ff613a1b610fa6943d805f833e6132e381836110b1565b94925050916139d5565b15613a2c57565b60405162461bcd60e51b815260206004820152600b60248201526a092dcecc2d8d2c840dac2f60ab1b6044820152606490fd5b634e487b7160e01b5f52601260045260245ffd5b8015613a7f575f190490565b613a5f565b604051613a926060826110b1565b602781527f6d656761706f742e76322e7469636b65745f7069636b65722e7069636b5f626f6020820152661b9d5cd8985b1b60ca1b6040909101527f933002008674cb2c329a0af0ac39a47561460df9fe9ad91186b087d50844116c90565b8115613a7f570690565b60ff166001019060ff82116116a157565b9080151580613b90575b613b1f90613a25565b613b2c816113ca81613a73565b915b613906613b68613b3c613a84565b6040805160208101928352469181019190915230606082015260808101949094529291829060a0820190565b51902082811015613b2e57610fa69250613b8b91613b8591613af1565b60ff1690565b613afb565b5060ff811115613b1656fe9b779b17422d0df92223018b32b4d1fa46e071723d6817e2486d003becc55f00a26469706673582212204cea0d27032a4eff9c1f33f8e319cc5a60ce57fb60e4d212c91095fbd63a92bf64736f6c634300081c0033",
  "linkReferences": {
    "contracts/lib/FisherYatesWithRejection.sol": {
      "FisherYatesRejection": [
        {
          "length": 20,
          "start": 15158
        }
      ]
    }
  },
  "deployedLinkReferences": {
    "contracts/lib/FisherYatesWithRejection.sol": {
      "FisherYatesRejection": [
        {
          "length": 20,
          "start": 14770
        }
      ]
    }
  }
}