{
  "_format": "hh-sol-artifact-1",
  "contractName": "UintCastsTester",
  "sourceName": "contracts/mocks/UintCastsTester.sol",
  "abi": [
    {
      "inputs": [],
      "name": "Uint8OutOfBounds",
      "type": "error"
    },
    {
      "inputs": [
        {
          "internalType": "uint256",
          "name": "value",
          "type": "uint256"
        }
      ],
      "name": "castUint8",
      "outputs": [
        {
          "internalType": "uint8",
          "name": "",
          "type": "uint8"
        }
      ],
      "stateMutability": "pure",
      "type": "function"
    },
    {
      "inputs": [
        {
          "internalType": "uint256[]",
          "name": "values",
          "type": "uint256[]"
        }
      ],
      "name": "castUint8Array",
      "outputs": [
        {
          "internalType": "uint8[]",
          "name": "",
          "type": "uint8[]"
        }
      ],
      "stateMutability": "pure",
      "type": "function"
    }
  ],
  "bytecode": "0x60808060405234601557610257908161001a8239f35b5f80fdfe60806040526004361015610011575f80fd5b5f3560e01c806356be73b514610161576380bc93691461002f575f80fd5b3461015d57602036600319011261015d5760043567ffffffffffffffff811161015d573660238201121561015d5780600401359067ffffffffffffffff821161015d5760248260051b8201019036821161015d5760246020610098610093866101c4565b61018a565b80958152019101905b82821061014d578351846100b7610093836101c4565b918083526100c4816101c4565b602084019290601f19013684375f5b828110610121578385604051918291602083019060208452518091526040830191905f5b818110610105575050500390f35b825160ff168452859450602093840193909201916001016100f7565b80610137610131600193856101f9565b516101dc565b60ff61014383896101f9565b91169052016100d3565b81358152602091820191016100a1565b5f80fd5b3461015d57602036600319011261015d57602061017f6004356101dc565b60ff60405191168152f35b6040519190601f01601f1916820167ffffffffffffffff8111838210176101b057604052565b634e487b7160e01b5f52604160045260245ffd5b67ffffffffffffffff81116101b05760051b60200190565b60ff81116101ea5760ff1690565b636a2f1fc960e11b5f5260045ffd5b805182101561020d5760209160051b010190565b634e487b7160e01b5f52603260045260245ffdfea2646970667358221220b9f5797961d643465d257bf8f0bdf253fe0f064b69be60fb8b93432a17c5429a64736f6c634300081c0033",
  "linkReferences": {},
  "deployedLinkReferences": {}
}