{
  "_format": "hh-sol-artifact-1",
  "contractName": "FisherYatesRejection",
  "sourceName": "contracts/lib/FisherYatesWithRejection.sol",
  "abi": [
    {
      "inputs": [
        {
          "internalType": "uint256",
          "name": "minRange",
          "type": "uint256"
        },
        {
          "internalType": "uint256",
          "name": "maxRange",
          "type": "uint256"
        },
        {
          "internalType": "uint256",
          "name": "count",
          "type": "uint256"
        },
        {
          "internalType": "uint256",
          "name": "seed",
          "type": "uint256"
        }
      ],
      "name": "draw",
      "outputs": [
        {
          "internalType": "uint256[]",
          "name": "result",
          "type": "uint256[]"
        }
      ],
      "stateMutability": "pure",
      "type": "function"
    }
  ],
  "bytecode": "0x60808060405234601957610335908161001e823930815050f35b5f80fdfe60806040526004361015610011575f80fd5b5f3560e01c63ad204ef814610024575f80fd5b608036600319011261023857600435604435606435602435610046848261023c565b600181018091116101bb57831161020257836100619161023c565b600181018082116101bb5761007581610297565b945f5b8281106101e357505050905f825b6101045750505061009681610297565b915f5b8281106100e557836040518091602082016020835281518091526020604084019201905f5b8181106100cc575050500390f35b82518452859450602093840193909201916001016100be565b806100f2600192846102c9565b516100fd82876102c9565b5201610099565b9193909290915b60405160208101908582528260408201526040815261012b606082610249565b51902060018601908187116101bb5781156101cf57815f1904828102908082048414901517156101bb57811061016b575050610166906102f1565b61010b565b93959294936101a99291900661018181886102c9565b5190610198610190868a6102c9565b5191896102c9565b526101a384886102c9565b526102f1565b9080156101bb575f1901919082610086565b634e487b7160e01b5f52601160045260245ffd5b634e487b7160e01b5f52601260045260245ffd5b818101908181116101bb576001916101fb828a6102c9565b5201610078565b60405162461bcd60e51b815260206004820152600e60248201526d546f6f206d616e7920647261777360901b6044820152606490fd5b5f80fd5b919082039182116101bb57565b90601f8019910116810190811067ffffffffffffffff82111761026b57604052565b634e487b7160e01b5f52604160045260245ffd5b67ffffffffffffffff811161026b5760051b60200190565b906102a18261027f565b6102ae6040519182610249565b82815280926102bf601f199161027f565b0190602036910137565b80518210156102dd5760209160051b010190565b634e487b7160e01b5f52603260045260245ffd5b5f1981146101bb576001019056fea2646970667358221220dfed02a4dedf26a0cac387f23261749449a538c7a8568c617cdba46cabccae1b64736f6c634300081c0033",
  "linkReferences": {},
  "deployedLinkReferences": {}
}