{
  "_format": "hh-sol-artifact-1",
  "contractName": "GuaranteedMinimumPayoutCalculator",
  "sourceName": "contracts/GuaranteedMinimumPayoutCalculator.sol",
  "abi": [
    {
      "inputs": [
        {
          "internalType": "contract IJackpot",
          "name": "_jackpot",
          "type": "address"
        },
        {
          "internalType": "uint256",
          "name": "_minimumPayout",
          "type": "uint256"
        },
        {
          "internalType": "uint256",
          "name": "_premiumTierMinAllocation",
          "type": "uint256"
        },
        {
          "internalType": "bool[12]",
          "name": "_minPayoutTiers",
          "type": "bool[12]"
        },
        {
          "internalType": "uint256[12]",
          "name": "_premiumTierWeights",
          "type": "uint256[12]"
        }
      ],
      "stateMutability": "nonpayable",
      "type": "constructor"
    },
    {
      "inputs": [],
      "name": "InvalidDrawingId",
      "type": "error"
    },
    {
      "inputs": [],
      "name": "InvalidMinPayoutTiers",
      "type": "error"
    },
    {
      "inputs": [],
      "name": "InvalidPremiumTierMinimumAllocation",
      "type": "error"
    },
    {
      "inputs": [],
      "name": "InvalidPremiumTierWeights",
      "type": "error"
    },
    {
      "inputs": [
        {
          "internalType": "address",
          "name": "owner",
          "type": "address"
        }
      ],
      "name": "OwnableInvalidOwner",
      "type": "error"
    },
    {
      "inputs": [
        {
          "internalType": "address",
          "name": "account",
          "type": "address"
        }
      ],
      "name": "OwnableUnauthorizedAccount",
      "type": "error"
    },
    {
      "inputs": [],
      "name": "UnauthorizedCaller",
      "type": "error"
    },
    {
      "inputs": [],
      "name": "ZeroAddress",
      "type": "error"
    },
    {
      "anonymous": false,
      "inputs": [
        {
          "indexed": true,
          "internalType": "address",
          "name": "previousOwner",
          "type": "address"
        },
        {
          "indexed": true,
          "internalType": "address",
          "name": "newOwner",
          "type": "address"
        }
      ],
      "name": "OwnershipTransferStarted",
      "type": "event"
    },
    {
      "anonymous": false,
      "inputs": [
        {
          "indexed": true,
          "internalType": "address",
          "name": "previousOwner",
          "type": "address"
        },
        {
          "indexed": true,
          "internalType": "address",
          "name": "newOwner",
          "type": "address"
        }
      ],
      "name": "OwnershipTransferred",
      "type": "event"
    },
    {
      "anonymous": false,
      "inputs": [
        {
          "indexed": false,
          "internalType": "uint256",
          "name": "drawingId",
          "type": "uint256"
        },
        {
          "indexed": false,
          "internalType": "uint256[12]",
          "name": "tierPayouts",
          "type": "uint256[12]"
        }
      ],
      "name": "PrizeTierPayoutsCalculated",
      "type": "event"
    },
    {
      "inputs": [],
      "name": "PRECISE_UNIT",
      "outputs": [
        {
          "internalType": "uint256",
          "name": "",
          "type": "uint256"
        }
      ],
      "stateMutability": "view",
      "type": "function"
    },
    {
      "inputs": [],
      "name": "acceptOwnership",
      "outputs": [],
      "stateMutability": "nonpayable",
      "type": "function"
    },
    {
      "inputs": [
        {
          "internalType": "uint256",
          "name": "_drawingId",
          "type": "uint256"
        },
        {
          "internalType": "uint256",
          "name": "_prizePool",
          "type": "uint256"
        },
        {
          "internalType": "uint8",
          "name": "_normalMax",
          "type": "uint8"
        },
        {
          "internalType": "uint8",
          "name": "_bonusballMax",
          "type": "uint8"
        },
        {
          "internalType": "uint256[]",
          "name": "_uniqueResult",
          "type": "uint256[]"
        },
        {
          "internalType": "uint256[]",
          "name": "_dupResult",
          "type": "uint256[]"
        }
      ],
      "name": "calculateAndStoreDrawingUserWinnings",
      "outputs": [
        {
          "internalType": "uint256",
          "name": "totalPayout",
          "type": "uint256"
        }
      ],
      "stateMutability": "nonpayable",
      "type": "function"
    },
    {
      "inputs": [
        {
          "internalType": "uint256",
          "name": "",
          "type": "uint256"
        }
      ],
      "name": "drawingTierInfo",
      "outputs": [
        {
          "internalType": "uint256",
          "name": "minPayout",
          "type": "uint256"
        },
        {
          "internalType": "uint256",
          "name": "premiumTierMinAllocation",
          "type": "uint256"
        }
      ],
      "stateMutability": "view",
      "type": "function"
    },
    {
      "inputs": [
        {
          "internalType": "uint256",
          "name": "_drawingId",
          "type": "uint256"
        }
      ],
      "name": "getDrawingTierInfo",
      "outputs": [
        {
          "components": [
            {
              "internalType": "uint256",
              "name": "minPayout",
              "type": "uint256"
            },
            {
              "internalType": "uint256",
              "name": "premiumTierMinAllocation",
              "type": "uint256"
            },
            {
              "internalType": "bool[12]",
              "name": "minPayoutTiers",
              "type": "bool[12]"
            },
            {
              "internalType": "uint256[12]",
              "name": "premiumTierWeights",
              "type": "uint256[12]"
            }
          ],
          "internalType": "struct GuaranteedMinimumPayoutCalculator.DrawingTierInfo",
          "name": "",
          "type": "tuple"
        }
      ],
      "stateMutability": "view",
      "type": "function"
    },
    {
      "inputs": [
        {
          "internalType": "uint256",
          "name": "_drawingId",
          "type": "uint256"
        }
      ],
      "name": "getDrawingTierPayouts",
      "outputs": [
        {
          "internalType": "uint256[12]",
          "name": "",
          "type": "uint256[12]"
        }
      ],
      "stateMutability": "view",
      "type": "function"
    },
    {
      "inputs": [
        {
          "internalType": "uint256",
          "name": "_drawingId",
          "type": "uint256"
        },
        {
          "internalType": "uint256",
          "name": "_prizePool",
          "type": "uint256"
        },
        {
          "internalType": "uint8",
          "name": "_normalMax",
          "type": "uint8"
        },
        {
          "internalType": "uint8",
          "name": "_bonusballMax",
          "type": "uint8"
        }
      ],
      "name": "getExpectedDrawingTierPayouts",
      "outputs": [
        {
          "internalType": "uint256[12]",
          "name": "drawingTierPayouts",
          "type": "uint256[12]"
        }
      ],
      "stateMutability": "view",
      "type": "function"
    },
    {
      "inputs": [],
      "name": "getMinPayoutTiers",
      "outputs": [
        {
          "internalType": "bool[12]",
          "name": "",
          "type": "bool[12]"
        }
      ],
      "stateMutability": "view",
      "type": "function"
    },
    {
      "inputs": [],
      "name": "getPremiumTierWeights",
      "outputs": [
        {
          "internalType": "uint256[12]",
          "name": "",
          "type": "uint256[12]"
        }
      ],
      "stateMutability": "view",
      "type": "function"
    },
    {
      "inputs": [
        {
          "internalType": "uint256",
          "name": "_drawingId",
          "type": "uint256"
        },
        {
          "internalType": "uint256",
          "name": "_tierId",
          "type": "uint256"
        }
      ],
      "name": "getTierPayout",
      "outputs": [
        {
          "internalType": "uint256",
          "name": "",
          "type": "uint256"
        }
      ],
      "stateMutability": "view",
      "type": "function"
    },
    {
      "inputs": [],
      "name": "jackpot",
      "outputs": [
        {
          "internalType": "contract IJackpot",
          "name": "",
          "type": "address"
        }
      ],
      "stateMutability": "view",
      "type": "function"
    },
    {
      "inputs": [
        {
          "internalType": "uint256",
          "name": "",
          "type": "uint256"
        }
      ],
      "name": "minPayoutTiers",
      "outputs": [
        {
          "internalType": "bool",
          "name": "",
          "type": "bool"
        }
      ],
      "stateMutability": "view",
      "type": "function"
    },
    {
      "inputs": [],
      "name": "minimumPayout",
      "outputs": [
        {
          "internalType": "uint256",
          "name": "",
          "type": "uint256"
        }
      ],
      "stateMutability": "view",
      "type": "function"
    },
    {
      "inputs": [],
      "name": "owner",
      "outputs": [
        {
          "internalType": "address",
          "name": "",
          "type": "address"
        }
      ],
      "stateMutability": "view",
      "type": "function"
    },
    {
      "inputs": [],
      "name": "pendingOwner",
      "outputs": [
        {
          "internalType": "address",
          "name": "",
          "type": "address"
        }
      ],
      "stateMutability": "view",
      "type": "function"
    },
    {
      "inputs": [],
      "name": "premiumTierMinAllocation",
      "outputs": [
        {
          "internalType": "uint256",
          "name": "",
          "type": "uint256"
        }
      ],
      "stateMutability": "view",
      "type": "function"
    },
    {
      "inputs": [
        {
          "internalType": "uint256",
          "name": "",
          "type": "uint256"
        }
      ],
      "name": "premiumTierWeights",
      "outputs": [
        {
          "internalType": "uint256",
          "name": "",
          "type": "uint256"
        }
      ],
      "stateMutability": "view",
      "type": "function"
    },
    {
      "inputs": [],
      "name": "renounceOwnership",
      "outputs": [],
      "stateMutability": "nonpayable",
      "type": "function"
    },
    {
      "inputs": [
        {
          "internalType": "uint256",
          "name": "_drawingId",
          "type": "uint256"
        }
      ],
      "name": "setDrawingTierInfo",
      "outputs": [],
      "stateMutability": "nonpayable",
      "type": "function"
    },
    {
      "inputs": [
        {
          "internalType": "bool[12]",
          "name": "_minPayoutTiers",
          "type": "bool[12]"
        }
      ],
      "name": "setMinPayoutTiers",
      "outputs": [],
      "stateMutability": "nonpayable",
      "type": "function"
    },
    {
      "inputs": [
        {
          "internalType": "uint256",
          "name": "_minimumPayout",
          "type": "uint256"
        }
      ],
      "name": "setMinimumPayout",
      "outputs": [],
      "stateMutability": "nonpayable",
      "type": "function"
    },
    {
      "inputs": [
        {
          "internalType": "uint256",
          "name": "_premiumTierMinAllocation",
          "type": "uint256"
        }
      ],
      "name": "setPremiumTierMinAllocation",
      "outputs": [],
      "stateMutability": "nonpayable",
      "type": "function"
    },
    {
      "inputs": [
        {
          "internalType": "uint256[12]",
          "name": "_premiumTierWeights",
          "type": "uint256[12]"
        }
      ],
      "name": "setPremiumTierWeights",
      "outputs": [],
      "stateMutability": "nonpayable",
      "type": "function"
    },
    {
      "inputs": [
        {
          "internalType": "address",
          "name": "newOwner",
          "type": "address"
        }
      ],
      "name": "transferOwnership",
      "outputs": [],
      "stateMutability": "nonpayable",
      "type": "function"
    }
  ],
  "bytecode": "0x60a060405234610254576116758038038061001981610271565b9283398101610360828203126102545781516001600160a01b038116908181036102545760208401519060408501519284607f87011215610254576101809461006186610271565b80966101e08901918383116102545760608a01905b838210610258575050826101ff8a0112156102545761009490610271565b9061036082990192831161025457905b82821061024457505050331561023157600180546001600160a01b03199081169091555f805433928116831782556001600160a01b0316907f8be0079c531659141344cd1fd0a4f28419497f9722a3daafe3b4186f6b6457e09080a31561022257670de0b6b3a76400008311610213576080526011556012558051610204575f905f5b600c81106101df57505060105580516101d0575f90815b600c831015610176578260051b82015181018091116101625760019092019161013e565b634e487b7160e01b5f52601160045260245ffd5b670de0b6b3a7640000036101d0575f5b600c81106101bb576040516113ca90816102ab823960805181818161027e01528181610817015281816109350152610d570152f35b60019060208351930192816004015501610186565b6341c333a760e11b5f5260045ffd5b90916020600191845115159060ff808660031b9316831b921b19161793019101610127565b6370dfed2560e11b5f5260045ffd5b631e6c967760e11b5f5260045ffd5b63d92e233d60e01b5f5260045ffd5b631e4fbdf760e01b5f525f60045260245ffd5b81518152602091820191016100a4565b5f80fd5b8151801515810361025457815260209182019101610076565b6040519190601f01601f191682016001600160401b0381118382101761029657604052565b634e487b7160e01b5f52604160045260245ffdfe60806040526004361015610011575f80fd5b5f3560e01c80630c23fa7014610a755780631e78cfe114610a58578063338e00c614610a3b57806335b98bad146108c9578063519060d51461089357806359695754146108725780635e7ef653146108465780636b31ee0114610802578063715018a61461079f57806378fe09fb1461076c57806379ba5097146106e757806383f17893146106aa57806384571ca6146105e0578063864029e7146105be578063895684ad1461040557806389faed0e146103c65780638c2cdffa1461039a5780638da5cb5b14610373578063908dc4061461026b578063c6d45c8d14610238578063d5ff7690146101ff578063d70ab9d1146101c0578063e30c3978146101985763f2fde38b14610121575f80fd5b34610194576020366003190112610194576004356001600160a01b038116908190036101945761014f610f7b565b600180546001600160a01b031916821790555f80546001600160a01b0316907f38d16b8cac22d99fc7c124b9cd0de2d3fa1faef420bfe791d8c362d765e227009080a3005b5f80fd5b34610194575f366003190112610194576001546040516001600160a01b039091168152602090f35b3461019457602036600319011261019457610180806040516101e28282610b5d565b3690376101f0600435611209565b6101fd6040518092610c14565bf35b34610194575f36600319011261019457610180806040516102208282610b5d565b36903761022b610ebb565b6101fd6040518092610c68565b34610194576020366003190112610194576004355f5260026020526040805f206001815491015482519182526020820152f35b34610194576020366003190112610194577f00000000000000000000000000000000000000000000000000000000000000006001600160a01b0316330361036457601154601254604051916102bf83610b2d565b8252602082019081526102d0610ebb565b604083019081526102df610ccf565b91606084019283526004355f52600260205260405f2093518455516001840155515f905f5b600c81106103375750506002830155515f5b600c811061032057005b600190602083519301926003828601015501610316565b9091602061035b6001928486511515919060ff809160031b9316831b921b19161790565b93019101610304565b635c427cd960e01b5f5260045ffd5b34610194575f366003190112610194575f546040516001600160a01b039091168152602090f35b3461019457602036600319011261019457600435600c8110156101945760209060040154604051908152f35b34610194576020366003190112610194576004356103e2610f7b565b670de0b6b3a764000081116103f657601255005b631e6c967760e11b5f5260045ffd5b346101945760203660031901126101945760405161042281610b2d565b5f81525f60208201526101809060405161043c8382610b5d565b8236823760408201526060604051916104558484610b5d565b8336843701526004355f52600260205260405f206040519161047683610b2d565b815483526001820154602084019081526040519160ff600285015481811615158552818160081c1615156020860152818160101c1615156040860152818160181c1615156060860152818160201c1615156080860152818160281c16151560a0860152818160301c16151560c0860152818160381c16151560e0860152818160401c161515610100860152818160481c161515610120860152818160501c16151561014086015260581c1615156101608401526105338184610b5d565b604085810193845251936003015f855b600c82106105a8575050509061055d61057c939285610b5d565b6060850193845260405194518552516020850152516040840190610c68565b515f6101c083015b600c82106105925761034084f35b6020806001928551815201930191019091610584565b6001602081928554815201930191019091610543565b34610194575f366003190112610194576020604051670de0b6b3a76400008152f35b34610194576101803660031901126101945736602312156101945760405161060a61018082610b5d565b803661018411610194576004905b610184821061069a578261062a610f7b565b805161066c575f805b600c821061067b57670de0b6b3a764000091500361066c575f5b600c811061065757005b6001906020835193019281600401550161064d565b6341c333a760e11b5f5260045ffd5b61069260019161068b8486610f8e565b5190610fd1565b910190610633565b8135815260209182019101610618565b3461019457602036600319011261019457600435600c8110156101945760ff60209160f88160051c601001549160031b161c166040519015158152f35b34610194575f36600319011261019457600154336001600160a01b039091160361075957600180546001600160a01b03199081169091555f805433928116831782556001600160a01b0316907f8be0079c531659141344cd1fd0a4f28419497f9722a3daafe3b4186f6b6457e09080a3005b63118cdaa760e01b5f523360045260245ffd5b34610194576080366003190112610194576101806101f061078b610b7f565b610793610b8f565b90602435600435610d2a565b34610194575f366003190112610194576107b7610f7b565b600180546001600160a01b03199081169091555f80549182168155906001600160a01b03167f8be0079c531659141344cd1fd0a4f28419497f9722a3daafe3b4186f6b6457e08280a3005b34610194575f366003190112610194576040517f00000000000000000000000000000000000000000000000000000000000000006001600160a01b03168152602090f35b34610194575f36600319011261019457610180806040516108678282610b5d565b3690376101f0610ccf565b346101945760203660031901126101945761088b610f7b565b600435601155005b34610194576040366003190112610194576004355f52600360205260405f206024355f52602052602060405f2054604051908152f35b346101945760c0366003190112610194576004356024356108e8610b7f565b6108f0610b8f565b9160843567ffffffffffffffff811161019457610911903690600401610bb7565b9060a43567ffffffffffffffff811161019457610932903690600401610bb7565b927f00000000000000000000000000000000000000000000000000000000000000006001600160a01b031633036103645761097f846109b396885f52600260205260405f20938585610fde565b9193908215610a345761099191610cc2565b905b6101806040516109a38282610b5d565b36903715610a2d57815491611102565b915f5b600c8110610a0257506101a07f66706c082f357f4ac40ac8ebd1bbcbee740759348671a73f1a1badef9fe119ea916109f960209560405192835286830190610c14565ba1604051908152f35b80610a0f60019286610f8e565b51835f52600360205260405f20825f5260205260405f2055016109b6565b5f91611102565b5090610993565b34610194575f366003190112610194576020601254604051908152f35b34610194575f366003190112610194576020601154604051908152f35b346101945761018036600319011261019457366023121561019457604051610a9f61018082610b5d565b803661018411610194576004905b6101848210610b145782610abf610f7b565b8051610b05575f905f5b600c8110610ad8576010839055005b90916020610afc6001928486511515919060ff809160031b9316831b921b19161790565b93019101610ac9565b6370dfed2560e11b5f5260045ffd5b8135801515810361019457815260209182019101610aad565b6080810190811067ffffffffffffffff821117610b4957604052565b634e487b7160e01b5f52604160045260245ffd5b90601f8019910116810190811067ffffffffffffffff821117610b4957604052565b6044359060ff8216820361019457565b6064359060ff8216820361019457565b67ffffffffffffffff8111610b495760051b60200190565b9080601f83011215610194578135610bce81610b9f565b92610bdc6040519485610b5d565b81845260208085019260051b82010192831161019457602001905b828210610c045750505090565b8135815260209182019101610bf7565b905f905b600c8210610c2557505050565b6020806001928551815201930191019091610c18565b919091600c831015610c5457601f908360051c01921690565b634e487b7160e01b5f52603260045260245ffd5b905f905b600c8210610c7957505050565b60208060019285511515815201930191019091610c6c565b600c821015610c545701905f90565b6005039060058211610cae57565b634e487b7160e01b5f52601160045260245ffd5b91908203918211610cae57565b6040519060045f835b600c8210610cf157505050610cef61018083610b5d565b565b6001602081928554815201930191019091610cd8565b6040516101a09190610d198382610b5d565b600c815291601f1901366020840137565b919261018060405190610d3d8183610b5d565b36823750825f52600260205260405f209260018060a01b037f000000000000000000000000000000000000000000000000000000000000000016604051631380204360e31b8152602081600481855afa908115610e6f575f91610e89575b508211610e7a57602060049160405192838092631380204360e31b82525afa908115610e6f575f91610e3d575b508110610e2c5750610e1a93610de891610de0610d07565b918486610fde565b92908315610e2557610df991610cc2565b915b15610e1f5782545b610e0b610d07565b92610e14610d07565b94611102565b905090565b5f610e03565b5091610dfb565b92505050610e3a9150611209565b90565b90506020813d602011610e67575b81610e5860209383610b5d565b8101031261019457515f610dc8565b3d9150610e4b565b6040513d5f823e3d90fd5b63d1a8802560e01b5f5260045ffd5b90506020813d602011610eb3575b81610ea460209383610b5d565b8101031261019457515f610d9b565b3d9150610e97565b6040519060ff60105481811615158452818160081c1615156020850152818160101c1615156040850152818160181c1615156060850152818160201c1615156080850152818160281c16151560a0850152818160301c16151560c0850152818160381c16151560e0850152818160401c161515610100850152818160481c161515610120850152818160501c16151561014085015260581c161515610160830152610cef61018083610b5d565b81810292918115918404141715610cae57565b5f546001600160a01b0316330361075957565b90600c811015610c545760051b0190565b8115610fa9570490565b634e487b7160e01b5f52601260045260245ffd5b8051821015610c545760209160051b010190565b91908201809211610cae57565b9091939492946101809460405195610ff68188610b5d565b36873785965f9687935f5b600c8110611032575050505050670de0b6b3a7640000611028600161102e94015485610f68565b04610fd1565b1090565b9091929394506002860160ff6110488383610c3b565b90549060031b1c1615806110e7575b6110d25760ff611094836110826110786001808416148a8c8560011c61127c565b61068b8389610fbd565b938461108e838a610f8e565b52610c3b565b90549060031b1c166110b2575b506001905b01908894939291611001565b600191996110c56110cb92895490610f68565b90610fd1565b98906110a1565b50805f6110e160019386610f8e565b526110a6565b506110f58260038901610c91565b90549060031b1c15611057565b929593959190915f966101806040519061111c8183610b5d565b36823780975f5b600c8110611135575050505050505050565b61113f8186610f8e565b5161114d575b600101611123565b9961116b61115e8c60038b01610c91565b90549060031b1c88610f68565b906111768c87610f8e565b519081670de0b6b3a76400000291670de0b6b3a7640000830403610cae576110c58d6111f58c60ff6111ba8460026111b36111fb9a60019c610f9f565b9401610c3b565b90549060031b1c165f14611203576111d2908c610fd1565b915b826111df828b610f8e565b5261068b6111ed828c610fbd565b519189610fbd565b90610f68565b9a9050611145565b916111d4565b610180908160405161121b8282610b5d565b3690376040519161122c8184610b5d565b3683375f5b600c811061123e57505090565b600190825f52600360205260405f20815f5260205260405f20546112628286610f8e565b5201611231565b60ff6004199116019060ff8211610cae57565b9190925f146112b25750906111f58260ff6112ab6112a561129f610e3a97611302565b95611269565b92610ca0565b9116611346565b916111f58260ff6112ab6112a561129f6112cb97611302565b60ff9182165f1901918211610cae5760ff610e3a921690610f68565b156112ee57565b634e487b7160e01b5f52600160045260245ffd5b600561131182600510156112e7565b6001916001915b818311156113265750505090565b61133d838260019396949596905f19019402610f9f565b93019190611318565b611352828210156112e7565b61135f60808211156112e7565b6001916001915b818311156113745750505090565b61138b838260019396949596905f19019402610f9f565b9301919061136656fea2646970667358221220a1e501821ff91387307b82de81ab6c6dad9241cf4735bb5c6e5fb318393d366864736f6c634300081c0033",
  "linkReferences": {},
  "deployedLinkReferences": {}
}