{
  "_format": "hh-sol-artifact-1",
  "contractName": "JackpotLPManager",
  "sourceName": "contracts/JackpotLPManager.sol",
  "abi": [
    {
      "inputs": [
        {
          "internalType": "contract IJackpot",
          "name": "_jackpot",
          "type": "address"
        }
      ],
      "stateMutability": "nonpayable",
      "type": "constructor"
    },
    {
      "inputs": [],
      "name": "ExceedsPoolCap",
      "type": "error"
    },
    {
      "inputs": [],
      "name": "InsufficientShares",
      "type": "error"
    },
    {
      "inputs": [],
      "name": "InvalidLPPoolCap",
      "type": "error"
    },
    {
      "inputs": [],
      "name": "InvalidLPSoftCap",
      "type": "error"
    },
    {
      "inputs": [],
      "name": "NothingToWithdraw",
      "type": "error"
    },
    {
      "inputs": [
        {
          "internalType": "address",
          "name": "owner",
          "type": "address"
        }
      ],
      "name": "OwnableInvalidOwner",
      "type": "error"
    },
    {
      "inputs": [
        {
          "internalType": "address",
          "name": "account",
          "type": "address"
        }
      ],
      "name": "OwnableUnauthorizedAccount",
      "type": "error"
    },
    {
      "inputs": [],
      "name": "UnauthorizedCaller",
      "type": "error"
    },
    {
      "inputs": [],
      "name": "ZeroAddress",
      "type": "error"
    },
    {
      "anonymous": false,
      "inputs": [
        {
          "indexed": true,
          "internalType": "address",
          "name": "lpAddress",
          "type": "address"
        },
        {
          "indexed": true,
          "internalType": "uint256",
          "name": "currentDrawingId",
          "type": "uint256"
        },
        {
          "indexed": false,
          "internalType": "uint256",
          "name": "amount",
          "type": "uint256"
        },
        {
          "indexed": false,
          "internalType": "uint256",
          "name": "totalPendingDeposits",
          "type": "uint256"
        }
      ],
      "name": "LpDeposited",
      "type": "event"
    },
    {
      "anonymous": false,
      "inputs": [
        {
          "indexed": true,
          "internalType": "uint256",
          "name": "drawingId",
          "type": "uint256"
        },
        {
          "indexed": false,
          "internalType": "uint256",
          "name": "newLpPoolCap",
          "type": "uint256"
        }
      ],
      "name": "LpPoolCapUpdated",
      "type": "event"
    },
    {
      "anonymous": false,
      "inputs": [
        {
          "indexed": true,
          "internalType": "address",
          "name": "lpAddress",
          "type": "address"
        },
        {
          "indexed": true,
          "internalType": "uint256",
          "name": "currentDrawingId",
          "type": "uint256"
        },
        {
          "indexed": false,
          "internalType": "uint256",
          "name": "amount",
          "type": "uint256"
        }
      ],
      "name": "LpWithdrawFinalized",
      "type": "event"
    },
    {
      "anonymous": false,
      "inputs": [
        {
          "indexed": true,
          "internalType": "address",
          "name": "lpAddress",
          "type": "address"
        },
        {
          "indexed": true,
          "internalType": "uint256",
          "name": "currentDrawingId",
          "type": "uint256"
        },
        {
          "indexed": false,
          "internalType": "uint256",
          "name": "amount",
          "type": "uint256"
        },
        {
          "indexed": false,
          "internalType": "uint256",
          "name": "totalPendingWithdrawals",
          "type": "uint256"
        }
      ],
      "name": "LpWithdrawInitiated",
      "type": "event"
    },
    {
      "anonymous": false,
      "inputs": [
        {
          "indexed": true,
          "internalType": "address",
          "name": "previousOwner",
          "type": "address"
        },
        {
          "indexed": true,
          "internalType": "address",
          "name": "newOwner",
          "type": "address"
        }
      ],
      "name": "OwnershipTransferred",
      "type": "event"
    },
    {
      "inputs": [
        {
          "internalType": "uint256",
          "name": "",
          "type": "uint256"
        }
      ],
      "name": "drawingAccumulator",
      "outputs": [
        {
          "internalType": "uint256",
          "name": "",
          "type": "uint256"
        }
      ],
      "stateMutability": "view",
      "type": "function"
    },
    {
      "inputs": [
        {
          "internalType": "uint256",
          "name": "_drawingId",
          "type": "uint256"
        },
        {
          "internalType": "address",
          "name": "_user",
          "type": "address"
        }
      ],
      "name": "emergencyWithdrawLP",
      "outputs": [
        {
          "internalType": "uint256",
          "name": "withdrawableAmount",
          "type": "uint256"
        }
      ],
      "stateMutability": "nonpayable",
      "type": "function"
    },
    {
      "inputs": [
        {
          "internalType": "uint256",
          "name": "_drawingId",
          "type": "uint256"
        }
      ],
      "name": "getDrawingAccumulator",
      "outputs": [
        {
          "internalType": "uint256",
          "name": "",
          "type": "uint256"
        }
      ],
      "stateMutability": "view",
      "type": "function"
    },
    {
      "inputs": [],
      "name": "getEstimatedNextDrawingLpPool",
      "outputs": [
        {
          "internalType": "uint256",
          "name": "",
          "type": "uint256"
        }
      ],
      "stateMutability": "view",
      "type": "function"
    },
    {
      "inputs": [
        {
          "internalType": "uint256",
          "name": "_drawingId",
          "type": "uint256"
        }
      ],
      "name": "getLPDrawingState",
      "outputs": [
        {
          "components": [
            {
              "internalType": "uint256",
              "name": "lpPoolTotal",
              "type": "uint256"
            },
            {
              "internalType": "uint256",
              "name": "pendingDeposits",
              "type": "uint256"
            },
            {
              "internalType": "uint256",
              "name": "pendingWithdrawals",
              "type": "uint256"
            }
          ],
          "internalType": "struct IJackpotLPManager.LPDrawingState",
          "name": "",
          "type": "tuple"
        }
      ],
      "stateMutability": "view",
      "type": "function"
    },
    {
      "inputs": [
        {
          "internalType": "address",
          "name": "_lp",
          "type": "address"
        }
      ],
      "name": "getLPShares",
      "outputs": [
        {
          "internalType": "uint256",
          "name": "",
          "type": "uint256"
        }
      ],
      "stateMutability": "view",
      "type": "function"
    },
    {
      "inputs": [
        {
          "internalType": "address",
          "name": "_lpAddress",
          "type": "address"
        }
      ],
      "name": "getLPValueBreakdown",
      "outputs": [
        {
          "components": [
            {
              "internalType": "uint256",
              "name": "activeDeposits",
              "type": "uint256"
            },
            {
              "internalType": "uint256",
              "name": "pendingDeposits",
              "type": "uint256"
            },
            {
              "internalType": "uint256",
              "name": "pendingWithdrawals",
              "type": "uint256"
            },
            {
              "internalType": "uint256",
              "name": "claimableWithdrawals",
              "type": "uint256"
            }
          ],
          "internalType": "struct JackpotLPManager.LPValueBreakdown",
          "name": "breakdown",
          "type": "tuple"
        }
      ],
      "stateMutability": "view",
      "type": "function"
    },
    {
      "inputs": [
        {
          "internalType": "address",
          "name": "_lpAddress",
          "type": "address"
        }
      ],
      "name": "getLpInfo",
      "outputs": [
        {
          "components": [
            {
              "internalType": "uint256",
              "name": "consolidatedShares",
              "type": "uint256"
            },
            {
              "components": [
                {
                  "internalType": "uint256",
                  "name": "amount",
                  "type": "uint256"
                },
                {
                  "internalType": "uint256",
                  "name": "drawingId",
                  "type": "uint256"
                }
              ],
              "internalType": "struct JackpotLPManager.DepositInfo",
              "name": "lastDeposit",
              "type": "tuple"
            },
            {
              "components": [
                {
                  "internalType": "uint256",
                  "name": "amountInShares",
                  "type": "uint256"
                },
                {
                  "internalType": "uint256",
                  "name": "drawingId",
                  "type": "uint256"
                }
              ],
              "internalType": "struct JackpotLPManager.WithdrawalInfo",
              "name": "pendingWithdrawal",
              "type": "tuple"
            },
            {
              "internalType": "uint256",
              "name": "claimableWithdrawals",
              "type": "uint256"
            }
          ],
          "internalType": "struct JackpotLPManager.LP",
          "name": "",
          "type": "tuple"
        }
      ],
      "stateMutability": "view",
      "type": "function"
    },
    {
      "inputs": [
        {
          "internalType": "uint256",
          "name": "_drawingId",
          "type": "uint256"
        },
        {
          "internalType": "uint256",
          "name": "_initialLPValue",
          "type": "uint256"
        }
      ],
      "name": "initializeDrawingLP",
      "outputs": [],
      "stateMutability": "nonpayable",
      "type": "function"
    },
    {
      "inputs": [],
      "name": "initializeLP",
      "outputs": [],
      "stateMutability": "nonpayable",
      "type": "function"
    },
    {
      "inputs": [],
      "name": "jackpot",
      "outputs": [
        {
          "internalType": "contract IJackpot",
          "name": "",
          "type": "address"
        }
      ],
      "stateMutability": "view",
      "type": "function"
    },
    {
      "inputs": [
        {
          "internalType": "address",
          "name": "",
          "type": "address"
        }
      ],
      "name": "lpInfo",
      "outputs": [
        {
          "internalType": "uint256",
          "name": "consolidatedShares",
          "type": "uint256"
        },
        {
          "components": [
            {
              "internalType": "uint256",
              "name": "amount",
              "type": "uint256"
            },
            {
              "internalType": "uint256",
              "name": "drawingId",
              "type": "uint256"
            }
          ],
          "internalType": "struct JackpotLPManager.DepositInfo",
          "name": "lastDeposit",
          "type": "tuple"
        },
        {
          "components": [
            {
              "internalType": "uint256",
              "name": "amountInShares",
              "type": "uint256"
            },
            {
              "internalType": "uint256",
              "name": "drawingId",
              "type": "uint256"
            }
          ],
          "internalType": "struct JackpotLPManager.WithdrawalInfo",
          "name": "pendingWithdrawal",
          "type": "tuple"
        },
        {
          "internalType": "uint256",
          "name": "claimableWithdrawals",
          "type": "uint256"
        }
      ],
      "stateMutability": "view",
      "type": "function"
    },
    {
      "inputs": [],
      "name": "lpPoolCap",
      "outputs": [
        {
          "internalType": "uint256",
          "name": "",
          "type": "uint256"
        }
      ],
      "stateMutability": "view",
      "type": "function"
    },
    {
      "inputs": [],
      "name": "owner",
      "outputs": [
        {
          "internalType": "address",
          "name": "",
          "type": "address"
        }
      ],
      "stateMutability": "view",
      "type": "function"
    },
    {
      "inputs": [
        {
          "internalType": "uint256",
          "name": "_drawingId",
          "type": "uint256"
        },
        {
          "internalType": "address",
          "name": "_lpAddress",
          "type": "address"
        },
        {
          "internalType": "uint256",
          "name": "_amount",
          "type": "uint256"
        }
      ],
      "name": "processDeposit",
      "outputs": [],
      "stateMutability": "nonpayable",
      "type": "function"
    },
    {
      "inputs": [
        {
          "internalType": "uint256",
          "name": "_drawingId",
          "type": "uint256"
        },
        {
          "internalType": "uint256",
          "name": "_lpEarnings",
          "type": "uint256"
        },
        {
          "internalType": "uint256",
          "name": "_userWinnings",
          "type": "uint256"
        },
        {
          "internalType": "uint256",
          "name": "_protocolFeeAmount",
          "type": "uint256"
        }
      ],
      "name": "processDrawingSettlement",
      "outputs": [
        {
          "internalType": "uint256",
          "name": "newLPValue",
          "type": "uint256"
        },
        {
          "internalType": "uint256",
          "name": "newAccumulator",
          "type": "uint256"
        }
      ],
      "stateMutability": "nonpayable",
      "type": "function"
    },
    {
      "inputs": [
        {
          "internalType": "uint256",
          "name": "_drawingId",
          "type": "uint256"
        },
        {
          "internalType": "address",
          "name": "_lpAddress",
          "type": "address"
        }
      ],
      "name": "processFinalizeWithdraw",
      "outputs": [
        {
          "internalType": "uint256",
          "name": "withdrawableAmount",
          "type": "uint256"
        }
      ],
      "stateMutability": "nonpayable",
      "type": "function"
    },
    {
      "inputs": [
        {
          "internalType": "uint256",
          "name": "_drawingId",
          "type": "uint256"
        },
        {
          "internalType": "address",
          "name": "_lpAddress",
          "type": "address"
        },
        {
          "internalType": "uint256",
          "name": "_amountToWithdrawInShares",
          "type": "uint256"
        }
      ],
      "name": "processInitiateWithdraw",
      "outputs": [],
      "stateMutability": "nonpayable",
      "type": "function"
    },
    {
      "inputs": [],
      "name": "renounceOwnership",
      "outputs": [],
      "stateMutability": "nonpayable",
      "type": "function"
    },
    {
      "inputs": [
        {
          "internalType": "uint256",
          "name": "_drawingId",
          "type": "uint256"
        },
        {
          "internalType": "uint256",
          "name": "_lpSoftCap",
          "type": "uint256"
        },
        {
          "internalType": "uint256",
          "name": "_lpPoolCap",
          "type": "uint256"
        }
      ],
      "name": "setLPPoolCap",
      "outputs": [],
      "stateMutability": "nonpayable",
      "type": "function"
    },
    {
      "inputs": [
        {
          "internalType": "address",
          "name": "newOwner",
          "type": "address"
        }
      ],
      "name": "transferOwnership",
      "outputs": [],
      "stateMutability": "nonpayable",
      "type": "function"
    }
  ],
  "bytecode": "0x6080346100e757601f61136038819003918201601f19168301916001600160401b038311848410176100eb578084926020946040528339810103126100e757516001600160a01b038116908190036100e75733156100d4575f8054336001600160a01b0319821681178355604051939290916001600160a01b0316907f8be0079c531659141344cd1fd0a4f28419497f9722a3daafe3b4186f6b6457e09080a380156100c557600580546001600160a01b03191691909117905561126090816101008239f35b63d92e233d60e01b5f5260045ffd5b631e4fbdf760e01b5f525f60045260245ffd5b5f80fd5b634e487b7160e01b5f52604160045260245ffdfe6080806040526004361015610012575f80fd5b5f3560e01c9081630784f21214610c5957508063094cebbf14610c205780630af7ff6314610b7657806311067f6a14610afa5780632daef19d146109f55780634d9dfecd1461097d57806356f87e29146108e65780636b31ee01146108be5780636bc73a4f1461081d578063715018a6146107c657806378f3f6fa146106df57806381f7f371146105b257806387317280146105dc578063883a98ad146105b25780638da5cb5b1461058b57806399e0b9e514610526578063a6690cf9146104cf578063deb382c6146103f4578063e5ca0fd7146103d7578063ecf2469c1461018c5763f2fde38b14610103575f80fd5b346101885760203660031901126101885761011c610d40565b610124611204565b6001600160a01b03168015610175575f80546001600160a01b03198116831782556001600160a01b0316907f8be0079c531659141344cd1fd0a4f28419497f9722a3daafe3b4186f6b6457e09080a3005b631e4fbdf760e01b5f525f60045260245ffd5b5f80fd5b34610188576020366003190112610188576101a5610d40565b5f60606040516101b481610d6c565b828152826020820152826040820152015260018060a01b03165f52600260205260405f206004602060018060a01b036005541660405192838092631380204360e31b82525afa9081156103cc575f9161039a575b50815491600181019160028201549281841080610390575b610345575b600583015492600460038201910154928084108061033b575b610308575b5f198101928184116102f45781670de0b6b3a764000061027260809a875f52600360205260405f205490610e58565b0497036102ec5754935b036102e357670de0b6b3a7640000916102a39154905f52600360205260405f205490610e58565b04905b60606040516102b481610d6c565b858152602081019283526040810193845201928352604051938452516020840152516040830152516060820152f35b50505f906102a6565b505f9361027c565b634e487b7160e01b5f52601160045260245ffd5b9361033590670de0b6b3a764000061032e8454875f52600360205260405f205490610e58565b0490610e3e565b93610243565b508154151561023e565b93845490670de0b6b3a7640000820291808304670de0b6b3a764000014901517156102f45761038461038a92865f52600360205260405f205490610e6b565b90610e3e565b93610225565b5080541515610220565b90506020813d6020116103c4575b816103b560209383610dd4565b81010312610188575182610208565b3d91506103a8565b6040513d5f823e3d90fd5b34610188575f366003190112610188576020600454604051908152f35b346101885761040236610e14565b6005546001600160a01b031633036104c057825f52600160205260405f209161043461042e84866111a5565b83610e3e565b600454106104b1577f1508d704d3ababd41a15d0d5298b65cdd7fd16c1c76d47852a99fba76570a11b916001604092818060a01b031694855f526002602052866002855f2061048383826110b7565b848101610491878254610e3e565b90550155016104a1828254610e3e565b80915582519182526020820152a3005b638daeb82d60e01b5f5260045ffd5b635c427cd960e01b5f5260045ffd5b34610188575f366003190112610188576005546001600160a01b031633036104c0575f80526003602052670de0b6b3a76400007f3617319a054d772f909f7c479a2cebe5066e836a939412e32403c99029b92eff55005b34610188576040366003190112610188576005546001600160a01b031633036104c05760405161055581610d9c565b60243581526002602082015f815260408301905f82526004355f52600160205260405f2093518455516001840155519101555f80f35b34610188575f366003190112610188575f546040516001600160a01b039091168152602090f35b34610188576020366003190112610188576004355f526003602052602060405f2054604051908152f35b3461018857608036600319011261018857600554600435906001600160a01b031633036104c0575f815f52600160205260405f2080549261063060643561062b60443561062b60243589610e3e565b610e4b565b9381610672575b6040846106658561062b896001670de0b6b3a764000061065b876002870154610e58565b0493015490610e3e565b9082519182526020820152f35b909250806106a657506106659061062b604094670de0b6b3a76400005b80955f526003602052865f20559450819250610637565b5f19830191908383116102f4576040946106da61062b92610665955f5260036020526106d583895f2054610e58565b610e6b565b61068f565b34610188576106ed36610e14565b6005549091906001600160a01b031633036104c0576001600160a01b03165f81815260026020526040902090919061072584826110b7565b818154106107b7577fb7bb0de52b77bee5c875381cf063faa509490fde7327058a7afa591ce2d6d6d3918161075c8660409461113b565b6003810161076b838254610e3e565b905585600482015561077e828254610e4b565b9055845f5260016020526002825f2001610799828254610e3e565b9055845f5260016020526002825f20015482519182526020820152a3005b633999656760e01b5f5260045ffd5b34610188575f366003190112610188576107de611204565b5f80546001600160a01b0319811682556001600160a01b03167f8be0079c531659141344cd1fd0a4f28419497f9722a3daafe3b4186f6b6457e08280a3005b3461018857604036600319011261018857600435610839610d56565b6005546001600160a01b031633036104c0576001600160a01b03165f81815260026020526040902060059061086e848261113b565b019182549182156108af575f602094557f89073edfed8a6a8e5a06f21b486e362d6ca88639cd89bcc2902ca2d13df9611f84604051858152a3604051908152f35b630686827b60e51b5f5260045ffd5b34610188575f366003190112610188576005546040516001600160a01b039091168152602090f35b34610188575f36600319011261018857600554604051631380204360e31b815290602090829060049082906001600160a01b03165afa9081156103cc575f91610949575b602061094183805f526001835260405f20906111a5565b604051908152f35b90506020813d602011610975575b8161096460209383610dd4565b81010312610188575161094161092a565b3d9150610957565b34610188576020366003190112610188575f6040805161099c81610d9c565b82815282602082015201526004355f526001602052606060405f206040516109c381610d9c565b815491828252604060026001830154926020850193845201549201918252604051928352516020830152516040820152f35b34610188576020366003190112610188576001600160a01b03610a16610d40565b165f526002602052600460405f20602060018060a01b036005541660405193848092631380204360e31b82525afa9182156103cc575f92610ac6575b5080549060026001820191015492831080610abc575b610a78575b602082604051908152f35b5490670de0b6b3a7640000820291808304670de0b6b3a764000014901517156102f457610384610ab6926020945f526003855260405f205490610e6b565b82610a6d565b5080541515610a68565b9091506020813d602011610af2575b81610ae260209383610dd4565b8101031261018857519082610a52565b3d9150610ad5565b34610188576020366003190112610188576001600160a01b03610b1b610d40565b165f52600260205260c060405f208054906020610b3a60018301610df6565b91816005610b4a60038401610df6565b9201549360405195865280518287015201516040850152805160608501520151608083015260a0820152f35b346101885760603660031901126101885760055460043590604435906001600160a01b031633036104c057815f526001602052610bb660405f20836111a5565b806024351115610c11576004548203610bcb57005b8110610c02576020817f6af945e97e89ef45315d2a20b4716fa33ebe80c33ee4bb1ff4696bd7cafb86f992600455604051908152a2005b63289deff160e21b5f5260045ffd5b63ea284de560e01b5f5260045ffd5b3461018857604036600319011261018857610c39610d56565b6005546001600160a01b031633036104c057610941602091600435610e89565b34610188576020366003190112610188575f6060610c75610d40565b92610c7f81610d6c565b828152604051610c8e81610db8565b8381528360208201526020820152604051610ca881610db8565b8381528360208201526040820152015260018060a01b03165f52600260205260c060405f2060405190610cda82610d6c565b805482526020610cec60018301610df6565b91818401928352816005610d0260038401610df6565b9260408701938452015493606086019485526040519551865251805182870152015160408501525180516060850152015160808301525160a0820152f35b600435906001600160a01b038216820361018857565b602435906001600160a01b038216820361018857565b6080810190811067ffffffffffffffff821117610d8857604052565b634e487b7160e01b5f52604160045260245ffd5b6060810190811067ffffffffffffffff821117610d8857604052565b6040810190811067ffffffffffffffff821117610d8857604052565b90601f8019910116810190811067ffffffffffffffff821117610d8857604052565b90604051610e0381610db8565b602060018294805484520154910152565b606090600319011261018857600435906024356001600160a01b0381168103610188579060443590565b919082018092116102f457565b919082039182116102f457565b818102929181159184041417156102f457565b8115610e75570490565b634e487b7160e01b5f52601260045260245ffd5b6001600160a01b039091165f81815260026020526040812090939291908490831561105b57610eb884826110b7565b6001810180549081611024575b505080545f19850185811161101057610ef7610eff92670de0b6b3a76400009286526003602052604086205490610e58565b048097610e3e565b958483526001602052610f1760408420918254610e4b565b9055818155610f26848261113b565b6003810180549081610f73575b50506005610f45910195865490610e3e565b94557f89073edfed8a6a8e5a06f21b486e362d6ca88639cd89bcc2902ca2d13df9611f6020604051868152a3565b600483018054929890925f198101908111610ffc579285610f4595938193610fbe670de0b6b3a7640000610fb68f60059a87526003602052604087205490610e58565b048092610e3e565b9c8b84526001602052610fd960026040862001918254610e4b565b90558a83526001602052610ff260408420918254610e4b565b9055555591610f33565b634e487b7160e01b86526011600452602486fd5b634e487b7160e01b84526011600452602484fd5b61103082859399610e3e565b97868352600160205261104b60016040852001918254610e4b565b9055558160028201555f80610ec5565b939450505f6002600185019482865496868252600160205260016040832001611085898254610e4b565b90555501557f89073edfed8a6a8e5a06f21b486e362d6ca88639cd89bcc2902ca2d13df9611f6020604051858152a390565b9060018201918254918215908115908161112d575b506110d8575b50505050565b670de0b6b3a76400008302928304670de0b6b3a76400001417156102f4575f9281611120611119600287950195865486526003602052604086205490610e6b565b8254610e3e565b905555555f8080806110d2565b90506002830154105f6110cc565b9060038201918254918215159081611197575b5061115857505050565b5f92816111916005670de0b6b3a7640000611186600489970197885488526003602052604088205490610e58565b049201918254610e3e565b90555555565b90506004820154105f61114e565b90816111c6576111c3915061062b5f915b6001815491015490610e3e565b90565b6002810154915f1981019081116102f457670de0b6b3a76400006111fd6111c39461062b935f52600360205260405f205490610e58565b04916111b6565b5f546001600160a01b0316330361121757565b63118cdaa760e01b5f523360045260245ffdfea264697066735822122072b84ce9c6e077351ca16a46c579982fbe919aea984f4221b99a1a34ef7d179664736f6c634300081c0033",
  "linkReferences": {},
  "deployedLinkReferences": {}
}