{
  "_format": "hh-sol-artifact-1",
  "contractName": "MockDepository",
  "sourceName": "contracts/mocks/MockDepository.sol",
  "abi": [
    {
      "inputs": [
        {
          "internalType": "address",
          "name": "_usdc",
          "type": "address"
        }
      ],
      "stateMutability": "nonpayable",
      "type": "constructor"
    },
    {
      "inputs": [
        {
          "internalType": "address",
          "name": "depositor",
          "type": "address"
        },
        {
          "internalType": "address",
          "name": "token",
          "type": "address"
        },
        {
          "internalType": "uint256",
          "name": "amount",
          "type": "uint256"
        },
        {
          "internalType": "bytes32",
          "name": "",
          "type": "bytes32"
        }
      ],
      "name": "depositErc20",
      "outputs": [],
      "stateMutability": "nonpayable",
      "type": "function"
    }
  ],
  "bytecode": "0x608034606f57601f6101e138819003918201601f19168301916001600160401b03831184841017607357808492602094604052833981010312606f57516001600160a01b03811690819003606f575f80546001600160a01b03191691909117905560405161015990816100888239f35b5f80fd5b634e487b7160e01b5f52604160045260245ffdfe6080806040526004361015610012575f80fd5b5f3560e01c63e801795214610025575f80fd5b346100cd5760803660031901126100cd5761003e6100f7565b5061004761010d565b505f80546323b872dd60e01b83523360048401523060248401526044803590840152602091839160649183916001600160a01b03165af180156100ec5761008a57005b60203d6020116100e5575b601f8101601f1916820167ffffffffffffffff8111838210176100d1576020918391604052810103126100cd5751801515036100cd57005b5f80fd5b634e487b7160e01b5f52604160045260245ffd5b503d610095565b6040513d5f823e3d90fd5b600435906001600160a01b03821682036100cd57565b602435906001600160a01b03821682036100cd5756fea2646970667358221220dbdf3c8e1d3d53904d828e7ac579e952f99a297066bf1a914707c73343e7cb6b64736f6c634300081c0033",
  "linkReferences": {},
  "deployedLinkReferences": {}
}