{
  "_format": "hh-sol-artifact-1",
  "contractName": "TicketPickerTester",
  "sourceName": "contracts/mocks/TicketPickerTester.sol",
  "abi": [
    {
      "inputs": [
        {
          "internalType": "uint256",
          "name": "nonce",
          "type": "uint256"
        },
        {
          "internalType": "uint256",
          "name": "count",
          "type": "uint256"
        },
        {
          "internalType": "uint8",
          "name": "ballMax",
          "type": "uint8"
        },
        {
          "internalType": "uint8",
          "name": "bonusballMax",
          "type": "uint8"
        }
      ],
      "name": "pickAuto",
      "outputs": [
        {
          "components": [
            {
              "internalType": "uint8[]",
              "name": "normals",
              "type": "uint8[]"
            },
            {
              "internalType": "uint8",
              "name": "bonusball",
              "type": "uint8"
            }
          ],
          "internalType": "struct IJackpot.Ticket[]",
          "name": "",
          "type": "tuple[]"
        }
      ],
      "stateMutability": "view",
      "type": "function"
    },
    {
      "inputs": [
        {
          "internalType": "uint256",
          "name": "seed",
          "type": "uint256"
        },
        {
          "internalType": "uint256",
          "name": "max",
          "type": "uint256"
        }
      ],
      "name": "pickBonusball",
      "outputs": [
        {
          "internalType": "uint8",
          "name": "",
          "type": "uint8"
        }
      ],
      "stateMutability": "view",
      "type": "function"
    },
    {
      "inputs": [
        {
          "internalType": "uint256",
          "name": "seed",
          "type": "uint256"
        },
        {
          "internalType": "uint256",
          "name": "count",
          "type": "uint256"
        },
        {
          "internalType": "uint8",
          "name": "ballMax",
          "type": "uint8"
        },
        {
          "internalType": "uint8",
          "name": "bonusballMax",
          "type": "uint8"
        }
      ],
      "name": "pickMultipleTickets",
      "outputs": [
        {
          "components": [
            {
              "internalType": "uint8[]",
              "name": "normals",
              "type": "uint8[]"
            },
            {
              "internalType": "uint8",
              "name": "bonusball",
              "type": "uint8"
            }
          ],
          "internalType": "struct IJackpot.Ticket[]",
          "name": "",
          "type": "tuple[]"
        }
      ],
      "stateMutability": "view",
      "type": "function"
    },
    {
      "inputs": [
        {
          "internalType": "uint256",
          "name": "seed",
          "type": "uint256"
        },
        {
          "internalType": "uint8",
          "name": "ballMax",
          "type": "uint8"
        },
        {
          "internalType": "uint8",
          "name": "bonusballMax",
          "type": "uint8"
        }
      ],
      "name": "pickSingleTicket",
      "outputs": [
        {
          "components": [
            {
              "internalType": "uint8[]",
              "name": "normals",
              "type": "uint8[]"
            },
            {
              "internalType": "uint8",
              "name": "bonusball",
              "type": "uint8"
            }
          ],
          "internalType": "struct IJackpot.Ticket",
          "name": "",
          "type": "tuple"
        }
      ],
      "stateMutability": "view",
      "type": "function"
    }
  ],
  "bytecode": "0x60808060405234601557610786908161001a8239f35b5f80fdfe60806040526004361015610011575f80fd5b5f3560e01c80630a93a516146100545780634832a21d1461004f578063503583761461004a576397cf049614610045575f80fd5b610275565b610249565b6101f1565b3461010d5761006236610111565b9061006e939293610308565b60208101907f6d656761706f742e76322e7469636b65745f7069636b65722e7069636b5f6175825261746f60f01b6040820152519020935f1943019443861161010857610104956100f89560405191602083019384523060408401524660608401524460808401524060a083015260c082015260c081526100f060e0826102a6565b5190206106a0565b60405191829182610192565b0390f35b61031d565b5f80fd5b608090600319011261010d57600435906024359060443560ff8116810361010d579060643560ff8116810361010d5790565b9060408101918051926040835283518091526020606084019401905f5b8181106101795750505060ff6020809201511691015290565b825160ff16865260209586019590920191600101610160565b602081016020825282518091526040820191602060408360051b8301019401925f915b8383106101c457505050505090565b90919293946020806101e2600193603f198682030187528951610143565b970193019301919392906101b5565b3461010d57606036600319011261010d5760243560043560ff8216820361010d5760443560ff8116810361010d57610104926102359261022f6102de565b506103ce565b604051918291602083526020830190610143565b3461010d57604036600319011261010d57602061026a602435600435610587565b60ff60405191168152f35b3461010d576101046100f861028936610111565b929190916106a0565b634e487b7160e01b5f52604160045260245ffd5b90601f8019910116810190811067ffffffffffffffff8211176102c857604052565b610292565b604051906102dc6040836102a6565b565b604051906040820182811067ffffffffffffffff8211176102c8576040525f602083606081520152565b604051906103176060836102a6565b60228252565b634e487b7160e01b5f52601160045260245ffd5b67ffffffffffffffff81116102c85760051b60200190565b60208183031261010d5780519067ffffffffffffffff821161010d57019080601f8301121561010d57815161037d81610331565b9261038b60405194856102a6565b81845260208085019260051b82010192831161010d57602001905b8282106103b35750505090565b81518152602091820191016103a6565b6040513d5f823e3d90fd5b90916103d86102de565b5060ff604051936315a409df60e31b855260016004860152166024840152600560448401528160648401525f8360848173__$f7b56129a109e8cfdd105a93f7993108ed$__5af4928315610488575f93610457575b506104549160ff61043f921690610587565b6104476102cd565b92835260ff166020830152565b90565b61043f9193509160ff61047e610454943d805f833e61047681836102a6565b810190610349565b949250509161042d565b6103c3565b1561049457565b60405162461bcd60e51b815260206004820152600b60248201526a092dcecc2d8d2c840dac2f60ab1b6044820152606490fd5b634e487b7160e01b5f52601260045260245ffd5b80156104e7575f190490565b6104c7565b8181029291811591840414171561010857565b60405161050d6060826102a6565b602781527f6d656761706f742e76322e7469636b65745f7069636b65722e7069636b5f626f6020820152661b9d5cd8985b1b60ca1b6040909101527f933002008674cb2c329a0af0ac39a47561460df9fe9ad91186b087d50844116c90565b81156104e7570690565b60ff166001019060ff821161010857565b908015158061061e575b61059a9061048d565b6105ac816105a7816104db565b6104ec565b915b6105e86105f66105bc6104ff565b6040805160208101928352469181019190915230606082015260808101949094529291829060a0820190565b03601f1981018352826102a6565b519020828110156105ae576104549250610619916106139161056c565b60ff1690565b610576565b5060ff811115610591565b9061063382610331565b61064060405191826102a6565b8281528092610651601f1991610331565b01905f5b82811061066157505050565b60209061066c6102de565b82828501015201610655565b805182101561068c5760209160051b010190565b634e487b7160e01b5f52603260045260245ffd5b939290918215610712576106b383610629565b945f5b8481106106c4575050505050565b6040805160208101848152918101839052600192916106f691879187916106ee81606081016105e8565b5190206103ce565b610700828a610678565b5261070b8189610678565b50016106b6565b60405162461bcd60e51b8152602060048201526016602482015275141a58dac8185d081b19585cdd080c481d1a58dad95d60521b6044820152606490fdfea26469706673582212203286ba2ee3ad5a2de05c63709281e15b6cf7b2fe933aa2cb7b5a5771ab03dba664736f6c634300081c0033",
  "linkReferences": {
    "contracts/lib/FisherYatesWithRejection.sol": {
      "FisherYatesRejection": [
        {
          "length": 20,
          "start": 1060
        }
      ]
    }
  },
  "deployedLinkReferences": {
    "contracts/lib/FisherYatesWithRejection.sol": {
      "FisherYatesRejection": [
        {
          "length": 20,
          "start": 1034
        }
      ]
    }
  }
}