{
  "_format": "hh-sol-artifact-1",
  "contractName": "Jackpot",
  "sourceName": "contracts/Jackpot.sol",
  "abi": [
    {
      "inputs": [
        {
          "internalType": "uint256",
          "name": "_drawingDurationInSeconds",
          "type": "uint256"
        },
        {
          "internalType": "uint8",
          "name": "_normalBallMax",
          "type": "uint8"
        },
        {
          "internalType": "uint8",
          "name": "_bonusballMin",
          "type": "uint8"
        },
        {
          "internalType": "uint8",
          "name": "_bonusballSoftCap",
          "type": "uint8"
        },
        {
          "internalType": "uint8",
          "name": "_bonusballHardCap",
          "type": "uint8"
        },
        {
          "internalType": "uint256",
          "name": "_lpEdgeTarget",
          "type": "uint256"
        },
        {
          "internalType": "uint256",
          "name": "_reserveRatio",
          "type": "uint256"
        },
        {
          "internalType": "uint256",
          "name": "_referralFee",
          "type": "uint256"
        },
        {
          "internalType": "uint256",
          "name": "_referralWinShare",
          "type": "uint256"
        },
        {
          "internalType": "uint256",
          "name": "_ticketPrice",
          "type": "uint256"
        },
        {
          "internalType": "uint256",
          "name": "_maxReferrers",
          "type": "uint256"
        },
        {
          "internalType": "uint32",
          "name": "_entropyBaseGasLimit",
          "type": "uint32"
        }
      ],
      "stateMutability": "nonpayable",
      "type": "constructor"
    },
    {
      "inputs": [],
      "name": "ContractAlreadyInitialized",
      "type": "error"
    },
    {
      "inputs": [],
      "name": "ContractNotInitialized",
      "type": "error"
    },
    {
      "inputs": [],
      "name": "DepositAmountZero",
      "type": "error"
    },
    {
      "inputs": [],
      "name": "DrawingNotDue",
      "type": "error"
    },
    {
      "inputs": [],
      "name": "EmergencyEnabled",
      "type": "error"
    },
    {
      "inputs": [],
      "name": "EmergencyModeAlreadyEnabled",
      "type": "error"
    },
    {
      "inputs": [],
      "name": "EmergencyModeNotEngaged",
      "type": "error"
    },
    {
      "inputs": [],
      "name": "InsufficientEntropyFee",
      "type": "error"
    },
    {
      "inputs": [],
      "name": "InvalidBonusball",
      "type": "error"
    },
    {
      "inputs": [],
      "name": "InvalidBonusballHardCap",
      "type": "error"
    },
    {
      "inputs": [],
      "name": "InvalidBonusballMin",
      "type": "error"
    },
    {
      "inputs": [],
      "name": "InvalidBonusballSoftCap",
      "type": "error"
    },
    {
      "inputs": [],
      "name": "InvalidDrawingDuration",
      "type": "error"
    },
    {
      "inputs": [],
      "name": "InvalidDrawingId",
      "type": "error"
    },
    {
      "inputs": [],
      "name": "InvalidGovernancePoolCap",
      "type": "error"
    },
    {
      "inputs": [],
      "name": "InvalidLpEdgeTarget",
      "type": "error"
    },
    {
      "inputs": [],
      "name": "InvalidMaxReferrers",
      "type": "error"
    },
    {
      "inputs": [],
      "name": "InvalidNormalBallMax",
      "type": "error"
    },
    {
      "inputs": [],
      "name": "InvalidNormalsCount",
      "type": "error"
    },
    {
      "inputs": [],
      "name": "InvalidProtocolFee",
      "type": "error"
    },
    {
      "inputs": [],
      "name": "InvalidRecipient",
      "type": "error"
    },
    {
      "inputs": [],
      "name": "InvalidReferralFee",
      "type": "error"
    },
    {
      "inputs": [],
      "name": "InvalidReferralSplitBps",
      "type": "error"
    },
    {
      "inputs": [],
      "name": "InvalidReferralWinShare",
      "type": "error"
    },
    {
      "inputs": [],
      "name": "InvalidReserveRatio",
      "type": "error"
    },
    {
      "inputs": [],
      "name": "InvalidTicketCount",
      "type": "error"
    },
    {
      "inputs": [],
      "name": "InvalidTicketPrice",
      "type": "error"
    },
    {
      "inputs": [],
      "name": "JackpotAlreadyInitialized",
      "type": "error"
    },
    {
      "inputs": [],
      "name": "JackpotLocked",
      "type": "error"
    },
    {
      "inputs": [],
      "name": "JackpotNotInitialized",
      "type": "error"
    },
    {
      "inputs": [],
      "name": "JackpotNotLocked",
      "type": "error"
    },
    {
      "inputs": [],
      "name": "LPDepositsAlreadyInitialized",
      "type": "error"
    },
    {
      "inputs": [],
      "name": "LPDepositsNotInitialized",
      "type": "error"
    },
    {
      "inputs": [],
      "name": "NoLPDeposits",
      "type": "error"
    },
    {
      "inputs": [],
      "name": "NoPrizePool",
      "type": "error"
    },
    {
      "inputs": [],
      "name": "NoReferralFeesToClaim",
      "type": "error"
    },
    {
      "inputs": [],
      "name": "NoTicketsProvided",
      "type": "error"
    },
    {
      "inputs": [],
      "name": "NoTicketsToClaim",
      "type": "error"
    },
    {
      "inputs": [],
      "name": "NotTicketOwner",
      "type": "error"
    },
    {
      "inputs": [
        {
          "internalType": "address",
          "name": "owner",
          "type": "address"
        }
      ],
      "name": "OwnableInvalidOwner",
      "type": "error"
    },
    {
      "inputs": [
        {
          "internalType": "address",
          "name": "account",
          "type": "address"
        }
      ],
      "name": "OwnableUnauthorizedAccount",
      "type": "error"
    },
    {
      "inputs": [],
      "name": "ReentrancyGuardReentrantCall",
      "type": "error"
    },
    {
      "inputs": [],
      "name": "ReferralSplitLengthMismatch",
      "type": "error"
    },
    {
      "inputs": [],
      "name": "ReferralSplitSumInvalid",
      "type": "error"
    },
    {
      "inputs": [
        {
          "internalType": "address",
          "name": "token",
          "type": "address"
        }
      ],
      "name": "SafeERC20FailedOperation",
      "type": "error"
    },
    {
      "inputs": [],
      "name": "TicketFromFutureDrawing",
      "type": "error"
    },
    {
      "inputs": [],
      "name": "TicketNotEligibleForRefund",
      "type": "error"
    },
    {
      "inputs": [],
      "name": "TicketPurchasesAlreadyDisabled",
      "type": "error"
    },
    {
      "inputs": [],
      "name": "TicketPurchasesAlreadyEnabled",
      "type": "error"
    },
    {
      "inputs": [],
      "name": "TicketPurchasesDisabled",
      "type": "error"
    },
    {
      "inputs": [],
      "name": "TooManyReferrers",
      "type": "error"
    },
    {
      "inputs": [],
      "name": "Uint8OutOfBounds",
      "type": "error"
    },
    {
      "inputs": [],
      "name": "UnauthorizedEntropyCaller",
      "type": "error"
    },
    {
      "inputs": [],
      "name": "WithdrawAmountZero",
      "type": "error"
    },
    {
      "inputs": [],
      "name": "ZeroAddress",
      "type": "error"
    },
    {
      "anonymous": false,
      "inputs": [
        {
          "indexed": true,
          "internalType": "uint256",
          "name": "drawingId",
          "type": "uint256"
        },
        {
          "indexed": false,
          "internalType": "uint256",
          "name": "uncappedValue",
          "type": "uint256"
        },
        {
          "indexed": false,
          "internalType": "uint8",
          "name": "hardCapValue",
          "type": "uint8"
        }
      ],
      "name": "BonusballHardCapHit",
      "type": "event"
    },
    {
      "anonymous": false,
      "inputs": [
        {
          "indexed": true,
          "internalType": "uint256",
          "name": "drawingId",
          "type": "uint256"
        },
        {
          "indexed": false,
          "internalType": "uint8",
          "name": "oldValue",
          "type": "uint8"
        },
        {
          "indexed": false,
          "internalType": "uint8",
          "name": "newValue",
          "type": "uint8"
        }
      ],
      "name": "BonusballHardCapUpdated",
      "type": "event"
    },
    {
      "anonymous": false,
      "inputs": [
        {
          "indexed": true,
          "internalType": "uint256",
          "name": "drawingId",
          "type": "uint256"
        },
        {
          "indexed": false,
          "internalType": "uint8",
          "name": "oldValue",
          "type": "uint8"
        },
        {
          "indexed": false,
          "internalType": "uint8",
          "name": "newValue",
          "type": "uint8"
        }
      ],
      "name": "BonusballMinUpdated",
      "type": "event"
    },
    {
      "anonymous": false,
      "inputs": [
        {
          "indexed": true,
          "internalType": "uint256",
          "name": "drawingId",
          "type": "uint256"
        },
        {
          "indexed": false,
          "internalType": "uint8",
          "name": "oldValue",
          "type": "uint8"
        },
        {
          "indexed": false,
          "internalType": "uint8",
          "name": "newValue",
          "type": "uint8"
        }
      ],
      "name": "BonusballSoftCapUpdated",
      "type": "event"
    },
    {
      "anonymous": false,
      "inputs": [
        {
          "indexed": true,
          "internalType": "uint256",
          "name": "drawingId",
          "type": "uint256"
        },
        {
          "indexed": false,
          "internalType": "uint256",
          "name": "oldValue",
          "type": "uint256"
        },
        {
          "indexed": false,
          "internalType": "uint256",
          "name": "newValue",
          "type": "uint256"
        }
      ],
      "name": "DrawingDurationUpdated",
      "type": "event"
    },
    {
      "anonymous": false,
      "inputs": [
        {
          "indexed": true,
          "internalType": "uint256",
          "name": "drawingId",
          "type": "uint256"
        }
      ],
      "name": "EmergencyModeDisabled",
      "type": "event"
    },
    {
      "anonymous": false,
      "inputs": [
        {
          "indexed": true,
          "internalType": "uint256",
          "name": "drawingId",
          "type": "uint256"
        }
      ],
      "name": "EmergencyModeEnabled",
      "type": "event"
    },
    {
      "anonymous": false,
      "inputs": [
        {
          "indexed": true,
          "internalType": "uint256",
          "name": "drawingId",
          "type": "uint256"
        },
        {
          "indexed": false,
          "internalType": "uint32",
          "name": "oldValue",
          "type": "uint32"
        },
        {
          "indexed": false,
          "internalType": "uint32",
          "name": "newValue",
          "type": "uint32"
        }
      ],
      "name": "EntropyBaseGasLimitUpdated",
      "type": "event"
    },
    {
      "anonymous": false,
      "inputs": [
        {
          "indexed": true,
          "internalType": "uint256",
          "name": "drawingId",
          "type": "uint256"
        },
        {
          "indexed": false,
          "internalType": "address",
          "name": "oldEntropy",
          "type": "address"
        },
        {
          "indexed": false,
          "internalType": "address",
          "name": "newEntropy",
          "type": "address"
        }
      ],
      "name": "EntropyUpdated",
      "type": "event"
    },
    {
      "anonymous": false,
      "inputs": [
        {
          "indexed": true,
          "internalType": "uint256",
          "name": "drawingId",
          "type": "uint256"
        },
        {
          "indexed": false,
          "internalType": "uint32",
          "name": "oldValue",
          "type": "uint32"
        },
        {
          "indexed": false,
          "internalType": "uint32",
          "name": "newValue",
          "type": "uint32"
        }
      ],
      "name": "EntropyVariableGasLimitUpdated",
      "type": "event"
    },
    {
      "anonymous": false,
      "inputs": [
        {
          "indexed": true,
          "internalType": "uint256",
          "name": "drawingId",
          "type": "uint256"
        },
        {
          "indexed": false,
          "internalType": "uint256",
          "name": "oldValue",
          "type": "uint256"
        },
        {
          "indexed": false,
          "internalType": "uint256",
          "name": "newValue",
          "type": "uint256"
        }
      ],
      "name": "GovernancePoolCapUpdated",
      "type": "event"
    },
    {
      "anonymous": false,
      "inputs": [
        {
          "indexed": true,
          "internalType": "uint256",
          "name": "drawingId",
          "type": "uint256"
        }
      ],
      "name": "JackpotLocked",
      "type": "event"
    },
    {
      "anonymous": false,
      "inputs": [
        {
          "indexed": true,
          "internalType": "uint256",
          "name": "drawingId",
          "type": "uint256"
        },
        {
          "indexed": false,
          "internalType": "uint256",
          "name": "entropyGasLimit",
          "type": "uint256"
        },
        {
          "indexed": false,
          "internalType": "uint256",
          "name": "fee",
          "type": "uint256"
        }
      ],
      "name": "JackpotRunRequested",
      "type": "event"
    },
    {
      "anonymous": false,
      "inputs": [
        {
          "indexed": true,
          "internalType": "uint256",
          "name": "drawingId",
          "type": "uint256"
        },
        {
          "indexed": false,
          "internalType": "uint256",
          "name": "lpEarnings",
          "type": "uint256"
        },
        {
          "indexed": false,
          "internalType": "uint256",
          "name": "userWinnings",
          "type": "uint256"
        },
        {
          "indexed": false,
          "internalType": "uint8",
          "name": "winningBonusball",
          "type": "uint8"
        },
        {
          "indexed": false,
          "internalType": "uint256",
          "name": "winningNumbers",
          "type": "uint256"
        },
        {
          "indexed": false,
          "internalType": "uint256",
          "name": "newDrawingAccumulator",
          "type": "uint256"
        }
      ],
      "name": "JackpotSettled",
      "type": "event"
    },
    {
      "anonymous": false,
      "inputs": [
        {
          "indexed": true,
          "internalType": "uint256",
          "name": "drawingId",
          "type": "uint256"
        }
      ],
      "name": "JackpotUnlocked",
      "type": "event"
    },
    {
      "anonymous": false,
      "inputs": [
        {
          "indexed": true,
          "internalType": "uint256",
          "name": "drawingId",
          "type": "uint256"
        },
        {
          "indexed": false,
          "internalType": "uint256",
          "name": "amount",
          "type": "uint256"
        }
      ],
      "name": "LpEarningsUpdated",
      "type": "event"
    },
    {
      "anonymous": false,
      "inputs": [
        {
          "indexed": true,
          "internalType": "uint256",
          "name": "drawingId",
          "type": "uint256"
        },
        {
          "indexed": false,
          "internalType": "uint256",
          "name": "oldValue",
          "type": "uint256"
        },
        {
          "indexed": false,
          "internalType": "uint256",
          "name": "newValue",
          "type": "uint256"
        }
      ],
      "name": "LpEdgeTargetUpdated",
      "type": "event"
    },
    {
      "anonymous": false,
      "inputs": [
        {
          "indexed": true,
          "internalType": "uint256",
          "name": "drawingId",
          "type": "uint256"
        },
        {
          "indexed": false,
          "internalType": "uint256",
          "name": "oldValue",
          "type": "uint256"
        },
        {
          "indexed": false,
          "internalType": "uint256",
          "name": "newValue",
          "type": "uint256"
        }
      ],
      "name": "MaxReferrersUpdated",
      "type": "event"
    },
    {
      "anonymous": false,
      "inputs": [
        {
          "indexed": true,
          "internalType": "uint256",
          "name": "drawingId",
          "type": "uint256"
        },
        {
          "indexed": false,
          "internalType": "uint256",
          "name": "lpPoolTotal",
          "type": "uint256"
        },
        {
          "indexed": false,
          "internalType": "uint256",
          "name": "prizePool",
          "type": "uint256"
        },
        {
          "indexed": false,
          "internalType": "uint256",
          "name": "ticketPrice",
          "type": "uint256"
        },
        {
          "indexed": false,
          "internalType": "uint256",
          "name": "normalBallMax",
          "type": "uint256"
        },
        {
          "indexed": false,
          "internalType": "uint8",
          "name": "bonusballMax",
          "type": "uint8"
        },
        {
          "indexed": false,
          "internalType": "uint256",
          "name": "referralWinShare",
          "type": "uint256"
        },
        {
          "indexed": false,
          "internalType": "uint256",
          "name": "drawingTime",
          "type": "uint256"
        }
      ],
      "name": "NewDrawingInitialized",
      "type": "event"
    },
    {
      "anonymous": false,
      "inputs": [
        {
          "indexed": true,
          "internalType": "uint256",
          "name": "drawingId",
          "type": "uint256"
        },
        {
          "indexed": false,
          "internalType": "uint8",
          "name": "oldValue",
          "type": "uint8"
        },
        {
          "indexed": false,
          "internalType": "uint8",
          "name": "newValue",
          "type": "uint8"
        }
      ],
      "name": "NormalBallMaxUpdated",
      "type": "event"
    },
    {
      "anonymous": false,
      "inputs": [
        {
          "indexed": true,
          "internalType": "address",
          "name": "previousOwner",
          "type": "address"
        },
        {
          "indexed": true,
          "internalType": "address",
          "name": "newOwner",
          "type": "address"
        }
      ],
      "name": "OwnershipTransferStarted",
      "type": "event"
    },
    {
      "anonymous": false,
      "inputs": [
        {
          "indexed": true,
          "internalType": "address",
          "name": "previousOwner",
          "type": "address"
        },
        {
          "indexed": true,
          "internalType": "address",
          "name": "newOwner",
          "type": "address"
        }
      ],
      "name": "OwnershipTransferred",
      "type": "event"
    },
    {
      "anonymous": false,
      "inputs": [
        {
          "indexed": true,
          "internalType": "uint256",
          "name": "drawingId",
          "type": "uint256"
        },
        {
          "indexed": false,
          "internalType": "address",
          "name": "oldPayoutCalculator",
          "type": "address"
        },
        {
          "indexed": false,
          "internalType": "address",
          "name": "newPayoutCalculator",
          "type": "address"
        }
      ],
      "name": "PayoutCalculatorUpdated",
      "type": "event"
    },
    {
      "anonymous": false,
      "inputs": [
        {
          "indexed": true,
          "internalType": "uint256",
          "name": "drawingId",
          "type": "uint256"
        },
        {
          "indexed": true,
          "internalType": "address",
          "name": "oldAddress",
          "type": "address"
        },
        {
          "indexed": true,
          "internalType": "address",
          "name": "newAddress",
          "type": "address"
        }
      ],
      "name": "ProtocolFeeAddressUpdated",
      "type": "event"
    },
    {
      "anonymous": false,
      "inputs": [
        {
          "indexed": true,
          "internalType": "uint256",
          "name": "drawingId",
          "type": "uint256"
        },
        {
          "indexed": false,
          "internalType": "uint256",
          "name": "amount",
          "type": "uint256"
        }
      ],
      "name": "ProtocolFeeCollected",
      "type": "event"
    },
    {
      "anonymous": false,
      "inputs": [
        {
          "indexed": true,
          "internalType": "uint256",
          "name": "drawingId",
          "type": "uint256"
        },
        {
          "indexed": false,
          "internalType": "uint256",
          "name": "oldValue",
          "type": "uint256"
        },
        {
          "indexed": false,
          "internalType": "uint256",
          "name": "newValue",
          "type": "uint256"
        }
      ],
      "name": "ProtocolFeeThresholdUpdated",
      "type": "event"
    },
    {
      "anonymous": false,
      "inputs": [
        {
          "indexed": true,
          "internalType": "uint256",
          "name": "drawingId",
          "type": "uint256"
        },
        {
          "indexed": false,
          "internalType": "uint256",
          "name": "oldValue",
          "type": "uint256"
        },
        {
          "indexed": false,
          "internalType": "uint256",
          "name": "newValue",
          "type": "uint256"
        }
      ],
      "name": "ProtocolFeeUpdated",
      "type": "event"
    },
    {
      "anonymous": false,
      "inputs": [
        {
          "indexed": true,
          "internalType": "address",
          "name": "referrer",
          "type": "address"
        },
        {
          "indexed": false,
          "internalType": "uint256",
          "name": "amount",
          "type": "uint256"
        }
      ],
      "name": "ReferralFeeCollected",
      "type": "event"
    },
    {
      "anonymous": false,
      "inputs": [
        {
          "indexed": true,
          "internalType": "uint256",
          "name": "drawingId",
          "type": "uint256"
        },
        {
          "indexed": false,
          "internalType": "uint256",
          "name": "oldValue",
          "type": "uint256"
        },
        {
          "indexed": false,
          "internalType": "uint256",
          "name": "newValue",
          "type": "uint256"
        }
      ],
      "name": "ReferralFeeUpdated",
      "type": "event"
    },
    {
      "anonymous": false,
      "inputs": [
        {
          "indexed": true,
          "internalType": "address",
          "name": "userAddress",
          "type": "address"
        },
        {
          "indexed": false,
          "internalType": "uint256",
          "name": "amount",
          "type": "uint256"
        }
      ],
      "name": "ReferralFeesClaimed",
      "type": "event"
    },
    {
      "anonymous": false,
      "inputs": [
        {
          "indexed": true,
          "internalType": "bytes32",
          "name": "referralSchemeId",
          "type": "bytes32"
        },
        {
          "indexed": false,
          "internalType": "address[]",
          "name": "referrers",
          "type": "address[]"
        },
        {
          "indexed": false,
          "internalType": "uint256[]",
          "name": "referralSplit",
          "type": "uint256[]"
        }
      ],
      "name": "ReferralSchemeAdded",
      "type": "event"
    },
    {
      "anonymous": false,
      "inputs": [
        {
          "indexed": true,
          "internalType": "uint256",
          "name": "drawingId",
          "type": "uint256"
        },
        {
          "indexed": false,
          "internalType": "uint256",
          "name": "oldValue",
          "type": "uint256"
        },
        {
          "indexed": false,
          "internalType": "uint256",
          "name": "newValue",
          "type": "uint256"
        }
      ],
      "name": "ReferralWinShareUpdated",
      "type": "event"
    },
    {
      "anonymous": false,
      "inputs": [
        {
          "indexed": true,
          "internalType": "uint256",
          "name": "drawingId",
          "type": "uint256"
        },
        {
          "indexed": false,
          "internalType": "uint256",
          "name": "oldValue",
          "type": "uint256"
        },
        {
          "indexed": false,
          "internalType": "uint256",
          "name": "newValue",
          "type": "uint256"
        }
      ],
      "name": "ReserveRatioUpdated",
      "type": "event"
    },
    {
      "anonymous": false,
      "inputs": [
        {
          "indexed": true,
          "internalType": "address",
          "name": "buyer",
          "type": "address"
        },
        {
          "indexed": true,
          "internalType": "address",
          "name": "recipient",
          "type": "address"
        },
        {
          "indexed": true,
          "internalType": "uint256",
          "name": "currentDrawingId",
          "type": "uint256"
        },
        {
          "indexed": false,
          "internalType": "uint256",
          "name": "numberOfTickets",
          "type": "uint256"
        },
        {
          "indexed": false,
          "internalType": "uint256",
          "name": "lpEarnings",
          "type": "uint256"
        },
        {
          "indexed": false,
          "internalType": "uint256",
          "name": "referralFees",
          "type": "uint256"
        }
      ],
      "name": "TicketOrderProcessed",
      "type": "event"
    },
    {
      "anonymous": false,
      "inputs": [
        {
          "indexed": true,
          "internalType": "uint256",
          "name": "drawingId",
          "type": "uint256"
        },
        {
          "indexed": false,
          "internalType": "uint256",
          "name": "oldValue",
          "type": "uint256"
        },
        {
          "indexed": false,
          "internalType": "uint256",
          "name": "newValue",
          "type": "uint256"
        }
      ],
      "name": "TicketPriceUpdated",
      "type": "event"
    },
    {
      "anonymous": false,
      "inputs": [
        {
          "indexed": true,
          "internalType": "address",
          "name": "recipient",
          "type": "address"
        },
        {
          "indexed": true,
          "internalType": "uint256",
          "name": "currentDrawingId",
          "type": "uint256"
        },
        {
          "indexed": true,
          "internalType": "bytes32",
          "name": "source",
          "type": "bytes32"
        },
        {
          "indexed": false,
          "internalType": "uint256",
          "name": "userTicketId",
          "type": "uint256"
        },
        {
          "indexed": false,
          "internalType": "uint8[]",
          "name": "normals",
          "type": "uint8[]"
        },
        {
          "indexed": false,
          "internalType": "uint8",
          "name": "bonusball",
          "type": "uint8"
        },
        {
          "indexed": false,
          "internalType": "bytes32",
          "name": "referralScheme",
          "type": "bytes32"
        }
      ],
      "name": "TicketPurchased",
      "type": "event"
    },
    {
      "anonymous": false,
      "inputs": [
        {
          "indexed": true,
          "internalType": "uint256",
          "name": "drawingId",
          "type": "uint256"
        }
      ],
      "name": "TicketPurchasesDisabled",
      "type": "event"
    },
    {
      "anonymous": false,
      "inputs": [
        {
          "indexed": true,
          "internalType": "uint256",
          "name": "drawingId",
          "type": "uint256"
        }
      ],
      "name": "TicketPurchasesEnabled",
      "type": "event"
    },
    {
      "anonymous": false,
      "inputs": [
        {
          "indexed": true,
          "internalType": "uint256",
          "name": "ticketId",
          "type": "uint256"
        }
      ],
      "name": "TicketRefunded",
      "type": "event"
    },
    {
      "anonymous": false,
      "inputs": [
        {
          "indexed": true,
          "internalType": "address",
          "name": "userAddress",
          "type": "address"
        },
        {
          "indexed": true,
          "internalType": "uint256",
          "name": "drawingId",
          "type": "uint256"
        },
        {
          "indexed": false,
          "internalType": "uint256",
          "name": "userTicketId",
          "type": "uint256"
        },
        {
          "indexed": false,
          "internalType": "uint256",
          "name": "matchedNormals",
          "type": "uint256"
        },
        {
          "indexed": false,
          "internalType": "bool",
          "name": "bonusballMatch",
          "type": "bool"
        },
        {
          "indexed": false,
          "internalType": "uint256",
          "name": "winningsAmount",
          "type": "uint256"
        }
      ],
      "name": "TicketWinningsClaimed",
      "type": "event"
    },
    {
      "anonymous": false,
      "inputs": [
        {
          "indexed": true,
          "internalType": "uint256",
          "name": "drawingId",
          "type": "uint256"
        },
        {
          "indexed": false,
          "internalType": "uint256[]",
          "name": "winningNormals",
          "type": "uint256[]"
        },
        {
          "indexed": false,
          "internalType": "uint256",
          "name": "winningBonusball",
          "type": "uint256"
        },
        {
          "indexed": false,
          "internalType": "uint256[]",
          "name": "uniqueResult",
          "type": "uint256[]"
        },
        {
          "indexed": false,
          "internalType": "uint256[]",
          "name": "dupResult",
          "type": "uint256[]"
        }
      ],
      "name": "WinnersCalculated",
      "type": "event"
    },
    {
      "inputs": [],
      "name": "acceptOwnership",
      "outputs": [],
      "stateMutability": "nonpayable",
      "type": "function"
    },
    {
      "inputs": [],
      "name": "allowTicketPurchases",
      "outputs": [
        {
          "internalType": "bool",
          "name": "",
          "type": "bool"
        }
      ],
      "stateMutability": "view",
      "type": "function"
    },
    {
      "inputs": [],
      "name": "bonusballHardCap",
      "outputs": [
        {
          "internalType": "uint8",
          "name": "",
          "type": "uint8"
        }
      ],
      "stateMutability": "view",
      "type": "function"
    },
    {
      "inputs": [],
      "name": "bonusballMin",
      "outputs": [
        {
          "internalType": "uint8",
          "name": "",
          "type": "uint8"
        }
      ],
      "stateMutability": "view",
      "type": "function"
    },
    {
      "inputs": [],
      "name": "bonusballSoftCap",
      "outputs": [
        {
          "internalType": "uint8",
          "name": "",
          "type": "uint8"
        }
      ],
      "stateMutability": "view",
      "type": "function"
    },
    {
      "inputs": [
        {
          "components": [
            {
              "internalType": "uint8[]",
              "name": "normals",
              "type": "uint8[]"
            },
            {
              "internalType": "uint8",
              "name": "bonusball",
              "type": "uint8"
            }
          ],
          "internalType": "struct IJackpot.Ticket[]",
          "name": "_tickets",
          "type": "tuple[]"
        },
        {
          "internalType": "address",
          "name": "_recipient",
          "type": "address"
        },
        {
          "internalType": "address[]",
          "name": "_referrers",
          "type": "address[]"
        },
        {
          "internalType": "uint256[]",
          "name": "_referralSplit",
          "type": "uint256[]"
        },
        {
          "internalType": "bytes32",
          "name": "_source",
          "type": "bytes32"
        }
      ],
      "name": "buyTickets",
      "outputs": [
        {
          "internalType": "uint256[]",
          "name": "ticketIds",
          "type": "uint256[]"
        }
      ],
      "stateMutability": "nonpayable",
      "type": "function"
    },
    {
      "inputs": [
        {
          "internalType": "uint256",
          "name": "_drawingId",
          "type": "uint256"
        },
        {
          "components": [
            {
              "internalType": "uint8[]",
              "name": "normals",
              "type": "uint8[]"
            },
            {
              "internalType": "uint8",
              "name": "bonusball",
              "type": "uint8"
            }
          ],
          "internalType": "struct IJackpot.Ticket[]",
          "name": "_tickets",
          "type": "tuple[]"
        }
      ],
      "name": "checkIfTicketsBought",
      "outputs": [
        {
          "internalType": "bool[]",
          "name": "",
          "type": "bool[]"
        }
      ],
      "stateMutability": "view",
      "type": "function"
    },
    {
      "inputs": [],
      "name": "claimReferralFees",
      "outputs": [],
      "stateMutability": "nonpayable",
      "type": "function"
    },
    {
      "inputs": [
        {
          "internalType": "uint256[]",
          "name": "_userTicketIds",
          "type": "uint256[]"
        }
      ],
      "name": "claimWinnings",
      "outputs": [],
      "stateMutability": "nonpayable",
      "type": "function"
    },
    {
      "inputs": [],
      "name": "currentDrawingId",
      "outputs": [
        {
          "internalType": "uint256",
          "name": "",
          "type": "uint256"
        }
      ],
      "stateMutability": "view",
      "type": "function"
    },
    {
      "inputs": [],
      "name": "disableTicketPurchases",
      "outputs": [],
      "stateMutability": "nonpayable",
      "type": "function"
    },
    {
      "inputs": [],
      "name": "drawingDurationInSeconds",
      "outputs": [
        {
          "internalType": "uint256",
          "name": "",
          "type": "uint256"
        }
      ],
      "stateMutability": "view",
      "type": "function"
    },
    {
      "inputs": [],
      "name": "emergencyMode",
      "outputs": [
        {
          "internalType": "bool",
          "name": "",
          "type": "bool"
        }
      ],
      "stateMutability": "view",
      "type": "function"
    },
    {
      "inputs": [
        {
          "internalType": "uint256[]",
          "name": "_userTicketIds",
          "type": "uint256[]"
        }
      ],
      "name": "emergencyRefundTickets",
      "outputs": [],
      "stateMutability": "nonpayable",
      "type": "function"
    },
    {
      "inputs": [],
      "name": "emergencyWithdrawLP",
      "outputs": [],
      "stateMutability": "nonpayable",
      "type": "function"
    },
    {
      "inputs": [],
      "name": "enableEmergencyMode",
      "outputs": [],
      "stateMutability": "nonpayable",
      "type": "function"
    },
    {
      "inputs": [],
      "name": "enableTicketPurchases",
      "outputs": [],
      "stateMutability": "nonpayable",
      "type": "function"
    },
    {
      "inputs": [],
      "name": "entropy",
      "outputs": [
        {
          "internalType": "contract IScaledEntropyProvider",
          "name": "",
          "type": "address"
        }
      ],
      "stateMutability": "view",
      "type": "function"
    },
    {
      "inputs": [],
      "name": "entropyBaseGasLimit",
      "outputs": [
        {
          "internalType": "uint32",
          "name": "",
          "type": "uint32"
        }
      ],
      "stateMutability": "view",
      "type": "function"
    },
    {
      "inputs": [],
      "name": "entropyVariableGasLimit",
      "outputs": [
        {
          "internalType": "uint32",
          "name": "",
          "type": "uint32"
        }
      ],
      "stateMutability": "view",
      "type": "function"
    },
    {
      "inputs": [],
      "name": "finalizeWithdraw",
      "outputs": [],
      "stateMutability": "nonpayable",
      "type": "function"
    },
    {
      "inputs": [
        {
          "internalType": "uint256",
          "name": "_drawingId",
          "type": "uint256"
        }
      ],
      "name": "getDrawingState",
      "outputs": [
        {
          "components": [
            {
              "internalType": "uint256",
              "name": "prizePool",
              "type": "uint256"
            },
            {
              "internalType": "uint256",
              "name": "ticketPrice",
              "type": "uint256"
            },
            {
              "internalType": "uint256",
              "name": "edgePerTicket",
              "type": "uint256"
            },
            {
              "internalType": "uint256",
              "name": "referralWinShare",
              "type": "uint256"
            },
            {
              "internalType": "uint256",
              "name": "referralFee",
              "type": "uint256"
            },
            {
              "internalType": "uint256",
              "name": "globalTicketsBought",
              "type": "uint256"
            },
            {
              "internalType": "uint256",
              "name": "lpEarnings",
              "type": "uint256"
            },
            {
              "internalType": "uint256",
              "name": "drawingTime",
              "type": "uint256"
            },
            {
              "internalType": "uint256",
              "name": "winningTicket",
              "type": "uint256"
            },
            {
              "internalType": "uint8",
              "name": "ballMax",
              "type": "uint8"
            },
            {
              "internalType": "uint8",
              "name": "bonusballMax",
              "type": "uint8"
            },
            {
              "internalType": "contract IPayoutCalculator",
              "name": "payoutCalculator",
              "type": "address"
            },
            {
              "internalType": "bool",
              "name": "jackpotLock",
              "type": "bool"
            }
          ],
          "internalType": "struct IJackpot.DrawingState",
          "name": "",
          "type": "tuple"
        }
      ],
      "stateMutability": "view",
      "type": "function"
    },
    {
      "inputs": [
        {
          "internalType": "uint256",
          "name": "_drawingId",
          "type": "uint256"
        }
      ],
      "name": "getDrawingTierPayouts",
      "outputs": [
        {
          "internalType": "uint256[12]",
          "name": "",
          "type": "uint256[12]"
        }
      ],
      "stateMutability": "view",
      "type": "function"
    },
    {
      "inputs": [],
      "name": "getEntropyCallbackFee",
      "outputs": [
        {
          "internalType": "uint256",
          "name": "fee",
          "type": "uint256"
        }
      ],
      "stateMutability": "view",
      "type": "function"
    },
    {
      "inputs": [
        {
          "internalType": "bytes32",
          "name": "_referralSchemeId",
          "type": "bytes32"
        }
      ],
      "name": "getReferralScheme",
      "outputs": [
        {
          "components": [
            {
              "internalType": "address[]",
              "name": "referrers",
              "type": "address[]"
            },
            {
              "internalType": "uint256[]",
              "name": "referralSplit",
              "type": "uint256[]"
            }
          ],
          "internalType": "struct Jackpot.ReferralScheme",
          "name": "",
          "type": "tuple"
        }
      ],
      "stateMutability": "view",
      "type": "function"
    },
    {
      "inputs": [
        {
          "internalType": "uint256",
          "name": "_drawingId",
          "type": "uint256"
        },
        {
          "internalType": "uint8[]",
          "name": "_normals",
          "type": "uint8[]"
        },
        {
          "internalType": "uint8",
          "name": "_bonusball",
          "type": "uint8"
        }
      ],
      "name": "getSubsetCount",
      "outputs": [
        {
          "components": [
            {
              "internalType": "uint128",
              "name": "count",
              "type": "uint128"
            },
            {
              "internalType": "uint128",
              "name": "dupCount",
              "type": "uint128"
            }
          ],
          "internalType": "struct TicketComboTracker.ComboCount",
          "name": "",
          "type": "tuple"
        }
      ],
      "stateMutability": "view",
      "type": "function"
    },
    {
      "inputs": [
        {
          "internalType": "uint256[]",
          "name": "_ticketIds",
          "type": "uint256[]"
        }
      ],
      "name": "getTicketTierIds",
      "outputs": [
        {
          "internalType": "uint256[]",
          "name": "tierIds",
          "type": "uint256[]"
        }
      ],
      "stateMutability": "view",
      "type": "function"
    },
    {
      "inputs": [
        {
          "internalType": "uint256",
          "name": "_drawingId",
          "type": "uint256"
        },
        {
          "internalType": "uint256",
          "name": "_packedTicket",
          "type": "uint256"
        }
      ],
      "name": "getUnpackedTicket",
      "outputs": [
        {
          "internalType": "uint8[]",
          "name": "normals",
          "type": "uint8[]"
        },
        {
          "internalType": "uint8",
          "name": "bonusball",
          "type": "uint8"
        }
      ],
      "stateMutability": "view",
      "type": "function"
    },
    {
      "inputs": [],
      "name": "governancePoolCap",
      "outputs": [
        {
          "internalType": "uint256",
          "name": "",
          "type": "uint256"
        }
      ],
      "stateMutability": "view",
      "type": "function"
    },
    {
      "inputs": [
        {
          "internalType": "contract IERC20",
          "name": "_usdc",
          "type": "address"
        },
        {
          "internalType": "contract IJackpotLPManager",
          "name": "_jackpotLPManager",
          "type": "address"
        },
        {
          "internalType": "contract IJackpotTicketNFT",
          "name": "_jackpotNFT",
          "type": "address"
        },
        {
          "internalType": "contract IScaledEntropyProvider",
          "name": "_entropy",
          "type": "address"
        },
        {
          "internalType": "contract IPayoutCalculator",
          "name": "_payoutCalculator",
          "type": "address"
        },
        {
          "internalType": "address",
          "name": "_protocolFeeAddress",
          "type": "address"
        },
        {
          "internalType": "uint256",
          "name": "_protocolFee",
          "type": "uint256"
        },
        {
          "internalType": "uint256",
          "name": "_protocolFeeThreshold",
          "type": "uint256"
        }
      ],
      "name": "initialize",
      "outputs": [],
      "stateMutability": "nonpayable",
      "type": "function"
    },
    {
      "inputs": [
        {
          "internalType": "uint256",
          "name": "_initialDrawingTime",
          "type": "uint256"
        }
      ],
      "name": "initializeJackpot",
      "outputs": [],
      "stateMutability": "nonpayable",
      "type": "function"
    },
    {
      "inputs": [
        {
          "internalType": "uint256",
          "name": "_governancePoolCap",
          "type": "uint256"
        }
      ],
      "name": "initializeLPDeposits",
      "outputs": [],
      "stateMutability": "nonpayable",
      "type": "function"
    },
    {
      "inputs": [],
      "name": "initialized",
      "outputs": [
        {
          "internalType": "bool",
          "name": "",
          "type": "bool"
        }
      ],
      "stateMutability": "view",
      "type": "function"
    },
    {
      "inputs": [
        {
          "internalType": "uint256",
          "name": "_amountToWithdrawInShares",
          "type": "uint256"
        }
      ],
      "name": "initiateWithdraw",
      "outputs": [],
      "stateMutability": "nonpayable",
      "type": "function"
    },
    {
      "inputs": [],
      "name": "jackpotLPManager",
      "outputs": [
        {
          "internalType": "contract IJackpotLPManager",
          "name": "",
          "type": "address"
        }
      ],
      "stateMutability": "view",
      "type": "function"
    },
    {
      "inputs": [],
      "name": "jackpotNFT",
      "outputs": [
        {
          "internalType": "contract IJackpotTicketNFT",
          "name": "",
          "type": "address"
        }
      ],
      "stateMutability": "view",
      "type": "function"
    },
    {
      "inputs": [],
      "name": "lockJackpot",
      "outputs": [],
      "stateMutability": "nonpayable",
      "type": "function"
    },
    {
      "inputs": [
        {
          "internalType": "uint256",
          "name": "_amountToDeposit",
          "type": "uint256"
        }
      ],
      "name": "lpDeposit",
      "outputs": [],
      "stateMutability": "nonpayable",
      "type": "function"
    },
    {
      "inputs": [],
      "name": "lpEdgeTarget",
      "outputs": [
        {
          "internalType": "uint256",
          "name": "",
          "type": "uint256"
        }
      ],
      "stateMutability": "view",
      "type": "function"
    },
    {
      "inputs": [],
      "name": "maxReferrers",
      "outputs": [
        {
          "internalType": "uint256",
          "name": "",
          "type": "uint256"
        }
      ],
      "stateMutability": "view",
      "type": "function"
    },
    {
      "inputs": [],
      "name": "normalBallMax",
      "outputs": [
        {
          "internalType": "uint8",
          "name": "",
          "type": "uint8"
        }
      ],
      "stateMutability": "view",
      "type": "function"
    },
    {
      "inputs": [],
      "name": "owner",
      "outputs": [
        {
          "internalType": "address",
          "name": "",
          "type": "address"
        }
      ],
      "stateMutability": "view",
      "type": "function"
    },
    {
      "inputs": [],
      "name": "payoutCalculator",
      "outputs": [
        {
          "internalType": "contract IPayoutCalculator",
          "name": "",
          "type": "address"
        }
      ],
      "stateMutability": "view",
      "type": "function"
    },
    {
      "inputs": [],
      "name": "pendingOwner",
      "outputs": [
        {
          "internalType": "address",
          "name": "",
          "type": "address"
        }
      ],
      "stateMutability": "view",
      "type": "function"
    },
    {
      "inputs": [],
      "name": "protocolFee",
      "outputs": [
        {
          "internalType": "uint256",
          "name": "",
          "type": "uint256"
        }
      ],
      "stateMutability": "view",
      "type": "function"
    },
    {
      "inputs": [],
      "name": "protocolFeeAddress",
      "outputs": [
        {
          "internalType": "address",
          "name": "",
          "type": "address"
        }
      ],
      "stateMutability": "view",
      "type": "function"
    },
    {
      "inputs": [],
      "name": "protocolFeeThreshold",
      "outputs": [
        {
          "internalType": "uint256",
          "name": "",
          "type": "uint256"
        }
      ],
      "stateMutability": "view",
      "type": "function"
    },
    {
      "inputs": [],
      "name": "referralFee",
      "outputs": [
        {
          "internalType": "uint256",
          "name": "",
          "type": "uint256"
        }
      ],
      "stateMutability": "view",
      "type": "function"
    },
    {
      "inputs": [
        {
          "internalType": "address",
          "name": "",
          "type": "address"
        }
      ],
      "name": "referralFees",
      "outputs": [
        {
          "internalType": "uint256",
          "name": "",
          "type": "uint256"
        }
      ],
      "stateMutability": "view",
      "type": "function"
    },
    {
      "inputs": [],
      "name": "referralWinShare",
      "outputs": [
        {
          "internalType": "uint256",
          "name": "",
          "type": "uint256"
        }
      ],
      "stateMutability": "view",
      "type": "function"
    },
    {
      "inputs": [],
      "name": "renounceOwnership",
      "outputs": [],
      "stateMutability": "nonpayable",
      "type": "function"
    },
    {
      "inputs": [],
      "name": "reserveRatio",
      "outputs": [
        {
          "internalType": "uint256",
          "name": "",
          "type": "uint256"
        }
      ],
      "stateMutability": "view",
      "type": "function"
    },
    {
      "inputs": [],
      "name": "runJackpot",
      "outputs": [],
      "stateMutability": "payable",
      "type": "function"
    },
    {
      "inputs": [
        {
          "internalType": "bytes32",
          "name": "",
          "type": "bytes32"
        },
        {
          "internalType": "uint256[][]",
          "name": "_randomNumbers",
          "type": "uint256[][]"
        },
        {
          "internalType": "bytes",
          "name": "",
          "type": "bytes"
        }
      ],
      "name": "scaledEntropyCallback",
      "outputs": [],
      "stateMutability": "nonpayable",
      "type": "function"
    },
    {
      "inputs": [
        {
          "internalType": "uint8",
          "name": "_bonusballHardCap",
          "type": "uint8"
        }
      ],
      "name": "setBonusballHardCap",
      "outputs": [],
      "stateMutability": "nonpayable",
      "type": "function"
    },
    {
      "inputs": [
        {
          "internalType": "uint8",
          "name": "_bonusballMin",
          "type": "uint8"
        }
      ],
      "name": "setBonusballMin",
      "outputs": [],
      "stateMutability": "nonpayable",
      "type": "function"
    },
    {
      "inputs": [
        {
          "internalType": "uint8",
          "name": "_bonusballSoftCap",
          "type": "uint8"
        }
      ],
      "name": "setBonusballSoftCap",
      "outputs": [],
      "stateMutability": "nonpayable",
      "type": "function"
    },
    {
      "inputs": [
        {
          "internalType": "uint256",
          "name": "_drawingDurationInSeconds",
          "type": "uint256"
        }
      ],
      "name": "setDrawingDurationInSeconds",
      "outputs": [],
      "stateMutability": "nonpayable",
      "type": "function"
    },
    {
      "inputs": [
        {
          "internalType": "contract IScaledEntropyProvider",
          "name": "_entropy",
          "type": "address"
        }
      ],
      "name": "setEntropy",
      "outputs": [],
      "stateMutability": "nonpayable",
      "type": "function"
    },
    {
      "inputs": [
        {
          "internalType": "uint32",
          "name": "_entropyBaseGasLimit",
          "type": "uint32"
        }
      ],
      "name": "setEntropyBaseGasLimit",
      "outputs": [],
      "stateMutability": "nonpayable",
      "type": "function"
    },
    {
      "inputs": [
        {
          "internalType": "uint32",
          "name": "_entropyVariableGasLimit",
          "type": "uint32"
        }
      ],
      "name": "setEntropyVariableGasLimit",
      "outputs": [],
      "stateMutability": "nonpayable",
      "type": "function"
    },
    {
      "inputs": [
        {
          "internalType": "uint256",
          "name": "_governancePoolCap",
          "type": "uint256"
        }
      ],
      "name": "setGovernancePoolCap",
      "outputs": [],
      "stateMutability": "nonpayable",
      "type": "function"
    },
    {
      "inputs": [
        {
          "internalType": "uint256",
          "name": "_lpEdgeTarget",
          "type": "uint256"
        }
      ],
      "name": "setLpEdgeTarget",
      "outputs": [],
      "stateMutability": "nonpayable",
      "type": "function"
    },
    {
      "inputs": [
        {
          "internalType": "uint256",
          "name": "_maxReferrers",
          "type": "uint256"
        }
      ],
      "name": "setMaxReferrers",
      "outputs": [],
      "stateMutability": "nonpayable",
      "type": "function"
    },
    {
      "inputs": [
        {
          "internalType": "uint8",
          "name": "_normalBallMax",
          "type": "uint8"
        }
      ],
      "name": "setNormalBallMax",
      "outputs": [],
      "stateMutability": "nonpayable",
      "type": "function"
    },
    {
      "inputs": [
        {
          "internalType": "contract IPayoutCalculator",
          "name": "_payoutCalculator",
          "type": "address"
        }
      ],
      "name": "setPayoutCalculator",
      "outputs": [],
      "stateMutability": "nonpayable",
      "type": "function"
    },
    {
      "inputs": [
        {
          "internalType": "uint256",
          "name": "_protocolFee",
          "type": "uint256"
        }
      ],
      "name": "setProtocolFee",
      "outputs": [],
      "stateMutability": "nonpayable",
      "type": "function"
    },
    {
      "inputs": [
        {
          "internalType": "address",
          "name": "_protocolFeeAddress",
          "type": "address"
        }
      ],
      "name": "setProtocolFeeAddress",
      "outputs": [],
      "stateMutability": "nonpayable",
      "type": "function"
    },
    {
      "inputs": [
        {
          "internalType": "uint256",
          "name": "_protocolFeeThreshold",
          "type": "uint256"
        }
      ],
      "name": "setProtocolFeeThreshold",
      "outputs": [],
      "stateMutability": "nonpayable",
      "type": "function"
    },
    {
      "inputs": [
        {
          "internalType": "uint256",
          "name": "_referralFee",
          "type": "uint256"
        }
      ],
      "name": "setReferralFee",
      "outputs": [],
      "stateMutability": "nonpayable",
      "type": "function"
    },
    {
      "inputs": [
        {
          "internalType": "uint256",
          "name": "_referralWinShare",
          "type": "uint256"
        }
      ],
      "name": "setReferralWinShare",
      "outputs": [],
      "stateMutability": "nonpayable",
      "type": "function"
    },
    {
      "inputs": [
        {
          "internalType": "uint256",
          "name": "_reserveRatio",
          "type": "uint256"
        }
      ],
      "name": "setReserveRatio",
      "outputs": [],
      "stateMutability": "nonpayable",
      "type": "function"
    },
    {
      "inputs": [
        {
          "internalType": "uint256",
          "name": "_ticketPrice",
          "type": "uint256"
        }
      ],
      "name": "setTicketPrice",
      "outputs": [],
      "stateMutability": "nonpayable",
      "type": "function"
    },
    {
      "inputs": [],
      "name": "ticketPrice",
      "outputs": [
        {
          "internalType": "uint256",
          "name": "",
          "type": "uint256"
        }
      ],
      "stateMutability": "view",
      "type": "function"
    },
    {
      "inputs": [
        {
          "internalType": "address",
          "name": "newOwner",
          "type": "address"
        }
      ],
      "name": "transferOwnership",
      "outputs": [],
      "stateMutability": "nonpayable",
      "type": "function"
    },
    {
      "inputs": [],
      "name": "unlockJackpot",
      "outputs": [],
      "stateMutability": "nonpayable",
      "type": "function"
    },
    {
      "inputs": [],
      "name": "usdc",
      "outputs": [
        {
          "internalType": "contract IERC20",
          "name": "",
          "type": "address"
        }
      ],
      "stateMutability": "view",
      "type": "function"
    }
  ],
  "bytecode": "0x6080346101a657601f615df838819003918201601f19168301916001600160401b038311848410176101aa57808492610180946040528339810103126101a65780519061004e602082016101be565b61005a604083016101be565b91610067606082016101be565b610073608083016101be565b60a083015160c084015160e08501519161010086015193610120870151956101606101408901519801519863ffffffff8a168a036101a657331561019357600180546001600160a01b03199081169091555f805433928116831782556040519e6903d090000000000000009e62ff000095909461ff0094919390916001600160a01b03909116907f8be0079c531659141344cd1fd0a4f28419497f9722a3daafe3b4186f6b6457e09080a360095563ff0000006008549660181b169560ff63ff0000001992169062ffffff191617169160081b16179160101b161717600855600b55600a55600d55600e5560075560125566ffffffff0000006013549160181b16906301000000600160581b0319161717601355615c2b90816101cd8239f35b631e4fbdf760e01b5f525f60045260245ffd5b5f80fd5b634e487b7160e01b5f52604160045260245ffd5b519060ff821682036101a65756fe60806040526004361015610011575f80fd5b5f3560e01c80630905f560146104e45780630c7d5cd8146104df5780630dd98d05146104da5780631209b1f6146104d5578063158ef93e146104d057806315981650146104cb5780631bf0ade0146104c65780631e38c7e0146104c15780632c329117146104bc5780632c8b8689146104b75780632cdcb677146104b25780632ece2e26146104ad57806330787ddb146104a8578063308f4e3b146104a357806330fcc7371461049e57806331af694514610499578063331d84cf1461049457806335d927751461048f5780633adc62721461048a5780633cfb3922146104855780633e413bee14610480578063406043321461047b5780634384eb291461047657806347ce07cc146104715780635090779d1461046c5780635226b94c1461046757806356e1d557146104625780636b7b91121461045d57806370656b0314610458578063713494d714610453578063715018a61461044e57806372914b331461044957806374f6e01a14610444578063753f04e91461043f57806375780f421461043a5780637841739814610435578063787dce3d1461043057806379ba50971461042b5780637e108d521461042657806382fd53391461042157806383a84ba91461041c5780638401c2201461041757806384ae2bc614610412578063871bad8e1461040d5780638b4f3b2c146104085780638da5cb5b14610403578063955c690b146103fe578063973de903146103f95780639c010218146103f45780639da7adc0146103ef5780639f886c33146103ea578063aa3900a0146103e5578063ac24480d146103e0578063ae9e79b7146103db578063b0e21e8a146103d6578063b0fe94dd146103d1578063b32b670c146103cc578063b41b582c146103c7578063b59ee46d146103c2578063b67df07f146103bd578063b85fef8d146103b8578063ba2a2c8e146103b3578063bfdc7568146103ae578063c5b1c7d0146103a9578063c740671f146103a4578063cb690d711461039f578063cce516b71461039a578063ce3820d114610395578063d70ab9d114610390578063d8d0f5ba1461038b578063dd145f0a14610386578063dd727ea614610381578063de88c28a1461037c578063e30c397814610377578063ed29c90514610372578063f2fde38b1461036d5763fcce2d3a14610368575f80fd5b613515565b6134a4565b61343a565b613412565b61331e565b61303a565b61301d565b612f8b565b612dd8565b612d8d565b612d65565b612b31565b61296a565b6128fe565b612862565b612737565b6126a5565b61262b565b612575565b612488565b61238f565b6121c8565b6121ab565b61207e565b611fff565b611f78565b611f55565b611e70565b611e53565b611dc1565b611d99565b611d72565b611d00565b611c98565b611c7b565b611bf8565b611b54565b611acd565b6119ea565b611965565b6118e2565b611871565b611836565b611819565b6117f9565b61175b565b6116f8565b61166b565b61164e565b6115c2565b611589565b611566565b61149c565b611413565b611375565b6112cc565b6112a0565b6111d3565b610fdd565b610f2f565b610e2b565b610e08565b610d51565b610d2b565b610ce0565b610c25565b610c08565b610b81565b610b07565b610ae2565b610778565b610595565b610573565b610556565b610539565b61051c565b6104f7565b5f9103126104f357565b5f80fd5b346104f3575f3660031901126104f357602060ff60135460101c166040519015158152f35b346104f3575f3660031901126104f3576020600a54604051908152f35b346104f3575f3660031901126104f3576020600b54604051908152f35b346104f3575f3660031901126104f3576020600754604051908152f35b346104f3575f3660031901126104f357602060ff601354166040519015158152f35b346104f35760203660031901126104f3576004356105b1613d29565b801561060c577f64dda92e7d0c84adf768959c948b790f410cadfa99e1ac8abbd996b7df7323a460075491806007556105ee60ff60085416613d3c565b6006546040805194855260208501929092529290819081015b0390a2005b6306f6808b60e01b5f5260045ffd5b634e487b7160e01b5f52604160045260245ffd5b604081019081106001600160401b0382111761064a57604052565b61061b565b6101a081019081106001600160401b0382111761064a57604052565b606081019081106001600160401b0382111761064a57604052565b90601f801991011681019081106001600160401b0382111761064a57604052565b604051906106b6608083610686565b565b604051906106b66101a083610686565b604051906106b6604083610686565b6001600160401b03811161064a5760051b60200190565b9080601f830112156104f3578135610705816106d7565b926107136040519485610686565b81845260208085019260051b8201019283116104f357602001905b82821061073b5750505090565b813581526020918201910161072e565b60206003198201126104f357600435906001600160401b0382116104f357610775916004016106ee565b90565b346104f3576107863661074b565b61078e613e41565b805115610ad3575f905f5b8151811015610aad576107ac8183613571565b516015549091906107cd906001600160a01b03165b6001600160a01b031690565b604051600162665f9d60e01b031981526004810184905292606084602481855afa938415610a12575f94610a7d575b508351916108126001600160a01b0382166107c1565b6040516331a9108f60e11b81526004810184905290602090829060249082905afa908115610a12575f91610a4f575b50336001600160a01b0390911603610a4057600654831015610a3157610877610872845f52600360205260405f2090565b6135d6565b6108a3602087015161010083015161089d61089761012086015160ff1690565b60ff1690565b91613ec1565b91803b156104f35760405163a476b73d60e01b815260048101859052905f908290602490829084905af18015610a1257610a17575b506101608101516108f1906001600160a01b03166107c1565b60405163519060d560e01b815260048101869052602481018490529290602090849060449082905afa918215610a12576001977f20a823b07320d1e7d4a78fe1e9943f3d69d840b923c213f4644e96de6025c55a945f946109ca575b5061097d61096c6109c193866060604061099a96015192015191613f1f565b9b6109778d876136cb565b906136e6565b9a8961099361098c8660011c90565b9560011690565b14946136cb565b60405193849333978590949392606092608083019683526020830152151560408201520152565b0390a301610799565b6040945061096c6109c19361099a9360606109fe61097d9560203d8111610a0b575b6109f68183610686565b81019061367e565b985050935093505061094d565b503d6109ec565b6135b6565b80610a255f610a2b93610686565b806104e9565b5f6108d8565b639eabaa2160e01b5f5260045ffd5b63e18d39ad60e01b5f5260045ffd5b610a70915060203d8111610a76575b610a688183610686565b8101906135c1565b5f610841565b503d610a5e565b610a9f91945060603d8111610aa6575b610a978183610686565b810190613585565b925f6107fc565b503d610a8d565b601354610ac9908490339060581c6001600160a01b03166140ee565b610ad1613e9c565b005b6316d1382760e11b5f5260045ffd5b346104f3575f3660031901126104f357602060ff60135460081c166040519015158152f35b346104f35760203660031901126104f357600435610b23613d29565b8015610b72577feb997ee48708944d62d11752930b5bc4d4231e25d55428e37317fa98e81b2b306012549180601255600654926106076040519283928360209093929193604081019481520152565b637cbcde0760e11b5f5260045ffd5b346104f3575f3660031901126104f357610b99613d29565b600654805f52600360205260ff600960405f20015460b01c1615610bf9575f526003602052600960405f200160ff60b01b1981541690556006547f6ba638c71fcdd6df40069a4903c4b3d05570469a7a8817c6b341e4b04702751c5f80a2005b631f2b976360e01b5f5260045ffd5b346104f3575f3660031901126104f3576020601054604051908152f35b346104f3575f3660031901126104f3576006545f526003602052610c976020610c5a60ff600960405f20015460081c1661412e565b601654610c6f906001600160a01b03166107c1565b6040518080958194635e6d153b60e11b83526004830191909163ffffffff6020820193169052565b03915afa8015610a1257610cbd915f91610cc1575b506040519081529081906020820190565b0390f35b610cda915060203d602011610a0b576109f68183610686565b5f610cac565b346104f3575f3660031901126104f357610cf8613d29565b6006545f52600360205260ff600960405f20015460b01c16610d1c57610ad1614168565b6332e5c6fd60e01b5f5260045ffd5b346104f3575f3660031901126104f357602063ffffffff60135460181c16604051908152f35b346104f3575f3660031901126104f357610d69613e41565b60ff60135460101c16610df957601454600654604051636bc73a4f60e01b815260048101919091523360248201529060209082906001600160a01b0316815f81604481015b03925af18015610a1257610ac9915f91610dda575b50601354339060581c6001600160a01b03166140ee565b610df3915060203d602011610a0b576109f68183610686565b5f610dc3565b631d8c7af360e01b5f5260045ffd5b346104f3575f3660031901126104f357602060ff60085460181c16604051908152f35b346104f3575f3660031901126104f357610e43613d29565b60135460ff8160081c1615610e835761ff0019166013556006547f09a671e71d9a0a50ebe024391e0f566aeaa78355ac5e3dc88480c164698d1db75f80a2005b63ac1e0c0560e01b5f5260045ffd5b90602080835192838152019201905f5b818110610eaf5750505090565b8251845260209384019390920191600101610ea2565b9190916020815260608101908351916040602083015282518091526020608083019301905f5b818110610f1057505050602061077593940151906040601f1982850301910152610e92565b82516001600160a01b0316855260209485019490920191600101610eeb565b346104f35760203660031901126104f35760043560606020604051610f538161062f565b82815201525f52600560205260405f20604051610f6f8161062f565b6040518060208454918281520190845f5260205f20905f5b818110610fbe57610cbd86610fad60018a89610fa5818b0382610686565b845201613716565b602082015260405191829182610ec5565b82546001600160a01b0316845260209093019260019283019201610f87565b346104f35760203660031901126104f357600435610ff9613d29565b7fd8843f1dc7693e67f3357ffd5f4196ecea28d36b176d32fca0288c75c6ec845a6010549180601055600654926106076040519283928360209093929193604081019481520152565b6004359060ff821682036104f357565b6044359060ff821682036104f357565b359060ff821682036104f357565b9080601f830112156104f3578135611087816106d7565b926110956040519485610686565b81845260208085019260051b8201019283116104f357602001905b8282106110bd5750505090565b602080916110ca84611062565b8152019101906110b0565b9080601f830112156104f3578135916110ed836106d7565b926110fb6040519485610686565b80845260208085019160051b830101918383116104f35760208101915b83831061112757505050505090565b82356001600160401b0381116104f3578201906040828703601f1901126104f357604051906111558261062f565b6020830135916001600160401b0383116104f3576111896040856111818b602080999881990101611070565b845201611062565b83820152815201920191611118565b60206040818301928281528451809452019201905f5b8181106111bb5750505090565b825115158452602093840193909201916001016111ae565b346104f35760403660031901126104f3576004356024356001600160401b0381116104f3576112069036906004016110d5565b90815191611213836106d7565b926112216040519485610686565b808452611230601f19916106d7565b013660208501375f5b815181101561129257600190835f52600260205261128c61127b60405f206112618487613571565b515160ff6020611271878a613571565b51015116916141f7565b6112858388613571565b9015159052565b01611239565b60405180610cbd8682611198565b346104f3575f3660031901126104f35760135460405160589190911c6001600160a01b03168152602090f35b346104f35760203660031901126104f3576112e5611042565b6112ed613d29565b7fdaf890bf080f01d14059c3668c9c340a13de969f70039533487c80d84bf078e860ff60085461132b828260181c1685848460081c16858516614281565b61134c8262ff000019831686821660101b62ff000016178060085516613d3c565b6106076006549460405193849360101c168390929160ff60209181604085019616845216910152565b346104f35760203660031901126104f35761138e611042565b611396613d29565b7f576638b07516c4faf61427bb8ca72c895e69acc3fecd0f3c808b04606efcd45560ff6008546113d7828260181c16838360101c16848460081c1687614281565b8184166113e381613d3c565b8219600854161760085561060760065494604051938493168390929160ff60209181604085019616845216910152565b346104f3575f3660031901126104f3576016546040516001600160a01b039091168152602090f35b6001600160401b03811161064a57601f01601f191660200190565b81601f820112156104f35780359061146d8261143b565b9261147b6040519485610686565b828452602083830101116104f357815f926020809301838601378301015290565b346104f35760603660031901126104f3576024356004356001600160401b0382116104f357366023830112156104f35781600401356114da816106d7565b926114e86040519485610686565b8184526024602085019260051b820101903682116104f35760248101925b8284106115375760443585876001600160401b0383116104f357611531610ad1933690600401611456565b916137d0565b83356001600160401b0381116104f35760209161155b8392602436918701016106ee565b815201930192611506565b346104f3575f3660031901126104f357602060ff60085460101c16604051908152f35b346104f3575f3660031901126104f3576014546040516001600160a01b039091168152602090f35b6001600160a01b038116036104f357565b346104f35760203660031901126104f3576004356115df816115b1565b6115e7613d29565b6001600160a01b0316801561163f57601180546001600160a01b0319811683179091556006546001600160a01b03909116907fb1b9f0c4de635b70a97f0ceeeeac2e785e2dd6df393166068e5df1811b734ad45f80a4005b63d92e233d60e01b5f5260045ffd5b346104f3575f3660031901126104f3576020600e54604051908152f35b346104f35760203660031901126104f357600435611687613d29565b6703782dace9d9000081116116e957600b548110156116e9577f48f0dc94a6eee9b7e68b093d3dda43560d867a1b9d128a44d9ce8bb9017f9c53600d549180600d55600654926106076040519283928360209093929193604081019481520152565b6361c035b960e11b5f5260045ffd5b346104f3575f3660031901126104f357611710613d29565b600180546001600160a01b03199081169091555f80549182168155906001600160a01b03167f8be0079c531659141344cd1fd0a4f28419497f9722a3daafe3b4186f6b6457e08280a3005b346104f35760203660031901126104f357611774611042565b61177c613d29565b7f9236243f64b74489c8277381b3f5affb6fba70a6f9324aaac54d2e0284747c6360ff6008546117ba84838360101c16848460081c16858516614281565b63ff0000008460181b1663ff000000198216176008556106076006549460405193849360181c168390929160ff60209181604085019616845216910152565b346104f3575f3660031901126104f357602060ff60085416604051908152f35b346104f3575f3660031901126104f3576020600c54604051908152f35b346104f35760203660031901126104f357600435611853816115b1565b60018060a01b03165f526004602052602060405f2054604051908152f35b346104f3575f3660031901126104f357611889613e41565b60ff60135460101c16156118d35760145460065460405163094cebbf60e01b815260048101919091523360248201529060209082906001600160a01b0316815f8160448101610dae565b63c9ccd07b60e01b5f5260045ffd5b346104f35760203660031901126104f3576004356118fe613d29565b6703782dace9d900008111611956577f958d79f7eb050033dd12dc5d5cdb0ca36e424a7bf3c53c15488c657e82a570b2600f549180600f55600654926106076040519283928360209093929193604081019481520152565b631752ff0760e31b5f5260045ffd5b346104f3575f3660031901126104f357600154336001600160a01b03909116036119d757600180546001600160a01b03199081169091555f805433928116831782556001600160a01b0316907f8be0079c531659141344cd1fd0a4f28419497f9722a3daafe3b4186f6b6457e09080a3005b63118cdaa760e01b5f523360045260245ffd5b346104f35760203660031901126104f35760043560ff60135460101c16610df957600654611a306009611a25835f52600360205260405f2090565b015460b01c60ff1690565b610d1c578115611a9f57601454611a4f906001600160a01b03166107c1565b91823b156104f357604051633c79fb7d60e11b815260048101929092523360248301526044820152905f908290606490829084905af18015610a1257611a9157005b80610a255f610ad193610686565b63375bfb0160e11b5f5260045ffd5b60209060031901126104f35760043563ffffffff811681036104f35790565b346104f357611adb36611aae565b611ae3613d29565b7f3173c6f7edd3a0e5b21e31a8cf3b33bd4c9df13adeccf18ec912d16ca0364b1263ffffffff60135463ffffffff60381b8460381b1663ffffffff60381b198216176013556106076006549460405193849360381c168390929163ffffffff60209181604085019616845216910152565b346104f3575f3660031901126104f357611b6c613e41565b335f52600460205260405f205415611be957335f81815260046020526040812080549190556013549091611bae9183919060581c6001600160a01b03166140ee565b60405190815233907f48da114cbb70df50064204591b1e4de39bbf228aed4dd83eb18c1957dc4c51199080602081015b0390a2610ad1613e9c565b636dd6bf3f60e11b5f5260045ffd5b346104f35760203660031901126104f357600435611c14613d29565b6703782dace9d900008111611c6c577f49ff9c9c9318a4a79246a807587feeabf966497831c97b602617187749e0ef6d600e549180600e55600654926106076040519283928360209093929193604081019481520152565b63dd52658b60e01b5f5260045ffd5b346104f3575f3660031901126104f3576020600d54604051908152f35b346104f35760203660031901126104f357600435611cb4613d29565b8015611cf1577faef113017279637eb3d06f45ec0092d4bc9ce01b3a6f09300d93bccbc0f9caab600c549180600c556105ee60ff60085416613d3c565b630496975d60e41b5f5260045ffd5b346104f35760203660031901126104f357600435611d1c613d29565b670de0b6b3a7640000811015611d63577f6650a6afc06108930f3b0fcc99280c5dbef425925191e4aba13d44f69413ebc6600a549180600a556105ee60ff60085416613d3c565b6357428fd560e01b5f5260045ffd5b346104f3575f3660031901126104f3575f546040516001600160a01b039091168152602090f35b346104f3575f3660031901126104f3576015546040516001600160a01b039091168152602090f35b346104f35760203660031901126104f357600435611dde816115b1565b611de6613d29565b6001600160a01b0316801561163f57601780546001600160a01b031981168317909155600654604080516001600160a01b039384168152929093166020830152917f466d8c6b8c7278c089d2a2fe649e6ab747ec25fb1cd2b6c6a09507affbf4b83a919081908101610607565b346104f3575f3660031901126104f3576020600654604051908152f35b346104f35760603660031901126104f3576004356024356001600160401b0381116104f357611ea6611efe913690600401611070565b611edf611eb1611052565b915f6020604051611ec18161062f565b8281520152845f52600360205260ff600960405f2001541690614916565b925f526002602052600160405f20019060ff165f5260205260405f2090565b905f52602052610cbd60405f2060405190611f188261062f565b546001600160801b038116825260801c60208201526040519182918291909160206001600160801b03816040840195828151168552015116910152565b346104f3575f3660031901126104f357602060ff60085460081c16604051908152f35b346104f357611f8636611aae565b611f8e613d29565b7f51c1d822b488fbbd8617a8a48f7de3c2c5e0d72b15d5f2d5969e366a79b1898d63ffffffff60135466ffffffff0000008460181b1666ffffffff000000198216176013556106076006549460405193849360181c168390929163ffffffff60209181604085019616845216910152565b346104f3575f3660031901126104f3576017546040516001600160a01b039091168152602090f35b90602080835192838152019201905f5b8181106120445750505090565b825160ff16845260209384019390920191600101612037565b9060ff612077602092959495604085526040850190612027565b9416910152565b346104f35760403660031901126104f357600435602435905f52600360205260ff600960405f200154166120b182615092565b5f1981019081116121a6576120c5906139a4565b915f60015b83811115612170578461216061089786867f07060605060205040602030205040301060502050303040105050304000000006f8421084210842108cc6318c6db6d54be826001600160801b031060071b831560081b1783811c6001600160401b031060061b1783811c63ffffffff1060051b1783811c61ffff1060041b1783811c60ff1060031b1792831c1c601f161a176136cb565b90610cbd6040519283928361205d565b806001612183921b84166121885761457f565b6120ca565b6121918361457f565b926121a060ff83169188613571565b5261457f565b61368d565b346104f3575f3660031901126104f3576020600f54604051908152f35b346104f35760203660031901126104f3576004356121e4613d29565b6014546121f9906001600160a01b03166107c1565b60405163883a98ad60e01b81525f6004820152602081602481855afa908115610a12575f9161235f575b50156123505760065461234157604051634d9dfecd60e01b81525f600482015290606090829060249082905afa8015610a12576020915f91612322575b500151156123135761227c61010060135461ff00191617601355565b601454612291906001600160a01b03166107c1565b9060408051809363010e62e560e71b8252815f816122c860048201905f606060808401938281528260208201528260408201520152565b03925af18015610a1257610ad1925f916122e3575b5061458d565b612305915060403d60401161230c575b6122fd8183610686565b81019061398e565b505f6122dd565b503d6122f3565b632e4e3d1d60e01b5f5260045ffd5b61233b915060603d606011610aa657610a978183610686565b5f612260565b63faa685d560e01b5f5260045ffd5b6322687a0760e11b5f5260045ffd5b612378915060203d602011610a0b576109f68183610686565b5f612223565b906020610775928181520190610e92565b346104f35761239d3661074b565b6123a781516139a4565b6015549091905f906123c1906001600160a01b03166107c1565b905b825181101561247a578060606123dc6123fc9386613571565b516040518094819263ff99a06360e01b8352600483019190602083019252565b0381865afa918215610a125760019261244b915f9161245c575b50602061242f61087283515f52600360205260405f2090565b9101519061089d61089761012061010084015193015160ff1690565b6124558287613571565b52016123c3565b612474915060603d8111610aa657610a978183610686565b5f612416565b60405180610cbd868261237e565b346104f35760203660031901126104f3576004356124a4613e41565b60135460ff8160101c16610df9576124cb6009611a256006545f52600360205260405f2090565b610d1c578115612566576124f190829060581c6001600160a01b03165b309033906149ee565b601454612506906001600160a01b03166107c1565b9060065490823b156104f357604051636f59c16360e11b815260048101929092523360248301526044820152905f908290606490829084905af18015610a125761255257610ad1613e9c565b80610a255f61256093610686565b5f610ac9565b635d66204960e11b5f5260045ffd5b346104f35760203660031901126104f357600435612592816115b1565b61259a613d29565b6001600160a01b038116801561163f576006545f5260036020526125c9600960405f20015460ff9060b01c1690565b610d1c57601680546001600160a01b039384166001600160a01b03198216179091556006546040805192851683529290931660208201527f446bacbbcade19d91f05ba301a6b1accbb0a91eb60fcc58f74230632ba4d13d99181908101610607565b346104f35760203660031901126104f357600435612647613d29565b8015612696577f41c5d0bbfc23a038e23c36eddebe4806fff056dab039f5da31c785a3d3a02ed46009549180600955600654926106076040519283928360209093929193604081019481520152565b6371f0fbfb60e11b5f5260045ffd5b346104f35760203660031901126104f3576004356126c1613d29565b66b1a2bc2ec5000081108015612726575b61271757600d54811115612717577f4da34f160cf6d6671cebb79822e402c997948dfa359473318703c40feef45247600b549180600b556105ee60ff60085416613d3c565b6355eea71960e11b5f5260045ffd5b506706f05b59d3b2000081116126d2565b346104f35760203660031901126104f357600435612753613d29565b61276661276260135460ff1690565b1590565b6128535760145461277f906001600160a01b03166107c1565b60405163883a98ad60e01b81525f600482015290602090829060249082905afa908115610a12575f91612834575b50612825578015611cf157600c556014546127d0906001600160a01b03166107c1565b803b156104f3575f809160046040518094819363a6690cf960e01b83525af18015610a1257612811575b610ad161280c61089760085460ff1690565b613d3c565b80610a255f61281f93610686565b5f6127fa565b6307cb4f5360e41b5f5260045ffd5b61284d915060203d602011610a0b576109f68183610686565b5f6127ad565b635079799360e01b5f5260045ffd5b346104f35760203660031901126104f35761287b611042565b612883613d29565b7fac5d0280adfbf0d24ec416140e525fee17eba042c3f2ee19f857530af9daef6860ff6008546128c1828260181c16838360101c1686858516614281565b61ff0019811684831660081b61ff0016176008556106076006549460405193849360081c168390929160ff60209181604085019616845216910152565b346104f3575f3660031901126104f357612916613d29565b60135460ff8160101c1661295b5762ff0000191662010000176013556006547f1e9f5e687e1061696aa18c8b2d7730f00960d7490ba0b60e115a7320d8abd31b5f80a2005b63ffee18ef60e01b5f5260045ffd5b346104f3576101003660031901126104f357600435612988816115b1565b602435612994816115b1565b6044356129a0816115b1565b606435906129ad826115b1565b608435926129ba846115b1565b60a4356129c6816115b1565b60c4359260e435956129d6613d29565b60135460ff16612b22576001600160a01b0386161561163f576001600160a01b0388161561163f576001600160a01b0381161561163f576001600160a01b0382161561163f576001600160a01b0384161561163f57612acc612b0b96612aaf612ae994612a92612b0698612a75612b109e60135490600160581b600160f81b039060581b16906affffffffffffffffffffff60ff60f81b011617601355565b60018060a01b03166001600160601b0360a01b6014541617601455565b60018060a01b03166001600160601b0360a01b6015541617601555565b60018060a01b03166001600160601b0360a01b6016541617601655565b60018060a01b03166001600160601b0360a01b6017541617601755565b60018060a01b03166001600160601b0360a01b6011541617601155565b600f55565b601055565b610ad1600160ff196013541617601355565b631ee1e30360e21b5f5260045ffd5b346104f357612b3f3661074b565b612b47613e41565b60ff60135460101c16156118d357805115612d56575f90815b8151831015612d3b57612b738383613571565b51601554909390612b8c906001600160a01b03166107c1565b604051600162665f9d60e01b03198152600481018690529092606082602481875afa918215610a12575f92612d1b575b50815191600654809303612d0c57612bdc6001600160a01b0386166107c1565b6040516331a9108f60e11b81526004810189905290602090829060249082905afa908115610a12575f91612cee575b50336001600160a01b0390911603610a40576040612c37610872612c48955f52600360205260405f2090565b910151612cc15760200151906136e6565b93823b156104f35760405163a476b73d60e01b815260048101829052925f908490602490829084905af1928315610a1257600193612cad575b507f84c670532dd70e48d686000c31d3f098bbff814baed8f5aeb8f96f4bebf5e0485f80a20191612b60565b80610a255f612cbb93610686565b5f612c81565b612ce081612cda608060206109779501519201516136a1565b90613a12565b670de0b6b3a7640000900490565b612d06915060203d8111610a7657610a688183610686565b5f612c0b565b632951159960e11b5f5260045ffd5b612d3491925060603d8111610aa657610a978183610686565b905f612bbc565b601354610ac99190339060581c6001600160a01b03166140ee565b633a97642b60e11b5f5260045ffd5b346104f3575f3660031901126104f3576011546040516001600160a01b039091168152602090f35b346104f3575f3660031901126104f3576020601254604051908152f35b91906101808301925f905b600c8210612dc257505050565b6020806001928551815201930191019091612db5565b346104f35760203660031901126104f357600435612df4613a25565b506006548111612ed457610180612e16610872835f52600360205260405f2090565b610160810151612e2e906001600160a01b03166107c1565b8151612e4e610140612e4561012086015160ff1690565b94015160ff1690565b6040516378fe09fb60e01b81526004810196909652602486019190915260ff9283166044860152919091166064840152829060849082905afa8015610a1257610cbd915f91612ea5575b5060405191829182612daa565b612ec791506101803d8111612ecd575b612ebf8183610686565b810190613a3b565b5f612e98565b503d612eb5565b63d1a8802560e01b5f5260045ffd5b6106b690929192610180806101a0830195805184526020810151602085015260408101516040850152606081015160608501526080810151608085015260a081015160a085015260c081015160c085015260e081015160e0850152610100810151610100850152612f6061012082015161012086019060ff169052565b6101408181015160ff1690850152610160818101516001600160a01b03169085015201511515910152565b346104f35760203660031901126104f357610cbd6130116108726004355f610180604051612fb88161064f565b8281528260208201528260408201528260608201528260808201528260a08201528260c08201528260e08201528261010082015282610120820152826101408201528261016082015201525f52600360205260405f2090565b60405191829182612ee3565b346104f3575f3660031901126104f3576020600954604051908152f35b5f3660031901126104f35761304d613e41565b60ff60135460101c16610df957600654801561330f57613075905f52600360205260405f2090565b6009810190613089825460ff9060b01c1690565b610d1c5760070154421115613300576130a0614168565b80546130b19060081c60ff1661412e565b6016549091906130c9906001600160a01b03166107c1565b604051635e6d153b60e11b815263ffffffff841660048201529190602090839060249082905afa918215610a12575f926132df575b508134106132d05781341161325e575b9060206131da9261316c610897613123613ad0565b925461313160ff8216610897565b6131396106a7565b600581529060018783015260408201525f60608201526131588561354f565b526131628461354f565b5060081c60ff1690565b6131746106a7565b600181529060018483015260408201525f606082015261319382613561565b5261319d81613561565b506016546131b3906001600160a01b03166107c1565b6131bb613a8d565b918460405180978195829463bf99a44560e01b84528b60048501613b8d565b03925af1918215610a12577fb3a37a12a5f009169d76e15d18587df14925d0414264410ea9c7d180964d964792613231575b506006546040805163ffffffff90951685526020850192909252929081908101611bde565b6132529060203d602011613257575b61324a8183610686565b810190613b4a565b61320c565b503d613240565b5f80808061326c86346136cb565b335af1613277613aa1565b9015613283575061310e565b80511561329257602081519101fd5b60405162461bcd60e51b81526020600482015260166024820152751499599d5b99081d1c985b9cd9995c8819985a5b195960521b6044820152606490fd5b631e27b60160e01b5f5260045ffd5b6132f991925060203d602011610a0b576109f68183610686565b905f6130fe565b630978493b60e21b5f5260045ffd5b63725004d160e01b5f5260045ffd5b346104f35760a03660031901126104f3576004356001600160401b0381116104f35761334e9036906004016110d5565b60243561335a816115b1565b604435916001600160401b0383116104f357366023840112156104f357826004013592613386846106d7565b936133946040519586610686565b8085526024602086019160051b830101913683116104f357602401905b8282106133f857505050606435916001600160401b0383116104f357610cbd936133e26133ec9436906004016106ee565b9160843593613c1a565b6040519182918261237e565b602080918335613407816115b1565b8152019101906133b1565b346104f3575f3660031901126104f3576001546040516001600160a01b039091168152602090f35b346104f3575f3660031901126104f357613452613d29565b60135460ff8160081c166134955761ff001916610100176013556006547f1e75fa4de556f868823c5097954567b3a0932fb66a6a4797e8ab28daf2d1205f5f80a2005b6345dbea4760e11b5f5260045ffd5b346104f35760203660031901126104f3576004356134c1816115b1565b6134c9613d29565b60018060a01b0316806001600160601b0360a01b600154161760015560018060a01b035f54167f38d16b8cac22d99fc7c124b9cd0de2d3fa1faef420bfe791d8c362d765e227005f80a3005b346104f3575f3660031901126104f357602063ffffffff60135460381c16604051908152f35b634e487b7160e01b5f52603260045260245ffd5b80511561355c5760200190565b61353b565b80516001101561355c5760400190565b805182101561355c5760209160051b010190565b908160609103126104f357604080519161359e8361066b565b80518352602081015160208401520151604082015290565b6040513d5f823e3d90fd5b908160209103126104f35751610775816115b1565b906106b661367460096135e76106b8565b8554815260018601546020820152600286015460408201526003860154606082015260048601546080820152600586015460a0820152600686015460c0820152600786015460e0820152600886015461010082015294015460ff811661012086015260ff600882901c166101408601526001600160a01b03601082901c1661016086015260b01c60ff1690565b1515610180840152565b908160209103126104f3575190565b634e487b7160e01b5f52601160045260245ffd5b670de0b6b3a76400000390670de0b6b3a764000082116121a657565b5f198101919082116121a657565b919082039182116121a657565b90600182018092116121a657565b919082018092116121a657565b634e487b7160e01b5f52601260045260245ffd5b8115613711570490565b6136f3565b90604051918281549182825260208201905f5260205f20925f5b8181106137455750506106b692500383610686565b8454835260019485019487945060209093019201613730565b9060405161376b8161062f565b80926040518060208354918281520190835f5260205f20905f5b8181106137b157505050602092826137a46137ac946001940382610686565b855201613716565b910152565b82546001600160a01b0316845260209093019260019283019201613785565b5090506137db613e41565b6016546001600160a01b0316330361397f5760ff60135460101c16610df95761380e6006545f52600360205260405f2090565b90613824612762600984015460ff9060b01c1690565b610bf95761383281836143a2565b9091826008850155600684019361384a8386546144c1565b936040846138626107c160145460018060a01b031690565b6006548954845163010e62e560e71b8152600481019290925260248201526044810192909252606482019790975295869060849082905f905af1908115610a12577f3a4c96b211e907124ce3e494a8de17d06441f7a0a08160ca569d6c20109a39d595613944935f915f9461394f575b50906138e860076138ee930154600954906136e6565b9061458d565b61391661391061390a6139026006546136bd565b995496613561565b5161354f565b516148ad565b604051958695869160809360ff91979695929760a08501988552602085015216604083015260608201520152565b0390a26106b6613e9c565b60079194506138ee92506139746138e89160403d60401161230c576122fd8183610686565b9590935091506138d2565b632f83ca4960e21b5f5260045ffd5b91908260409103126104f3576020825192015190565b906139ae826106d7565b6139bb6040519182610686565b82815280926139cc601f19916106d7565b0190602036910137565b90670de0b6b3a7640000820291808304670de0b6b3a764000014901517156121a657565b600181901b91906001600160ff1b038116036121a657565b818102929181159184041417156121a657565b60405190610180613a368184610686565b368337565b90610180828203126104f35780601f830112156104f35761018060405192613a638285610686565b839181019283116104f357905b828210613a7d5750505090565b8151815260209182019101613a70565b60405190613a9c602083610686565b5f8252565b3d15613acb573d90613ab28261143b565b91613ac06040519384610686565b82523d5f602084013e565b606090565b613ada60026106d7565b90613ae86040519283610686565b6002825281601f19613afa60026106d7565b015f5b818110613b0957505050565b6040519060808201918083106001600160401b0384111761064a576020926040525f81525f838201525f60408201525f606082015282828601015201613afd565b908160209103126104f357516001600160401b03811681036104f35790565b805180835260209291819084018484015e5f828201840152601f01601f1916010190565b9392909363ffffffff6080820195168152608060208201528251809552602060a0820193015f955b808710613bdf575050635090779d60e01b6040820152929350610775926060818403910152613b69565b9093602060806001926060885160ff815116835284810151858401526040810151604084015201511515606082015201950196019590613bb5565b9293919091613c27613e41565b60ff60135460101c16610df957836005613cc47fadff5f441bab4e70fe8d7cb8a04cc07010a1d26524849a2cc1f8157668397fd093613c6a89878960049b614a32565b86613c9f613c826006545f52600360205260405f2090565b809b875199613c9560018401548c613a12565b9c8d930154614c52565b6013549196909291613cbe908c9060581c6001600160a01b03166124e8565b8b614e6d565b96613ccf83886136cb565b613cde600683019182546136e6565b905501613cec8482546136e6565b9055613cfb81600654966136cb565b6040805194855260208501919091528301526001600160a01b0392909216913391606090a4906106b6613e9c565b5f546001600160a01b031633036119d757565b613d5a613d4b613d63926154c3565b60ff60085460101c1690613a12565b60075490613a12565b600b54670de0b6b3a76400000390670de0b6b3a764000082116121a657670de0b6b3a764000091613d9391613a12565b04670de0b6b3a7640000810290808204670de0b6b3a764000014901517156121a657613dca90613dc4600a546136a1565b90613707565b600c548181188183100218601454613dea906001600160a01b03166107c1565b9060065491803b156104f357604051630af7ff6360e01b8152600481019390935260248301939093526044820152905f908290606490829084905af18015610a1257613e335750565b80610a255f6106b693610686565b7f9b779b17422d0df92223018b32b4d1fa46e071723d6817e2486d003becc55f005c613e8d5760017f9b779b17422d0df92223018b32b4d1fa46e071723d6817e2486d003becc55f005d565b633ee5aeb560e01b5f5260045ffd5b5f7f9b779b17422d0df92223018b32b4d1fa46e071723d6817e2486d003becc55f005d565b919091613ecf838216615092565b92600183018093116121a657821c911c145f14613f175760ff60015b168082039182116121a657600182901b916001600160ff1b038116036121a65781018091116121a65790565b60ff5f613eeb565b9291612ce090613f2e92613a12565b91801561400c57613f4a613f4f915f52600560205260405f2090565b61375e565b9060208201905f5b835180518210156140045790613f7f613f7282600194613571565b516001600160a01b031690565b7f67b62898b5858ba6c28e007932ff9aa2ff4eafb08d30da633e99a70bc3975f9f613ffb613fbb612ce0613fb4868a51613571565b518b613a12565b6001600160a01b0384165f908152600460205260409020909390613fe08582546136e6565b9055604051918291878060a01b031694829190602083019252565b0390a201613f57565b509092505050565b50601454909190614025906001600160a01b03166107c1565b600654604051634d9dfecd60e01b8152600481018290529091606090829060249082905afa908115610a12575f916140cf575b50511580156140c0575b6140ba5761407a6006915f52600360205260405f2090565b016140868282546136e6565b90556006546040518281527f36775f79340ddc85008917a5d819d87ee13121c3c623edc43b6119663bc74ff490602090a290565b50505f90565b5060135460101c60ff16614062565b6140e8915060603d606011610aa657610a978183610686565b5f614058565b60405163a9059cbb60e01b60208201526001600160a01b0390921660248301526044808301939093529181526106b691614129606483610686565b61513b565b60ff601354911663ffffffff8260381c16029063ffffffff82169182036121a65763ffffffff9060181c160163ffffffff81116121a65790565b600680545f908152600360205260408120600901805460ff60b01b1916600160b01b1790559054907fea5e3f8a52b97945eec7a54e29105a5c7a900139e16c02dd2e7bca2388e52f649080a2565b156141bd57565b60405162461bcd60e51b8152602060048201526012602482015271092dcecc2d8d2c840e6cae840d8cadccee8d60731b6044820152606490fd5b91600161421e6142309360ff8151614217885491838360101c16146141b6565b1690614916565b93019060ff165f5260205260405f2090565b905f526020526001600160801b0360405f205416151590565b60011b906101fe60fe8316921682036121a657565b60ff1660ff039060ff82116121a657565b60ff5f199116019060ff82116121a657565b9190600a60ff8416908110908115614318575b506143095760ff169081156142fa5760ff16908111908115916142ec575b506142dd576142c561089760ff9261425e565b9116116142ce57565b634536996f60e11b5f5260045ffd5b63f972d94760e01b5f5260045ffd5b905060ff831611155f6142b2565b6333daba6760e11b5f5260045ffd5b63deb09b3160e01b5f5260045ffd5b60809150115f614294565b94919360ff61435794610775989682948952602089015216604087015216606085015260c0608085015260c0840190610e92565b9160a0818403910152610e92565b9291610775949261438161439493608087526080870190610e92565b9160208601528482036040860152610e92565b916060818403910152610e92565b9160206006546143e46143bd825f52600260205260405f2090565b6143cf6143c98761354f565b51615193565b6143de61391061390a89613561565b916151fc565b600988015492979094919290614406601083901c6001600160a01b03166107c1565b90545f61441a60ff85169460081c60ff1690565b9661443d89886040519a8b98899788966335b98bad60e01b885260048801614323565b03925af18015610a12577f40ba84d0f10f5f2a3333820356dee2b6f2a15831148353187837343b513b4ae8925f916144a2575b509461449d6006549461448f61390a6144888561354f565b5194613561565b519360405194859485614365565b0390a2565b6144bb915060203d602011610a0b576109f68183610686565b5f614470565b5f92918082118061456b575b614509575b50506006546040518381527f8b33e5d3f2111dbe0069093632772b6795dfdaa7282cb1d39582c0ca4127edbb90806020810161449d565b9080929350039081116121a65760105481039081116121a657614538670de0b6b3a764000091600f5490613a12565b601354919004919061456490839060581c6001600160a01b03166011546001600160a01b0316906140ee565b5f806144d2565b508082038281116121a657601054106144cd565b5f1981146121a65760010190565b906145a161459c60065461457f565b600655565b6014546145b6906001600160a01b03166107c1565b60065490803b156104f3576040516399e0b9e560e01b81526004810192909252602482018490525f908290604490829084905af18015610a1257614899575b5061460a6006545f52600360205260405f2090565b91614622612ce061461c600a546136a1565b83613a12565b908184556007546001850155614640612ce0600b5460075490613a12565b60028501555f60058501555f600685015561465d60085460ff1690565b6146756009860191829060ff1660ff19825416179055565b6017546146a9906001600160a01b0316825462010000600160b01b03191660109190911b62010000600160b01b0316178255565b600d54600486015560078501849055805460ff60b01b191681556008549461471e6147146146d960ff89166154c3565b60ff6147076146f86146ea8a6139d6565b613dc4613d5a600b546136a1565b9260088c901c60ff1693615553565b9116818082119118021890565b9660181c60ff1690565b9560ff87168110614887576006546040805192835260ff891660208401526147be946107c19490939092917f8ed768d0cd80e090d9f4d2e7d02a52dc20501c9fb4ffff8d2a0130d69ccc591f91a25b815461ff001916600889901b61ff00161782556147a4886147986006545f52600260205260405f2090565b60085460ff169061557c565b600e54600391909101555460101c6001600160a01b031690565b9260065493803b156104f357604051634846e20360e11b815260048101959095525f908590602490829084905af1908115610a12577ffa546b15d37219324b25dae0fd72579de792b3816f6365af0438b78d1f3454919461449d92614873575b50600654956007549061483360085460ff1690565b600e5492604051978897889360ff929060c0969299989794849260e088019b88526020880152604087015216606085015216608083015260a08201520152565b80610a255f61488193610686565b5f61481e565b60ff1695506147be916107c19161476d565b80610a255f6148a793610686565b5f6145f5565b60ff81116148bb5760ff1690565b636a2f1fc960e11b5f5260045ffd5b156148d157565b60405162461bcd60e51b815260206004820152601760248201527f4475706c6963617465206e756d62657220696e207365740000000000000000006044820152606490fd5b9190614924835115156141b6565b5f90815b84518310156149e8578160ff61493e8588613571565b51161115806149d2575b156149955760019061497c61497461496a614963878a613571565b5160ff1690565b60ff600191161b90565b8216156148ca565b61498c61496a6149638689613571565b17920191614928565b60405162461bcd60e51b815260206004820152601560248201527424b73b30b634b21039b2ba1039b2b632b1ba34b7b760591b6044820152606490fd5b5060ff6149df8487613571565b51161515614948565b93505050565b6040516323b872dd60e01b60208201526001600160a01b0392831660248201529290911660448301526064808301939093529181526106b691614129608483610686565b929192600654614a4f6009611a25835f52600360205260405f2090565b610d1c57614a65905f52600360205260405f2090565b5415614af357601354614a7c9060081c60ff161590565b614ae4575115614ad5576001600160a01b031615614ac6578151905103614ab7575160125410614aa857565b63d4920c9360e01b5f5260045ffd5b6307125e1360e11b5f5260045ffd5b634e46966960e11b5f5260045ffd5b638e71bef960e01b5f5260045ffd5b6329bd37ef60e11b5f5260045ffd5b637acae12360e11b5f5260045ffd5b9291604084019360408152825180955260206060820193015f955b808710614b395750506107759394506020818403910152610e92565b81516001600160a01b031685526001969096019560209485019490910190614b1d565b919091828210614b6b57505050565b5f5260205f2091820191015b818110614b82575050565b5f8155600101614b77565b81518051906001600160401b03821161064a57600160401b821161064a57602090614bbd83855481875586614b5c565b01825f5260205f205f5b838110614c355750505050600160209101910151908151916001600160401b03831161064a57600160401b831161064a57602090614c0a84845481865585614b5c565b01905f5260205f205f5b838110614c215750505050565b600190602084519401938184015501614c14565b82516001600160a01b031681830155602090920191600101614bc7565b93915f945f948351614c65575b50505050565b614c77939650612ce092949550613a12565b926040516020810190614c9d81614c8f868686614b02565b03601f198101835282610686565b519020935f945f5b8351811015614d9657614cbe6107c1613f728387613571565b1561163f57614ccd8186613571565b5115614d875780614d38614cf0612ce0614ce96001958a613571565b5187613a12565b98614d1a614d01613f72858a613571565b6001600160a01b03165f90815260046020526040902090565b614d258b82546136e6565b9055614d318389613571565b51906136e6565b977f67b62898b5858ba6c28e007932ff9aa2ff4eafb08d30da633e99a70bc3975f9f614d7e614d6d6107c1613f72868b613571565b604051938452929081906020820190565b0390a201614ca5565b631ccba14360e21b5f5260045ffd5b509392919094670de0b6b3a764000003614e32578391614dbe835f52600560205260405f2090565b5415614dcb575b80614c5f565b7fc983751c2436bc8a69b725e39168083df20644c0c45dcbd33afe6cd62fc567ca91614e18614df86106c8565b828152836020820152614e13865f52600560205260405f2090565b614b8d565b614e2760405192839283614b02565b0390a2815f80614dc5565b6307c3e09160e01b5f5260045ffd5b90614e6260609360ff92979695978452608060208501526080840190612027565b951660408201520152565b91949392614e856006545f52600260205260405f2090565b91614e9081516139a4565b965f5b825181101561508957614ea68184613571565b519060058251510361507a5760208201805160ff1660ff614ed261089760098c015460ff9060081c1690565b9116908111908115615071575b506150625782828c92614f0d8b9651614f066020614efd868d613571565b51015160ff1690565b908c615623565b969094614f5f614f2c614f278660056006549601546136e6565b6136d8565b604051614f5481614c8f8b602083019589876040919493926060820195825260208201520152565b519020948592613571565b52601554614f75906001600160a01b03166107c1565b90813b156104f357604051631b6b21a760e11b81526001600160a01b038a1660048201526024810185905260448101919091526064810195909552608485018a90525f90859060a490829084905af1908115610a12576001968d957f1171a0297accb0ea82123a0d9bcf24aac48153f56e53e55b55bac3409d37b3729361504e575b5061502a575b6006549351905160ff16906150218b6040519384938b8060a01b038d169785614e41565b0390a401614e93565b6150476150408d60028a820154910154906136cb565b8d546136e6565b8c55614ffd565b80610a255f61505c93610686565b5f614ff7565b6363dd5e1560e01b5f5260045ffd5b9050155f614edf565b630b2b1ef760e21b5f5260045ffd5b50505050505050565b7f01010101010101010101010101010101010101010101010101010101010101017f0f0f0f0f0f0f0f0f0f0f0f0f0f0f0f0f0f0f0f0f0f0f0f0f0f0f0f0f0f0f0f0f7f55555555555555555555555555555555555555555555555555555555555555558360011c1683037f3333333333333333333333333333333333333333333333333333333333333333808260021c169116018060041c01160260f81c905f191460081b1790565b905f602091828151910182855af1156135b6575f513d61518a57506001600160a01b0381163b155b61516a5750565b635274afe760e01b5f9081526001600160a01b0391909116600452602490fd5b60011415615163565b90815161519f816139a4565b905f5b8181106151b0575090925050565b806151c061391060019388613571565b60ff6151cc8387613571565b91169052016151a2565b60ff60019116019060ff82116121a657565b9060ff8091169116019060ff82116121a657565b90929192815493600160ff61521e6152178289168096614916565b94846151e8565b161b821792601086901c60ff169261524861524361089761523e876151d6565b614249565b6139a4565b9661526561525e61524361089761523e896151d6565b9560ff1690565b9561526f87615801565b925f5b888110615471575060019261528d915060081c60ff16610897565b9460ff8116925b60ff811687811161544d57841460015b8c8b60ff831611156152c1575050506152bc906155f5565b615294565b92999a949796956152e26152dc610897949e94849c9461426f565b88613571565b51985f5b8a5181101561543157808f8f908f908f908f90958f8c906001985f146153cc576153906153846153bd8661536a876153648f9c806108979a6153c49f8f6153649f61539b9f6108976153969f6153906153846153776153649661536a61539b976153646153ac9c61539698019e8f9060ff165f5260205260405f2090565b92613571565b515f5260205260405f2090565b546001600160801b031690565b6001600160801b031690565b94614249565b6151d6565b916153a68386613571565b516136e6565b529060ff165f5260205260405f2090565b5460801c90565b525b016152e6565b6153846153bd8561536a866153648b8f9c610897996153ac61542b9f8f906153649f61539b9f6154256154259f61537761539b9461536a610897956153646153649961538496019d8e9060ff165f5260205260405f2090565b93614249565b526153c6565b50959b9a93509596975097615448909b919b6155f5565b6152a4565b505096509790506106b69350615467929694915086615856565b9081948196615a1e565b806154896154836001939c969c6136d8565b84615af3565b6154938288613571565b5261549e8187613571565b5001989298615272565b156154af57565b634e487b7160e01b5f52600160045260245ffd5b6154d060058210156154a8565b6154dd60808211156154a8565b600180915b60058311156154f15750905090565b5f198101918315613711576001840193910204906154e2565b90615517818310156154a8565b61552460808311156154a8565b6001906001925b8184111561553a575050905090565b5f1981019284156137115760018501949102049161552b565b90801561556a576001905f19830104019015150290565b634e487b715f5260126020526024601cfd5b805460ff191660ff928316178155916155a49190835461ff001916911660081b61ff00161790565b62ff0000191662050000179055565b156155ba57565b60405162461bcd60e51b8152602060048201526013602482015272092dcecc2d8d2c840e0d2c6d640d8cadccee8d606b1b6044820152606490fd5b60ff1660ff81146121a65760010190565b6001600160801b03166001600160801b0381146121a65760010190565b9061565690939293615650610897825161089786549161564a6108978460ff9060101c1690565b146155b3565b90614916565b60018201906001600160801b0361568c6153778361567f89879060ff165f5260205260405f2090565b905f5260205260405f2090565b161515906001945b84546156a59060101c60ff16610897565b60ff871690811161579b576156ba9083615af3565b945f5b8651811015615784576001908515615736576157306156f46156ea8c8a9060ff165f5260205260405f2090565b61536a848c613571565b615707615702825460801c90565b615606565b81546001600160801b031660809190911b6fffffffffffffffffffffffffffffffff1916179055565b016156bd565b61577f6157516156ea8c8a9060ff165f5260205260405f2090565b61576561570282546001600160801b031690565b6001600160801b03166001600160801b0319825416179055565b615730565b5092945094615792906155f5565b94939193615694565b5095909361496a9295506157dd93506157d790865f146157e1576157d06156f484600284019060ff165f5260205260405f2090565b5460ff1690565b906151e8565b1791565b6157fc61575184600284019060ff165f5260205260405f2090565b6157d0565b9061580b826106d7565b6158186040519182610686565b8281528092615829601f19916106d7565b01905f5b82811061583957505050565b80606060208093850101520161582d565b80156121a6575f190190565b91929061586381516139a4565b9361587f61089761587483516139a4565b955460101c60ff1690565b90815b60018110156158915750505050565b6158a361589d826139fa565b85613571565b51906158ba6158b4614f27836139fa565b86613571565b516158c761589d836139fa565b516158d76158b4614f27856139fa565b51916158e2846136d8565b8781111561594b5750615946946159016158fb866139fa565b8d613571565b52615917615911614f27866139fa565b8c613571565b5261592a615924846139fa565b8a613571565b5261594061593a614f27846139fa565b89613571565b5261584a565b615882565b939492615958868661550a565b938c615963876139fa565b61596c91613571565b516159779086613a12565b615980916136cb565b918c61598b876139fa565b615994906136d8565b61599d91613571565b516159a89086613a12565b6159b1916136cb565b926159bb866139fa565b6159c5908d613571565b516159d09086613a12565b6159d9916136cb565b936159e3866139fa565b6159ec906136d8565b6159f6908d613571565b51615a0091613a12565b615a09916136cb565b93615a139061457f565b9493929190946158e2565b9291906153846153bd615a669260028701615a5d6001600160801b03615a4f84849060ff165f5260205260405f2090565b54166001600160801b031690565b6153ac87613561565b615a6f83613561565b5260015b8354615a849060101c60ff16610897565b8111614c5f57610897615aeb82615abc615aac615aa6614f27615a84976139fa565b87613571565b51615ab687613561565b516136cb565b615ac586613561565b52615ae2615ad86152dc614f27846139fa565b51615ab688613561565b6121a087613561565b915050615a73565b9091615afe82615092565b91615b0b838511156154a8565b615b18615243858561550a565b925f91600180831b90871b5f19015b818110615b46575050506106b6929394615b409161550a565b146154a8565b92909391965f95889285965f945b610100861080615bec575b15615bae57600180821614615b7d575b600190811c5b950194615b54565b97600180821614615ba1575b615b75615b9860019260011c90565b99915050615b6f565b6001861b90991798615b89565b50949650949198925095615bc6600187019689613571565b52615be3815f038216615bde81840193841860021c90565b613707565b17919091615b27565b50801515615b5f56fea264697066735822122004ca1b91ce7048d9b7358eb93e1d69c1a87c0473a544a1e61c7f6da64dca495464736f6c634300081c0033",
  "linkReferences": {},
  "deployedLinkReferences": {}
}