{
  "_format": "hh-sol-artifact-1",
  "contractName": "BuyTicketsHelpersTester",
  "sourceName": "contracts/mocks/BuyTicketsHelpersTester.sol",
  "abi": [
    {
      "inputs": [],
      "name": "InvalidNormalBallCount",
      "type": "error"
    },
    {
      "inputs": [],
      "name": "InvalidReferralSplitBps",
      "type": "error"
    },
    {
      "inputs": [],
      "name": "InvalidStaticTicket",
      "type": "error"
    },
    {
      "inputs": [],
      "name": "ReferralSplitLengthMismatch",
      "type": "error"
    },
    {
      "inputs": [],
      "name": "ReferralSplitSumInvalid",
      "type": "error"
    },
    {
      "inputs": [],
      "name": "RepeatedNormalBall",
      "type": "error"
    },
    {
      "inputs": [],
      "name": "TooManyReferrers",
      "type": "error"
    },
    {
      "inputs": [],
      "name": "ZeroAddress",
      "type": "error"
    },
    {
      "anonymous": false,
      "inputs": [
        {
          "indexed": true,
          "internalType": "address",
          "name": "recipient",
          "type": "address"
        },
        {
          "indexed": false,
          "internalType": "uint8[]",
          "name": "normals",
          "type": "uint8[]"
        },
        {
          "indexed": false,
          "internalType": "uint8",
          "name": "bonusball",
          "type": "uint8"
        }
      ],
      "name": "StaticTicketValidated",
      "type": "event"
    },
    {
      "anonymous": false,
      "inputs": [
        {
          "indexed": true,
          "internalType": "address",
          "name": "recipient",
          "type": "address"
        },
        {
          "indexed": false,
          "internalType": "uint8[]",
          "name": "normals",
          "type": "uint8[]"
        },
        {
          "indexed": false,
          "internalType": "uint8",
          "name": "bonusball",
          "type": "uint8"
        }
      ],
      "name": "StaticTicketValidated",
      "type": "event"
    },
    {
      "inputs": [
        {
          "internalType": "contract IJackpot",
          "name": "jackpot",
          "type": "address"
        },
        {
          "internalType": "address[]",
          "name": "referrers",
          "type": "address[]"
        },
        {
          "internalType": "uint256[]",
          "name": "referralSplit",
          "type": "uint256[]"
        }
      ],
      "name": "validateReferrers",
      "outputs": [],
      "stateMutability": "view",
      "type": "function"
    },
    {
      "inputs": [
        {
          "components": [
            {
              "internalType": "uint8[]",
              "name": "normals",
              "type": "uint8[]"
            },
            {
              "internalType": "uint8",
              "name": "bonusball",
              "type": "uint8"
            }
          ],
          "internalType": "struct IJackpot.Ticket[]",
          "name": "userStaticTickets",
          "type": "tuple[]"
        },
        {
          "internalType": "uint8",
          "name": "normalBallMax",
          "type": "uint8"
        },
        {
          "internalType": "uint8",
          "name": "bonusballMax",
          "type": "uint8"
        },
        {
          "internalType": "address",
          "name": "recipient",
          "type": "address"
        }
      ],
      "name": "validateTickets",
      "outputs": [],
      "stateMutability": "nonpayable",
      "type": "function"
    }
  ],
  "bytecode": "0x60808060405234601557610629908161001a8239f35b5f80fdfe60806040526004361015610011575f80fd5b5f3560e01c8063190bf6cb146102805763a856a2a31461002f575f80fd5b34610239576060366003190112610239576004356001600160a01b038116908190036102395760243567ffffffffffffffff811161023957610075903690600401610552565b9160443567ffffffffffffffff811161023957610096903690600401610552565b936100a0816105b3565b936100ae6040519586610591565b818552602085019160051b81019036821161023957915b818310610260575050506100d8846105b3565b936100e66040519586610591565b808552602085019060051b82019136831161023957905b8282106102505750505060206004916040519283809263ce3820d160e01b82525afa908115610245575f9161020f575b508151835103610200578151116101f157805161014657005b5f91825b82518410156101cd576001600160a01b0361016585856105cb565b5116156101be5761017684836105cb565b51156101af5761018684836105cb565b51810180911161019b5760019093019261014a565b634e487b7160e01b5f52601160045260245ffd5b631ccba14360e21b5f5260045ffd5b63d92e233d60e01b5f5260045ffd5b915050670de0b6b3a76400009150036101e257005b6307c3e09160e01b5f5260045ffd5b63d4920c9360e01b5f5260045ffd5b6307125e1360e11b5f5260045ffd5b90506020813d60201161023d575b8161022a60209383610591565b8101031261023957515f61012d565b5f80fd5b3d915061021d565b6040513d5f823e3d90fd5b81358152602091820191016100fd565b82356001600160a01b0381168103610239578152602092830192016100c5565b346102395760803660031901126102395760043567ffffffffffffffff8111610239576102b1903690600401610552565b60243560ff81168091036102395760443560ff8116809103610239576064356001600160a01b0381169390849003610239576102ec816105b3565b946102fa6040519687610591565b818652602086019160051b8101903682116102395780925b82841061046b57505050505f5b84518110156104695761033281866105cb565b519060058251510361045a575f805b835180518310156103ab576103588360ff926105cb565b51166001811b908781159182156103a1575b5050610392578082166103835760019117910190610341565b630167757b60e31b5f5260045ffd5b6322c4884360e11b5f5260045ffd5b119050878b61036a565b50505090602081019060ff825116848115918215610450575b50506103925760ff86919392935193511660405190604082016040835285518091526020606084019601905f905b8082106104315750505090806001957f95f98176980d9b7f0025242f21165accbd2dcab2079149c6ea8a96859b80678e9360208301520390a20161031f565b825160ff1688526020978801978b9650909201916001909101906103f2565b11905084896103c4565b6309a1450560e41b5f5260045ffd5b005b833567ffffffffffffffff811161023957820160408136031261023957604051906040820182811067ffffffffffffffff82111761053e57604052803567ffffffffffffffff811161023957810136601f82011215610239578035906104d0826105b3565b916104de6040519384610591565b80835260208084019160051b8301019136831161023957602001905b828210610526575050509161051760208095938195845201610583565b83820152815201930192610312565b6020809161053384610583565b8152019101906104fa565b634e487b7160e01b5f52604160045260245ffd5b9181601f840112156102395782359167ffffffffffffffff8311610239576020808501948460051b01011161023957565b359060ff8216820361023957565b90601f8019910116810190811067ffffffffffffffff82111761053e57604052565b67ffffffffffffffff811161053e5760051b60200190565b80518210156105df5760209160051b010190565b634e487b7160e01b5f52603260045260245ffdfea264697066735822122096c05db077bb1c3e8031f7ad7f7bff172f8f5b07c1e0aeb857d195297a90f0b364736f6c634300081c0033",
  "linkReferences": {},
  "deployedLinkReferences": {}
}