{
  "_format": "hh-sol-artifact-1",
  "contractName": "JackpotRandomTicketBuyer",
  "sourceName": "contracts/JackpotRandomTicketBuyer.sol",
  "abi": [
    {
      "inputs": [
        {
          "internalType": "address",
          "name": "_jackpot",
          "type": "address"
        },
        {
          "internalType": "address",
          "name": "_usdc",
          "type": "address"
        }
      ],
      "stateMutability": "nonpayable",
      "type": "constructor"
    },
    {
      "inputs": [],
      "name": "InvalidRecipient",
      "type": "error"
    },
    {
      "inputs": [],
      "name": "InvalidTicketCount",
      "type": "error"
    },
    {
      "inputs": [],
      "name": "ReentrancyGuardReentrantCall",
      "type": "error"
    },
    {
      "inputs": [
        {
          "internalType": "address",
          "name": "token",
          "type": "address"
        }
      ],
      "name": "SafeERC20FailedOperation",
      "type": "error"
    },
    {
      "anonymous": false,
      "inputs": [
        {
          "indexed": true,
          "internalType": "address",
          "name": "recipient",
          "type": "address"
        },
        {
          "indexed": true,
          "internalType": "uint256",
          "name": "drawingId",
          "type": "uint256"
        },
        {
          "indexed": false,
          "internalType": "uint256",
          "name": "count",
          "type": "uint256"
        },
        {
          "indexed": false,
          "internalType": "uint256",
          "name": "cost",
          "type": "uint256"
        },
        {
          "indexed": false,
          "internalType": "uint256[]",
          "name": "ticketIds",
          "type": "uint256[]"
        }
      ],
      "name": "RandomTicketsBought",
      "type": "event"
    },
    {
      "inputs": [
        {
          "internalType": "uint256",
          "name": "_count",
          "type": "uint256"
        },
        {
          "internalType": "address",
          "name": "_recipient",
          "type": "address"
        },
        {
          "internalType": "address[]",
          "name": "_referrers",
          "type": "address[]"
        },
        {
          "internalType": "uint256[]",
          "name": "_referralSplitBps",
          "type": "uint256[]"
        },
        {
          "internalType": "bytes32",
          "name": "_source",
          "type": "bytes32"
        }
      ],
      "name": "buyTickets",
      "outputs": [
        {
          "internalType": "uint256[]",
          "name": "ticketIds",
          "type": "uint256[]"
        }
      ],
      "stateMutability": "nonpayable",
      "type": "function"
    },
    {
      "inputs": [],
      "name": "jackpot",
      "outputs": [
        {
          "internalType": "contract IJackpot",
          "name": "",
          "type": "address"
        }
      ],
      "stateMutability": "view",
      "type": "function"
    },
    {
      "inputs": [],
      "name": "nonce",
      "outputs": [
        {
          "internalType": "uint256",
          "name": "",
          "type": "uint256"
        }
      ],
      "stateMutability": "view",
      "type": "function"
    },
    {
      "inputs": [],
      "name": "usdc",
      "outputs": [
        {
          "internalType": "contract IERC20",
          "name": "",
          "type": "address"
        }
      ],
      "stateMutability": "view",
      "type": "function"
    }
  ],
  "bytecode": "0x60c03461009357601f610f0138819003918201601f19168301916001600160401b0383118484101761009757808492604094855283398101031261009357610052602061004b836100ab565b92016100ab565b6001600160a01b039182166080521660a052604051610e4190816100c082396080518181816102b80152610379015260a05181818161027401526103fe0152f35b5f80fd5b634e487b7160e01b5f52604160045260245ffd5b51906001600160a01b03821682036100935756fe60806040526004361015610011575f80fd5b5f3560e01c8063017d1217146100545780633e413bee1461004f5780636b31ee011461004a5763affed0e014610045575f80fd5b6102e7565b6102a3565b61025f565b346101185760a03660031901126101185760043560243561007481610136565b6044359167ffffffffffffffff83116101185736602384011215610118578260040135926100a1846101a3565b936100af604051958661015b565b8085526024602086019160051b8301019136831161011857602401905b82821061011c575050506064359167ffffffffffffffff831161011857610114936100fe6101089436906004016101bb565b9160843593610303565b6040519182918261024b565b0390f35b5f80fd5b60208091833561012b81610136565b8152019101906100cc565b6001600160a01b0381160361011857565b634e487b7160e01b5f52604160045260245ffd5b90601f8019910116810190811067ffffffffffffffff82111761017d57604052565b610147565b604051906101926101a08361015b565b565b6040519061019260408361015b565b67ffffffffffffffff811161017d5760051b60200190565b9080601f830112156101185781356101d2816101a3565b926101e0604051948561015b565b81845260208085019260051b82010192831161011857602001905b8282106102085750505090565b81358152602091820191016101fb565b90602080835192838152019201905f5b8181106102355750505090565b8251845260209384019390920191600101610228565b90602061025c928181520190610218565b90565b34610118575f366003190112610118576040517f00000000000000000000000000000000000000000000000000000000000000006001600160a01b03168152602090f35b34610118575f366003190112610118576040517f00000000000000000000000000000000000000000000000000000000000000006001600160a01b03168152602090f35b34610118575f3660031901126101185760205f54604051908152f35b93909192937f9b779b17422d0df92223018b32b4d1fa46e071723d6817e2486d003becc55f005c61061c5760017f9b779b17422d0df92223018b32b4d1fa46e071723d6817e2486d003becc55f005d801561060d576001600160a01b0383169283156105fe57604051631380204360e31b8152947f00000000000000000000000000000000000000000000000000000000000000006001600160a01b0316602087600481845afa96871561056c575f976105cd575b50604051636c687add60e11b815260048101889052926101a084602481855afa801561056c575f94859161059e575b506103f6602082015187610738565b96602061045b7f00000000000000000000000000000000000000000000000000000000000000006104298b30338461094b565b60405163095ea7b360e01b81526001600160a01b0388166004820152602481018c905298899283919082906044820190565b03926001600160a01b03165af195861561056c576104b45f97936104d2928995610571575b5061048b8554610764565b908186558a6104ae6101406104a561012085015160ff1690565b93015160ff1690565b926109f7565b604051636f44614560e11b81529c8d97889687959360048701610828565b03925af194851561056c575f95610524575b50907f43d8f5f712610cf4aa016385d15a3b8c9890c164b8db03336985bbd549f651dd91610518866040519384938461090a565b0390a390610192610926565b7f43d8f5f712610cf4aa016385d15a3b8c9890c164b8db03336985bbd549f651dd92919550610564903d805f833e61055c818361015b565b810190610772565b9490916104e4565b61063a565b6105929060203d602011610597575b61058a818361015b565b810190610750565b610480565b503d610580565b6105c091506101a03d81116105c6575b6105b8818361015b565b81019061066b565b5f6103e7565b503d6105ae565b6105f091975060203d6020116105f7575b6105e8818361015b565b81019061062b565b955f6103b8565b503d6105de565b634e46966960e11b5f5260045ffd5b638e71bef960e01b5f5260045ffd5b633ee5aeb560e01b5f5260045ffd5b90816020910312610118575190565b6040513d5f823e3d90fd5b519060ff8216820361011857565b519061019282610136565b5190811515820361011857565b90816101a09103126101185761071b610180610685610182565b92805184526020810151602085015260408101516040850152606081015160608501526080810151608085015260a081015160a085015260c081015160c085015260e081015160e08501526101008101516101008501526106e96101208201610645565b6101208501526106fc6101408201610645565b61014085015261070f6101608201610653565b6101608501520161065e565b61018082015290565b634e487b7160e01b5f52601160045260245ffd5b8181029291811591840414171561074b57565b610724565b908160209103126101185761025c9061065e565b5f19811461074b5760010190565b6020818303126101185780519067ffffffffffffffff821161011857019080601f830112156101185781516107a6816101a3565b926107b4604051948561015b565b81845260208085019260051b82010192831161011857602001905b8282106107dc5750505090565b81518152602091820191016107cf565b90602080835192838152019201905f5b8181106108095750505090565b82516001600160a01b03168452602093840193909201916001016107fc565b95949392909160a0870160a08852835180915260c0880190602060c08260051b8b01019501915f905b82821061089857505050506001600160a01b03166020870152608092610893929091610885919088820360408a01526107ec565b908682036060880152610218565b930152565b9091929560bf198b820301825286519060408101918051926040835283518091526020606084019401905f905b8082106108ef575050506001926020928360ff818095015116910152980192019201909291610851565b90919460208060019260ff89511681520196019201906108c5565b61025c9392606092825260208201528160408201520190610218565b5f7f9b779b17422d0df92223018b32b4d1fa46e071723d6817e2486d003becc55f005d565b6040516323b872dd60e01b60208083019182526001600160a01b039485166024840152949093166044820152606480820195909552938452925f919061099260848261015b565b519082855af11561063a575f513d6109d957506001600160a01b0381163b155b6109b95750565b635274afe760e01b5f9081526001600160a01b0391909116600452602490fd5b600114156109b2565b604051906109f160608361015b565b60228252565b929190610a026109e2565b60208101907f6d656761706f742e76322e7469636b65745f7069636b65722e7069636b5f6175825261746f60f01b60408201525190205f19430143811161074b5761025c9560405191602083019384523060408401524660608401524460808401524060a083015260c082015260c08152610a7e60e08261015b565b519020610b27565b604051906040820182811067ffffffffffffffff82111761017d576040525f602083606081520152565b90610aba826101a3565b610ac7604051918261015b565b8281528092610ad8601f19916101a3565b01905f5b828110610ae857505050565b602090610af3610a86565b82828501015201610adc565b8051821015610b135760209160051b010190565b634e487b7160e01b5f52603260045260245ffd5b939290918215610ba357610b3a83610ab0565b945f5b848110610b4b575050505050565b604080516020810184815291810183905260019291610b879187918791610b7f81606081015b03601f19810183528261015b565b519020610be1565b610b91828a610aff565b52610b9c8189610aff565b5001610b3d565b60405162461bcd60e51b8152602060048201526016602482015275141a58dac8185d081b19585cdd080c481d1a58dad95d60521b6044820152606490fd5b9091610beb610a86565b5060ff604051936315a409df60e31b855260016004860152166024840152600560448401528160648401525f8360848173__$f7b56129a109e8cfdd105a93f7993108ed$__5af492831561056c575f93610c67575b5061025c9160ff610c52921690610d77565b610c5a610194565b92835260ff166020830152565b610c529193509160ff610c8661025c943d805f833e61055c818361015b565b9492505091610c40565b15610c9757565b60405162461bcd60e51b815260206004820152600b60248201526a092dcecc2d8d2c840dac2f60ab1b6044820152606490fd5b634e487b7160e01b5f52601260045260245ffd5b8015610cea575f190490565b610cca565b604051610cfd60608261015b565b602781527f6d656761706f742e76322e7469636b65745f7069636b65722e7069636b5f626f6020820152661b9d5cd8985b1b60ca1b6040909101527f933002008674cb2c329a0af0ac39a47561460df9fe9ad91186b087d50844116c90565b8115610cea570690565b60ff166001019060ff821161074b57565b9080151580610e00575b610d8a90610c90565b610d9c81610d9781610cde565b610738565b915b610b71610dd8610dac610cef565b6040805160208101928352469181019190915230606082015260808101949094529291829060a0820190565b51902082811015610d9e5761025c9250610dfb91610df591610d5c565b60ff1690565b610d66565b5060ff811115610d8156fea2646970667358221220d3e237d8b4c0615b47f9fb757dfeb463f48449cf9718afdf08e13e929e37982264736f6c634300081c0033",
  "linkReferences": {
    "contracts/lib/FisherYatesWithRejection.sol": {
      "FisherYatesRejection": [
        {
          "length": 20,
          "start": 3293
        }
      ]
    }
  },
  "deployedLinkReferences": {
    "contracts/lib/FisherYatesWithRejection.sol": {
      "FisherYatesRejection": [
        {
          "length": 20,
          "start": 3101
        }
      ]
    }
  }
}